:020000040800F2
:10000000200400204501000875040008570300087B
:10001000E10300088D010008FD0900080000000050
:10002000000000000000000000000000ED070008D4
:100030003102000800000000A90700087509000847
:100040005F0100085F0100085F0100085F01000810
:100050005F0100085F0100085F0100085F01000800
:100060005F0100085F0100085F0100085F010008F0
:100070005F0100085F0100085F0100085F010008E0
:100080005F0100085F0100085F0100085F010008D0
:100090005F0100085F0100085F0100085F010008C0
:1000A0005F0100085F0100085F0100085F010008B0
:1000B0005F0100085F0100085F0100085F010008A0
:1000C0005F0100085F0100085F0100085F01000890
:1000D0005F0100085F0100085F0100085F01000880
:1000E0005F0100085F0100085F0100085F01000870
:1000F0005F0100085F0100085F0100085F01000860
:100100005F0100085F0100085F0100085F0100084F
:100110005F0100085F0100085F0100085F0100083F
:100120005F0100085F0100085F0100085F0100082F
:10013000DFF80CD000F018F800480047210A00084A
:10014000200400200648804706480047FEE7FEE7F7
:10015000FEE7FEE7FEE7FEE7FEE7FEE7FEE7FEE777
:100160009D09000831010008064C074D06E0E068D3
:1001700040F0010394E8070098471034AC42F6D3EE
:10018000FFF7DAFFF01000081011000800BFFEE7CB
:1001900000F0805111B10349086001E00249486054
:1001A00070470000040402400000024021B10268D0
:1001B00042F00102026004E002684FF6FE731A404A
:1001C0000260704701460020002201F0805313B105
:1001D000054B1A6801E0054B1A6802EA01030BB1EE
:1001E000012000E0002070470004024000000240AF
:1001F00010B50022026847F6F0739A430C6A8B68C8
:1002000023430C6923434C6923438C692343CC6902
:1002100023434C6A23438C6A23431A430260CB680E
:1002200043600B6883604B68C36010BD41607047DA
:1002300070472DE9F04102460025002600200023EA
:100240000024002791F803C00CF00F0591F803C0BB
:100250000CF0100CBCF1000F03D091F802C04CEA76
:10026000050591F800C0BCF1000F31D014680020E2
:100270002BE04FF0010C0CFA00F3B1F800C00CEACF
:1002800003069E4220D183004FF00F0C0CFA03F7B7
:10029000BC4305FA03FC4CEA040491F803C0BCF12A
:1002A000280F06D14FF0010C0CFA00FCC2F814C064
:1002B0000AE091F803C0BCF1480F05D14FF0010CE2
:1002C0000CFA00FCC2F810C0401C0828D1D31460FE
:1002D000B1F800C0BCF1FF0F34DD546800202EE0FF
:1002E00000F1080C4FF0010808FA0CF3B1F800C057
:1002F0000CEA03069E4221D183004FF00F0C0CFA4A
:1003000003F7BC4305FA03FC4CEA040491F803C06C
:10031000BCF1280F05D100F1080C08FA0CF8C2F85E
:10032000148091F803C0BCF1480F07D100F1080C0C
:100330004FF0010808FA0CF8C2F81080401C082899
:10034000CED35460BDE8F081016170470AB101610C
:1003500000E04161704700BFFEE7000010B500F00B
:100360000BFB00F00DF800F015F9042202490348D8
:1003700000F038F810BD0000180000201400002024
:1003800008B50121082000F021FA2020ADF8000076
:1003900010208DF8030003208DF8020069460F48F5
:1003A000FFF747FF0120ADF8000069460B48FFF753
:1003B00040FF0220ADF8000069460848FFF739FF0A
:1003C00020210648FFF7C0FF01210448FFF7BCFFCA
:1003D00002210248FFF7B8FF08BD0000000C0140F1
:1003E00000BFFEE770B58CB005460E4614461148B6
:1003F00004800121084600F0D9F9019500200790FA
:100400004020059002960020089080200690002051
:100410000390049409904FF480400B9080100A9050
:1004200001A90548FFF7E4FE00210348FFF7BEFEDF
:100430000CB070BD1E0000200800024010B5002165
:100440000A48FFF7B3FE0A4801880848FFF7EEFEA6
:1004500001210648FFF7AAFE00BF0220FFF7B2FE07
:100460000028FAD00220FFF793FE10BD08000240DA
:100470001E000020704770B500240EE000212046C9
:1004800000F0E9F8002504E0002000F07DF9681C88
:10049000C5B2802DF8DB601CC4B2082CEEDB70BD49
:1004A00008B50121082000F091F914208DF803000F
:1004B00003208DF802004020ADF8000069460A488C
:1004C000FFF7B7FE8020ADF8000069460648FFF749
:1004D000B0FE012240210448FFF738FF01228021AD
:1004E0000148FFF733FF08BD000C014070B5054619
:1004F000002413E08020204100EA050280210E48FC
:10050000FFF724FF012240210B48FFF71FFF0022C5
:1005100040210948FFF71AFF601CC4B2082CE9DB30
:10052000012240210448FFF711FF00224021024828
:10053000FFF70CFF70BD0000000C014010B5012258
:1005400080210948FFF702FF012240210648FFF7FA
:10055000FDFE002280210448FFF7F8FE0022402122
:100560000148FFF7F3FE10BD000C014010B500225A
:1005700080210748FFF7EAFE012240210448FFF7E7
:10058000E5FE012280210248FFF7E0FE10BD0000D9
:10059000000C014070B5002406E0002500E06D1C51
:1005A000B5F57A7FFBD3641CB4F57A7FF5D3FFF7FA
:1005B00077FFAE2000F0D8F8D52000F0D5F88020E5
:1005C00000F0D2F8A82000F0CFF83F2000F0CCF8DF
:1005D000D32000F0C9F8002000F0C6F8402000F059
:1005E000C3F8A12000F0C0F8C82000F0BDF8DA2060
:1005F00000F0BAF8122000F0B7F8812000F0B4F84B
:10060000CF2000F0B1F8D92000F0AEF8F12000F0D2
:10061000ABF8DB2000F0A8F8302000F0A5F8A4200B
:1006200000F0A2F8A62000F09FF88D2000F09CF8C2
:10063000142000F099F8AF2000F096F8FFF71BFFA8
:1006400070BD10B50246012000E050430B1EA1F121
:100650000101FAD110BD70B505460C4645F0B00059
:1006600000F082F8102141EA141000F07DF804F047
:100670000F0000F079F870BD2DE9F04105460E46F7
:100680001746721ED206110E6A1E5206100EFFF792
:10069000E2FF002409E0A7F12001134A02EB011157
:1006A000085D00F071F8601CC4B2082CF3DB721E08
:1006B000D206110E6A1E012303EB4202D0B2FFF7ED
:1006C000CAFF00240BE0A7F12001074A02EB011248
:1006D00004F10801505C00F057F8601CC4B2082C0B
:1006E000F1DBBDE8F0810000000B00082DE9F047C8
:1006F00081460E4690461F4600241DE0381B411ED1
:100700001020FFF79EFFB8FBF0F000F00F050A2D58
:1007100008DA05F13000C2B23019C1B24846FFF71D
:10072000ABFF07E005F13700C2B23019C1B248464D
:10073000FFF7A2FF601CC4B2BC42DFDBBDE8F0875C
:100740002DE9F04107460E461546002407E02A5DD4
:100750003019C1B23846FFF78FFF601CC4B2285D64
:100760000028F4D1BDE8F08110B50446FFF7E6FE9D
:100770007820FFF7BBFE0020FFF7B8FE2046FFF70A
:10078000B5FEFFF7F3FE10BD10B50446FFF7D6FE29
:100790007820FFF7ABFE4020FFF7A8FE2046FFF7CA
:1007A000A5FEFFF7E3FE10BD7047000029B1064A21
:1007B00052690243044B5A6104E0034A526982437E
:1007C000014B5A61704700000010024029B1064AEF
:1007D00092690243044B9A6104E0034A926982439E
:1007E000014B9A617047000000100240704710B53D
:1007F00000F002F810BD00000CB500200190009040
:100800003348006840F480303149086000BF304808
:10081000006800F4003000900198401C019000989E
:1008200018B90198B0F5A06FF1D12948006800F41B
:10083000003010B10120009001E0002000900098ED
:10084000012843D12348006840F010002149086086
:100850000846006820F0070008600846006840F07D
:10086000020008601A484068194948600846406814
:1008700048600846406840F4806048600846406828
:1008800020F47C1048600846406840F4E810486056
:100890000846006840F08070086000BF0C4800689F
:1008A00000F000700028F9D00948406820F00300EB
:1008B000074948600846406840F00200486000BFB1
:1008C0000348406800F00C000828F9D10CBD000076
:1008D000001002400020024030B50146B1F1807F97
:1008E00001D3012030BD21F07F40401E4FF0E022B7
:1008F000506150170F22002807DA13071D0E094B0D
:1009000000F00F04241F1D5503E013071C0E064BB7
:100910001C5400BF00204FF0E022906107201061BE
:100920000020DFE718ED00E000E400E031B51048FA
:1009300000684FF47A71B0FBF1F52846FFF7CCFF61
:10094000002408E000BF4FF0E020006900F4803090
:100950000028F8D0641C00988442F3D34FF0E020C4
:10096000006920F001004FF0E021086138BD00006F
:10097000000000207047000010B5064800680649D6
:10098000B0FBF1F42046FFF7A7FF08B100BFFEE778
:1009900010BD000000000020A086010010B5134823
:1009A000006840F00100114908600846406810499D
:1009B00008400E494860084600680E4908400B4947
:1009C00008600846006820F48020086008464068F7
:1009D00020F4FE0048604FF41F008860FFF707FF17
:1009E0004FF000600449086010BD00000010024094
:1009F0000000FFF8FFFFF6FE08ED00E000BFFEE795
:100A000002E008C8121F08C1002AFAD170477047D7
:100A1000002001E001C1121F002AFBD17047000035
:100A2000FFF79CFCFFF727FD2FA201210846FFF7E7
:100A300087FE2FA201210320FFF782FE53E02E48FC
:100A40000078401C2C49087008464078401C4870CB
:100A500008468078401C88700846C078401CC870E2
:100A600021A201210846FFF76BFE234802780223EA
:100A700001211846FFF73AFE1F484278022304215D
:100A80001846FFF733FE1C488278022307211846D8
:100A9000FFF72CFE1848C27802230A211846FFF7F8
:100AA00025FE4FF47A70FFF741FFFFF7C7FC1348AC
:100AB0000278022301210420FFF718FE0F48427834
:100AC000022304210846FFF711FE0C488278022316
:100AD00007210420FFF70AFE0848C27802230A21F2
:100AE0000420FFF703FEAAE744617461413A000065
:100AF00044617461423A0000140000201800002094
:100B000000000000000000000000000000000000E5
:100B1000000000F80000000000000033300000007A
:100B200000100C06100C0600000000000000000081
:100B300040C07840C0784000043F04043F040400F3
:100B4000007088FC08300000001820FF211E000003
:100B5000F008F000E018000000211C031E211E0018
:100B600000F00888700000001E212324192721109E
:100B700010160E0000000000000000000000000041
:100B8000000000E0180402000000000718204000E8
:100B900000020418E00000000040201807000000D8
:100BA000404080F0804040000202010F010202003C
:100BB000000000F0000000000101011F0101010020
:100BC000000000000000000080B070000000000085
:100BD000000000000000000000010101010101010E
:100BE00000000000000000000030300000000000A5
:100BF000000000008060180400601806010000007A
:100C000000E010080810E000000F102020100F0076
:100C1000001010F8000000000020203F20200000FD
:100C20000070080808887000003028242221300055
:100C300000300888884830000018202020110E005D
:100C40000000C02010F8000000070424243F240006
:100C500000F80888880808000019212020110E00DB
:100C600000E0108888180000000F112020110E00ED
:100C700000380808C83808000000003F00000000E5
:100C80000070880808887000001C222121221C00A6
:100C900000E010080810E0000000312222110F00CF
:100CA000000000C0C0000000000000303000000064
:100CB00000000080000000000000806000000000D4
:100CC00000008040201008000001020408102000ED
:100CD0004040404040404000040404040404040038
:100CE00000081020408000000020100804020100CD
:100CF000007048080808F0000000003036010000CD
:100D0000C030C828E810E0000718272423140B007F
:100D10000000C038E0000000203C230202273820F9
:100D200008F8888888700000203F202020110E00DD
:100D3000C0300808080838000718202020100800D4
:100D400008F808080810E000203F202020100F00BD
:100D500008F88888E8081000203F20202320180089
:100D600008F88888E8081000203F200003000000F1
:100D7000C03008080838000007182020221E020092
:100D800008F808000008F808203F210101213F2051
:100D9000000808F8080800000020203F202000007C
:100DA00000000808F8080800C08080807F0000006C
:100DB00008F888C028180800203F200126382000A5
:100DC00008F8080000000000203F2020202030000C
:100DD00008F8F800F8F80800203F003F003F200026
:100DE00008F830C00008F808203F200007183F002E
:100DF000E01008080810E0000F10202020100F005D
:100E000008F808080808F000203F2101010100004F
:100E1000E01008080810E0000F18242438504F0094
:100E200008F8888888887000203F2000030C302054
:100E300000708808080838000038202121221C0092
:100E4000180808F8080818000000203F20000000DB
:100E500008F808000008F808001F202020201F00C4
:100E60000878880000C83808000007380E01000024
:100E7000F80800F80008F800033C0700073C0300EE
:100E8000081868808068180820302C03032C302054
:100E90000838C800C83808000000203F20000000C3
:100EA00010080808C838080020382621202018001B
:100EB000000000FE020202000000007F40404000EF
:100EC000000C30C000000000000000010638C00027
:100ED00000020202FE000000004040407F000000CF
:100EE00000000402020204000000000000000000F4
:100EF00000000000000000008080808080808080F2
:100F000000020204000000000000000000000000D9
:100F100000008080808000000019242222223F20CF
:100F200008F8008080000000003F112020110E0012
:100F30000000008080800000000E112020201100A1
:100F4000000000808088F800000E112020103F2053
:100F50000000808080800000001F222222221300D7
:100F6000008080F0888888180020203F2020000022
:100F70000000808080808000006B949494936000D7
:100F800008F8008080800000203F210000203F20E2
:100F900000809898000000000020203F20200000E2
:100FA000000000809898000000C08080807F0000D2
:100FB00008F8000080808000203F24022D302000AF
:100FC000000808F8000000000020203F202000005A
:100FD0008080808080808000203F20003F20003F74
:100FE0008080008080800000203F210000203F2082
:100FF0000000808080800000001F202020201F0033
:10100000808000808000000080FFA12020110E0061
:101010000000008080808000000E112020A0FF8052
:10102000808080008080800020203F2120000100FF
:101030000000808080808000003324242424190054
:10104000008080E0808000000000001F2020000061
:101050008080000000808000001F202020103F20A2
:10106000808080000080808000010E300806010032
:1010700080800080008080800F300C030C300F00D7
:1010800000808000808080000020312E0E31200002
:10109000808080000080808080818E701806010032
:1010A00000808080808080000021302C2221300050
:1010B00000000000807C020200000000003F404071
:1010C00000000000FF00000000000000FF00000022
:1010D0000002027C800000000040403F0000000051
:1010E00000060101020204040000000000000000EC
:1010F000101100080000002020000000000A000875
:10110000301100082000002000040000100A000830
:1011100000A24A04000000000000000001020304D5
:10112000060708090102030400000000690000002E
:0400000508000131BD
:00000001FF
