:020000040800F2
:1000000098AA00208902000821240008A3200008E3
:100010009522000865080008652900080000000016
:10002000000000000000000000000000C101000806
:10003000270A0008000000003902000875020008C5
:10004000A3020008A3020008A3020008A3020008FC
:10005000A3020008A3020008A3020008A3020008EC
:10006000A3020008A3020008A3020008A3020008DC
:10007000A3020008A3020008A3020008A3020008CC
:10008000A3020008A3020008A3020008A3020008BC
:10009000A3020008A3020008A3020008A3020008AC
:1000A000A3020008A3020008A3020008A30200089C
:1000B000A3020008A3020008A3020008A30200088C
:1000C000A3020008A3020008A3020008A30200087C
:1000D000A302000855290008A3020008A302000893
:1000E000A3020008A3020008A3020008A30200085C
:1000F000A3020008A3020008A3020008A30200084C
:10010000A3020008A3020008A3020008A30200083B
:10011000A3020008A3020008A3020008A30200082B
:10012000A3020008A3020008A3020008A30200081B
:10013000DFF820D000F012FBAFF3008004F002FDE6
:100140000021034804F0DEFD04F00EFDFEE7000090
:10015000E868000898AA002080F309887047EFF348
:1001600009807047684680F3098804480078C00712
:1001700014BF0220032080F314887047A868000889
:10018000DFF818C0EFF305831B0618BF6047EFF3D5
:100190001483DB0708BF604700DF7047AD4E0008DF
:1001A000DFF818C0EFF305831B0618BF6047EFF3B5
:1001B0001483DB0708BF604700DF7047A1500008C9
:1001C000EFF30980816911F8021CF1B990E80F1072
:1001D000E047EFF3098C8CE80700144B93E8060026
:1001E00091420FD039B12CE9F00FC1F828C00CB4FE
:1001F00005F046FB0CBC1A60D2F828C0BCE8F00F32
:100200008CF309886FF0020E704710B5084A126827
:10021000914209D8074C54F8214090E80F10A047AC
:10022000EFF3098C8CE80F0010BD0000880000205F
:10023000600800086008000805F0F4F90C4B93E82A
:100240000600914210D0EFF3098C2CE9F00FC1F8B1
:1002500028C00CB405F014FB0CBC1A60D2F828C0FE
:10026000BCE8F00F8CF309886FF0020E70470000B5
:100270008800002005F0CCFBE0E7000004F0EEFD74
:1002800005F0C6FBDAE7000006488047064800474D
:10029000FEE7FEE7FEE7FEE7FEE7FEE7FEE7FEE736
:1002A000FEE7FEE7B3240008310100082DE9F05F06
:1002B0000546002092469B468846064681464024D5
:1002C0001BE0284641464746224600F020F85346A8
:1002D0005A46C01A914110D311461846224600F0E2
:1002E00076F82D1A67EB01084F46224601200021BF
:1002F00000F06DF817EB00094E41201EA4F1010437
:10030000DFDC484631462A464346BDE8F09F202AB6
:1003100004DB203A21FA02F00021704721FA02F3AF
:10032000D040C2F120029140084319467047D2B232
:1003300001E000F8012B491EFBD270470022F6E7CE
:1003400010B513460A4604461946FFF7F0FF20464B
:1003500010BD30B505462A460B4612F8010B13F8BE
:10036000014B08B1A042F8D01CB1002802D06D1C8E
:10037000F1E7284630BD421C10F8011B0029FBD1D3
:10038000801A704730B505460020034600E05B1C2C
:10039000934205D2EC5CC85C201A01D1002CF6D146
:1003A00030BD30B50B46014600202022012409E073
:1003B00021FA02F59D4205D303FA02F5491B04FA1E
:1003C00002F52844151EA2F10102F1DC30BD202AFD
:1003D00004DB203A00FA02F1002070479140C2F19C
:1003E000200320FA03F31943904070472DE9FE4F94
:1003F000804681EA0300C00F0C46009021F00041C6
:1004000023F00045B8EB0200A94105D24046214641
:1004100090461C460B46024623F00040104347D04E
:10042000270DC7F30A00C3F30A510290401A019046
:1004300040286BDAC3F3130040F4801B0098924607
:1004400020B10023D2EB030A63EB0B0B0198594652
:10045000C0F140025046FFF7BAFF06460D4650462F
:100460005946019A00F08CF910EB08006141002414
:1004700087EA115284EAE7731A4340D0009A62B3C4
:10048000019A012A4FEA075215DC001B61EB0201B9
:100490004FF0004202EA0752CDE90042001C41F54C
:1004A000801132462B4600F08CF903B0BDE8F08F86
:1004B00040462146F9E7001B61EB0201001C41F5B3
:1004C000801300185B412018A2F5001747EB0301C9
:1004D00040EAD570B6196D4111E06D084FEA360655
:1004E00045EAC0754FEA0752001B61EB0201001C90
:1004F00041F5801149084FEA300000195141324658
:100500002B4603B0BDE8F04F00F04CB90098012233
:1005100040000023D0EB020263EBE0730098214619
:100520004FEAE074B8EB000061EB0401E9E783F007
:1005300000435BE781F0004158E72DE9FE4F81EA77
:10054000030404F0004421F0004100944FF0000B3C
:1005500023F0004350EA01045ED052EA03045BD06A
:10056000C3F30A54C1F30A552C44A4F2F3340194A2
:10057000A0FB0254C1F3130141F48011C3F3130330
:1005800043F4801301FB024400FB034E840A970AE4
:1005900044EA815447EA8357A4FB076802958D0A11
:1005A00005FB07854FEA932C04FB0C542705029D9D
:1005B0004FEA065847EA1637B5EB08056EEB070C0D
:1005C000870E920E47EA811742EA8312A7FB0201C7
:1005D000B6EB0B0164EB00042B0D43EA0C335E1801
:1005E00044EB1C50DA465146E7FB0201C5F3130405
:1005F0004FEA0B3343EA14534FEA0432019C43EAB7
:100600000603A4F10C040294009CCDE900B400F0B0
:10061000D8F803B0BDE8F08F00200146F9E72DE9D6
:10062000F04D81EA030404F0004B21F0004514462C
:100630004FF0000A23F0004150EA050220D054EAAE
:1006400001021DD0C5F30A570246C5F31303C1F3D7
:100650001300C1F30A5640F4801543F48013A7EB4E
:100660000608101BD64608F2FD3873EB050002D3CE
:1006700008F1010801E092185B41B8F1000F03DABC
:1006800000200146BDE8F08D00204FF480110646A1
:1006900084460EE0171B73EB050705D3121B63EBB3
:1006A000050306434CEA010C49084FEA3000921852
:1006B0005B4150EA0107EDD152EA030012D082EA11
:1006C000040083EA0501084305D0101BAB4106D2A4
:1006D0000122002306E000224FF0004302E06FF009
:1006E000010253101AEB06004CEB085110EB0A0004
:1006F00041EB0B01BDE8F04D00F054B8C1F30A52D4
:10070000C1F3130140F2FF3341F480119A4202DA3F
:1007100000200146704740F233439A42A2F233422E
:1007200002DC5242FFF7F3BDFFF751BE30B5041EA5
:1007300071F1000404DB4FF00044404264EB01011E
:10074000141E73F1000405DB1C464FF000435242B7
:1007500063EB0403994208BF904230BD064C074D3D
:1007600006E0E06840F0010394E807009847103481
:10077000AC42F6D3FFF7E0FC40690008606900086E
:10078000202A06DBCB17203A41FA02F043EAE07355
:1007900006E041FA02F3D040C2F120029140084342
:1007A0001946704710B5141E73F1000408DA401C96
:1007B00041F1000192185B411A4301D120F0010080
:1007C00010BD2DE9F04D92469B4611B1B1FA81F270
:1007D00002E0B0FA80F220329046FFF7F8FD0446BE
:1007E0000F4640EA0A0041EA0B0153465A460843C5
:1007F00013D0114653EA010019D0C8F14002504607
:10080000FFF785FD05460E46504659464246FFF71E
:10081000DEFD084305D0012004E020463946BDE84E
:10082000F08D0020054346EAE0762C4337430A98D2
:100830006305E40AA0EB08000022FD0A44EA4754DD
:100840000A3002D500200146E9E701051019694187
:10085000DDE9084500196941BDE8F04DA2E7000057
:100860000000000000BFFEE710B5002400F02AF8E9
:1008700004E0601CC4B2012000F0D6F84FF48051AF
:100880000F4800F0DFFB08B1642CF2DB642C01DBC5
:10089000012010BD002404E0601CC4B2012000F05F
:1008A000C3F84FF48051064800F0CCFB08B9642C23
:1008B000F2DB642C01DB0120EBE70020E9E700001C
:1008C000001001401FB5002000900190029003909D
:1008D0004FF4805000900020019001200290694662
:1008E000014800F00FFA1FBD001001401FB50020A5
:1008F000009001900290039000224FF4805108482C
:1009000000F0B2FB4FF48050009001200190029063
:10091000022003906946024800F0F4F91FBD000070
:100920000010014010B5FFF7E1FF00224FF48051A5
:10093000074800F099FB142000F0D0F901221103C0
:10094000034800F091FB1E2000F06EF810BD00007F
:100950000010014010B504E0601CC4B2012000F09A
:1009600063F84FF48051114800F06CFB08B1642C1F
:10097000F2DB002404E0601CC4B2012000F054F853
:100980004FF48051094800F05DFB08B9642CF2DB9C
:10099000282000F049F84FF48051044800F052FB41
:1009A00008B1012010BD0020FCE70000001001404C
:1009B00070B50024002506E06006040EFFF7CAFFAC
:1009C0000443681CC5B2082DF6DB204670BD7CB51B
:1009D00005460E46FFF7A6FFFFF746FFF8B90024CD
:1009E00005E0FFF7E5FF0DF80400601CC4B2052C1C
:1009F000F7DB9DF800009DF8011008449DF80210F7
:100A000008449DF8031008449DF80410884208D15A
:100A10009DF8000030709DF80200287001E0012070
:100A20007CBD0020FCE7704710B504460020084953
:100A300009684862064800F0FBFF00BF04480068F0
:100A4000406AA042FAD9024801F034F810BD000013
:100A5000A800002072B600BFFEE72DE9F041054670
:100A60000C46164605F11800216850F8210032782E
:100A70004FF0FF31914000EA01074FF0000867B1E5
:100A8000384603F0F3FE306005F15000216800EBBA
:100A9000C110316850F821801DE02278521C4FF0BF
:100AA000FF339340696901EA030003F0DFFE206031
:100AB000206800280FDD05F11801226851F8220096
:100AC00003F0D4FE306005F15000216800EBC11046
:100AD000316850F821804046BDE8F081014600228F
:100AE00091F82100022808D00420886300BF00206C
:100AF00081F8200000BF012070470868006820F0DE
:100B00000E000B6818600868006820F001000B6890
:100B1000186091F8403001209840CB6B586001205C
:100B200081F8210000BF002081F8200000BF10469E
:100B3000E2E7000070B50446002594F82100022881
:100B400003D00420A0630125C1E02068006820F0E4
:100B50000E00216808602068006820F0010021680C
:100B600008605C492068884252D95A49783920681F
:100B7000884201D1012047E0564964392068884203
:100B800001D1102040E0534950392068884201D1FA
:100B9000801539E04F493C392068884201D18014E2
:100BA00032E04C4928392068884202D14FF4803025
:100BB0002AE0484914392068884202D14FF4801055
:100BC00022E044492068884201D140041CE04249A7
:100BD0002068884201D1012016E03F491431206885
:100BE000884201D110200FE03B492831206888421B
:100BF00001D1801508E038493C312068884201D194
:100C0000801401E04FF480303349091F086051E03F
:100C1000304978392068884201D1012047E02D49C8
:100C200064392068884201D1102040E029495039B8
:100C30002068884201D1801539E026493C39206876
:100C4000884201D1801432E0224928392068884244
:100C500002D14FF480302AE01E49143920688842BE
:100C600002D14FF4801022E01A492068884201D155
:100C700040041CE018492068884201D1012016E098
:100C8000154914312068884201D110200FE0124923
:100C900028312068884201D1801508E00E493C3196
:100CA0002068884201D1801401E04FF48030094966
:100CB00080394860012084F8210000BF002084F8BA
:100CC000200000BF606B10B12046616B884728464A
:100CD00070BD0000800002400804024070B5044668
:100CE00000F0C8F906462546681C10B10448007893
:100CF000054400BF00F0BEF9801BA842FAD370BDC6
:100D0000080000202DE9F847024600239C467BE1BD
:100D10004FF0010808FA03F4D1F8008008EA040053
:100D2000A0427DD1DFF8F4A2D1F80480A8EB0A0933
:100D3000D0453AD014DCB8F1030F50D009DCB8F13B
:100D4000000F31D0B8F1010F1CD0B8F1020F49D11A
:100D500020E0B8F1110F18D0B8F1120F42D11EE007
:100D6000B9F5881F25D006DCB9F5803F20D0B9F54C
:100D7000801F37D11AE0B9F5001F18D0B9F5041F4C
:100D800030D117E0D1F80CC02DE0D1F80C8008F17B
:100D9000040C28E0D1F80C8008F1080C23E0D1F80D
:100DA0000C8008F10C0C1EE000BF00BF00BF00BFAC
:100DB00000BF00BFD1F80880B8F1000F02D14FF09A
:100DC000040C0BE0D1F80880B8F1010F03D14FF00B
:100DD000080C146102E04FF0080C546103E04FF07E
:100DE000000C00E000BF00BFFF2801D8904601E0E2
:100DF00002F104084646FF2802D84FEA830803E0C0
:100E0000A3F108084FEA88084746D6F800804FF05B
:100E10000F0909FA07F928EA09080CFA07F900E0AE
:100E20007AE048EA0908C6F80080D1F8048008F0A2
:100E30008058B8F1805F6FD100BFDFF8E481D8F847
:100E4000188048F00108DFF8D891C9F81880C84622
:100E5000D8F8188008F00108CDF8008000BF00BF66
:100E60004FEAB9384FEA930958F829504FEA837886
:100E70004FEA18794FF00F0808FA09F825EA080533
:100E8000DFF8A081424502D14FF0000824E0DFF8EE
:100E90009881424502D14FF001081DE0DFF88C81B6
:100EA000424502D14FF0020816E0DFF88481424546
:100EB00002D14FF003080FE0DFF87881424502D1FC
:100EC0004FF0040808E0DFF87081424502D14FF08E
:100ED000050801E04FF006084FEA83794FEA1979D7
:100EE00008FA09F848EA0505DFF850814FEA930946
:100EF00048F82950D1F8048008F48018B8F5801F0C
:100F00000BD1DFF83C81D8F8008048EA0008DFF810
:100F10003091C9F800800AE075E0DFF82481D8F844
:100F2000008028EA0008DFF81891C9F80080D1F89D
:100F3000048008F40018B8F5001F0ED1DFF8008116
:100F400008F10408D8F8008048EA0008DFF8F090BB
:100F500009F10409C9F800800DE0DFF8E48008F128
:100F60000408D8F8008028EA0008DFF8D49009F1D6
:100F70000409C9F80080D1F8048008F40038B8F5F5
:100F8000003F0ED1DFF8B880A8F10408D8F800803F
:100F900048EA0008DFF8A890A9F10409C9F8008020
:100FA0000DE0DFF89C80A8F10408D8F8008028EA5A
:100FB0000008DFF88C90A9F10409C9F80080D1F885
:100FC000048008F48038B8F5803F0ED1DFF87080D7
:100FD000A8F10808D8F8008048EA0008DFF8609017
:100FE000A9F10809C9F800800DE0DFF85480A8F1E4
:100FF0000808D8F8008028EA0008DFF84490A9F132
:101000000809C9F800805B1CD1F8008028FA03F8B1
:10101000B8F1000F7FF47CAEBDE8F8870000111036
:101020000010024000080140000C01400010014087
:101030000014014000180140001C0140080001405C
:1010400008040140024693680B400BB1012000E008
:101050000020704710B5C26821EA020302EA0104C9
:1010600043EA0443036110BD0AB1016101E00B04CE
:101070000361704701480068704700008400002049
:1010800010B50848006840F01000064908600320C9
:1010900000F0B0F8012000F007F800F02BF8002075
:1010A00010BD00000020024070B504460E480078D4
:1010B0004FF47A71B1FBF0F00C490968B1FBF0F51F
:1010C000284600F001FC08B1012070BD102C07D2A9
:1010D00000222146501E00F04FF80548046001E050
:1010E0000120F2E70020F0E7080000200C000020BB
:1010F0000400002008B500BF1548806940F00100D9
:10110000134988610846806900F00100009000BF23
:1011100000BF00BF0846C06940F08050C861084663
:10112000C06900F08050009000BF00BF062000F0B2
:1011300061F800220121C81E00F01EF800BF054919
:10114000486820F0E06000BF486000BF08BD0000B4
:10115000001002400000014001460846002809DB5B
:1011600000F01F0301229A4043099B0003F1E02392
:10117000C3F8002100BF70472DE9F05F80460D469F
:101180001646002701F0ECFC074639462A4633464E
:1011900001F00700C0F1070ABAF1040F02D94FF0BD
:1011A000040A01E0C0F1070AD14600F1040ABAF1CD
:1011B000070F02D24FF0000A01E0A0F1030AD44663
:1011C0004FF0010A0AFA09FAAAF1010A0AEA020A28
:1011D0000AFA0CFA4FF0010B0BFA0CFBABF1010B06
:1011E0000BEA030B4AEA0B042146404601F0C0FC1F
:1011F000BDE8F09F00BF00F00702064B19684FF6EC
:10120000FF031940044B0B4343EA0221014B1960D1
:1012100000BF70470CED00E00000FA0570B5044611
:101220000D460CB9012070BD5A48006800F0070057
:10123000A8420ED25748006820F0070028435549BD
:1012400008600846006800F00700A84201D00120AD
:10125000E9E7207800F0020002281DD1207800F094
:101260000400042805D14C48406840F4E0604A4935
:101270004860207800F00800082805D146484068FA
:1012800040F46050444948604348406820F0F00012
:10129000A168084340494860207800F0010078B315
:1012A0006068012806D13C48006800F4003090B91D
:1012B0000120B8E76068022806D13748006800F0CE
:1012C000007040B90120AEE73348006800F002002A
:1012D00008B90120A7E73048406820F003006168A2
:1012E00008432D494860FFF7C5FE064609E0FFF7B1
:1012F000C1FE801B41F28831884202D9032092E767
:1013000007E02548406800F00C006168B0EB810FF1
:10131000EDD12048006800F00700A8420ED91D4812
:10132000006820F0070028431A4908600846006852
:1013300000F00700A84201D0012074E7207800F0F7
:101340000400042807D11448406820F4E060E168F4
:10135000084311494860207800F00800082808D1A7
:101360000D48406820F46050216940EAC1000A49F4
:10137000486000F03FF808494968C1F30311074A83
:10138000515CC8400649086006480068FFF78CFEBB
:10139000002048E700200240001002403F630008A0
:1013A0000C00002004000020014800687047000085
:1013B0000C00002000B5FFF7F7FF04494968C1F3AE
:1013C0000221034A515CC84000BD000000100240E9
:1013D0004F63000800B5FFF7E7FF04494968C1F310
:1013E000C221034A515CC84000BD00000010024009
:1013F0004F63000870B50021002200240023002064
:10140000134D696801F00C05F5B1042D02D0082DCB
:1014100019D101E00F4819E00F4DC1F38346AB5DD0
:1014200001F4803555B10A4D6D68C5F340450B4E4A
:10143000725D084D5D43B5FBF2F402E0084D03FB1D
:1014400005F4204602E000BF024800BF00BF70BDA7
:101450000010024000127A002D6300083D6300086E
:1014600000093D00F8B504460CB90120F8BD20780C
:1014700000F00100002878D0F848406800F00C0027
:1014800004280CD0F548406800F00C00082811D161
:10149000F248406800F48030B0F5803F0AD1EF4850
:1014A000006800F4003000285FD0606800285CD13C
:1014B0000120DBE700BF6068B0F5803F06D1E74858
:1014C000006840F48030E549086028E0606858B959
:1014D000E248006820F48030E0490860084600686F
:1014E00020F4802008601AE06068B0F5A02F0BD1CE
:1014F000DA48006840F48020D8490860084600684F
:1015000040F4803008600AE0D448006820F480305D
:10151000D24908600846006820F48020086000BFB7
:10152000606888B1FFF7A6FD054606E0FFF7A2FD5B
:10153000401B642801D9032098E7C848006800F4DC
:1015400000300028F2D010E0FFF794FD054606E0D9
:10155000FFF790FD401B642801D9032086E7BF48B0
:10156000006800F400300028F2D1207800F002007A
:10157000022857D1B948406800F00C0050B1B74874
:10158000406800F00C00082818D1B448406800F406
:10159000803098B9B148006800F0020020B120699D
:1015A000012801D0012061E7AC48006820F0F80074
:1015B000616940EAC100A949086033E02069E8B1E7
:1015C0000120A7490860FFF755FD054606E0FFF733
:1015D00051FD401B022801D9032047E79F480068BE
:1015E00000F002000028F2D09C48006820F0F800CB
:1015F000616940EAC1009949086013E000209849F8
:101600000860FFF737FD054606E0FFF733FD401B96
:10161000022801D9032029E79048006800F0020061
:101620000028F2D1207800F0080008282DD1A06908
:10163000B8B101208B490860FFF71CFD054606E0A4
:10164000FFF718FD401B022801D903200EE783484D
:10165000406A00F002000028F2D0012000F0E2FE13
:1016600013E000207F490860FFF704FD054606E00F
:10167000FFF700FD401B022801D90320F6E677485A
:10168000406A00F002000028F2D1207800F0040047
:10169000042873D100277148C06900F0805070B9E8
:1016A00000BF6E48C06940F080506C49C861084670
:1016B000C06900F08050009000BF00BF01276A4859
:1016C000006800F48070B0B96748006840F480702A
:1016D00065490860FFF7CEFC054606E0FFF7CAFC47
:1016E000401B642801D90320C0E65F48006800F46D
:1016F00080700028F2D000BFE068012806D157486A
:10170000006A40F001005549086227E0E06858B9D6
:101710005248006A20F00100504908620846006AF9
:1017200020F00400086219E0E06805280BD14B485E
:10173000006A40F00400494908620846006A40F027
:10174000010008620AE04548006A20F001004349B0
:1017500008620846006A20F00400086200BFE068E2
:10176000A0B1FFF787FC054609E0FFF783FC401BAB
:1017700041F28831884202D9032077E622E03748D7
:10178000006A00F002000028EFD012E0FFF772FCC0
:10179000054608E0FFF76EFC401B41F288318842A5
:1017A00001D9032062E62D48006A00F002000028FB
:1017B000F0D1012F05D12948C06920F08050274978
:1017C000C86100BFE069C8B32448406800F00C005D
:1017D000082860D0E069022848D100202049086626
:1017E000FFF748FC054606E0FFF744FC401B0228D3
:1017F00001D903203AE61948006800F0007000287B
:10180000F2D1206AB0F5803F07D11448406820F437
:101810000030A168084311494860D4E90801084331
:101820000E49496821F4741108430C4948600120AD
:101830000B490866FFF71EFC054607E03DE0FFF791
:1018400019FC401B022801D903200FE60348006859
:1018500000F000700028F2D02FE0000000100240DD
:1018600000004242800442420070004000201449BF
:101870000866FFF7FFFB054606E0FFF7FBFB401B92
:10188000022801D90320F1E50E48006800F000703D
:101890000028F2D111E0E069012800D1E6E509480D
:1018A000466806F48031206A814204D106F4701142
:1018B000606A814201D00120D8E50020D6E5000011
:1018C000000042420010024070B504462546681EE2
:1018D000B0F1807F01D301200FE0681E4FF0E021BE
:1018E00048610F214FF0FF3001F042F900204FF026
:1018F000E021886107200861002070BD30B50246F4
:101900000B4600BF92F83C00012801D1022030BDF7
:10191000012082F83C0000BF022082F83D001068E0
:1019200044681068816824F07004186804431068E3
:101930004460144D1068A84213D0134D1068A8429B
:101940000FD01068B0F1804F0BD0104D1068A84236
:1019500007D00F4D1068A84203D00E4D1068A84262
:1019600005D121F080015868014310688160012091
:1019700082F83D0000BF002082F83C0000BF00BF9D
:10198000C5E70000002C0140003401400004004085
:1019900000080040000C004010B504460CB90120BE
:1019A00010BD94F83D0028B9002084F83C00204682
:1019B00000F026F8022084F83D00211D206800F088
:1019C00079FD012084F8460000BF84F83E00012123
:1019D0003F200155402001554120015500BF00BF67
:1019E000012084F842004320015544200155452040
:1019F000015500BF012084F83D000020D0E7000021
:101A000008B5094A016891420DD100BF0749C9696B
:101A100041F00401054AD1611146C96901F0040190
:101A2000009100BF00BF08BD000800400010024048
:101A3000014691F83D00012801D0012070470220A5
:101A400081F83D00164B0868984213D0154B086882
:101A500098420FD00868B0F1804F0BD0124B086845
:101A6000984207D0114B0868984203D0104B086881
:101A700098420CD10868806800F00702062A0CD052
:101A80000868006840F001000B68186005E008680D
:101A9000006840F001000B6818600020CEE70000ED
:101AA000002C0140003401400004004000080040C8
:101AB000000C0040014600BF0868006A41F21112A4
:101AC000104050B90868006A9210104028B90868A0
:101AD000006820F001000A68106000BF012081F852
:101AE0003D00002070472DE9F04104460D460027D7
:101AF00000BF94F83C00012802D10220BDE8F0812B
:101B0000012084F83C0000BF022084F83D002068DA
:101B1000866826F0770626F47F4620688660286867
:101B2000502833D00CDC202850D004DC00284BD0C7
:101B3000102851D149E0302849D040284CD139E013
:101B400060282DD0702807D0B0F5805F03D0B0F5A5
:101B5000005F41D10DE041E0D5E902136A682068D9
:101B600000F0F6FC2068866846F0770620688660FC
:101B700034E0D5E902136A68206800F0E9FC2068C7
:101B8000806840F480402168886027E0EA686968DE
:101B9000206800F0F1FC5021206800F0E4FC1DE01A
:101BA000EA686968206800F0FAFC6021206800F0AB
:101BB000DAFC13E0EA686968206800F0DDFC402187
:101BC000206800F0D0FC09E000BF00BF00BF29681A
:101BD000206800F0C8FC01E0012700BF00BF012021
:101BE00084F83D0000BF002084F83C0000BF384668
:101BF00084E77047704700002DE9F84F04462068DD
:101C000005682068C668206847694FF00009CA4621
:101C100005F00F09B9F1000F0AD105F0200038B125
:101C200006F0200020B1204600F01DFDBDE8F88F31
:101C3000B9F1000F7BD007F0010018B906F49070DD
:101C4000002874D005F0010030B106F4807018B19E
:101C5000606C40F00100606405F0040030B107F0F2
:101C6000010018B1606C40F00200606405F00200F1
:101C700030B107F0010018B1606C40F004006064FE
:101C800005F0080048B106F0200010B907F0010087
:101C900018B1606C40F008006064606C002845D0AA
:101CA00005F0200028B106F0200010B1204600F019
:101CB000DAFC20684069C0F3801A606C00F008000C
:101CC00010B9BAF1000F2CD0204600F086FC206835
:101CD000406900F0400000B300BF00BF216814312C
:101CE00051E8001F21F040002168143141E8000252
:101CF000002AF3D100BFE06B50B17748E16B486335
:101D0000E06BFEF717FF88B1E06B416B88470DE091
:101D10002046FFF76FFF09E009E02046FFF76AFF62
:101D200004E02046FFF766FF002060647EE7206B3A
:101D3000012877D105F01000002873D006F01000BC
:101D40000028FAD000BF00200090206800680090B2
:101D500020684068009000BF00BF2068406900F024
:101D6000400000285FD0E06B006840681FFA80F8F0
:101D7000B8F1000F55D0A08D404552DDA4F82E805B
:101D8000E06B8069202843D000BF00BF21680C3180
:101D900051E8001F21F4807021680C3141E80002F5
:101DA000002AF3D100BF00BF00BF2168143151E801
:101DB000001F21F001002168143141E80002002ACF
:101DC000F3D100BF00BF00BF2168143151E8001FEC
:101DD00021F040002168143141E80002002AF3D1CB
:101DE00000BF202084F842000020206300BF00BF15
:101DF00021680C3151E8001F21F0100021680C31DE
:101E000041E80002002AF3D100BFE06BFEF766FE56
:101E100002206063A08DE28D801A81B22046FFF718
:101E2000E8FE03E742E0A08DE18D401A1FFA80F83A
:101E3000E08DD0B3B8F1000F37D000BF00BF2168EC
:101E40000C3151E8001F21F4907021680C3141E8F9
:101E50000002002AF3D100BF00BF00BF2168143187
:101E600051E8001F21F001002168143141E800020F
:101E7000002AF3D100BF202084F842000020206314
:101E800000BF00BF21680C3151E8001F21F0100095
:101E900021680C3141E80002002AF3D100BF022082
:101EA000606341462046FFF7A4FEBFE605F08000D0
:101EB00030B106F0800018B1204600F0D1FCB5E644
:101EC00005F0400030B106F0400018B1204600F0A7
:101ED000BAFBABE600BFA9E6C725000810B504466B
:101EE0000CB9012010BDA06900B100E000BF94F85A
:101EF000410028B9002084F84000204600F02AF86C
:101F0000242084F841002068C06820F40050216833
:101F1000C860204600F026FC2068006920F490404C
:101F2000216808612068406920F02A002168486122
:101F30002068C06840F400502168C86000206064D8
:101F4000202084F8410084F842000020606300BF34
:101F5000C8E7000010B586B0044600200290039048
:101F6000049005901E492068884236D100BF1D4864
:101F7000806940F480401B4988610846806900F40C
:101F80008040019000BF00BF00BF0846806940F05C
:101F9000040088610846806900F00400019000BFD9
:101FA00000BF48150290022003900320059002A96B
:101FB0000D48FEF7A7FE4FF48060029000200390CA
:101FC000049002A90848FEF79DFE00221146252034
:101FD000FFF7D2F82520FFF7BFF806B010BD0000CC
:101FE00000380140001002400008014070472DE910
:101FF000F84F04460E46174699464FF0000A94F8EB
:10200000410020284AD106B117B90120BDE8F88F58
:1020100000206064212084F84100FFF72BF88246FD
:10202000A784E784A068B0F5805F04D1206910B967
:102030000025B04602E035464FF000081BE053464D
:10204000002280212046CDF8009000F039FC08B134
:102050000320DBE745B9B8F80000C0F308002168A9
:10206000486008F1020803E02878216848606D1C88
:10207000E08C401EE084E08C0028E0D15346002232
:1020800040212046CDF8009000F01AFC08B1032052
:10209000BCE7202084F841000020B7E70220B5E724
:1020A000704700BFFEE770B505460C461646802D0A
:1020B00004D200202060A80830600CE0284602F01E
:1020C00025FD20602178491F25FA01F02038306075
:1020D0002068801F206070BD2DE9F04104460D4648
:1020E00016462068802805D20020286020688008D5
:1020F00030601AE0206802F009FD401F012101FA5A
:1021000000F0471E206838442060206802F0FEFC82
:1021100028602978491F2068C84020383060286826
:10212000801F28602068B8432060BDE8F08100006F
:1021300000B585B00020019002900390049000BF8C
:102140002748806940F01000254988610846806969
:1021500000F01000009000BF00BF00BF084680697B
:1021600040F0040088610846806900F00400009097
:1021700000BF00BF00BF0846806940F008008861CA
:102180000846806900F00800009000BF00BF0122EF
:1021900023211448FEF768FF4FF4405001900020BF
:1021A00002900120039001A90F48FEF7ABFD01202A
:1021B0000190002002900120039001A90B48FEF736
:1021C000A1FD232001900120029000200390022015
:1021D000049001A90348FEF795FD05B000BD00007D
:1021E00000100240000C01400010014000080140B6
:1021F00000B587B0002003900490059006900190F0
:102200000290144814490860472048600021124891
:1022100081604FF6FF71C160002101618161FFF7AC
:10222000BBFB08B1FEF716FC4FF48050039003A9E6
:102230000948FFF758FC08B1FEF70CFC002001909C
:10224000029001A90448FFF759FB08B1FEF702FC10
:1022500007B000BD00080040A800002010B50B48E2
:102260000B4908604FF4E130486000210848816064
:10227000C16001610C21416100218161C161FFF7F1
:102280002DFE08B1FEF7E6FB10BD0000003801404E
:10229000F000002000BFFEE710B5002102480068F2
:1022A00002F098FC10BD0000540000202DE9F04120
:1022B00006460F46102003F0DDFF044614B9002047
:1022C000BDE8F081002020606060A060E060E76011
:1022D000A6601348406830B911484460046000208B
:1022E0002060606009E00E48406804600C48406867
:1022F00060600B48446000202060FFF7CDFF05467A
:1023000025B9204600F034F80020D9E71D202860C8
:102310006C60AC60284600F077F82046D0E70000FB
:10232000440000203EB54FF0FF311048006802F035
:102330008DFC8DE807000098202815D1019C60686D
:1023400028B16568A86810B12046A9688847207B35
:10235000012804D1206910B1206903F06DFF2146E6
:102360000248006802F064FC00203EBD54000020DA
:1023700070B505462C4605B970BD19484068A042A5
:1023800003D017480068A04218D115484068A04201
:1023900007D1134960684860606810B10020616827
:1023A00008600F480068A04212D10D4920680860FB
:1023B000206868B100202168486009E0606810B1B9
:1023C000D4E900010860206810B1D4E90010486029
:1023D000284600F0C9FA204603F02EFF00BFCBE7E5
:1023E0004400002010B50548002101604160044808
:1023F00002F008FC03490860002010BD44000020E2
:102400005C6400085400002010B5044624B1214645
:102410000248006802F025FC10BD000054000020B6
:1024200000BFFEE708B508490968C9084FF47A7289
:10243000B1FBF2F14143009100BF00BF00994A1E79
:1024400000920029F9D108BD0C00002000B58FB022
:10245000282105A8FDF772FF14216846FDF76EFFDD
:1024600001200590000406900020079001200990AB
:1024700002200C90C1030D914FF4E0110E9105A8BC
:10248000FEF7F0FF08B1FEF7E5FA0F2000900220FA
:102490000190002002904FF480600390002004908F
:1024A00002216846FEF7BAFE08B1FEF7D3FA0FB074
:1024B00000BD704710B50268204B98420ED0204BEB
:1024C00098420BD0B0F1804F08D01E4B984205D0F7
:1024D0001D4B984202D01D4B984203D122F070024E
:1024E0004B681A43154B98420ED0154B98420BD0AF
:1024F000B0F1804F08D0134B984205D0124B984250
:1025000002D0124B984203D122F44072CB681A4396
:1025100022F080034C6943EA040202608B68C362C4
:102520000B688362054B984202D0054B984201D15B
:102530000B6903630123436110BD0000002C0140BF
:10254000003401400004004000080040000C00403E
:1025500030B50C46816821F47F4142EA03252543CA
:102560002943816030BD0A46816821F0700142F044
:10257000070319438160704730B50B461446026A61
:10258000056A25F001050562816921F0F00141EA43
:10259000041122F00A021A438161026230BD30B593
:1025A0000B461446026A056A25F01005056281692A
:1025B00021F4704141EA043122F0A00242EA031200
:1025C0008161026230BD70B505466C6A0020E0850D
:1025D000E0842046FFF70EFB70BD00BF00BF02681D
:1025E0000C3252E8002F22F4907102680C3242E85B
:1025F0000013002BF3D100BF00BF00BF02681432EC
:1026000052E8002F22F001010268143242E8001360
:10261000002BF3D100BF016B01290ED100BF00BF19
:1026200002680C3252E8002F22F0100102680C32CE
:1026300042E80013002BF3D100BF202180F84210A4
:1026400000210163704710B504462068C06820F07F
:1026500040002168C860202084F841002046FFF730
:102660001FFD002010BDF8B5044694F84200222852
:1026700075D1A068B0F5805F0CD1206950B90025F4
:10268000A66A20684068C0F308003080A06A801CF9
:10269000A06215E0A56A0026A068B0F5805F03D0AF
:1026A000A06828B9206918B920684068287004E03B
:1026B0002068406800F07F002870A06A401CA0627B
:1026C000E08D401E80B2E085002846D12068C068B9
:1026D00020F020002168C8602068C06820F4807065
:1026E0002168C8602068406920F0010021684861C5
:1026F000202084F8420000206063206B012826D14E
:102700000020206300BF00BF21680C3151E8001F8A
:1027100021F0100021680C3141E80002002AF3D1B9
:1027200000BF2068006800F0100010280AD100BF28
:1027300000200090206800680090206840680090A9
:1027400000BF00BFA18D2046FFF753FA02E02046EC
:10275000FFF74CFC0020F8BD01E00020FBE7022061
:10276000F9E7000070B504462168096921F4405179
:10277000E2681143226811612269A168114362690C
:1027800041EA02052168C96841F20C62914329437C
:102790002268D1602168496921F44071A26911431E
:1027A000226851612D4A2168914202D1FEF712FE42
:1027B00001E0FEF7FFFD00EBC00101EB00116268D4
:1027C0009200B1FBF2F100EBC00202EB0012636871
:1027D0009B00B2FBF3F26423B2FBF3F202EBC20301
:1027E00003EB0212A1EB8201322202EB01116422FF
:1027F000B1FBF2F101F0F00100EBC00202EB0012BC
:1028000063689B00B2FBF3F26423B2FBF3F201EBCB
:10281000021200EBC00101EB001163689B00B1FBE9
:10282000F3F100EBC00303EB00136668B600B3FBE3
:10283000F6F36426B3FBF6F303EBC30606EB0313D0
:10284000A1EB8301322303EB01116423B1FBF3F10C
:1028500001F00F0111442268916070BD0038014001
:10286000014691F84100212828D18868B0F5805FA1
:102870000BD1086948B90A6A1088C0F308000B68D0
:102880005860086A801C086205E00B6A581C0862E0
:1028900018780B685860C88C401E80B2C88458B93C
:1028A0000868C06820F080000B68D8600868C068BD
:1028B00040F040000B68D860002070470220FCE721
:1028C0002DE9F04104460D4617469846069E34E031
:1028D000701C88B32EB1FEF7CDFBA0EB0800B04210
:1028E0002BD900BF00BF21680C3151E8001F21F433
:1028F000D07021680C3141E80002002AF3D100BFFA
:1029000000BF00BF2168143151E8001F21F0010011
:102910002168143141E80002002AF3D100BF2020D1
:1029200084F8410084F8420000BF002084F8400091
:1029300000BF0320BDE8F081FFE720680068284061
:10294000A84201D1012000E00020B842C0D0002000
:10295000F0E7000010B50248FFF74EF910BD000087
:10296000F000002000BFFEE770B50546284600F0E5
:102970008FF8044606E0204600F050F8284600F0A4
:1029800087F80446002CF6D170BD00002DE9F04117
:1029900006460F4690461D46542003F06BFC044645
:1029A00014B90020BDE8F08154212046FDF7C6FC93
:1029B00027612573C4F81480A6601648206304F1CB
:1029C0001800606335B922460021183002F0C2F9C0
:1029D000A06308E0012D06D12246012104F1300058
:1029E00002F0B8F9A0630C48406830B90A48446066
:1029F000046000202060606009E0074840680460CF
:102A0000054840686060044844600020206020461B
:102A1000C8E70000DD4D00085800002070B50546ED
:102A20002C4604B970BDA06B02F0AAF917484068A3
:102A3000A04203D015480068A04218D1134840684E
:102A4000A04207D1114960684860606810B1002059
:102A5000616808600D480068A04212D10B492068E7
:102A60000860206868B100202168486009E060685B
:102A700010B1D4E900010860206810B1D4E9001059
:102A80004860204603F0D8FB00BFCBE75800002089
:102A90000146064A106804E082688A4200D1704705
:102AA00000680028F8D100BFF9E7000058000020B6
:102AB00070B50446254605B970BD6969A86B02F07A
:102AC0006BF900BFF8E70000024800210160416097
:102AD00000207047580000200FB4054B10B503A923
:102AE000044A029800F050F910BC5DF814FB000095
:102AF000FD420008A40000200FB47CB50C0009AD15
:102B000001D0611E00E00021CDE90001064B6A46BC
:102B10002946089800F038F9002C02D0009A0021CC
:102B200011707CBC5DF814FB8F3400087CB50C0080
:102B30001D461646014601D0601E00E00020CDE98A
:102B40000010064B6A462946304600F01DF9002C5D
:102B500002D0009A002111707CBD00008F34000863
:102B600002480068C0F30220704700000CED00E04E
:102B700010B5002804DB0A07130E054A135406E0BB
:102B80000A07140E034A00F00F031B1FD45410BD94
:102B900000E400E018ED00E0EFF30580704702E08C
:102BA00008C8121F08C1002AFAD1704770470020D8
:102BB00001E001C1121F002AFBD170472DE9FF5F20
:102BC00082B00021DDE90430020DDDF840B003439E
:102BD00018D044F61050A2F2FF3242431514119857
:102BE00001281FD0A5EB0B00401C5FEA000A4FF044
:102BF00000064E4FDFF83891B046504615D5CAF161
:102C0000000413E0119801244AA3012801D16FEABE
:102C10000B010298119AC0E90031C0E9024206B0E6
:102C2000BDE8F09FCBF10000DFE704460021404AF9
:102C3000491842EB0450CDE9001012E0E00707D03C
:102C400032463B4640464946FDF777FC804689467A
:102C500032463B4610461946FDF76FFC06460F46C6
:102C60006410002CEAD1DDE90401DDE90023BAF1AA
:102C7000000F06DAFDF761FC42464B46FDF75DFCAE
:102C800005E0FDF7CCFC42464B46FDF7C8FC044688
:102C90000E460022284BFDF749FD03D84FF0FF30C8
:102CA000014607E00022254B20463146FDF79EFBFA
:102CB000FDF724FD102409E0002C0ADB0A22002382
:102CC000FDF7F4FA039B30321A55641E50EA0102F4
:102CD000F2D1641C039AC4F111031444119A012A1D
:102CE00003D0012208430DD10AE0084304D000209C
:102CF0004FF0110B119072E7A3EB0B056D1E0DE069
:102D00005B4504DD4FF0000205F1010504E003DA44
:102D10004FF00002A5F10105002AECD002981199AC
:102D2000C0E90231C0E9004579E700000000144025
:102D30000000F03F300000000000F0430000E03FE2
:102D400010B5002A06DA22F00042D21D22F0070355
:102D5000102203E0D21C22F003030C2213B19C18B2
:102D60008C4201D9012010BD024401448360C0E9B6
:102D70000021C91AD018884202D810600246F9E72B
:102D80000020106010BD00002DE9FF4F95B09A465D
:102D9000884606460025EEE1252877D100242746FF
:102DA000F94A0121039400E0044316F8013F203B57
:102DB00001FA03F01042F7D130782A2811D06FF0D1
:102DC0002F033078A0F13002092A16D8039A44F074
:102DD000020402EB820203EB42021044761C0390D1
:102DE000EFE758F8042B0392002A03DA504244F428
:102DF0000054039044F00204761C30782E2816D13B
:102E000016F8010F44F004042A280DD06FF02F02A9
:102E10003078A0F13003092B09D807EB870302EBC8
:102E20004303C718761CF3E758F8047B761C307808
:102E30006C280FD006DC4C2817D068280DD06A28E3
:102E400014D104E0742810D07A280FD10DE044F496
:102E500000140AE044F4801401E044F44014727851
:102E6000824202D104F58014761C761C30786628E4
:102E70000BD013DC582877D009DC002875D0452802
:102E8000F6D04628F4D047281AD193E118E06328F9
:102E900035D0642879D0652812D18BE1702873D0A1
:102EA00008DC6728F1D069286FD06E280DD06F2814
:102EB00006D1ACE073282CD0752874D0782853D074
:102EC0005246179990476D1C54E1C4F302500228F2
:102ED00009D003280DD0D8F8001004280DD00D60BB
:102EE00008F1040846E1D8F80010EA17C1E90052D9
:102EF000F6E7D8F800100D80F2E70D70F0E718F84B
:102F0000041B8DF8001000208DF80100EB46012015
:102F100003E058F804BB4FF0FF3061074FF00001A9
:102F200002D40DE009F101018946B9420FDA814569
:102F3000F8DB1BF809100029F4D108E009F10101C0
:102F400089468142FADB1BF809100029F6D1039863
:102F50005346A0EB090721463846179A00F080FA3D
:102F6000284400EB090507E044E008E10DE01BF808
:102F7000010B524617999047B9F10109F7D2534610
:102F800021463846179AF2E039E00A21C4F302528A
:102F90004FF0000B0091022A06D058F8040BC1171D
:102FA000032A09D00AE023E008F1070020F0070215
:102FB000F2E80201904605E000B2C117042A01D1EF
:102FC00040B2C117002906DA0A460021404261EBEF
:102FD00002012D2202E0220504D52B228DF80420C7
:102FE000012203E0E20701D02022F7E7914657E0F3
:102FF0000A2100E010214FF0000B00910BE010219E
:103000004FF0000B44F004040827009103E008206F
:103010004FF0000B0090C4F30252022A05D058F87A
:10302000040B0021032A08D008E008F1070020F073
:103030000702F2E80201904603E080B2042A00D1C0
:10304000C0B24FF0000922072AD53278702A07D083
:10305000DDF800C08CF0100C5CEA0B0C05D00EE023
:1030600040228DF80420012208E050EA010306D036
:1030700030238DF804308DF8052002229146009B04
:1030800083F0080353EA0B030AD150EA010201D18D
:10309000620705D530228DF804204FF001097F1E0C
:1030A0003278582A04D039A20C920CAA02920BE072
:1030B0003BA2F9E75B46009AFDF7F8F80C9B9B5C96
:1030C000029A521E0292137050EA0102F2D1029843
:1030D00004A9081A00F1200B600702D524F48034FB
:1030E00000E001275F4502DDA7EB0B0000E00020B8
:1030F00000EB0B01009003984944401A0390E00351
:1031000006D453462146179A039800F0A9F90544BE
:10311000002706E001A85246C05D179990476D1C34
:103120007F1C4F45F6DBE0030CD553462146179A2A
:10313000039800F095F9054404E0302052461799B1
:1031400090476D1C0099481E00900029F5DC08E0AE
:103150000298029952460078491C029117999047AB
:103160006D1CBBF10001ABF1010BF1DC5BE100F088
:1031700065F90544761C307800287FF40DAE19B04F
:103180002846BDE8F08F00000928010030313233B5
:103190003435363738396162636465660000000093
:1031A000303132333435363738394142434445467D
:1031B00000000000600700D4062708F1070020F097
:1031C0000700F0E80223804603F0004C5FEA0C00A1
:1031D00001D097A009E0200501D596A005E0E00701
:1031E00001D095A001E0AFF24C001390307823F0AD
:1031F000004365280CD006DC452809D046281DD0A0
:1032000047287FD13BE0662818D067287AD136E07E
:103210000021112F01DB112000E0781CCDE9000115
:1032200004A90CA8FFF7CAFCDDE90D010C9A4FF0C8
:10323000000B07F10109109200914EE04FF00040A1
:103240000097CDE9011004A90CA8FFF7B7FCDDE950
:103250000D020C9B0F994FF0000B914610930092BA
:1032600011B9791C00EB0109B7EB090003D4C0F1D7
:10327000FF3B07F10109A9EB0700019042E0012F94
:1032800000DA01270021112F01DD112000E038466E
:10329000CDE9000104A90CA8FFF790FCDDE90D01C0
:1032A0000C9A00914FF0000BB946109221070FD4F1
:1032B000009A4A4503DA914601E0A9F10109B9F102
:1032C000010F05DD109AA9F10101515C3029F4D0FC
:1032D000B84202DA10F1040F03DA0121CDE901103E
:1032E00010E0002803DC8344A9EB000102E0411C4C
:1032F000494500DD8946A0EB0B00401C01904FF0D2
:1033000000400290200705D40198484502DB4FF0A9
:10331000FF30019000208DF84B0002980DF14B0713
:10332000B0F1004F25D002200C902B200D90029878
:1033300000280CDA404202902D200D9007E00A216F
:103340000298FDF72EF83031029007F8011D0C9914
:10335000481E0C900029F2DC02980028EFD1791E5B
:103360000D980870307800F0200040F0450007F814
:10337000020D11A8C01BC01D02901398007800B167
:10338000012000EB0901019801EBE0710298014472
:103390000398401A401E0390E00306D4534621468A
:1033A000179A039800F05CF805441398007818B158
:1033B0005246179990476D1CE00323D5534621468A
:1033C000179A039800F04CF805441BE0BBF1000F7E
:1033D00007DB0098584504DD1098179910F80B008A
:1033E00001E0179930205246904701980BF1010BEC
:1033F000401E05F10105019004D12E205246179977
:1034000090476D1CB9F10001A9F10109DEDC05E06E
:1034100017F8010B5246179990476D1C0299481EE8
:1034200002900029F4DC53462146179A03989EE641
:103430002D0000002B000000200000002DE9F041CD
:10344000044600251E461746880404D405E0394684
:103450002020B0476D1C641EF9D52846BDE8F081D8
:103460002DE9F041044600251E469046C80301D5CB
:10347000302700E02027880404D505E0414638467F
:10348000B0476D1C641EF9D52846BDE8F0814A6836
:10349000002A06D00A68531C0B6010704868401E52
:1034A000486070471FB5044620681D2804D0A0F26C
:1034B000131000286FD16FE001234FF4FA6200214E
:1034C0006068FFF763FA4B4948600846406850B9A6
:1034D00049A03121504B51A2CDE9001053A1012048
:1034E00000F048FA0DE052A033214B4B4BA2CDE93E
:1034F00000104EA1032000F03DFA3E494868FFF756
:10350000D7FA01230A2200216068FFF73FFA394900
:1035100088600846806850B94DA03A213E4B3FA2D2
:10352000CDE9001041A1012000F024FA0DE050A0E7
:103530003C21394B39A2CDE900103CA1032000F019
:1035400019FA2C498868FFF7B3FA012341F288324F
:1035500000216068FFF71AFA2649C8600846C0686B
:1035600050B94AA043212C4B2CA2CDE900102FA129
:10357000012000F0FFF90DE04BA04521264B27A2CA
:10358000CDE9001029A1032000F0F4F91949C86819
:10359000FFF78EFA2CE02AE0164920694968884234
:1035A00002D101F05BF921E012492069C968884223
:1035B00015D110491131481EFDF709FA0D48407C1C
:1035C0000C49097C3EA24F23CDE90032CDE902101F
:1035D000114B12A215A1032000F0CCF906E0054919
:1035E00020698968884201D101F00CF900E000BF30
:1035F00000BF1FBD640C00206170705F696E69744C
:103600002056574D5F43726561746554696D6572EC
:10361000206572726F722100796400082E2E5C752D
:103620007365725C6170702E630000004150500041
:103630006170705F696E69742056574D5F437265A3
:1036400061746554696D6572206F6B210000000024
:103650006170705F696E6974206B65797363616E08
:103660005F74696D6572206572726F72210000006F
:103670006170705F696E6974206B65797363616EE8
:103680005F74696D6572206F6B2100006170705FFF
:10369000696E6974206468745F74696D6572206511
:1036A00072726F72210000006170705F696E6974E0
:1036B000206468745F74696D6572206F6B2100000F
:1036C00074656D703A2025642C68756D693A202503
:1036D000640000001CB514211048FCF72FFE0021E7
:1036E0000F48FEF7E3FD0D4908600846006850B931
:1036F0000CA02221154B16A2CDE9001018A1012023
:1037000000F038F909E017A02421104B10A2CDE9F0
:10371000001013A1032000F02DF91CBD640C002043
:10372000A53400086170705F696E6974204D73671D
:10373000457865635F4372656174654D6F64756C50
:1037400065206572726F72210000000070640008CD
:103750002E2E5C757365725C6170702E63000000C4
:10376000415050006170705F696E6974204D7367DD
:10377000457865635F4372656174654D6F64756C10
:1037800065206F6B2100000010B5421151F8222016
:1037900000F01F040123A3409A43431141F8232062
:1037A00010BD000008480068C0010BD5074800683C
:1037B000C00707D0054880380068002802DA0449AD
:1037C0000120087070470000FCED00E0800E00E072
:1037D000980000204FF06042D36F002BFCD0036BA9
:1037E000D367D36F002BFCD0C07840EA0120A2F849
:1037F0007C0070474FF06041CA6F002AFCD081F80E
:103800007C00704710B503494FF4004000F006FFFC
:1038100010BD0000880C002070B586B00546002D54
:103820001CD126480068002811D14FF4EF702449BC
:1038300024A229A3CDE90310CDE9013200900B4663
:103840002EA235A1002000F095F800BFFEE74FF44E
:10385000EF721B491BA0194B1B68984700240526D3
:103860002F4890F8F00010B9304606B070BD00F057
:103870006FFA00241BE004EB44112948313008445E
:1038800090F82000012810D104EB44122448313074
:103890001044411C1E222846FCF774FD28B904EB95
:1038A00044111F483130465C03E0601CC4B2052C53
:1038B000E1DB00BF00F080FA3046D6E74000002090
:1038C000E963000874616720213D202828766F692C
:1038D00064202A2930290000282573292068617373
:1038E00020617373657274206661696C6564206120
:1038F000742025733A256C642E0000002E2E5C6522
:103900006173796C6F676765725C7372635C656C19
:103910006F672E6300000000656C6F670000000099
:103920003801002010B50024114890F8F00001285B
:1039300001D1204610BD00F05CFA04460CB12046CF
:10394000F8E7012000F018FA0020094981F8F30097
:1039500081F8F400012000F0A3FB052000F05CFAE0
:1039600000F0B8FA0120024981F8F0002046E1E7B2
:10397000380100202DE9F04F8DB005460F469346E3
:1039800098463846FCF7F7FC814600244FF0010AC0
:1039900000200B900C900790089009900A90052D3C
:1039A0001CDDC1480068002811D14FF40F70BF49D9
:1039B000BFA2C6A3CDE90310CDE9013200900B46AA
:1039C000CBA2D2A10020FFF7D5FF00BFFEE74FF446
:1039D0000F72B649B6A0B44B1B689847CD4890F813
:1039E000F10010B90DB0BDE8F08FCA480078A842C8
:1039F00004DB3846FFF710FFA84200DAF2E7C549BA
:103A0000491C3846FCF7A5FC00B9EBE718A806905E
:103A100000F09EF9BF4890F8F50078B1BE48011952
:103A2000BEA2204600F0EAFB0444BD4850F8252021
:103A3000B9480119204600F0E1FB04440121284661
:103A400000F086FD40B1B74850F82520B248011972
:103A5000204600F0D3FB04440221284600F078FD04
:103A6000E8B1AD4801193A46204600F0C7FB0444CE
:103A7000B9F10F0F0CD8C9F10F01202207A8FCF7EC
:103A800056FCA548011907AA204600F0B7FB0444DC
:103A9000A1480119A4A2204600F0B0FB04441C2157
:103AA000284600F055FD002852D09B4801199FA2DE
:103AB000204600F0A3FB04440421284600F048FD02
:103AC000A8B100F095F90590934801192046059A90
:103AD00000F094FB04441821284600F039FD30B171
:103AE0008D48011990A2204600F088FB044408216B
:103AF000284600F02DFDA8B100F072F90590864827
:103B000001192046059A00F079FB0444102128464B
:103B100000F01EFD30B18048011983A2204600F05C
:103B20006DFB04441021284600F012FD48B100F05E
:103B30005BF90590784801192046059A00F05EFB74
:103B40000444754801197AA2204600F057FB04444A
:103B5000E021284600F0FCFC00285CD06E480119EA
:103B600074A2204600F04AFB04442021284600F0BD
:103B7000EFFCF8B1684801195A46204600F03EFBB8
:103B800004444021284600F0E3FC38B162480119A2
:103B900069A2204600F032FB04440BE08021284655
:103BA00000F0D6FC30B15C4801195FA2204600F05D
:103BB00025FB04448021284600F0CAFCC0B15FA266
:103BC00005210BA8169BFEF797FF534801190BAA76
:103BD000204600F013FB04444021284600F0B8FCC6
:103BE00030B14D48011950A2204600F007FB0444B3
:103BF0004021284600F0ACFC30B14748011942464C
:103C0000204600F0FBFA0444434801194CA2204628
:103C100000F0F4FA0444C4F580613F4A1019069B91
:103C2000179AFEF783FF064600200690A019B0F50C
:103C3000806F03D8002E01DB344401E04FF4806430
:103C4000201D5044B0F5806F04D94FF48064241FC8
:103C5000A4EB0A042F4890F8200058B100202E4908
:103C600008552C4920312C48FCF773FB10B900F0A3
:103C7000A3F8B7E6274890F8F50030B126480119B7
:103C800030A2204600F0BAFA0444234801192FA2BA
:103C9000204600F0B3FA044421461F4800F0ACF877
:103CA00000F08AF800BF9DE6400000200164000893
:103CB0006C6576656C203C3D20454C4F475F4C560B
:103CC0004C5F564552424F5345000000282573294A
:103CD0002068617320617373657274206661696C1A
:103CE00065642061742025733A256C642E00000001
:103CF0002E2E5C656173796C6F676765725C737299
:103D0000635C656C6F672E6300000000656C6F6715
:103D10000000000038010020300200201B5B000082
:103D20002800002010000020200000005B000000A0
:103D30005D200000280000003A000000256C6400AF
:103D4000290000001B5B306D000000000A0000002D
:103D500010B5084890F8F20030B100F05BF801208F
:103D6000044981F8F40003E00120024981F8F300DE
:103D700010BD00003801002010B504460D4880F841
:103D8000F24090F8F200A0B10A4890F8F40030B97F
:103D9000084890F8F30010B100F03CF809E005483D
:103DA00090F8F40028B1034890F8F30008B900F047
:103DB00032F810BD3801002010B5084890F8F20024
:103DC00030B100F028F80020044981F8F40003E045
:103DD0000020024981F8F30010BD000038010020E6
:103DE00000A070470000000000A070470000000025
:103DF000704700207047000070B504460D4622460B
:103E0000294602A0FEF768FE70BD0000252E2A7329
:103E1000000000007047704710B586B00446052CBE
:103E20001CDD10480068002811D14FF4AC700E4919
:103E30000EA215A3CDE90310CDE9013200900B4687
:103E40001AA221A10020FFF795FD00BFFEE74FF465
:103E5000AC72054905A0034B1B6898471C480470C9
:103E600006B010BD40000020BD6300086C6576659B
:103E70006C203C3D20454C4F475F4C564C5F5645AF
:103E800052424F5345000000282573292068617372
:103E900020617373657274206661696C656420616A
:103EA000742025733A256C642E0000002E2E5C656C
:103EB0006173796C6F676765725C7372635C656C64
:103EC0006F672E6300000000656C6F6700000000E4
:103ED0003801002010B5002400BF13E004EB4412A9
:103EE0000A491144481C1F21FCF728FA002104EB61
:103EF00044120648815404EB4412104480F8201008
:103F0000601CC4B2052CE9DB10BD00006901002073
:103F100030B585B004460D46052C1CDD1048006800
:103F2000002811D14FF49F700E490FA215A3CDE9BF
:103F30000310CDE9013200900B461BA221A1002005
:103F4000FFF718FD00BFFEE74FF49F72054906A07A
:103F5000034B1B6898471D4840F8245005B030BDFE
:103F600040000020A06300086C6576656C203C3D35
:103F700020454C4F475F4C564C5F564552424F537D
:103F80004500000028257329206861732061737340
:103F9000657274206661696C6564206174202573A4
:103FA0003A256C642E0000002E2E5C656173796CDE
:103FB0006F676765725C7372635C656C6F672E63B5
:103FC00000000000656C6F67000000001002002018
:103FD00010B586B00446002C1ED0012C1CD0114810
:103FE0000068002811D140F213100F490FA219A345
:103FF000CDE90310CDE9013200900B461EA225A1A8
:104000000020FFF7B7FC00BFFEE740F2131206499D
:1040100006A0044B1B689847204880F8F14006B082
:1040200010BD0000400000206C63000828656E6130
:10403000626C6564203D3D2066616C736529207C5F
:104040007C2028656E61626C6564203D3D20747241
:1040500075652900282573292068617320617373B1
:10406000657274206661696C6564206174202573D3
:104070003A256C642E0000002E2E5C656173796C0D
:104080006F676765725C7372635C656C6F672E63E4
:1040900000000000656C6F67000000003801002020
:1040A00010B586B00446002C1ED0012C1CD011483F
:1040B0000068002811D140F21F100F490FA219A368
:1040C000CDE90310CDE9013200900B461EA225A1D7
:1040D0000020FFF74FFC00BFFEE740F21F12064929
:1040E00006A0044B1B689847204880F8F54006B0AE
:1040F00010BD0000400000208463000828656E6148
:10410000626C6564203D3D2066616C736529207C8E
:104110007C2028656E61626C6564203D3D20747270
:1041200075652900282573292068617320617373E0
:10413000657274206661696C656420617420257302
:104140003A256C642E0000002E2E5C656173796C3C
:104150006F676765725C7372635C656C6F672E6313
:1041600000000000656C6F6700000000380100204F
:104170000EB50B4890F8F00000B90EBD0120FFF716
:1041800027FF08A009A1F422124BCDE900210290DB
:1041900011A218A10320FFF7EDFB00BFEDE700001F
:1041A00038010020322E322E3939000045617379F2
:1041B0004C6F676765722056257320697320696E9E
:1041C000697469616C697A6520737563636573737B
:1041D0002E000000576300082E2E5C656173796C19
:1041E0006F676765725C7372635C656C6F672E6383
:1041F00000000000656C6F6700000000F0B585B03E
:1042000006460D4614462746002D19D1244800685D
:1042100080B92C20234924A224A3CDE90310CDE9A1
:10422000013200900B462AA231A10020FFF7A2FB29
:1042300000BFFEE72C221B491BA0194B1B689847A7
:10424000002C19D11648006880B92D2015492AA2E2
:1042500016A3CDE90310CDE9013200900B461CA254
:1042600023A10020FFF786FB00BFFEE72D220D49AA
:1042700021A00B4B1B6898470AE03046761CB0F52E
:10428000806F04D214F8010B05F8010B00E002E086
:1042900020780028F1D100BFE01B05B0F0BD000080
:1042A00040000020396400086473740028257329D5
:1042B0002068617320617373657274206661696C34
:1042C00065642061742025733A256C642E0000001B
:1042D0002E2E5C656173796C6F676765725C7372B3
:1042E000635C656C6F675F7574696C732E63000047
:1042F000656C6F67000000007372630013B50C46B5
:104300004FF6FF73012269460248FDF770FE0098E0
:104310001CBD0000F00000202DE9FC410746884646
:1043200045460020019000900FB9BDE8FC81A7F13F
:104330000806706840F00100706000BFA9687068EE
:1043400020F003000830081AA86000BF0020B06009
:104350000021F160706820F0030106F108000C18DC
:10436000207900F0010000284CD0616821F00300A2
:104370006A4601A9FDF797FE00BFE06810B1D4E9D5
:1043800002108160A06810B1D4E90201C16005F19A
:104390005000019900EBC110009950F82100A04293
:1043A00024D105F15000E168019A00EBC210009A97
:1043B00040F8221005F15000019900EBC11000995E
:1043C00050F8210090B905F11800019A00EB820124
:1043D0000098FFF7D9F905F11800019950F821006C
:1043E00020B905F114010198FFF7CEF90020A06073
:1043F0000021E16000BF7168606820F003000830B0
:1044000008447060307900F0020000284ED0346813
:10441000616821F003006A4601A9FDF744FE00BF70
:10442000E06810B1D4E902108160A06810B1D4E94D
:104430000201C16005F15000019900EBC110009923
:1044400050F82100A04224D105F15000E168019A02
:1044500000EBC210009A40F8221005F150000199BB
:1044600000EBC110009950F8210090B905F1180037
:10447000019A00EB82010098FFF786F905F1180018
:10448000019950F8210020B905F114010198FFF7B6
:104490007BF90020A0600021E16000BF61687068C6
:1044A00020F003000830084460602646716821F05F
:1044B00003006A4601A9FDF7F6FD00BF0020B060C9
:1044C00005F15000019900EBC110009950F821103E
:1044D000F16005F15000019900EBC110009950F80E
:1044E000210040B105F15000019900EBC110009985
:1044F00050F82100866005F15000019900EBC110D1
:10450000009940F8216005F11800019A00EB820142
:10451000009801F027FC05F11401019801F022FC3C
:1045200000BF706820F0030106F108000C186068F5
:1045300040F0020060602660A868B0F5004F02D924
:1045400002200249087000BFEFE600006000002072
:1045500030B585B004460D46052C1CDD13480068B7
:10456000002811D140F2DB20114912A218A3CDE995
:104570000310CDE9013200900B461EA224A10020B9
:10458000FFF7F8F900BFFEE740F2DB22084909A077
:10459000064B1B689847204850F82400284010B16B
:1045A000012005B030BD0020FBE7000040000020E6
:1045B0000D6400086C6576656C203C3D20454C4FD1
:1045C000475F4C564C5F564552424F5345000000E2
:1045D00028257329206861732061737365727420C4
:1045E0006661696C65642061742025733A256C648A
:1045F0002E0000002E2E5C656173796C6F67676515
:10460000725C7372635C656C6F672E630000000000
:10461000656C6F6700000000100200202DE9F0417A
:1046200007460C461CB117B1B7F5F26F06D228A0A9
:10463000FEF752FA4FF0FF30BDE8F08104F00300BE
:1046400028B12EA0FEF748FA4FF0FF30F4E72546D8
:104650002C4639492868884208D1384804600068E7
:1046600000F5EA66706820F00300E5E7334804606F
:10467000334804604FF4EA612046FBF75FFE2E48A2
:104680002860304800F010FB6860A7F5EA6020F071
:10469000070104F5EA6000F0E2FB8046D8F8040068
:1046A00020F0030108F108000E18294606F1080061
:1046B000FFF732FE08F108002861706820F003005F
:1046C000381AA860A868E860706820F00300B3E7B3
:1046D000696E69745F6D656D6F72795F706F6F6C15
:1046E0002028293A206D656D6F72795F706F6F6C4D
:1046F00020696E76616C69640A000000696E6974F5
:104700005F6D656D6F72795F706F6F6C2028293AED
:10471000206D656D5F706F6F6C206D7573742062B6
:104720006520616C69676E656420746F2061207715
:104730006F72640A0000000059FA592A64000020D0
:10474000680000208C6400080EB5802200B109B119
:1047500010460AE001780129FAD101A900F020F8F9
:10476000042801D0002000E01020DDE9011203B090
:1047700000BD70B50D46040003D012B920780128A1
:1047800001D0802070BD204600F04AFD28B12946A6
:10479000204600F030F8002070BD812070BD000080
:1047A00010B504468089002824D0608904EB80007D
:1047B00000690860606840B16078022805D1002176
:1047C000204600F07DFF00F06BFF04F10C0000BFFD
:1047D000D0E85F1F491E8AB2C0E8512F0029F7D1E7
:1047E0006089401C80B26081E189884201D100204B
:1047F0006081042010BD10B500F062FFBDE81040DC
:1048000000F04EBF10B501210848FCF71BFC012841
:1048100001D100F019F84FF400510548FCF712FCE3
:10482000012801D100F006F810BD00000008014089
:104830000010014010B5012202210248FCF714FCCF
:1048400010BD0000000C014010B5002202210248FA
:10485000FCF70AFC10BD0000000C014010B501215E
:104860000148FCF7F7FB10BD000C014010B50246F3
:10487000504202EA0001B1F5803F05D2FF2901D87C
:10488000002007E0082005E0B1F1807F01D2102070
:1048900000E01820034621FA03F0024C54F82000EF
:1048A000184410BD906400081CB5FCF7E9FBFDF747
:1048B000CDFDFDF73DFCFDF79BFCFDF7CFFCFFF7C1
:1048C00031F8FF210020FFF723FB07210120FFF72C
:1048D0001FFB07210220FFF71BFB07210320FFF727
:1048E00017FBBF210420FFF713FBBF210520FFF7B3
:1048F0000FFBFFF73DFCFEF785FFFDF773FDFEF7AD
:10490000E3F8FEF7E7FE00F02FF907A092210C4B29
:104910000CA2CDE9001010A10320FFF72BF801E055
:10492000FDF700FDFCE7000073797374656D206985
:10493000732072756E6E696E672121210000000080
:10494000286300082E2E2F436F72652F5372632F3A
:104950006D61696E2E630000574952454C455353B3
:10496000000000002DE9F34383B089464C460398CC
:10497000082801D2082003E00398C01D20F007009A
:10498000039001AA02A903A8FDF7A6FB01AA02A9A8
:104990002046FCF762F805461DB9002005B0BDE8C9
:1049A000F08300BF04F15000E968029A00EBC210E6
:1049B000019A40F8221004F15000029900EBC11056
:1049C000019950F8210050B1002104F15000029AE1
:1049D00000EBC210019A50F82200816012E004F14D
:1049E0001800029A00EB82010198FEF7CDFE04F157
:1049F0001800029950F8210020B904F1140102981E
:104A0000FEF7C2FE0020A8600021E96000BF6868D0
:104A100020F0030105F1080001EB0008686820F0B0
:104A200003000399471A102F4AD3083F05F10800E5
:104A30000399461847F001007060C8F8006001AAA9
:104A400002A93846FDF72FFB00BF0020B06004F13B
:104A50005000029900EBC110019950F82110F1604B
:104A600004F15000029900EBC110019950F82100A7
:104A700040B104F15000029900EBC110019950F8C7
:104A80002100866004F15000029900EBC1100199E9
:104A900040F8216004F11800029A00EB82010198AD
:104AA00001F060F904F11401029801F05BF900BF14
:104AB0003560287900F0020003990843686009E036
:104AC000D8F8040020F00200C8F80400686820F05C
:104AD0000100686000BFA168686820F0030008302A
:104AE0000844A060D4E90201884201D9A068E060CE
:104AF00000BFA068B0F5004F02D90320024908703A
:104B000005F108004AE700006000002010B50246E9
:104B10001146B1F5803F05D2FF2901D8002007E0FA
:104B2000082005E0B1F1807F01D2102000E01820BC
:104B3000034621FA03F0024C54F82000184410BD3B
:104B400090640008EFF3058008B182207047EFF30E
:104B50001480C00703D0DFF80CC000DF704701F0FD
:104B60000FB90000815D000888B0EFF3058010B137
:104B7000822008B07047EFF3148010F0030113484F
:104B800006D001291BD0022911D0032919D113E025
:104B900008A981F309880078C0070BD05FF00200F4
:104BA00080F31488BFF34F8FBFF36F8F09E0007855
:104BB000C00706D10320F3E70078C00701D0FF202B
:104BC000D7E7DFF80CC000DFD3E70000A8680008D3
:104BD000F15D000870B50546EFF3058020B10122B4
:104BE000284601F09FFA04E028460022DFF810C0B2
:104BF00000DF04462146686800F0C4F9204670BD15
:104C000025610008EFF305820AB100207047EFF339
:104C10001482D20702D1044A52781AB1DFF80CC0CC
:104C200000DF704701F008B97C000020395E000801
:104C3000EFF3058212B1012201F0A0BA0022DFF8E1
:104C400008C000DF704700007D61000810B530B17A
:104C5000006800F011F8102800D1202010BD80203D
:104C600010BD20B129B10068002200F011B88020E9
:104C70007047862070470000EFF305820AB1FFF706
:104C800063BDDFF808C000DF704700009F5E0008CA
:104C9000EFF305830BB1FFF76CBDDFF808C000DF51
:104CA00070470000D95E0008EFF3058109B10020CC
:104CB0007047EFF31481C90702D10449497819B14B
:104CC000DFF80CC000DF704701F021B97C00002044
:104CD0000F5F0008EFF3058109B182207047DFF80C
:104CE00008C000DF704700002B5F0008EFF305826B
:104CF0000AB182207047DFF808C000DF704700006B
:104D00004D5F0008EFF305820AB100207047EFF312
:104D10001482D20702D1044A52781AB1DFF80CC0CB
:104D200000DF704701F030B97C000020895F000887
:104D3000DFF80CC000DFDFF80CC000DFFEE700008A
:104D4000F55F000811600008DFF804C000DF70475D
:104D500049600008EFF305830BB100207047EFF3C3
:104D60001483DB0702D1044B5B781BB1DFF80CC066
:104D700000DF704701F074B97C000020616000081A
:104D8000EFF3058109B182207047DFF808C000DF2A
:104D90007047000099600008EFF305820AB1822095
:104DA0007047DFF808C000DF70470000C1600008EE
:104DB000094C4FF0FF3529462068FFF75DFF02469A
:104DC0000846102AF7D1FFF7BFFF0028F3D00246AC
:104DD00008469047EFE700007000002070B50646D7
:104DE000354606B970BDA86878B1FDF755FA044696
:104DF00004B9F7E740F213102060A8686060A86863
:104E0000A06025612046FDF7FFFA00BFEAE7012810
:104E100006D0022805D0032804D0042804D102E0DB
:104E200003E002E001E000E000BF00BF00BFFEE7DA
:104E300000BFFEE7074801684FF0E0204161002114
:104E40008161072101610448016841F07F410160EF
:104E500040177047A468000820ED00E07047F0B5E7
:104E60000C46024608265660566826F0030702F1F3
:104E70000806B919A4F11806576827F00307F61BAE
:104E800026F007064E600027CF608F604E6826F040
:104E9000030701F10806BB19196002265E6002F1E2
:104EA000080500266E602B601046F0BD50E8001F1C
:104EB00031B10B6840E80032002AF7D1084670474C
:104EC000BFF32F8FFAE710B568B161B10B3121F054
:104ED0000302016844680B1A1B1B934205D2084663
:104EE00009680029F5D1002010BD210007D0211844
:104EF0000368C1E90032016001F1080010BD4260A1
:104F0000083010BD70B50D46002812D04FF6FF7165
:104F1000084C884204D222680146104600F0FEFB8D
:104F200020684570044800F0E5F8BDE8704000F0E6
:104F3000B9BC70BD8800002064A600200F4810B5E1
:104F40000D4942680E480B680068934204D00A601D
:104F5000CB88421E1A448A808A8880B282420AD153
:104F600000200860054800F0C5F80146BDE8104083
:104F7000024800F0F7BB10BD9C00002064A6002092
:104F800084000020002808D0002906D0806800286E
:104F900003D0002204C1001FFCD1704770B5194D29
:104FA000E86800282CD0A88A401EA882002621E0AC
:104FB000A06838B161684160606810B1A168816023
:104FC0006660A6600F482146183800F0CBFBA08A27
:104FD000A8826078042804D10B49E08A0988084433
:104FE000A08201206070E068E860E06808B10561B7
:104FF000E6602661A88A002802D1EC68002CD7D18F
:1050000070BD00007CA600208400002070B5040064
:105010000FD00D4DA17801262868827891420CD9D5
:1050200000F0BCFB286846702046BDE8704000F0E8
:1050300039BC064800F05EF8F7E766702146BDE827
:105040007040024800F08EBB8800002064A600205B
:1050500010B50446008B084320836278618B062AD2
:1050600018D0052A19D1084217D001EA000262833C
:1050700088432083204600F0BCFB01206070628BD7
:105080000821204600F0B1FB2146BDE8104003484E
:1050900000F068BB31EA0002EAD010BD64A600202F
:1050A000814202D342688A4201D8012070470268D7
:1050B0000A60BFF35F8F50E8003F0A689A42F6D15A
:1050C00040E80012002AF2D10020704768B161B1B7
:1050D0000022083902E00246006830B18842FAD165
:1050E0002AB100681060002070470120704700213D
:1050F0004160F8E70146406842684A600B78002248
:10510000022B05D0012B03D0032B01D04260704746
:1051100043680BB19960426082607047810700D09C
:105120000020704770B5044600201546207001220B
:105130006270A17084F824106060A060E06020615B
:105140002062A082E0822083608384F82500E08CC6
:1051500018B90548FFF7AAFEE06229462046BDE8D7
:10516000704000F01DB80000988D002008B108299B
:1051700001D2012070470144091F002201600A602A
:105180004260104670470000034800210160034957
:105190000988C180704700009C00002098680008C2
:1051A00070B5C28C1C4D930802D12A88C2F38D03BE
:1051B000C26A02EB8302540700D5121F4FF08074BD
:1051C00042E9021400242646B2F1400242F824606B
:1051D000641C0E2CFAD3C4691462826201632968CC
:1051E000C90014D5112B12D94FF0FF31103B11EB30
:1051F00053014FF0CC3305D042F8043C42F8083D4F
:10520000491EF9D1C16A121F8A4200D91360C06ACF
:105210000249016070BD000094680008A52E5AE2A2
:10522000C1898089081A70470122027000224270E9
:105230008270426002814281103982818908C18175
:10524000704700002DE9F041044640680E464FF0DB
:10525000000804F10C05E8B36078012701283ED06E
:10526000022813D003285CD10846FFF71FFE050073
:1052700057D02046FFF73EFF0446294600F0B2FA19
:105280006770204600F0B5FA214621E02046FFF77E
:1052900031FF0646002100F0A5FA2189F06904EBF0
:1052A00081010861D5E85F0F401C81B2C5E8501F3D
:1052B0000028F7D12089401C80B22081E1898842F2
:1052C00001D1A4F808807770304600F092FA314698
:1052D000174800E00CE0BDE8F04100F043BA20467A
:1052E000FFF708FF04463246102100F07EFAC7E7B8
:1052F000A089E189884216D2208904EB80000661EA
:10530000D5E85F0F401C81B2C5E8501F0028F7D1D7
:105310002089401C80B22081E189884201D1A4F813
:105320000880BDE8F081BDE8F0410320FFF76FBDC4
:1053300064A6002070B5164642680D4612B1417849
:1053400001290BD08189C4890023A14224D19EB1B7
:105350001D4C216892B100F005FA16E0FFF7CAFE75
:1053600004462A46102100F040FA204600F041FA97
:105370002046FFF74BFE25E0012070BD416021680B
:105380004B60216888600221417020680821C56156
:105390003046FFF7B7FDEFE7018900EB81010D61B2
:1053A00000F10C01D1E85F2F521C94B2C1E8524FBA
:1053B000002AF7D10189491C89B20181C289914231
:1053C00000D10381002070BD8800002070B5044624
:1053D000808915460026C0B3608904EB800000690F
:1053E00008606089401C80B26081E189884200D1F8
:1053F0006681606810B1607802280BD014F10C044B
:10540000D4E85F0F401E81B2C4E8501F0028F7D1D6
:10541000002070BD2046FFF76DFE0546002100F01C
:10542000E1F92189E86904EB810108612089401CC8
:1054300080B22081E189884200D12681284600F08F
:10544000D8F92846FFF7E2FDE2E7FFE73DB10B4858
:10545000626801682AB1204600F084F908E0012062
:1054600070BD616001684E600068846001206070FA
:1054700008212846FFF746FDF1E7000088000020DC
:10548000002814D0411C13D00C4A4FF6FE719042F4
:105490000CD800EB4002C2EBC0120948036803EBD2
:1054A000C202521EB2FBF3F0884204D9084670478C
:1054B0004FF6FF70704780B27047000000093D0052
:1054C000B4680008032101700021418041608160BF
:1054D000C16070472DE9F0410446408820B1314D4C
:1054E000A1682A68914202D0FF20BDE8F081401EE9
:1054F0000004000C608053D12968086AA04209D1D9
:10550000E068086208E0C268A24202D1E268C260B4
:1055100002E010460028F6D191F824000A6A06E05D
:1055200053681BB19B78834200D91846D268002A81
:10553000F6D18870DFF870806168012611B32046CB
:10554000FFF7D8FD0746002100F04CF9384600F07F
:1055500050F96680A760386AE0603C622968D8F834
:1055600004008A788078824201D3384616E00E48DB
:1055700000F0F8F839460C4800F0F4F82868467056
:105580007E700AE0D8F804108A782968824207D928
:10559000054800F0E7F8286846700020FFF736FD60
:1055A0000020A2E78800002064A6002070B51C4DF2
:1055B0000E4604464188286861B1A268824210D133
:1055C000A1F57F40FF3803D0491C6180002070BDE9
:1055D000FF2070BDA060016AE1600462012060806C
:1055E000F4E776B191788078814203D29070A06818
:1055F00000F0DEF8606830B12046296800F0B2F8AB
:1056000008E0012070BD28686060296800204860BB
:105610002868846009213046FFF774FCF1E7000038
:105620008800002070B51B48012102685170006895
:1056300000F0B4F8184D6C7818E000BF05EBC40119
:1056400048680278EAB1012A20D000F0FFF8E87833
:10565000641C844200D100240F48801CD0E84F1FF6
:10566000491EC9B2C0E8421F002AF7D1A878002815
:10567000E4D16C700948FFF73DFDBDE8704000F0D3
:1056800011B9098989B2FFF7E3FCE0E78968FFF700
:10569000D9FDDCE788000020C8A3002064A6002014
:1056A0000548017811B101214170704703494FF05D
:1056B00080500860704700009000002004ED00E07A
:1056C000F0B4154DAB1CEE784FEA0507D3E84F2F29
:1056D000B24202D1BFF32F8F11E0521CD4B2C3E803
:1056E000424F002AF2D100BFD7E84F2F541CB442DA
:1056F00000D10024E4B2C7E8434F002BF4D1EB788B
:10570000934205D905EBC202C2E90101F0BC704722
:10571000F0BC0220FFF77BBBC8A30020104A10B5E5
:10572000D368ABB113469B8A03E08CB12246A48AAE
:105730002344D4688B42F8D3C460D0600261C4684B
:1057400004B12061591A8182908A401A908210BD5A
:105750000024C460D060C91A02619182848210BDA5
:105760007CA6002030B502780023022A03D0012A4B
:1057700001D0032A00D101238C7800E01046426852
:1057800012B19578A542F9D24A6041601BB102B1CD
:105790009160886030BD0020FBE7000003494A6843
:1057A00042600022826048607047000064A60020CA
:1057B00010B5836804462BB9607801280ED1084BD8
:1057C00003E09B6818780028FBD0204600F026F8FC
:1057D0002146BDE810401846FFF7C4BF10BD0000C9
:1057E00064A60020806A01627047806AC0E90812DE
:1057F000704710B5016900290ED0C268CA60C3683D
:1058000000223BB18B8A848A23448B82C36819614E
:10581000C26000E08A82026110BD0000816839B177
:1058200042684A604168002901D0806888607047FA
:10583000054906E04A68824202D1406848607047E4
:1058400011460029F6D1704764A6002010B54168C2
:1058500081B1FFF74FFC0446FFF7CBFF01206070DA
:1058600001462046FFF7BEFF2146BDE81040034831
:10587000FFF778BF4188491C418010BD64A6002015
:1058800006480068D0E90A10814203D30068044941
:10589000884202D00120FFF7BABA70478800002082
:1058A000A52E5AE20749022248604270064A127841
:1058B000002A05D006C98A4202D0C078FDF79ABFF7
:1058C00070470000880000209800002070B5FDF7A8
:1058D00069FF00200446204A204902E042F82040A7
:1058E000401C0B889842F9D31D48342201881D487A
:1058F000FDF726FA1C48008880B240F000421B48A1
:1059000001681B48FDF71CFA1A48082201881A484A
:105910000068FDF715FA194DFF20194AE870EC846C
:1059200000212846FFF7FEFB164804210170446061
:1059300015480170C46004618482144815490560EB
:10594000022068701248047044700978C170BDE884
:105950007040FFF719BC0000CCA50020906800083B
:10596000BC680008888C002094680008C0680008A3
:10597000988D0020E46800087800002030A6002000
:10598000314E000864A600207CA60020880000207C
:10599000C8A30020C86800081B4810B5016841F47E
:1059A0007F01016000684FF07F4101EA0020164945
:1059B000C0431439B0FA80F00968C0F10800C1F39F
:1059C0000221814200D3481C0F49091F0B686FF068
:1059D0008072824063F317020A60FFF72BFA0B49CB
:1059E000002808600EDB00F1E021FF2281F800248E
:1059F00000F01F02012191404009800000F1E020E9
:105A0000C0F8001110BD000020ED00E0940000205F
:105A10000C4810B50268012151700068FFF7BEFE06
:105A2000FFF78CFA08480168491C0160FFF7B6FAD5
:105A300000F0D4FB0548FFF75DFBBDE81040FFF721
:105A400031BF0000880000208400002064A60020F0
:105A5000002805D0810702D10178002900D000205C
:105A60007047000030B50B4C0023626805E0956874
:105A70008D4204D813461268491B002AF7D10260F0
:105A8000816012B19568691A91600BB1186030BDE0
:105A9000606030BD7C0000200D4B0022596803E09F
:105AA000814204D00A4609680029F9D104E019B1FD
:105AB000016822B1116003E04FF0FF307047596078
:105AC000016819B18A6880681044886000207047B6
:105AD0007C0000202DE9F0411E46174680460D4609
