:020000040800F2
:1000000030040020450100085D040008F3020008E8
:1000100059040008C5010008370E00080000000060
:10002000000000000000000000000000C9080008F7
:10003000C901000800000000B10700088D0A00088F
:100040005F0100085F0100085F0100085F01000810
:100050005F0100085F0100085F0100085F01000800
:100060005F0100085F0100085F0100085F010008F0
:100070005F0100085F0100085F0100085F010008E0
:100080005F0100085F0100085F0100085F010008D0
:100090005F0100085F0100085F0100085F010008C0
:1000A0005F0100085F0100085F0100085F010008B0
:1000B0005F0100085F0100085F0100085F010008A0
:1000C0005F0100085F0100085F0100085F01000890
:1000D0005F010008150B00083D0B00085F010008D8
:1000E0005F0100085F0100085F0100085F01000870
:1000F0005F0100085F0100085F0100085F01000860
:100100005F0100085F0100085F0100085F0100084F
:100110005F0100085F0100085F0100085F0100083F
:100120005F0100085F0100085F0100085F0100082F
:10013000DFF80CD000F018F800480047B10E0008B6
:10014000300400200648804706480047FEE7FEE7E7
:10015000FEE7FEE7FEE7FEE7FEE7FEE7FEE7FEE777
:10016000B50A000831010008064C074D06E0E068BA
:1001700040F0010394E8070098471034AC42F6D3EE
:10018000FFF7DAFFD8140008F814000808B50121B9
:10019000042000F01FFB4FF48070ADF80000102029
:1001A0008DF8030003208DF802006946044800F032
:1001B0000CF84FF48071024800F092F808BD00007E
:1001C0000008014000BFFEE770472DE9F0410246FC
:1001D00000250026002000230024002791F803C0FA
:1001E0000CF00F0591F803C00CF0100CBCF1000FDF
:1001F00003D091F802C04CEA050591F800C0BCF1AB
:10020000000F31D0146800202BE04FF0010C0CFAE5
:1002100000F3B1F800C00CEA03069E4220D183002F
:100220004FF00F0C0CFA03F7BC4305FA03FC4CEA41
:10023000040491F803C0BCF1280F06D14FF0010C63
:100240000CFA00FCC2F814C00AE091F803C0BCF13B
:10025000480F05D14FF0010C0CFA00FCC2F810C099
:10026000401C0828D1D31460B1F800C0BCF1FF0FC6
:1002700034DD546800202EE000F1080C4FF0010836
:1002800008FA0CF3B1F800C00CEA03069E4221D133
:1002900083004FF00F0C0CFA03F7BC4305FA03FC84
:1002A0004CEA040491F803C0BCF1280F05D100F119
:1002B000080C08FA0CF8C2F8148091F803C0BCF1DD
:1002C000480F07D100F1080C4FF0010808FA0CF8AC
:1002D000C2F81080401C0828CED35460BDE8F081DD
:1002E00041617047016170470AB1016100E04161FD
:1002F000704700BFFEE7000010B586B0044601213C
:10030000480400F057FA0121042000F063FA0420A9
:10031000ADF8140018208DF8170003208DF8160092
:1003200005A91C48FFF751FF0820ADF81400042070
:100330008DF8170005A91748FFF747FF26208DF80D
:10034000000000208DF8010001208DF802008DF8DA
:100350000300684600F084F801940020ADF808001E
:10036000ADF80A00ADF80C00ADF810000C20ADF8A7
:100370000E0001A9084800F0E9FC012240F22551D5
:10038000054800F0BEFC0121034800F025FC06B042
:1003900010BD0000000801400044004010B54FF4BB
:1003A000C06000F095F8FFF7F1FE00F071FB00F07F
:1003B00023F800F027F94FF4165000F019FC4FF421
:1003C0001650FFF799FF03A000F038FD06A000F0DB
:1003D0008DFA10BDC0B6D1C0B3F5CABCBBAFB3C9AE
:1003E000B9A60D0A00000000C0B6D1C0B3F5CABC62
:1003F000BBAFB3C9B9A6000008B50121082000F0C1
:10040000E9F92020ADF8000010208DF8030003204A
:100410008DF8020069460F48FFF7D7FE0120ADF8BE
:10042000000069460B48FFF7D0FE0220ADF800003F
:1004300069460848FFF7C9FE20210648FFF752FF2A
:1004400001210448FFF74EFF02210248FFF74AFF4F
:1004500008BD0000000C014000BFFEE7704700002F
:1004600070B5002100230F22C47804B3154C246812
:1004700004F4E064C4F5E064210AC1F10403CA4055
:10048000447804FA03F184781440214309010E4CA6
:100490000678A155047804F01F050124AC400578C6
:1004A0006D11AD0005F1E025C5F8004109E00478C3
:1004B00004F01F050124AC40044D0678761145F880
:1004C000264070BD0CED00E000E400E080E100E0BB
:1004D00002490143024A1160704700000000FA051A
:1004E0000CED00E070B500240EE00021204600F085
:1004F000E0F8002504E0002000F04AF9681CC5B2CD
:10050000802DF8DB601CC4B2082CEEDB70BD00004F
:1005100008B50121082000F05DF914208DF80300D2
:1005200003208DF802004020ADF8000069460A481B
:10053000FFF74BFE8020ADF8000069460648FFF744
:1005400044FE012240210448FFF7CEFE0122802113
:100550000148FFF7C9FE08BD000C014070B5054613
:10056000002413E08020204100EA050280210E488B
:10057000FFF7BAFE012240210B48FFF7B5FE00222B
:1005800040210948FFF7B0FE601CC4B2082CE9DB2B
:10059000012240210448FFF7A7FE00224021024823
:1005A000FFF7A2FE70BD0000000C014010B5012253
:1005B00080210948FFF798FE012240210648FFF7F5
:1005C00093FE002280210448FFF78EFE0022402186
:1005D0000148FFF789FE10BD000C014010B5002254
:1005E00080210748FFF780FE012240210448FFF7E1
:1005F0007BFE012280210248FFF776FE10BD00003D
:10060000000C014070B5002406E0002500E06D1CE0
:10061000B5F57A7FFBD3641CB4F57A7FF5D3FFF789
:1006200077FFAE2000F0A4F8D52000F0A1F88020DC
:1006300000F09EF8A82000F09BF83F2000F098F80A
:10064000D32000F095F8002000F092F8402000F050
:100650008FF8A12000F08CF8C82000F089F8DA208B
:1006600000F086F8122000F083F8812000F080F876
:10067000CF2000F07DF8D92000F07AF8F12000F0CA
:1006800077F8DB2000F074F8302000F071F8A42037
:1006900000F06EF8A62000F06BF88D2000F068F8EE
:1006A000142000F065F8AF2000F062F8FFF71AFFA1
:1006B00070BD70B505460C4645F0B00000F058F826
:1006C000102141EA141000F053F804F00F0000F07C
:1006D0004FF870BD2DE9F04105460E461746721ED3
:1006E000D206110E6A1E5206100EFFF7E2FF00241A
:1006F00009E0A7F12001134A02EB0111085D00F0A7
:1007000047F8601CC4B2082CF3DB721ED206110E2F
:100710006A1E012303EB4202D0B2FFF7CAFF002496
:100720000BE0A7F12001074A02EB011204F10801D6
:10073000505C00F02DF8601CC4B2082CF1DBBDE861
:10074000F0810000E80E00082DE9F04107460E4652
:100750001546002407E02A5D3019C1B23846FFF77C
:10076000B9FF601CC4B2285D0028F4D1BDE8F08157
:1007700010B50446FFF71AFF7820FFF7EFFE0020C0
:10078000FFF7ECFE2046FFF7E9FEFFF727FF10BD5D
:1007900010B50446FFF70AFF7820FFF7DFFE402080
:1007A000FFF7DCFE2046FFF7D9FEFFF717FF10BD6D
:1007B0007047000029B1064AD2690243044BDA614E
:1007C00004E0034AD2698243014BDA6170470000BA
:1007D0000010024029B1064A92690243044B9A6113
:1007E00004E0034A92698243014B9A61704700001A
:1007F0000010024030B500210022002400232D4DBE
:100800006D6805F00C0121B1042905D0082923D118
:1008100005E0294D056022E0274D05601FE0254DCC
:100820006D6805F47012234D6D6805F4803402255F
:1008300005EB92421CB9214D554305600BE01D4D5F
:100840006D6805F400351DB11C4D5543056002E08F
:10085000194D5543056002E0174D056000BF00BF0C
:10086000144D6D6805F0F0010909154D6B5C0568C4
:10087000DD4045600F4D6D6805F4E061090A104DDB
:100880006B5C4568DD4085600A4D6D6805F460511C
:10089000C90A0B4D6B5C4568DD40C560054D6D6850
:1008A00005F44041890B074D6B5CC568B5FBF3F55A
:1008B000056130BD0010024000127A0000093D00C1
:1008C00014000020240000207047000010B50446EA
:1008D0002146054800F0ABFA00BF8021024800F035
:1008E000D9F90028F9D010BD0044004070B5044685
:1008F000002504E0605DFFF7E9FF681CC5B2605D9C
:100900000028F7D170BD10B500F002F810BD00004E
:100910000CB50020019000903348006840F480300E
:100920003149086000BF3048006800F40030009092
:100930000198401C0190009818B90198B0F5A06F7B
:10094000F1D12948006800F4003010B10120009076
:1009500001E0002000900098012843D1234800685E
:1009600040F01000214908600846006820F00700A8
:1009700008600846006840F0020008601A484068B5
:10098000194948600846406848600846406840F495
:10099000806048600846406820F47C104860084643
:1009A000406840F4E81048600846006840F08070F5
:1009B000086000BF0C48006800F000700028F9D003
:1009C0000948406820F0030007494860084640682D
:1009D00040F00200486000BF0348406800F00C008F
:1009E0000828F9D10CBD0000001002400020024090
:1009F00030B50146B1F1807F01D3012030BD21F037
:100A00007F40401E4FF0E022506150170F22002817
:100A100007DA13071D0E094B00F00F04241F1D55A4
:100A200003E013071C0E064B1C5400BF00204FF0C0
:100A3000E0229061072010610020DFE718ED00E060
:100A400000E400E031B5104800684FF47A71B0FB63
:100A5000F1F52846FFF7CCFF002408E000BF4FF077
:100A6000E020006900F480300028F8D0641C009871
:100A70008442F3D34FF0E020006920F001004FF0F2
:100A8000E021086138BD0000000000207047000030
:100A900010B5064800680649B0FBF1F42046FFF7A0
:100AA000A7FF08B100BFFEE710BD00000000002056
:100AB000A086010010B51348006840F001001149FC
:100AC000086008464068104908400E4948600846DA
:100AD00000680E4908400B4908600846006820F489
:100AE000802008600846406820F4FE0048604FF40B
:100AF0001F008860FFF707FF4FF00060044908609F
:100B000010BD0000001002400000FFF8FFFFF6FEDD
:100B100008ED00E010B540F22551074800F0C7F895
:100B200040B1054800F07EF9C4B2224601210320FD
:100B3000FFF7D0FD10BD00000038014010B540F2B5
:100B400025511D4800F0B3F8002833D01A4800F0B2
:100B500069F9C4B2224601210420FFF7BBFD412CF4
:100B60000DD100201549086015A000F067F94FF479
:100B70007A70FFF767FF01201449C1F89401422CF5
:100B80000BD100200D49103908604FF47A70FFF73F
:100B900059FF01200D49C1F88401432C0AD10120DD
:100BA0000B4908604FF47A70FFF74CFF00200949A9
:100BB000C1F8A00110BD0000004400409481214212
:100BC000BAECB5C6C1C10D0A000000000080214288
:100BD000A00121420000214221B1828942F4005249
:100BE000828104E082894DF6FF731A40828170474A
:100BF00010B586B0044601218803FFF7EBFD012103
:100C00000420FFF7E7FD4FF40070ADF81400182042
:100C10008DF8170003208DF8160005A91B48FFF773
:100C2000D4FA4FF48060ADF8140004208DF817005A
:100C300005A91648FFF7C9FA25208DF810000120F4
:100C40008DF811008DF812008DF8130004A8FFF73D
:100C500007FC00940020ADF80400ADF80600ADF8E4
:100C60000800ADF80C000C20ADF80A0069460848F1
:100C700000F06CF8012240F22551054800F041F8DF
:100C800001210348FFF7A8FF06B010BD000801408E
:100C90000038014002460020B1F5007F00D100BFBE
:100CA00013880B400BB1012000E00020704770B5A5
:100CB0000246002400230025002040F66A16B142B7
:100CC00000D100BFC1F3421501F01F03012606FA4F
:100CD00003F3012D02D19689334006E0022D02D1A3
:100CE000168A334001E0968A33400C12012606FA38
:100CF00004F41688344013B10CB1012000E0002048
:100D000070BDF0B50346002400260025002040F603
:100D10006A17B94200D100BF1846C1F3421401F06E
:100D20001F06012707FA06F5012C01D10C3004E05B
:100D3000022C01D1103000E014301AB107682F43A3
:100D4000076002E00768AF430760F0BD2DE9F04798
:100D500086B005460E460024A24600BFA1460027E5
:100D6000B08900B100BF2F462C8A4CF6FF700440BA
:100D7000F08804432C82AC894EF6F3100440B0880E
:100D800031890843718908430443AC81AC8A4FF62A
:100D9000FF400440B0890443AC8201A8FFF72AFD5C
:100DA0001F48874202D1DDF810A001E0DDF80CA059
:100DB000A88900F4004040B10AEBCA0000EB0A1019
:100DC00031684900B0FBF1F807E00AEBCA0000EB1C
:100DD0000A1031688900B0FBF1F86420B8FBF0F02C
:100DE00004012009642101FB1089A88900F4004056
:100DF00040B1322000EBC900B0FBF1F000F0070079
:100E0000044308E0322000EB09106421B0FBF1F04C
:100E100000F00F0004432C8106B0BDE8F08700000D
:100E20000038014001468888C0F308007047C1F3CC
:100E300008028280704700BFFEE70000014A0249B5
:100E400000F013B88D0E00082800002002E008C84A
:100E5000121F08C1002AFAD170477047002001E034
:100E600001C1121F002AFBD170472DE9F04116463F
:100E70000F460446002503E03946B047641C6D1C4C
:100E800020780028F8D12846BDE8F08170B50446E6
:100E90000D46E1B20548FFF7CAFF00BF80210348B5
:100EA000FFF7F8FE0028F9D0204670BD0038014059
:100EB000FFF774FAFFF716FB04A201210846FFF7BB
:100EC00043FC05A0FFF7BAFF00BFFEE768656C6C46
:100ED0006F2066726A00000068656C6C6F20B7EB6B
:100EE000C8D9BDDC0D0A00000000000000000000B1
:100EF0000000000000000000000000F800000000FA
:100F0000000000333000000000100C06100C06003A
:100F1000000000000000000040C07840C0784000A1
:100F2000043F04043F040400007088FC0830000003
:100F3000001820FF211E0000F008F000E01800005B
:100F400000211C031E211E0000F008887000000014
:100F50001E2123241927211010160E000000000066
:100F60000000000000000000000000E01804020083
:100F7000000000071820400000020418E0000000F4
:100F80000040201807000000404080F080404000F2
:100F90000202010F01020200000000F00000000048
:100FA0000101011F0101010000000000000000001C
:100FB00080B0700000000000000000000000000091
:100FC000000101010101010100000000000000001A
:100FD00000303000000000000000000080601804B5
:100FE000006018060100000000E010080810E00092
:100FF000000F102020100F00001010F8000000005B
:101000000020203F202000000070080808887000A1
:101010000030282422213000003008888848300021
:101020000018202020110E000000C02010F8000041
:1010300000070424243F240000F8088888080800DA
:101040000019212020110E0000E0108888180000EF
:10105000000F112020110E0000380808C8380800C1
:101060000000003F00000000007088080888700041
:10107000001C222121221C0000E010080810E000C2
:101080000000312222110F00000000C0C00000004B
:101090000000003030000000000000800000000070
:1010A0000000806000000000000080402010080068
:1010B0000001020408102000404040404040400031
:1010C000040404040404040000081020408000000C
:1010D0000020100804020100007048080808F00011
:1010E0000000003036010000C030C828E810E000E1
:1010F0000718272423140B000000C038E00000006C
:10110000203C23020227382008F8888888700000D5
:10111000203F202020110E00C030080808083800A9
:10112000071820202010080008F808080810E00020
:10113000203F202020100F0008F88888E8081000C1
:10114000203F20202320180008F88888E808100095
:10115000203F200003000000C030080808380000CD
:1011600007182020221E020008F808000008F808CE
:10117000203F210101213F20000808F80808000055
:101180000020203F2020000000000808F808080088
:10119000C08080807F00000008F888C02818080000
:1011A000203F20012638200008F808000000000039
:1011B000203F20202020300008F8F800F8F8080030
:1011C000203F003F003F200008F830C00008F8082A
:1011D000203F200007183F00E01008080810E0003A
:1011E0000F10202020100F0008F808080808F00051
:1011F000203F210101010000E01008080810E00074
:101200000F18242438504F0008F888888888700008
:10121000203F2000030C30200070880808083800A8
:101220000038202121221C00180808F8080818009E
:101230000000203F2000000008F808000008F8081F
:10124000001F202020201F000878880000C83808D0
:10125000000007380E010000F80800F80008F80048
:10126000033C0700073C03000818688080681808E2
:1012700020302C03032C30200838C800C838080060
:101280000000203F2000000010080808C8380800AF
:101290002038262120201800000000FE0202020053
:1012A0000000007F40404000000C30C00000000003
:1012B000000000010638C00000020202FE0000002B
:1012C000004040407F0000000000040202020400D1
:1012D000000000000000000000000000000000000E
:1012E00080808080808080800002020400000000F6
:1012F00000000000000000000000808080800000EE
:101300000019242222223F2008F8008080000000DB
:10131000003F112020110E0000000080808000009E
:10132000000E112020201100000000808088F800AD
:10133000000E112020103F200000808080800000DF
:10134000001F222222221300008080F08888881843
:101350000020203F2020000000008080808080004E
:10136000006B94949493600008F8008080800000E3
:10137000203F210000203F200080989800000000BE
:101380000020203F202000000000008098980000EE
:1013900000C08080807F000008F80000808080000E
:1013A000203F24022D302000000808F80000000033
:1013B0000020203F202000008080808080808000EE
:1013C000203F20003F20003F808000808080000080
:1013D000203F210000203F2000008080808000000E
:1013E000001F202020201F0080800080800000003F
:1013F00080FFA12020110E0000000080808080006E
:10140000000E112020A0FF8080808000808080005E
:1014100020203F212000010000008080808080008B
:101420000033242424241900008080E08080000000
:101430000000001F2020000080800000008080004D
:10144000001F202020103F208080800000808080AE
:1014500000010E300806010080800080008080803E
:101460000F300C030C300F00008080008080800063
:101470000020312E0E31200080808000008080808E
:1014800080818E701806010000808080808080003E
:101490000021302C2221300000000000807C02025C
:1014A00000000000003F404000000000FF0000007E
:1014B00000000000FF0000000002027C800000002D
:1014C0000040403F00000000000601010202040449
:1014D0000000000000000000F814000800000020D8
:1014E0002C0000004C0E0008241500082C000020E1
:1014F000040400005C0E000800A24A040000000082
:1015000000000000010203040607080900000000B3
:101510000102030401020304060708090204060885
:0415200000000000C7
:0400000508000131BD
:00000001FF
