:020000040800F2
:10000000F80C0020490100084F11000811020008F7
:100010004D110008B3020008891400080000000018
:100020000000000000000000000000005B0100086C
:10003000B5020008000000009B01000851110008F3
:100040006301000863010008630100086301000800
:1000500063010008630100086301000863010008F0
:1000600063010008630100086301000863010008E0
:1000700063010008630100086301000863010008D0
:1000800063010008630100086301000863010008C0
:1000900063010008630100086301000863010008B0
:1000A00063010008630100086301000863010008A0
:1000B0006301000863010008630100086301000890
:1000C0006301000863010008630100086301000880
:1000D000630100087D140008630100086301000843
:1000E0006301000863010008630100086301000860
:1000F0006301000863010008630100086301000850
:10010000630100086301000863010008630100083F
:10011000630100086301000863010008630100082F
:10012000630100086301000863010008630100081F
:10013000DFF810D000F0A6F800480047A902000838
:10014000AFF30080F80C00200648804706480047BF
:10015000FEE7FEE7FEE7FEE7FEE7FEE7FEE7FEE777
:10016000FEE7FEE72912000831010008EFF31080D6
:1001700072B6704780F310887047324A1368012BBB
:1001800004D04FF0010313602F4A10602F4A116012
:100190002F484FF0805101607047EFF3108272B624
:1001A0002848016891B14FF00001016026480168BC
:1001B00029B1EFF3098121E9F00F006801602349BB
:1001C00009680968B1E8F00F81F3098882F31088A3
:1001D0004EF0040E70471D4908601B494FF00000A7
:1001E000086018494FF0010008601A481A49D0F811
:1001F000002041EA0201016015484FF08051016082
:1002000016480068006880F3088861B662B67047D7
:100210001EF0040F0CBFEFF30880EFF3098020E914
:10022000F00F40F804ED1EF0040F0CBF80F30888B7
:1002300080F3098800B501F03FFB5DF804EB4EF058
:10024000040E7047740000206C0000207000002035
:1002500004ED00E020ED00E00000FFFF08ED00E00D
:10026000D2B201E000F8012B491EFBD270470022F8
:10027000F6E710B513460A4604461946FFF7F0FFA5
:10028000204610BD064C074D06E0E06840F0010333
:1002900094E8070098471034AC42F6D3FFF74CFFC0
:1002A00088270008A827000810B502F079F9002077
:1002B00010BDFEE7704772B6FEE710B590F821104A
:1002C0000022022905D00421816380F8202001202A
:1002D00010BD01680B6823F00E030B6001680B680A
:1002E00023F001030B6090F84030C46B012101FA48
:1002F00003F3636080F8211080F82020104610BDC1
:100300002DE9F05F90F821100024022903D0042188
:100310008163012485E001680A6822F00E020A6008
:1003200001680A6822F001020A603F4E3E4FB21592
:10033000DFF8F4C0DFF8F090DFF8ECA0DFF8E8B009
:10034000DFF8E4E00168783F13011502ACF1640CBA
:10035000A9F15009AAF13C0AABF1280BAEF1140E39
:100360004FF48018B14227D9B9420ED0614512D05E
:1003700049451DD0514518D0594518D0714501D176
:10038000424615E0294EB14201D1012210E0274E2C
:100390001436B14201D110220AE0244E2836B1426F
:1003A00006D0224A3C32914201D11A4600E02A4648
:1003B0001E49091F0A602BE0B94213D0614517D0CE
:1003C000494522D051451DD059451DD0714501D117
:1003D00042461AE0B14202D14FF0807215E0134E4E
:1003E000B14201D1012210E0104E1436B14201D1C8
:1003F00010220AE00D4E2836B14206D00B4A3C329C
:10040000914201D11A4600E02A46074980394A60E4
:10041000012180F82110002180F82010416B01B1EA
:1004200088472046BDE8F09F800002400804024053
:100430002DE9F84FDFF8C8910024A9F1040B2346F9
:100440000F2709F1040AABF1040ED1E00125A54004
:1004500006EA0502AA4276D1DFF8A8C14E68A6EBEB
:100460000C0866452BD00DDC032E34D005DC36B3EA
:10047000012E19D0022E2FD11BE0112E16D0122ED4
:100480002AD119E0B8F5881F19D006DCB8F5803FED
:1004900015D0B8F5801F1FD111E0B8F5001F0ED0A0
:1004A000B8F5041F18D10AE0CB6815E0CB681B1D16
:1004B00012E0CB6808330FE0CB680C330CE08B689C
:1004C0002BB1012B4FF0080303D0456104E0042356
:1004D00002E0056100E00023FF2A01D8064601E0A2
:1004E00000F104064FEA840501D9A5F12005D6F8EC
:1004F000008007FA05FC28EA0C0803FA05F548EA2B
:100500000508C6F800804D68ED0070D53E4DAE6917
:1005100046F00106AE61AD6924F0030605F0010561
:1005200000953A4D06EB050CDCF80850A607360F8F
:1005300007FA06F825EA0805DFF8D480404503D11C
:100540004FF0000825E052E0DFF8C880404502D1B6
:100550004FF001081DE0DFF8C080404502D14FF0A8
:10056000020816E0DFF8B480404502D14FF00308DE
:100570000FE0DFF8AC80404502D14FF0040808E0FE
:10058000DFF8A080404502D14FF0050801E04FF0B0
:10059000060808FA06F848EA0508CCF808804D680D
:1005A000D9F80060ED024D4601D5164300E09643B0
:1005B0002E604D68DAF80060AD02554601D516434D
:1005C00000E096432E604D68DBF80060AD035D46A9
:1005D00001D5164300E096432E604D68DEF80060BA
:1005E000ED03754601D5164300E096432E60641C6A
:1005F0000A681646E2407FF429AFBDE8F88F000094
:1006000008040140000011100010024000000140E9
:1006100000080140000C014000100140001401409E
:1006200000180140001C01400AB101617047090433
:10063000FBE70000014880687047000000000020D0
:10064000074810B5016841F010010160032000F077
:1006500073F8002000F006F800F024F8002010BD28
:100660000020024070B50D4D04464FF47A71287891
:10067000B1FBF0F00A490968B1FBF0F000F0E0FAD4
:1006800048B9102C07D200222146501E00F034F841
:1006900000206C6070BD012070BD000000000020D3
:1006A0000C0000200B4808B5816941F0010181610F
:1006B000816901F001010091C16941F08051C1617E
:1006C000C06900F0805000900348416821F0E0616B
:1006D000416008BD0010024000000140002809DB15
:1006E00000F01F02012191404009800000F1E0204C
:1006F000C0F8001170470000F0B40E4B1B680C46A8
:10070000C3F30223C3F10705042D00D90425191DE5
:10071000072901D2002300E0DB1E012606FA05F1BD
:10072000491E214099409E40761E16403143F0BC40
:1007300000F0B4BE0CED00E0064900F007020868C6
:100740004FF6FF03184040EA0220034A10430860B6
:10075000704700000CED00E00000FA052DE9F047BD
:100760000F46050061D0434E306800F00700B842E4
:1007700009D2306820F0070038433060306800F05C
:100780000700B84251D128683B4C810712D5400779
:1007900003D5606840F4E06060602878000703D506
:1007A000606840F4605060606068A96820F0F00004
:1007B000084360602878C00728D06868012810D0F6
:1007C0002168022810D0890700292EDA616821F0FB
:1007D000030101436160FFF72DFF804641F2883934
:1007E0000DE021688903EFE78901EDE7FFF722FFBC
:1007F000A0EB0801494502D90320BDE8F0876068F5
:10080000696800F00C00B0EB810FEFD1306800F0A8
:100810000700B8420BD9306820F007003843306039
:10082000306800F00700B84201D00120E5E72878E1
:10083000400705D56068E96820F4E060084360601F
:100840002878000706D56068296920F4605040EADE
:10085000C100606000F03EF86168084AC1F303110E
:10086000515CC8400649086006480068FFF7FAFE78
:100870000020C2E700200240001002403A26000893
:100880000C000020040000200148006870470000B0
:100890000C0000200448054900684968044AC1F377
:1008A0000221515CC84070470C000020001002403B
:1008B0004A2600080448054900684968044AC1F30B
:1008C000C221515CC84070470C000020001002405B
:1008D0004A2600080E4A51680E4801F00C03042B0A
:1008E00011D0082B0FD10C48C1F38343C903C05C5E
:1008F0000AD55168084AC1F34041921E515C054A2D
:100900005043B0FBF1F07047044948437047000082
:100910000010024000127A002A26000800093D005B
:100920002DE9F84F040070D02078C04DC00749D0A1
:100930006868C0F38100012807D06868C0F38100AF
:10094000022809D16868C00306D52868800339D514
:1009500060680028E7D035E06068B0F5803F0BD0D4
:1009600010B1B0F5A02F11D0286820F48030286095
:10097000286820F4802002E0286840F48030286055
:10098000606890B1FFF756FE06460AE0286840F41A
:1009900080202860F0E700BFFFF74CFE801B642832
:1009A00073D828688003F7D50CE0FFF743FE0646AE
:1009B00005E000BFFFF73EFE801B6428F0D82868E2
:1009C0008003F7D420789A4E80074FF001094FF04A
:1009D000000839D5686810F00C0F07D06868C0F3BC
:1009E0008100022809D16868C00306D428688007FE
:1009F00014D52069012808D110E02069B0B1C6F8EB
:100A00000090FFF717FE074605E00AE1FFF712FE28
:100A1000C01B0228C4D828688007F7D528686169F8
:100A200020F0F80040EAC10028600DE0C6F8008020
:100A3000FFF700FE074604E0FFF7FCFDC01B02289D
:100A400023D828688007F7D4207800072CD5794868
:100A5000A169D9B1C0F80090FFF7ECFD074604E0AA
:100A6000FFF7E8FDC01B02280FD8686A8007F7D59A
:100A700071484FF4FA510068B0FBF1F0009000BFEC
:100A80000098411E0091FAD20EE080E0C0F800808C
:100A9000FFF7D0FD074604E0FFF7CCFDC01B02289E
:100AA00075D8686A8007F7D42078400760D5E86970
:100AB0000027C00008D4E86940F08050E861E86988
:100AC000012700F0805000905C480168C90513D4EC
:100AD0000168834641F480710160FFF7ABFD8246F7
:100AE00006E000BFFFF7A6FDA0EB0A0064284ED881
:100AF000DBF80000C005F5D5E06801280AD008B190
:100B0000052813D0286A20F001002862286A20F006
:100B1000040002E0286A40F001002862E06841F227
:100B2000883B98B1FFF786FD82460BE0286A40F0CB
:100B300004002862EEE700BFFFF77CFDA0EB0A018E
:100B400059455AD8286A8007F6D50CE0FFF772FDA0
:100B5000824605E0FFF76EFDA0EB0A0159454CD82F
:100B6000286A8007F6D41FB1E86920F08050E86158
:100B7000E06988B36968C1F38101022944D0022881
:100B8000C6F8608004D0FFF755FD044638E034E035
:100B9000FFF750FD074604E0FFF74CFDC01B02289D
:100BA0002BD828688001F7D4206AB0F5803F05D1A2
:100BB0006868A16820F4003008436860D4E908013F
:100BC0000843696821F4741108436860C6F86090AE
:100BD000FFF730FD044606E025E000BFFFF72AFDE1
:100BE000001B022809D828688001F7D51BE000BF48
:100BF000FFF720FD001B022802D90320BDE8F88F73
:100C000028688001F4D40EE00128F7D06868226AD1
:100C100000F48031914204D1616A00F4701088427E
:100C200001D00120EAE70020E8E7000000100240C0
:100C300000004242800442420C000020007000404C
:100C400010B5401EB0F1807F01D3012010BD4FF0E0
:100C5000E02460610F21601700F020FC0020A061FB
:100C600007202061002010BD70477047F8B501686B
:100C700004460868CA684B6910F00F0F4FF0000572
:100C800059D003F0010602F49077374365D0C107CD
:100C900005D0D10503D5616C41F0010161644107C4
:100CA00005D5D90703D0616C41F002016164810769
:100CB00005D5D90703D0616C41F0040161640107D7
:100CC00007D502F02001314303D0616C41F00801E7
:100CD0006164616C00293AD0800604D5900602D583
:100CE000204600F0D1FA20684069616CC0F38010A2
:100CF000090700D460B3204600F09FFA20684069DD
:100D0000400621D52068143050E8001F21F0400132
:100D100040E80012002AF5D1E06BA8B16D494163AB
:100D2000E06BFFF7EDFA002811D0E06B416B01B0EA
:100D3000BDE8F040084783060FD593060DD5204641
:100D4000BDE8F84000F0A0BA2046FFF78EFFF8BDDE
:100D50002046FFF78AFF6564F8BD266B2023012E2D
:100D60007CD1C6067AD5D60678D508684868009042
:100D700048694FF00206400640D5E16B08684068BC
:100D80000004000CE8D0A28D8242E5D9E085886994
:100D900020282DD020680C3050E8001F21F48071ED
:100DA00040E80012002AF5D12068143050E8001FF6
:100DB00021F0010140E80012002AF5D1206814302A
:100DC00050E8001F21F0400140E80012002AF5D150
:100DD00084F84230256320680C3050E8001F21F071
:100DE000100140E80012002AF5D1E06BFFF765FA28
:100DF0006663A08DE18D401A81B22AE0A08DE18D5D
:100E0000401A81B2E08D0028A6D00029A4D0226823
:100E10000C3252E8000F20F4907042E80007002FD7
:100E2000F5D12068143050E8002F22F0010240E88C
:100E30000027002FF5D184F84230256320680C305C
:100E400050E8002F22F0100240E80023002BF5D1DB
:100E500066632046FFF708FFF8BDFFE705062BD5C0
:100E6000150629D594F841002128F5D1A068B0F5E0
:100E7000805F01D12069B0B1206A411C21622168E4
:100E800000784860E08C401E0004000CE084E3D150
:100E90002068C16821F08001C1602068C16841F00C
:100EA0004001C160D8E7206A0088C0F308004860AC
:100EB000206A801C2062E5E74006CDD55006CBD5E0
:100EC000CA68204622F04002CA6084F8413000F02F
:100ED000C3F8C1E72B12000870B5040004D094F8E1
:100EE0004100002510B106E0012070BD84F840509B
:100EF000204600F023F8242084F841002068C168CF
:100F000021F40051C160204600F020FA20680169F8
:100F100021F4904101612068416921F02A01416179
:100F20002068C16841F40051C1606564202084F8E4
:100F3000410084F842006563002070BD30B585B083
:100F40000024009401940294039400681849884294
:100F50002CD11848816941F480418161816901F493
:100F600080410491816941F0040181618069124DE1
:100F700000F0040004904FF40070009002200190F3
:100F80000320039069462846FFF752FA2815CDE959
:100F90000004694628460294FFF74AFA00221146E7
:100FA0002520FFF7A9FB2520FFF798FB05B030BDF2
:100FB00000380140001002400008014070472DE950
:100FC000F843044690F841001F4616460D46202877
:100FD00002D00220BDE8F8837DB176B100206064C4
:100FE000212084F84100FFF725FBA6848046E68493
:100FF000A068B0F5805F02D003E00120EAE7206935
:1010000010B12E4600250EE000260CE0802120467F
:1010100000F0F8F9A0B9AEB116F8010B21684860EC
:10102000E08C401EE084E08C43464FF000020097C5
:101030000028EBD14FF04001204600F0E3F930B139
:101040000320C7E735F8020BC0F30800E6E72020CD
:1010500084F841000020BDE77047000030B585B03E
:10106000002413480094019402940394816941F090
:1010700008018161816901F008010491816941F0F1
:101080000401816180690B4D00F00400049000228E
:1010900002212846FFF7C8FA02210120CDE90010FD
:1010A000CDE9024169462846FFF7C2F905B030BDD7
:1010B00000100240000C01401FB509481423032210
:1010C00080218DE80F000023064A07A1783800F040
:1010D0003DFF04B00248BDE81040783800F092BFF0
:1010E0003C010020FD1500086C65640010B504A0EB
:1010F00000F0CCF9BDE810404FF4FA6000F0D7BE24
:1011000048656C6C6F2052545F546872656164214D
:10111000212100000C4810B50A4901604FF4E1316B
:101120004160002181600C22C160C0E9041281612C
:10113000C161FFF7D1FE002803D0BDE81040FFF7E2
:10114000BAB810BD003801407C000020FEE7FEE781
:1011500010B500F0C7FC00F0D3FFBDE8104000F070
:10116000CFBC30B58FB028216846FFF780F8142136
:101170000AA8FFF77CF801210804CDE9001000243B
:10118000029402250491CDE907504FF4E010099034
:101190006846FFF7C5FB08B172B6FEE70F20CDE940
:1011A0000A054FF48060CDE90C4002210AA80E9494
:1011B000FFF7D4FA002801D072B6FEE70FB030BDB9
:1011C000144910B54868144A10F00C03134803D0B2
:1011D000042B01D0082B09D002604968104AC1F3E2
:1011E0000311515C0268CA40026010BD4A684B6836
:1011F00002F470124FF0020413F4803F04EB9242A9
:1012000002D04B689B0301D5064B00E0024B5A43CA
:10121000E2E700000010024000127A000C000020FB
:101220003A26000800093D00704710B5406A0021C9
:10123000C185C184FFF719FD10BD01680C3151E86B
:10124000002F22F4907241E80023002BF5D10168B1
:10125000143151E8002F22F0010241E80023002B55
:10126000F5D1016B012909D101680C3151E8002F3A
:1012700022F0100241E80023002BF5D1202180F854
:10128000421000210163704708B590F842102229EE
:1012900001D0022008BD82684FF480539A4201D1E8
:1012A000016921B1816A9A421BD04AB10AE0026801
:1012B000816A5268C2F308020A80816A891C08E0C8
:1012C000026972B10268526802F07F020A70816A94
:1012D000491C8162C18D491E0904090CC18503D0D6
:1012E0001BE002685268F1E70168CA6822F0200238
:1012F000CA600168CA6822F48072CA6001684A69DB
:1013000022F001024A61202180F84210002141634D
:10131000026B012A03D0FFF751FE002008BD0163D4
:1013200001680C3151E8002F22F0100241E800233F
:10133000002BF5D101680A68D20602D50A6849680F
:101340000091818DFFF790FCE7E7000070B504463F
:1013500000680169E26821F440511143016121698B
:10136000A0680843616908432168CA6841F20C63B8
:101370009A430243CA6020684169A26921F440711E
:10138000114341611E492068884202D1FFF792FA59
:1013900001E0FFF77FFA00EBC00101EB001260688B
:1013A00064218000B2FBF0F3B3FBF1F36FF0180699
:1013B0007343B2FBF0F5B2FBF0F605EB8305322385
:1013C00003EB0515B5FBF1F5B6FBF1F605F0F005FD
:1013D00005EB0615B2FBF0F6B2FBF0F0B0FBF1F056
:1013E0006FF01802504306EB800003EB0010B0FBD7
:1013F000F1F0216800F00F002844886070BD000003
:10140000003801402DE9F041984617460E46044643
:10141000069D27E0681C25D02DB1FFF70BF9A0EB46
:101420000800A8421ED920680C3050E8001F21F4A3
:10143000D07140E80012002AF5D12068143050E83D
:10144000001F21F0010140E80012002AF5D1202000
:1014500084F8410084F84200002084F84000032012
:10146000BDE8F0812068006836EA000004D0002062
:10147000B842CFD00020F3E70120F9E70148FFF799
:10148000F5BB00007C000020FEE70000014A024995
:1014900000F045B8E5150008780000200907090E9E
:1014A000002804DB00F1E02080F80014704700F011
:1014B0000F0000F1E02080F8141D7047002806D0CE
:1014C0000E4910F0FF0F03D0C0B2085C401C7047FB
:1014D00010F47F4F04D0C0F30720085C0930704738
:1014E00010F47F0F04D0C0F30740085C1130704740
:1014F00001EB106000781930704700005226000898
:1015000002E008C8121F08C1002AFAD170477047CC
:10151000002001E001C1121F002AFBD170472DE914
:10152000F04116460F460446002503E03946B04711
:10153000641C6D1C20780028F8D12846BDE8F08195
:101540002DE9FC411F460446DDE90831DDE90A6565
:10155000143040600060C4E90827C4E90A310A4633
:10156000232118461C3400F009FBD4E9030142187A
:10157000D4E90101104B121F00F098FA44F81A0B3D
:10158000002004F801690D4A04F8036BE4E8020541
:1015900044F8105901C404F83C0B01C444F8740920
:1015A000009023460190194604F1440000F03CFEEF
:1015B0000020BDE8FC810000B51E00087320000873
:1015C000143000F0D2BA70B50546FEF7CFFD296F92
:1015D000044609B1284688472046BDE87040FEF71A
:1015E000C9BD000013B54FF6FF73012269460248DA
:1015F000FFF7E5FC00981CBD7C000020094D4FF46E
:101600007A74002202212846FFF70EF8204600F0E7
:101610004EFC012202212846FFF706F8204600F082
:1016200046FCEEE7000C0140FFF70AF8FFF799FDD2
:10163000FFF714FDFFF76EFDFFF73EFDFFF756FDC8
:10164000FCE710B500F0C8F8BDE81040FFF7ECBFAC
:101650002DE9F04F85B09946DDE90EA5109CAB460B
:10166000630602D5DFF814C103E0DFF810C1ACF166
:10167000110CE30601D524F00104E30701D0302367
:1016800000E0202300260493A3070BD5002A02DAEA
:101690002D26524206E0630701D52B2602E02307E0
:1016A00000D520260023EE4622B930228DF80020F6
:1016B00001230CE0B9F10A0F14D002F00F0812094F
:1016C0001CF808800EF803805B1C002AF2D1AB42A4
:1016D00000DD1D46AAEB050214F0110F4FF02007A4
:1016E00008D015E00A27B2FBF7F807FB1828B2FB71
:1016F000F7F2E5E73EB1002A05DD521E03E088421D
:1017000000D20770401CB2F1000CA2F10102F6DC1D
:1017100026B1884200D20670401C521EE40605D550
:1017200008E0884201D2049C0470401C141EA2F1FF
:101730000102F6DC30242E466D1E9E420ADD8842F0
:1017400000D20470401CF6E7884201D2E55C0570C7
:10175000401C00E074461D1EA3F1010307DDBBF130
:10176000000FF1D103E0884200D20770401C131E25
:10177000A2F10102F7DC05B0BDE8F08F6327000895
:101780001FB50A4C14230A224FF48061A4F580602F
:101790008DE80F000023064A06A1204600F0D6FB84
:1017A00004B02046BDE8104000F02CBCC00500206D
:1017B000431600086D61696E0000000070B5044CAE
:1017C000044D02E020688047241DAC42FAD370BD6E
:1017D000782700088027000870B5044C044D02E00B
:1017E00020688047241DAC42FAD370BD80270008D2
:1017F0008427000810B5FEF7B9FC044A5188491C3B
:101800005180BDE81040FEF7B5BC00004800002044
:1018100010B5FEF7ABFC0B4C6188491E09B2618024
:1018200000290ADC00216180FEF7A4FC6068002822
:1018300007D0BDE8104000F019BABDE81040FEF72F
:1018400099BC10BD4800002010B5FEF7F9FEFFF767
:1018500088FCFFF7B5FCFFF717F84FF47A71B0FB7F
:10186000F1F0FFF7EDF9BDE81040FFF7A7BF00006A
:10187000F8B506460D200F498DF80000002481F8C8
:101880004040304600F0C2FA05460FE0305D0A28BD
:1018900005D101231A4669460648FFF790FB01234C
:1018A00031191A460348FFF78AFB641CAC42EDD39A
:1018B000F8BD0000B008002070B50546041D2B4897
:1018C000016819B12846884700284DD028A0E16B4F
:1018D00000F024F92AA0216A00F020F92CA0616A06
:1018E00000F01CF92EA0A16A00F018F930A0E16AFE
:1018F00000F014F932A0216800F010F934A06168FA
:1019000000F00CF936A0A16800F008F938A0E168F1
:1019100000F004F93AA0216900F000F93CA06169E7
:1019200000F0FCF83EA0A16900F0F8F840A0E169E1
:1019300000F0F4F842A0216B00F0F0F844A0616BD5
:1019400000F0ECF846A0A16B00F0E8F8287840071A
:1019500006D500F031FB014645A000F0DFF802E0BB
:101960004BA000F0DBF8FEE770BD0000680000202F
:101970007073723A203078253038780A0000000001
:101980007230303A203078253038780A0000000074
:101990007230313A203078253038780A0000000063
:1019A0007230323A203078253038780A0000000052
:1019B0007230333A203078253038780A0000000041
:1019C0007230343A203078253038780A0000000030
:1019D0007230353A203078253038780A000000001F
:1019E0007230363A203078253038780A000000000E
:1019F0007230373A203078253038780A00000000FD
:101A00007230383A203078253038780A00000000EB
:101A10007230393A203078253038780A00000000DA
:101A20007231303A203078253038780A00000000D2
:101A30007231313A203078253038780A00000000C1
:101A40007231323A203078253038780A00000000B0
:101A5000206C723A203078253038780A0000000077
:101A60002070633A203078253038780A0000000072
:101A700068617264206661756C74206F6E20746892
:101A8000726561643A2025730D0A0D0A000000009A
:101A900068617264206661756C74206F6E20686185
:101AA0006E646C65720D0A0D0A00000070B5044684
:101AB000121D22F007000022094D403840F8225044
:101AC000521C102AFAD301620021416281624FF058
:101AD000807200F13005C263C16285E81A0070BDF2
:101AE000EFBEADDE10B5FEF741FB044A1178491C8C
:101AF0001170BDE81040FEF73DBB0000140000204F
:101B000010B5FEF733FB044A1178491E1170BDE889
:101B10001040FEF72FBB0000140000200FB47F21FF
:101B200010B503AB0448029A00F0F0FB0248FFF73F
:101B30009FFE10BC5DF814FB300700200268516066
:101B400002680A600160486070470268516002687C
:101B50000A60016048607047D0E900124A60D0E92D
:101B600000121160406000607047D0E900124A60C6
:101B7000D0E90012116040600060704710B5034664
:101B8000CCB2042A1AD3810718D1194644EA042397
:101B900043EA034306E008C1103A08C141F8083B94
:101BA00041F8043C102AF6D201E008C1121F042AB1
:101BB000FBD20B4602E000BF03F8014B521EFBD2E2
:101BC00010BD10B5044600202072FEF7CFFAF4E9EC
:101BD00003124A60D4E90012116064602460BDE819
:101BE0001040FEF7C7BA0000074A002102EB0113BC
:101BF0001B78834202D102EB01107047491C032974
:101C0000F4DB002070470000180000202DE9F041AF
:101C1000054617460E460846FFF7E6FF0446FFF75F
:101C2000E9FD211D606800E000688842FCD1FFF7F3
:101C3000EFFD46F08000287208223946284600F061
:101C4000EDF8FEF793FA54F8041F0C354D60216847
:101C5000296025606C60BDE8F041FEF78BBA007A20
:101C6000000601D5012070470020704770B5FEF7CF
:101C70007DFA114C05466088B0B9A068FFF71EFCDC
:101C80000E49401E626851F83010143991420BD051
:101C900020700B486160007801F11C01002802F1FE
:101CA0001C0006D0FEF769FA2846BDE87040FEF732
:101CB00061BAFEF762FAF7E748000020B00700209B
:101CC0001400002010B50446FEF750FA024694F8BE
:101CD00034000E4920F00F00401C84F8340094F8C2
:101CE000350001EBC00104F114004B6818604B682B
:101CF000A361486006486161A16B836819438160F4
:101D0000BDE810401046FEF735BA0000B0070020CD
:101D10004800002010B50446FEF728FA04F114012B
:101D2000D1E900235360D1E900231A60A161616108
:101D300094F83520074951F8323001EBC2018B424B
:101D400004D10549A36B8A689A438A60BDE81040B4
:101D5000FEF710BAB00700204800002008B509A01F
:101D6000FFF7DCFE0AA0FFF7D9FE12A000900523C2
:101D70000122032112A0FFF7D1FEBDE8084018A000
:101D8000FFF7CCBE0A205C207C202F0A0000000058
:101D90002D205254202D202020202054687265616F
:101DA00064204F7065726174696E67205379737433
:101DB000656D0A004A616E203134203230323400C1
:101DC000202F207C205C202020202025642E2564CC
:101DD0002E2564206275696C642025730A0000005A
:101DE0002032303036202D203230323020436F7098
:101DF0007972696768742062792072742D746872D0
:101E0000656164207465616D0A000000014600E0B0
:101E1000491C0A78002AFBD1081A704710B5002A1D
:101E200007D0034611F8014B03F8014B2CB1521EA9
:101E3000F8D110BD03F8011B00E00021521EF9D1BA
:101E400010BD000010B50A4900230A4C4B8018460B
:101E500004EBC002401C526012602028F8DB1F20F7
:101E6000087003484B600C308B604060006010BD10
:101E700048000020B007002010B5074CA068FFF70D
:101E80001DFB0649401E51F8300014386060BDE863
:101E900010401C30FEF79FB948000020B00700201A
:101EA000014840600060704760000020704700F00B
:101EB00089B8000070B514480468FEF757F9054664
:101EC0002046FFF780FB2046FFF724FF042084F81C
:101ED000340004F1440000F093F92046FFF7BFFE00
:101EE00001280CD004F114010848FFF727FE00BFB9
:101EF000FFF7BCFE2846BDE87040FEF73BB9204620
:101F0000FFF75FFEF4E700004C00002054000020C3
:101F1000FEE700001FB5094820231F2280218DE81D
:101F20000F000023064A07A1783800F00FF804B02C
:101F30000248BDE81040783800F064B8B0060020D0
:101F4000111F00087469646C650000002DE9FF5FD3
:101F500092460EAA0C4692E8E0010A46994683464C
:101F60000121FFF753FE8DE8E0014B465246214622
:101F70005846FFF7E5FA04B0BDE8F09F70B5044697
:101F800090F8340000F00F00022802D04FF0FF302C
:101F900070BDFEF7EBF8054604F11400FFF7DCFD19
:101FA00004F1440000F09AF92846FEF7E3F82046D1
:101FB000FFF788FE002070BD0148006870470000F0
:101FC0004C000020F1B5FEF7D1F805460C48046836
:101FD000204600F02DF804F144006A460021064630
:101FE00000F0EAF8304600F037F92846FEF7C2F86C
:101FF000FFF73CFE206B801C00D120630020F8BD61
:102000004C00002010B590F83610012280F83510F1
:102010008A400221826380F83410FFF7AFFF034843
:10202000006808B1FFF722FE002010BD4C00002020
:1020300070B5044690F8340000F00F00012802D07B
:102040004FF0FF3070BDFEF791F805462046FFF7D0
:1020500061FE94F8340020F00F00801C84F83400F6
:1020600004F1440000F03AF92846FEF783F8002016
:1020700070BD10B504466FF00100206304F1140038
:10208000FFF76AFD2046FFF71DFEBDE81040FFF791
:10209000EDBD000070B5FEF769F806461348046808
:1020A00094F8340000F00F00012819D1D4E905019B
:1020B000884215D004F114000546FFF74DFD94F851
:1020C00035000B4901EBC00041680D604168696053
:1020D000456028603046FEF74DF8FFF7C7FD02E087
:1020E0003046FEF747F8002070BD00004C0000208D
:1020F000B007002001480068704700001000002071
:10210000094810B50168491C0160FFF755FF016CD3
:10211000491E016403D1C16B0164FFF7BBFFBDE839
:10212000104000F003B80000100000202DE9FC4131
:10213000CDF804D0CDF800D0FFF7DCFF0646FEF75F
:1021400015F807461B4D2DE060696FF00041301A0D
:10215000143C884229D22046FFF732FA607A810780
:1021600002D420F00100607204F114018846684630
:10217000FFF7EBFCD4E907108847FFF7BBFF0646E3
:102180000098694688420DD04046FFF7EEFC607A21
:10219000810707D5C10705D020F0010060722046F5
:1021A00000F05AF82C68AC42CED13846FDF7E2FF79
:1021B000BDE8FC816000002070B515460E4604465F
:1021C000FDF7D4FF052E17D2DFE806F00503080C53
:1021D0001100616A0FE0296861620DE0617A21F007
:1021E000020102E0617A41F00201617204E0617A69
:1021F000C90700D001212960FDF7BCFF002070BD98
:1022000070B50446FDF7B2FF05462046FFF7D8F942
:10221000607A20F0010060722846FDF7ABFF20468F
:10222000FFF7CFFC002070BD2DE9F0411746DDE936
:1022300006580A461E4604460A21FFF7E7FC28F026
:10224000010161720021C4E90951C4E9077614341F
:1022500064602460BDE8F0812DE9F8430446FDF791
:1022600085FF80462046FFF7ABF9607A20F0010039
:102270006072FFF73FFF616A174A4318A3620020AC
:10228000009202EBC002694656686FF000475DF8A5
:1022900020200AE01268A2EBC0056D699D4202D0C1
:1022A000ED1ABD4203D341F82020B242F2D10A48D0
:1022B000001F0168491C016004F114010098FFF738
:1022C00044FC607A40F0010060724046FDF752FF26
:1022D0000020BDE8F88300006000002070B50446CF
:1022E000407AC0070ED0FDF741FF05462046FFF7B4
:1022F00067F9607A20F0010060722846FDF73AFF26
:10230000002070BD4FF0FF3070BD00002DE9FF4F81
:102310008946044600EB090783B080464FF0FF3A38
:102320004FF0200BA74202D25746C8F1FF390BE10C
:10233000252803D0BC4200D2207080E000260599F9
:10234000491C059108782D2811D02B2812D020285F
:1023500013D0232814D0302815D00A785546303AA7
:102360000A2A13D205A800F030F905461AE046F013
:102370001006E4E746F00406E1E746F00806DEE76B
:1023800046F02006DBE746F00106D8E72A2809D107
:102390000698491C059120C80690002D02DA6D426E
:1023A00046F010060598D44601782E2918D1401C15
:1023B00005900178A1F130020A2A04D205A800F0A4
:1023C00004F9844607E02A2908D1401C05900698A4
:1023D00050F804CB0690BCF1000F01DA4FF0000C6E
:1023E000059A00201178682901D06C2902D1521C6D
:1023F0000846059211780A236F2974D00CDC6329F2
:102400001FD004DC25296FD058290DD184E0642920
:1024100001D0692908D183E0702966D073292CD0B6
:1024200075297FD0782979D0BC4201D2252020702F
:102430000598641C0178E9B3BC4200D22170641C89
:102440007FE0F00608D458466D1E002D04DDBC4226
:1024500000D22070641CF7E70698BC4210F8041BF9
:10246000069000D22170584602E0BC4200D2207093
:10247000641C6D1E002DF8DC63E0069802C806900F
:1024800001B941A1002000E0401CA84202D00A5C32
:10249000002AF9D1BCF1000F02DD604500DD604685
:1024A000F2060BD45A462B466D1E834206DDBC4213
:1024B00002D200E054E02270641CF4E7002206E03F
:1024C000BC4201D20B782370491C521C641C82420E
:1024D000F6DB5A4629466D1E814232DDBC4200D2EF
:1024E0002270641CF6E715E010E0681C02D1082594
:1024F00046F00106CDE9005C06980296102304C858
:1025000006903946204619E00CE007E0BC4296D21E
:10251000252011E7082305E046F04006102301E0DE
:1025200046F002066C2801D068281CD0069804C822
:102530000690CDE9005C394620460296FFF788F800
:1025400004460598401C05900598007800287FF403
:10255000EFAEB9F1000F11D0BC420DD220700DE0EA
:10256000401E0590EDE7069830F8041B06908AB2ED
:10257000B007DED512B2DCE707F8010C07B0A4EB18
:102580000800BDE8F08F0000284E554C4C29000093
:1025900000207047002070470020704700207047DF
:1025A00010B5FDF7E3FDFFF74FF9FFF7D7FBFFF796
:1025B00077FCFFF747FCFFF7E3F8FFF777FCFFF73F
:1025C000A9FCFFF759FC002010BD10B50146002002
:1025D0006FF02F0307E0541C0C60127800EB8000B2
:1025E00003EB400010440A681478303C0A2CF2D304
:1025F00010BD00000B4810B5094901604FF4E131EE
:102600004160002181600C22C160C0E90412816137
:10261000C161FEF761FC002800D0FEE710BD00009C
:1026200000440040B0080020010202030405060730
:1026300008090A0B0C0D0E0F10100000000000001E
:10264000000001020304060708090000000001025F
:102650000304000001000200010003000100020069
:10266000010004000100020001000300010002005B
:10267000010005000100020001000300010002004A
:10268000010004000100020001000300010002003B
:102690000100060001000200010003000100020029
:1026A000010004000100020001000300010002001B
:1026B000010005000100020001000300010002000A
:1026C00001000400010002000100030001000200FB
:1026D00001000700010002000100030001000200E8
:1026E00001000400010002000100030001000200DB
:1026F00001000500010002000100030001000200CA
:1027000001000400010002000100030001000200BA
:1027100001000600010002000100030001000200A8
:10272000010004000100020001000300010002009A
:102730000100050001000200010003000100020089
:10274000010004000100020001000300010002007A
:1027500001003031323334353637383961626364E1
:1027600065660030313233343536373839414243CB
:10277000444546009D25000895250008F5250008DC
:102780009125000899250008A827000800000020CE
:102790007C00000000150008242800087C000020B0
:1027A0007C0C000010150008010000001000000063
:1027B000000000000024F400000000000000000001
:1027C000010000001C0000201C0000207800000018
:1027D000020000002C0000202C000020200000003F
:1027E0000A0000003C0000203C0000202C000000FB
:1027F00000000000000000000000000000000000D9
:1028000000000000000000000000000000000000C8
:1028100000000000000000000000000000000000B8
:0428200000000000B4
:0400000508000131BD
:00000001FF
