:020000040800F2
:100000001804002045010008CB020008B3020008D4
:10001000C70200088D010008410A00080000000026
:10002000000000000000000000000000B106000811
:1000300091010008000000006D0600083908000862
:100040005F0100085F0100085F0100085F01000810
:100050005F0100085F0100085F0100085F01000800
:100060005F0100085F0100085F0100085F010008F0
:100070005F0100085F0100085F0100085F010008E0
:100080005F0100085F0100085F0100085F010008D0
:100090005F0100085F0100085F0100085F010008C0
:1000A0005F0100085F0100085F0100085F010008B0
:1000B0005F0100085F0100085F0100085F010008A0
:1000C0005F0100085F0100085F0100085F01000890
:1000D0005F0100085F0100085F0100085F01000880
:1000E0005F0100085F0100085F0100085F01000870
:1000F0005F0100085F0100085F0100085F01000860
:100100005F0100085F0100085F0100085F0100084F
:100110005F0100085F0100085F0100085F0100083F
:100120005F0100085F0100085F0100085F0100082F
:10013000DFF80CD000F018F800480047650A000806
:10014000180400200648804706480047FEE7FEE7FF
:10015000FEE7FEE7FEE7FEE7FEE7FEE7FEE7FEE777
:100160006108000831010008064C074D06E0E06810
:1001700040F0010394E8070098471034AC42F6D3EE
:10018000FFF7DAFF7C1000089C10000800BFFEE7B4
:1001900070472DE9F041024600250026002000238B
:1001A0000024002791F803C00CF00F0591F803C05C
:1001B0000CF0100CBCF1000F03D091F802C04CEA17
:1001C000050591F800C0BCF1000F31D01468002083
:1001D0002BE04FF0010C0CFA00F3B1F800C00CEA70
:1001E00003069E4220D183004FF00F0C0CFA03F758
:1001F000BC4305FA03FC4CEA040491F803C0BCF1CB
:10020000280F06D14FF0010C0CFA00FCC2F814C004
:100210000AE091F803C0BCF1480F05D14FF0010C82
:100220000CFA00FCC2F810C0401C0828D1D314609E
:10023000B1F800C0BCF1FF0F34DD546800202EE09F
:1002400000F1080C4FF0010808FA0CF3B1F800C0F7
:100250000CEA03069E4221D183004FF00F0C0CFAEA
:1002600003F7BC4305FA03FC4CEA040491F803C00D
:10027000BCF1280F05D100F1080C08FA0CF8C2F8FF
:10028000148091F803C0BCF1480F07D100F1080CAD
:100290004FF0010808FA0CF8C2F81080401C08283A
:1002A000CED35460BDE8F0810AB1016100E0416144
:1002B000704700BFFEE710B500F0C0FA00F096F8F6
:1002C00000F06AF910BD00BFFEE7704770B500246A
:1002D0000EE00021204600F0E0F8002504E00020B8
:1002E00000F04AF9681CC5B2802DF8DB601CC4B26E
:1002F000082CEEDB70BD000008B50121082000F0DD
:10030000C7F914208DF8030003208DF80200402067
:10031000ADF8000069460A48FFF73BFF8020ADF8C2
:10032000000069460648FFF734FF012240210448D7
:10033000FFF7BAFF012280210148FFF7B5FF08BD92
:10034000000C014070B50546002413E080202041D8
:1003500000EA050280210E48FFF7A6FF0122402196
:100360000B48FFF7A1FF002240210948FFF79CFF3F
:10037000601CC4B2082CE9DB012240210448FFF7CD
:1003800093FF002240210248FFF78EFF70BD00005E
:10039000000C014010B5012280210948FFF784FFBD
:1003A000012240210648FFF77FFF002280210448F8
:1003B000FFF77AFF002240210148FFF775FF10BDCB
:1003C000000C014010B5002280210748FFF76CFFA8
:1003D000012240210448FFF767FF012280210248E3
:1003E000FFF762FF10BD0000000C014070B5002453
:1003F00006E0002500E06D1CB5F57A7FFBD3641C98
:10040000B4F57A7FF5D3FFF777FFAE2000F0A4F8BC
:10041000D52000F0A1F8802000F09EF8A82000F080
:100420009BF83F2000F098F8D32000F095F80020CA
:1004300000F092F8402000F08FF8A12000F08CF836
:10044000C82000F089F8DA2000F086F8122000F0C9
:1004500083F8812000F080F8CF2000F07DF8D920CB
:1004600000F07AF8F12000F077F8DB2000F074F863
:10047000302000F071F8A42000F06EF8A62000F003
:100480006BF88D2000F068F8142000F065F8AF20BC
:1004900000F062F8FFF71AFF70BD70B505460C4614
:1004A00045F0B00000F058F8102141EA141000F0B7
:1004B00053F804F00F0000F04FF870BD2DE9F04143
:1004C00005460E461746721ED206110E6A1E5206C9
:1004D000100EFFF7E2FF002409E0A7F12001134A04
:1004E00002EB0111085D00F047F8601CC4B2082C53
:1004F000F3DB721ED206110E6A1E012303EB4202C9
:10050000D0B2FFF7CAFF00240BE0A7F12001074A91
:1005100002EB011204F10801505C00F02DF8601CA0
:10052000C4B2082CF1DBBDE8F08100008C0A0008A1
:100530002DE9F04107460E461546002407E02A5DE6
:100540003019C1B23846FFF7B9FF601CC4B2285D4C
:100550000028F4D1BDE8F08110B50446FFF71AFF7A
:100560007820FFF7EFFE0020FFF7ECFE2046FFF7B4
:10057000E9FEFFF727FF10BD10B50446FFF70AFF9D
:100580007820FFF7DFFE4020FFF7DCFE2046FFF774
:10059000D9FEFFF717FF10BD00B589B00121022079
:1005A00000F066F80121082000F072F80120ADF893
:1005B000200018208DF8230003208DF8220008A9C0
:1005C0001848FFF7E6FD184800F086F90020ADF85E
:1005D0001A00ADF816006320ADF8180040F2CF20E5
:1005E000ADF8140000208DF81C0005A90E4800F09D
:1005F000D5F901A800F0C6F96020ADF8040000208C
:10060000ADF80C000120ADF806000A20ADF80A0094
:1006100001A9054800F066F90121034800F050F9EE
:1006200009B000BD000C01400004004010B50024DA
:1006300008E021460C4800F0AFF90A2000F0D8F895
:10064000601C84B2642CF4DB00240AE0C4F1640072
:1006500081B2054800F0A0F90A2000F0C9F8601C3A
:1006600084B2642CF2DB10BD00040040704700002F
:1006700029B1064AD2690243044BDA6104E0034A15
:10068000D2698243014BDA617047000000100240DA
:1006900029B1064A92690243044B9A6104E0034A75
:1006A00092698243014B9A6170470000001002403A
:1006B000704710B500F002F810BD00000CB5002026
:1006C000019000903348006840F480303149086060
:1006D00000BF3048006800F4003000900198401CD2
:1006E0000190009818B90198B0F5A06FF1D1294890
:1006F000006800F4003010B10120009001E00020FB
:1007000000900098012843D12348006840F0100071
:10071000214908600846006820F007000860084684
:10072000006840F0020008601A48406819494860B3
:100730000846406848600846406840F48060486069
:100740000846406820F47C1048600846406840F441
:10075000E81048600846006840F08070086000BFFC
:100760000C48006800F000700028F9D00948406883
:1007700020F00300074948600846406840F0020046
:10078000486000BF0348406800F00C000828F9D119
:100790000CBD0000001002400020024030B50146B0
:1007A000B1F1807F01D3012030BD21F07F40401E98
:1007B0004FF0E022506150170F22002807DA13078C
:1007C0001D0E094B00F00F04241F1D5503E01307F5
:1007D0001C0E064B1C5400BF00204FF0E02290611D
:1007E000072010610020DFE718ED00E000E400E0E2
:1007F00031B5104800684FF47A71B0FBF1F5284626
:10080000FFF7CCFF002408E000BF4FF0E0200069B4
:1008100000F480300028F8D0641C00988442F3D3A0
:100820004FF0E020006920F001004FF0E021086166
:1008300038BD0000000000207047000010B50648D9
:1008400000680649B0FBF1F42046FFF7A7FF08B1A6
:1008500000BFFEE710BD000000000020A0860100E0
:1008600010B51348006840F00100114908600846BF
:100870004068104908400E494860084600680E4923
:1008800008400B4908600846006820F48020086092
:100890000846406820F4FE0048604FF41F0088605E
:1008A000FFF707FF4FF000600449086010BD00002B
:1008B000001002400000FFF8FFFFF6FE08ED00E028
:1008C00021B1028842F00102028004E002884FF662
:1008D000FE731A400280704701894FF6F87211408A
:1008E0000181704770B5002400220023058C4FF66B
:1008F000FF6635400584028C8388848B4FF68F75A4
:100900002C404FF6FC752C400D882C434FF6FF55BC
:100910002A400D894FF6FF7606EA05252A434D88C1
:1009200006EA05252A43154DA84202D0144DA842D7
:100930001DD14FF2FF752A404D894FF6FF7606EA2A
:1009400005252A434FF6FF352A408D8806EA0525FE
:100950002A434EF6FF752B404DF6FF752B408D89CF
:1009600006EA05152B43CD8906EA05152B4383803E
:100970008483CD888587028470BD0000002C0140EF
:10098000003401400021018041808180C1800181CB
:1009900041818181C181704781877047002202882F
:1009A0001D4B98420ED01D4B98420BD0B0F1804F9A
:1009B00008D01B4B984205D01A4B984202D01A4BD4
:1009C000984204D14FF68F731A404B881A43174B45
:1009D000984207D0164B984204D04FF6FF431A4076
:1009E000CB881A4302808B8883850B8803850A4B4A
:1009F00098420BD0094B984208D00E4B984205D034
:100A00000D4B984202D00D4B984201D10B7A0386D0
:100A10000123838270470000002C01400034014014
:100A20000004004000080040000C0040001000409E
:100A300000140040004001400044014000480140D3
:100A400000BFFEE702E008C8121F08C1002AFAD161
:100A500070477047002001E001C1121F002AFBD13E
:100A600070470000FFF727FCFFF730FC04A20121CC
:100A70000220FFF75DFD01E0FFF7D8FDFCE7000075
:100A800068656C6C6F2066726A00000000000000F0
:100A9000000000000000000000000000000000F85E
:100AA00000000000000000333000000000100C06C1
:100AB000100C0600000000000000000040C078405C
:100AC000C0784000043F04043F040400007088FC28
:100AD00008300000001820FF211E0000F008F00080
:100AE000E018000000211C031E211E0000F00888F1
:100AF000700000001E2123241927211010160E005B
:100B0000000000000000000000000000000000E005
:100B1000180402000000000718204000000204181A
:100B2000E00000000040201807000000404080F076
:100B3000804040000202010F01020200000000F0AC
:100B4000000000000101011F010101000000000080
:100B50000000000080B070000000000000000000F5
:100B6000000000000001010101010101000000007E
:100B70000000000000303000000000000000000015
:100B800080601804006018060100000000E01008F2
:100B90000810E000000F102020100F00001010F8C7
:100BA000000000000020203F202000000070080806
:100BB0000888700000302824222130000030088886
:100BC000884830000018202020110E000000C020AE
:100BD00010F8000000070424243F240000F80888CF
:100BE000880808000019212020110E0000E010885C
:100BF00088180000000F112020110E00003808088E
:100C0000C83808000000003F00000000007088089D
:100C100008887000001C222121221C0000E010081E
:100C20000810E0000000312222110F00000000C077
:100C3000C000000000000030300000000000008014
:100C40000000000000008060000000000000804004
:100C5000201008000001020408102000404040401D
:100C60004040400004040404040404000008102070
:100C700040800000002010080402010000704808B5
:100C80000808F0000000003036010000C030C8281D
:100C9000E810E0000718272423140B000000C038D8
:100CA000E0000000203C23020227382008F8888852
:100CB00088700000203F202020110E00C03008085E
:100CC00008083800071820202010080008F8080835
:100CD0000810E000203F202020100F0008F888882E
:100CE000E8081000203F20202320180008F88888FA
:100CF000E8081000203F200003000000C030080872
:100D00000838000007182020221E020008F80800FA
:100D10000008F808203F210101213F20000808F8C1
:100D2000080800000020203F2020000000000808E4
:100D3000F8080800C08080807F00000008F888C0A4
:100D400028180800203F20012638200008F8080055
:100D500000000000203F20202020300008F8F8008C
:100D6000F8F80800203F003F003F200008F830C09E
:100D70000008F808203F200007183F00E01008088E
:100D80000810E0000F10202020100F0008F80808BD
:100D90000808F000203F210101010000E0100808D0
:100DA0000810E0000F18242438504F0008F88888F5
:100DB00088887000203F2000030C302000708808D5
:100DC000080838000038202121221C00180808F8E3
:100DD000080818000000203F2000000008F8080064
:100DE0000008F808001F202020201F000878880035
:100DF00000C83808000007380E010000F80800F8A5
:100E00000008F800033C0700073C0300081868804E
:100E10008068180820302C03032C30200838C800C4
:100E2000C83808000000203F200000001008080813
:100E3000C83808002038262120201800000000FEB5
:100E4000020202000000007F40404000000C30C061
:100E500000000000000000010638C000000202028D
:100E6000FE000000004040407F000000000004023F
:100E7000020204000000000000000000000000006A
:100E8000000000008080808080808080000202045A
:100E90000000000000000000000000000000808052
:100EA000808000000019242222223F2008F80080C0
:100EB00080000000003F112020110E000000008083
:100EC00080800000000E1120202011000000008012
:100ED0008088F800000E112020103F200000808044
:100EE00080800000001F222222221300008080F058
:100EF000888888180020203F202000000000808083
:100F000080808000006B94949493600008F80080C7
:100F100080800000203F210000203F200080989822
:100F2000000000000020203F202000000000008082
:100F30009898000000C08080807F000008F80000C2
:100F400080808000203F24022D302000000808F817
:100F5000000000000020203F2020000080808080D2
:100F600080808000203F20003F20003F8080008064
:100F700080800000203F210000203F200000808072
:100F800080800000001F202020201F008080008023
:100F90008000000080FFA12020110E0000000080D2
:100FA00080808000000E112020A0FF8080808000C3
:100FB0008080800020203F212000010000008080F0
:100FC000808080000033242424241900008080E0E5
:100FD000808000000000001F2020000080800000B2
:100FE00000808000001F202020103F208080800093
:100FF0000080808000010E300806010080800080A3
:10100000008080800F300C030C300F0000808000C7
:10101000808080000020312E0E31200080808000F2
:101020000080808080818E701806010000808080A2
:10103000808080000021302C222130000000000040
:10104000807C020200000000003F404000000000E1
:10105000FF00000000000000FF0000000002027C12
:10106000800000000040403F000000000006010139
:101070000202040400000000000000009C100008B0
:101080000000002014000000440A0008B01000080E
:101090001400002004040000540A000800A24A04BE
:1010A0000000000000000000010203040607080918
:0400000508000131BD
:00000001FF
