:020000040800F2
:100000009893002089020008931C0008411B0008F7
:10001000911C0008650800088D2000080000000001
:10002000000000000000000000000000C101000806
:10003000130A0008000000003902000875020008D9
:10004000A3020008A3020008A3020008A3020008FC
:10005000A3020008A3020008A3020008A3020008EC
:10006000A3020008A3020008A3020008A3020008DC
:10007000A3020008A3020008A3020008A3020008CC
:10008000A3020008A3020008A3020008A3020008BC
:10009000A3020008A3020008A3020008A3020008AC
:1000A000A3020008A3020008A3020008A30200089C
:1000B000A3020008A3020008A3020008A30200088C
:1000C000A3020008A3020008A3020008A30200087C
:1000D000A302000875200008A30200088120000880
:1000E000A3020008A3020008A3020008A30200085C
:1000F000A3020008A3020008A3020008A30200084C
:10010000A3020008A3020008A3020008A30200083B
:10011000A3020008A3020008A3020008A30200082B
:10012000A3020008A3020008A3020008A30200081B
:10013000DFF820D000F012FBAFF3008004F010F9DC
:100140000021034804F0ECF904F01CF9FEE700007C
:10015000F46100089893002080F309887047EFF35A
:1001600009807047684680F3098804480078C00712
:1001700014BF0220032080F314887047E061000858
:10018000DFF818C0EFF305831B0618BF6047EFF3D5
:100190001483DB0708BF604700DF70478146000813
:1001A000DFF818C0EFF305831B0618BF6047EFF3B5
:1001B0001483DB0708BF604700DF704775480008FD
:1001C000EFF30980816911F8021CF1B990E80F1072
:1001D000E047EFF3098C8CE80700144B93E8060026
:1001E00091420FD039B12CE9F00FC1F828C00CB4FE
:1001F00004F030FF0CBC1A60D2F828C0BCE8F00F45
:100200008CF309886FF0020E704710B5084A126827
:10021000914209D8074C54F8214090E80F10A047AC
:10022000EFF3098C8CE80F0010BD00009400002053
:10023000600800086008000804F0DEFD0C4B93E83D
:100240000600914210D0EFF3098C2CE9F00FC1F8B1
:1002500028C00CB404F0FEFE0CBC1A60D2F828C012
:10026000BCE8F00F8CF309886FF0020E70470000B5
:100270009400002004F0B6FFE0E7000004F0D2F99B
:1002800004F0B0FFDAE70000064880470648004760
:10029000FEE7FEE7FEE7FEE7FEE7FEE7FEE7FEE736
:1002A000FEE7FEE7F31C0008310100082DE9F05FCE
:1002B0000546002092469B468846064681464024D5
:1002C0001BE0284641464746224600F020F85346A8
:1002D0005A46C01A914110D311461846224600F0E2
:1002E00076F82D1A67EB01084F46224601200021BF
:1002F00000F06DF817EB00094E41201EA4F1010437
:10030000DFDC484631462A464346BDE8F09F202AB6
:1003100004DB203A21FA02F00021704721FA02F3AF
:10032000D040C2F120029140084319467047D2B232
:1003300001E000F8012B491EFBD270470022F6E7CE
:1003400010B513460A4604461946FFF7F0FF20464B
:1003500010BD30B505462A460B4612F8010B13F8BE
:10036000014B08B1A042F8D01CB1002802D06D1C8E
:10037000F1E7284630BD421C10F8011B0029FBD1D3
:10038000801A704730B505460020034600E05B1C2C
:10039000934205D2EC5CC85C201A01D1002CF6D146
:1003A00030BD30B50B46014600202022012409E073
:1003B00021FA02F59D4205D303FA02F5491B04FA1E
:1003C00002F52844151EA2F10102F1DC30BD202AFD
:1003D00004DB203A00FA02F1002070479140C2F19C
:1003E000200320FA03F31943904070472DE9FE4F94
:1003F000804681EA0300C00F0C46009021F00041C6
:1004000023F00045B8EB0200A94105D24046214641
:1004100090461C460B46024623F00040104347D04E
:10042000270DC7F30A00C3F30A510290401A019046
:1004300040286BDAC3F3130040F4801B0098924607
:1004400020B10023D2EB030A63EB0B0B0198594652
:10045000C0F140025046FFF7BAFF06460D4650462F
:100460005946019A00F08CF910EB08006141002414
:1004700087EA115284EAE7731A4340D0009A62B3C4
:10048000019A012A4FEA075215DC001B61EB0201B9
:100490004FF0004202EA0752CDE90042001C41F54C
:1004A000801132462B4600F08CF903B0BDE8F08F86
:1004B00040462146F9E7001B61EB0201001C41F5B3
:1004C000801300185B412018A2F5001747EB0301C9
:1004D00040EAD570B6196D4111E06D084FEA360655
:1004E00045EAC0754FEA0752001B61EB0201001C90
:1004F00041F5801149084FEA300000195141324658
:100500002B4603B0BDE8F04F00F04CB90098012233
:1005100040000023D0EB020263EBE0730098214619
:100520004FEAE074B8EB000061EB0401E9E783F007
:1005300000435BE781F0004158E72DE9FE4F81EA77
:10054000030404F0004421F0004100944FF0000B3C
:1005500023F0004350EA01045ED052EA03045BD06A
:10056000C3F30A54C1F30A552C44A4F2F3340194A2
:10057000A0FB0254C1F3130141F48011C3F3130330
:1005800043F4801301FB024400FB034E840A970AE4
:1005900044EA815447EA8357A4FB076802958D0A11
:1005A00005FB07854FEA932C04FB0C542705029D9D
:1005B0004FEA065847EA1637B5EB08056EEB070C0D
:1005C000870E920E47EA811742EA8312A7FB0201C7
:1005D000B6EB0B0164EB00042B0D43EA0C335E1801
:1005E00044EB1C50DA465146E7FB0201C5F3130405
:1005F0004FEA0B3343EA14534FEA0432019C43EAB7
:100600000603A4F10C040294009CCDE900B400F0B0
:10061000D8F803B0BDE8F08F00200146F9E72DE9D6
:10062000F04D81EA030404F0004B21F0004514462C
:100630004FF0000A23F0004150EA050220D054EAAE
:1006400001021DD0C5F30A570246C5F31303C1F3D7
:100650001300C1F30A5640F4801543F48013A7EB4E
:100660000608101BD64608F2FD3873EB050002D3CE
:1006700008F1010801E092185B41B8F1000F03DABC
:1006800000200146BDE8F08D00204FF480110646A1
:1006900084460EE0171B73EB050705D3121B63EBB3
:1006A000050306434CEA010C49084FEA3000921852
:1006B0005B4150EA0107EDD152EA030012D082EA11
:1006C000040083EA0501084305D0101BAB4106D2A4
:1006D0000122002306E000224FF0004302E06FF009
:1006E000010253101AEB06004CEB085110EB0A0004
:1006F00041EB0B01BDE8F04D00F054B8C1F30A52D4
:10070000C1F3130140F2FF3341F480119A4202DA3F
:1007100000200146704740F233439A42A2F233422E
:1007200002DC5242FFF7F3BDFFF751BE30B5041EA5
:1007300071F1000404DB4FF00044404264EB01011E
:10074000141E73F1000405DB1C464FF000435242B7
:1007500063EB0403994208BF904230BD064C074D3D
:1007600006E0E06840F0010394E807009847103481
:10077000AC42F6D3FFF7E0FC78620008986200080C
:10078000202A06DBCB17203A41FA02F043EAE07355
:1007900006E041FA02F3D040C2F120029140084342
:1007A0001946704710B5141E73F1000408DA401C96
:1007B00041F1000192185B411A4301D120F0010080
:1007C00010BD2DE9F04D92469B4611B1B1FA81F270
:1007D00002E0B0FA80F220329046FFF7F8FD0446BE
:1007E0000F4640EA0A0041EA0B0153465A460843C5
:1007F00013D0114653EA010019D0C8F14002504607
:10080000FFF785FD05460E46504659464246FFF71E
:10081000DEFD084305D0012004E020463946BDE84E
:10082000F08D0020054346EAE0762C4337430A98D2
:100830006305E40AA0EB08000022FD0A44EA4754DD
:100840000A3002D500200146E9E701051019694187
:10085000DDE9084500196941BDE8F04DA2E7000057
:1008600000000000FEE7000070B5002400F02AF848
:100870004FF48055124E04E0641CE4B2012000F0F5
:10088000C9F82946304600F0A3FA10B1642CF3D31E
:100890000FE0642C0DD2002404E0641CE4B20120BB
:1008A00000F0B8F82946304600F092FA18B1642CEE
:1008B00004D3012070BD642CEFD3FAE7002070BD93
:1008C000001001401FB50020019003904FF48050AC
:1008D0000090012002906946014800F07DF91FBD9B
:1008E000001001407FB500200B4D00900190029058
:1008F00002464FF4805403902146284600F075FAD2
:1009000001210220CDE90210CDE9004169462846C7
:1009100000F062F97FBD00000010014070B5FFF7E4
:10092000E1FF0A4D4FF4805400222146284600F092
:100930005CFA142000F03EF901222146284600F01E
:1009400054FABDE870401E2000F064B80010014069
:1009500070B54FF48055134E04E0641CE4B20120DE
:1009600000F058F82946304600F032FA08B1642CFD
:10097000F3D3002404E0641CE4B2012000F04AF840
:100980002946304600F024FA08B9642CF3D3282015
:1009900000F040F82946304600F01AFA002800D04E
:1009A000012070BD0010014070B5002004464006D3
:1009B000050EFFF7CDFF641C2843E4B2082CF6D3E4
:1009C00070BD2DE9FC410D460646FFF7A7FFFFF776
:1009D0004BFF10B10120BDE8FC8100246F46FFF7FA
:1009E000E3FF3855641CE4B2052CF8D39DF80010E1
:1009F0009DF801009DF803300A189DF80200034499
:100A00001A449DF804309A4201D1297030700020B8
:100A1000E1E7704770B5084C054600202168486240
:100A2000204600F083FD2068416AA942FCD9BDE858
:100A30007040014800F0ACBDB400002010B590F843
:100A400021100022022905D00421816380F8202092
:100A5000012010BD01680B6823F00E030B600168D4
:100A60000B6823F001030B6090F84030C46B012148
:100A700001FA03F3636080F8211080F8202010460B
:100A800010BD00002DE9F05F90F82110002402292C
:100A900003D004218163012485E001680A6822F003
:100AA0000E020A6001680A6822F001020A603F4EE5
:100AB0003E4FB215DFF8F4C0DFF8F090DFF8ECA09D
:100AC000DFF8E8B0DFF8E4E00168783F13011502D1
:100AD000ACF1640CA9F15009AAF13C0AABF1280B66
:100AE000AEF1140E4FF48018B14227D9B9420ED09E
:100AF000614512D049451DD0514518D0594518D0EF
:100B0000714501D1424615E0294EB14201D1012281
:100B100010E0274E1436B14201D110220AE0244ED3
:100B20002836B14206D0224A3C32914201D11A46BF
:100B300000E02A461E49091F0A602BE0B94213D083
:100B4000614517D0494522D051451DD059451DD08A
:100B5000714501D142461AE0B14202D14FF0807294
:100B600015E0134EB14201D1012210E0104E1436AF
:100B7000B14201D110220AE00D4E2836B14206D012
:100B80000B4A3C32914201D11A4600E02A460749FD
:100B900080394A60012180F82110002180F820105E
:100BA000416B01B188472046BDE8F09F80000240BC
:100BB0000804024070B5044600F01CF90546601CAC
:100BC00002D004480078044400F014F9401BA0420D
:100BD000FAD370BD000000202DE9F84FDFF8C8916E
:100BE0000024A9F1040B23460F2709F1040AABF1F5
:100BF000040ED1E00125A54006EA0502AA4276D1FD
:100C0000DFF8A8C14E68A6EB0C0866452BD00DDCBA
:100C1000032E34D005DC36B3012E19D0022E2FD18D
:100C20001BE0112E16D0122E2AD119E0B8F5881F1C
:100C300019D006DCB8F5803F15D0B8F5801F1FD15C
:100C400011E0B8F5001F0ED0B8F5041F18D10AE066
:100C5000CB6815E0CB681B1D12E0CB6808330FE0B2
:100C6000CB680C330CE08B682BB1012B4FF00803E1
:100C700003D0456104E0042302E0056100E00023A5
:100C8000FF2A01D8064601E000F104064FEA840578
:100C900001D9A5F12005D6F8008007FA05FC28EA5D
:100CA0000C0803FA05F548EA0508C6F800804D6807
:100CB000ED0070D53E4DAE6946F00106AE61AD69FE
:100CC00024F0030605F0010500953A4D06EB050CEE
:100CD000DCF80850A607360F07FA06F825EA0805DB
:100CE000DFF8D480404503D14FF0000825E052E002
:100CF000DFF8C880404502D14FF001081DE0DFF861
:100D0000C080404502D14FF0020816E0DFF8B48001
:100D1000404502D14FF003080FE0DFF8AC804045BA
:100D200002D14FF0040808E0DFF8A080404502D16E
:100D30004FF0050801E04FF0060808FA06F848EA07
:100D40000508CCF808804D68D9F80060ED024D46E2
:100D500001D5164300E096432E604D68DAF8006036
:100D6000AD02554601D5164300E096432E604D680E
:100D7000DBF80060AD035D4601D5164300E0964305
:100D80002E604D68DEF80060ED03754601D5164310
:100D900000E096432E60641C0A681646E2407FF429
:100DA00029AFBDE8F88F00000804014000001110D1
:100DB000001002400000014000080140000C01400A
:100DC000001001400014014000180140001C0140C7
:100DD0008068084000D001207047C26821EA020301
:100DE0000A4043EA0241016170470AB1016170475C
:100DF0000904FBE7014800687047000090000020EC
:100E0000074810B5016841F010010160032000F0AF
:100E10007BF8012000F006F800F024F8002010BD57
:100E20000020024070B50D4D04464FF47A712878C9
:100E3000B1FBF0F00A490968B1FBF0F000F0E2FA0A
:100E400048B9102C07D200222146501E00F03CF871
:100E500000206C6070BD012070BD0000000000200B
:100E60000C0000200F4808B5816941F00101816143
:100E7000816901F001010091C16941F08051C161B6
:100E8000C06900F080500090062000F03DF801217C
:100E90000022C81E00F018F80348416821F0E06104
:100EA000416008BD0010024000000140002809DB3D
:100EB00000F01F02012191404009800000F1E02074
:100EC000C0F8001170470000F0B40E4B1B680C46D0
:100ED000C3F30223C3F10705042D00D90425191D0E
:100EE000072901D2002300E0DB1E012606FA05F1E6
:100EF000491E214099409E40761E16403143F0BC69
:100F000001F00AB90CED00E0064900F0070208689C
:100F10004FF6FF03184040EA0220034A10430860DE
:100F2000704700000CED00E00000FA052DE9F047E5
:100F30000F46050061D0434E306800F00700B8420C
:100F400009D2306820F0070038433060306800F084
:100F50000700B84251D128683B4C810712D54007A1
:100F600003D5606840F4E06060602878000703D52E
:100F7000606840F4605060606068A96820F0F0002C
:100F8000084360602878C00728D06868012810D01E
:100F90002168022810D0890700292EDA616821F023
:100FA000030101436160FFF725FF804641F2883964
:100FB0000DE021688903EFE78901EDE7FFF71AFFEC
:100FC000A0EB0801494502D90320BDE8F08760681D
:100FD000696800F00C00B0EB810FEFD1306800F0D1
:100FE0000700B8420BD9306820F007003843306062
:100FF000306800F00700B84201D00120E5E728780A
:10100000400705D56068E96820F4E0600843606047
:101010002878000706D56068296920F4605040EA06
:10102000C100606000F038F86168084AC1F303113C
:10103000515CC8400649086006480068FFF7F2FEA8
:101040000020C2E700200240001002404F5C000870
:101050000C0000200400002004480549006849688D
:10106000044AC1F30221515CC84070470C000020C3
:10107000001002405F5C00080448054900684968A8
:10108000044AC1F3C221515CC84070470C000020E3
:10109000001002405F5C00080E4A51680E4801F0E3
:1010A0000C03042B11D0082B0FD10C48C1F3834340
:1010B000C903C05C0AD55168084AC1F34041921E79
:1010C000515C054A5043B0FBF1F070470449484376
:1010D000704700000010024000127A003F5C0008D8
:1010E00000093D002DE9F84F040070D02078C04D74
:1010F000C00749D06868C0F38100012807D068683C
:10110000C0F38100022809D16868C00306D52868A9
:10111000800339D560680028E7D035E06068B0F515
:10112000803F0BD010B1B0F5A02F11D0286820F46B
:1011300080302860286820F4802002E0286840F48D
:1011400080302860606890B1FFF754FE06460AE0E0
:10115000286840F480202860F0E700BFFFF74AFECF
:10116000801B642873D828688003F7D50CE0FFF74C
:1011700041FE064605E000BFFFF73CFE801B6428E9
:10118000F0D828688003F7D420789A4E80074FF073
:1011900001094FF0000839D5686810F00C0F07D02E
:1011A0006868C0F38100022809D16868C00306D4CA
:1011B0002868800714D52069012808D110E020692B
:1011C000B0B1C6F80090FFF715FE074605E00AE14A
:1011D000FFF710FEC01B0228C4D828688007F7D587
:1011E0002868616920F0F80040EAC10028600DE03D
:1011F000C6F80080FFF7FEFD074604E0FFF7FAFDA2
:10120000C01B022823D828688007F7D4207800075D
:101210002CD57948A169D9B1C0F80090FFF7EAFD53
:10122000074604E0FFF7E6FDC01B02280FD8686AF6
:101230008007F7D571484FF4FA510068B0FBF1F020
:10124000009000BF0098411E0091FAD20EE080E0AD
:10125000C0F80080FFF7CEFD074604E0FFF7CAFDA7
:10126000C01B022875D8686A8007F7D42078400729
:1012700060D5E8690027C00008D4E86940F08050D4
:10128000E861E869012700F0805000905C4801683F
:10129000C90513D40168834641F480710160FFF7EA
:1012A000A9FD824606E000BFFFF7A4FDA0EB0A00FF
:1012B00064284ED8DBF80000C005F5D5E0680128A9
:1012C0000AD008B1052813D0286A20F0010028624E
:1012D000286A20F0040002E0286A40F00100286239
:1012E000E06841F2883B98B1FFF784FD82460BE04D
:1012F000286A40F004002862EEE700BFFFF77AFD9D
:10130000A0EB0A0159455AD8286A8007F6D50CE0A7
:10131000FFF770FD824605E0FFF76CFDA0EB0A01C8
:1013200059454CD8286A8007F6D41FB1E86920F0E7
:101330008050E861E06988B36968C1F381010229DE
:1013400044D00228C6F8608004D0FFF753FD04465D
:1013500038E034E0FFF74EFD074604E0FFF74AFDB2
:10136000C01B02282BD828688001F7D4206AB0F56A
:10137000803F05D16868A16820F4003008436860A8
:10138000D4E908010843696821F4741108436860CE
:10139000C6F86090FFF72EFD044606E025E000BF8A
:1013A000FFF728FD001B022809D828688001F7D51F
:1013B0001BE000BFFFF71EFD001B022802D903201F
:1013C000BDE8F88F28688001F4D40EE00128F7D03A
:1013D0006868226A00F48031914204D1616A00F4A5
:1013E0007010884201D00120EAE70020E8E7000001
:1013F0000010024000004242800442420C000020E3
:101400000070004010B5401EB0F1807F01D3012074
:1014100010BD4FF0E02460610F21601700F07CFEEA
:101420000020A06107202061002010BD70B590F859
:101430003C20012A2CD0012480F83C40022280F874
:101440003D2003685A689D6822F070060A6832439E
:101450005A60104B02689A420ED00F4B9A420BD042
:10146000B2F1804F08D00D4B9A4205D00C4B9A42F6
:1014700002D00C4B9A4204D1496825F080031943ED
:10148000916080F83D40002180F83C10084670BD16
:10149000022070BD002C01400034014000040040D7
:1014A00000080040000C004010B5040003D094F880
:1014B0003D0010B107E0012010BD002084F83C0081
:1014C000204600F01FF8022084F83D00211D20680E
:1014D00000F010FC012084F8460084F83E0084F8F7
:1014E0003F0084F8400084F8410084F8420084F80A
:1014F000430084F8440084F8450084F83D0000204F
:1015000010BD000008B500680649884208D10648A9
:10151000C16941F00401C161C06900F0040000909C
:1015200008BD0000000800400010024090F83D1087
:10153000012901D001207047022180F83D10006888
:101540000E4988420ED00E4988420BD0B0F1804F30
:1015500008D00C49884205D00B49884202D00B497B
:10156000884204D1816801F00701062903D001688F
:1015700041F001010160002070470000002C014093
:10158000003401400004004000080040000C00400E
:1015900001680A6A41F211131A4207D10A6A9B10C4
:1015A0001A4203D10A6822F001020A60012180F880
:1015B0003D100020704770B5044690F83C000025AF
:1015C000012817D0012684F83C60022084F83D00F1
:1015D0002068826822F0770222F47F4282600868E5
:1015E000502838D00DDC20284FD005DC90B31028CF
:1015F00011D14AE0022070BD302846D040280AD1DF
:101600003BE060282FD070280DD0B0F5805F03D06C
:10161000B0F5005F12D0012584F83D60002084F809
:101620003C00284670BDCB68D1E90121206800F05C
:10163000A7FB2068816841F0770109E0CB68D1E918
:101640000121206800F09CFB2068816841F4804102
:101650008160E1E719E0CA684968206800F0A2FBF0
:101660005021206806E0CA684968206800F0ABFB9A
:101670006021206800F08EFBCEE7CA6849682068C8
:1016800000F090FB40212068F4E7226801461046F4
:10169000F0E77047704710F8411F407808437047E3
:1016A000F8B5016804460868CA684B6910F00F0F66
:1016B0004FF0000559D003F0010602F4907737434C
:1016C00065D0C10705D0D10503D5616C41F001019A
:1016D0006164410705D5D90703D0616C41F002016F
:1016E0006164810705D5D90703D0616C41F004011D
:1016F0006164010707D502F02001314303D0616C1A
:1017000041F008016164616C00293AD0800604D57B
:10171000900602D5204600F097FB20684069616C76
:10172000C0F38010090700D460B3204600F065FBC9
:1017300020684069400621D52068143050E8001F19
:1017400021F0400140E80012002AF5D1E06BA8B179
:101750006D494163E06BFFF795F9002811D0E06B0C
:10176000416B01B0BDE8F040084783060FD59306F2
:101770000DD52046BDE8F84000F066BB2046FFF7D7
:1017800089FFF8BD2046FFF785FF6564F8BD266B2D
:101790002023012E7CD1C6067AD5D60678D50868D6
:1017A0004868009048694FF00206400640D5E16B5A
:1017B000086840680004000CE8D0A28D8242E5D998
:1017C000E085886920282DD020680C3050E8001F63
:1017D00021F4807140E80012002AF5D1206814300D
:1017E00050E8001F21F0010140E80012002AF5D165
:1017F0002068143050E8001F21F0400140E800123A
:10180000002AF5D184F84230256320680C3050E876
:10181000001F21F0100140E80012002AF5D1E06B12
:10182000FFF70CF96663A08DE18D401A81B22AE0C2
:10183000A08DE18D401A81B2E08D0028A6D000294C
:10184000A4D022680C3252E8000F20F4907042E8D5
:101850000007002FF5D12068143050E8002F22F047
:10186000010240E80027002FF5D184F842302563BB
:1018700020680C3050E8002F22F0100240E80023CE
:10188000002BF5D166632046FFF703FFF8BDFFE7A5
:1018900005062BD5150629D594F841002128F5D148
:1018A000A068B0F5805F01D12069B0B1206A411C09
:1018B0002162216800784860E08C401E0004000C22
:1018C000E084E3D12068C16821F08001C160206814
:1018D000C16841F04001C160D8E7206A0088C0F3C8
:1018E00008004860206A801C2062E5E74006CDD5EC
:1018F0005006CBD5CA68204622F04002CA6084F860
:10190000413000F01CF9C1E7EB1D000870B5040080
:1019100004D094F84100002510B106E0012070BD0C
:1019200084F84050204600F023F8242084F8410039
:101930002068C16821F40051C160204600F0E6FA39
:101940002068016921F4904101612068416921F01A
:101950002A0141612068C16841F40051C160656499
:10196000202084F8410084F842006563002070BDA7
:1019700070B586B000240094019402940394036827
:101980002E482D4E022103220515B34226D183692C
:1019900043F480438361836903F480430493836940
:1019A00043F0040383618069254E00F00400049035
:1019B0000802CDE90001039269463046FFF70CF9B1
:1019C000CDE90054694630460294FFF705F900223C
:1019D00011462520FFF778FA252028E0194EB3425A
:1019E00027D1C36943F48023C361C36903F480230F
:1019F0000493836943F0080383618069CDE9005152
:101A000000F00800CDE903200F4D69462846FFF796
:101A1000E3F8E814CDE90004694628460294FFF78C
:101A2000DBF8002211462720FFF74EFA2720FFF7A8
:101A30003DFA06B070BD00000038014000100240C1
:101A40000008014000480040000C014090F842307E
:101A5000202B01D00220704721B11AB1002303636B
:101A600000F0B0BA012070470A49884211D10A49F2
:101A70000888802801D3002008800848084B027895
:101A800008881A54401C0880012204490148FFF7C5
:101A9000DDBF7047440100207400002010000020CA
:101AA000D07000202DE9F843044690F841001F460D
:101AB00016460D46202802D00220BDE8F8837DB1ED
:101AC00076B100206064212084F84100FFF792F98C
:101AD000A6848046E684A068B0F5805F02D003E06B
:101AE0000120EAE7206910B12E4600250EE000260D
:101AF0000CE08021204600F080FAA0B9AEB116F8C3
:101B0000010B21684860E08C401EE084E08C434675
:101B10004FF0000200970028EBD14FF04001204623
:101B200000F06BFA30B10320C7E735F8020BC0F3C1
:101B30000800E6E7202084F841000020BDE7704758
:101B4000FEE770B516460D460446802804D20020F4
:101B50000860A008106070BD02F04CFB2860401FB8
:101B6000C440203C34602868801F286070BD00009D
:101B70002DE9F04186B00024274800940194029496
:101B80000394816941F010018161816901F01001C4
:101B90000491816941F004018161816901F00401CE
:101BA0000491816941F00801816180691B4F00F057
:101BB00008000490012223213846FFF716F900227D
:101BC0004FF440713846FFF710F9781402258DE87C
:101BD0003100DFF84C8069464046FEF7FDFF0126E4
:101BE000009669460F48CDE90145FEF7F5FF40F242
:101BF0002330CDE9000669463846CDE90245FEF7B7
:101C0000EBFFE8028DE8510069464046FEF7E4FF2D
:101C100006B0BDE8F081000000100240000C014059
:101C2000001001400008014010B586B0002417489C
:101C30000094019402940394049413490594016060
:101C40004721C0E901144FF6FF71C0E90314846114
:101C5000FFF72AFC08B172B6FEE74FF480500090FF
:101C600069460A48FFF7A7FC08B172B6FEE704947C
:101C700004A906480594FFF7D9FB002801D072B6E5
:101C8000FEE706B010BD000000080040B4000020D0
:101C9000FEE7FEE730B58FB028216846FEF74EFB21
:101CA00014210AA8FEF74AFB01210804CDE900101F
:101CB0000024029402250491CDE907504FF4E0106E
:101CC00009906846FFF70EFA08B172B6FEE70F20DA
:101CD000CDE90A054FF48060CDE90C4002210AA845
:101CE0000E94FFF723F9002801D072B6FEE70FB07B
:101CF00030BD7047F0B502681C4B1D4D1D4E1E4F88
:101D00001E4C4FF0804C984209D0A04207D060454D
:101D100005D0A84203D0B04201D0B84204D122F08D
:101D2000700E4A6842EA0E02984209D0A04207D0DB
:101D3000604505D0A84203D0B04201D0B84203D1DB
:101D400022F44075CA682A434D6922F080022A4372
:101D500002608A68C2620A688262984201D0A04228
:101D600001D10969016301214161F0BD002C0140ED
:101D70000004004000080040000C00400034014016
:101D800010B5846842EA032224F47F440A432243C4
:101D9000826010BD826822F070020A4342F007019F
:101DA0008160704710B5036A046A24F0010404627C
:101DB000846924F0F00444EA021423F00A020A437E
:101DC0008461026210BD10B5036A046A24F0100435
:101DD0000462846923F0A00324F4704444EA0232CC
:101DE00043EA01118261016210BD10B5406A002111
:101DF000C185C184FFF74EFC10BD01680C3151E86C
:101E0000002F22F4907241E80023002BF5D10168E5
:101E1000143151E8002F22F0010241E80023002B89
:101E2000F5D1016B012909D101680C3151E8002F6E
:101E300022F0100241E80023002BF5D1202180F888
:101E4000421000210163704708B590F84210222922
:101E500001D0022008BD82684FF480539A4201D11C
:101E6000016921B1816A9A421BD04AB10AE0026835
:101E7000816A5268C2F308020A80816A891C08E0FC
:101E8000026972B10268526802F07F020A70816AC8
:101E9000491C8162C18D491E0904090CC18503D00A
:101EA0001BE002685268F1E70168CA6822F020026C
:101EB000CA600168CA6822F48072CA6001684A690F
:101EC00022F001024A61202180F842100021416382
:101ED000026B012A03D0FFF7C7FD002008BD016394
:101EE00001680C3151E8002F22F0100241E8002374
:101EF000002BF5D101680A68D20602D50A68496844
:101F00000091818DFFF7C5FBE7E7000070B504463F
:101F100000680169E26821F44051114301612169BF
:101F2000A0680843616908432168CA6841F20C63EC
:101F30009A430243CA6020684169A26921F4407152
:101F4000114341611E492068884202D1FFF794F88D
:101F500001E0FFF781F800EBC00101EB00126068BF
:101F600064218000B2FBF0F3B3FBF1F36FF01806CD
:101F70007343B2FBF0F5B2FBF0F605EB83053223B9
:101F800003EB0515B5FBF1F5B6FBF1F605F0F00531
:101F900005EB0615B2FBF0F6B2FBF0F0B0FBF1F08A
:101FA0006FF01802504306EB800003EB0010B0FB0B
:101FB000F1F0216800F00F002844886070BD000037
:101FC0000038014081628285C2850021416422215E
:101FD00080F84210016921B10168CA6842F4807238
:101FE000CA6001684A6942F001024A610068C1683A
:101FF00041F02001C160002070472DE9F041984672
:1020000017460E460446069D27E0681C25D02DB1D4
:10201000FEF7F0FEA0EB0800A8421ED920680C30A5
:1020200050E8001F21F4D07140E80012002AF5D1D9
:102030002068143050E8001F21F0010140E8001230
:10204000002AF5D1202084F8410084F842000020C5
:1020500084F840000320BDE8F0812068006836EA7B
:10206000000004D00020B842CFD00020F3E70120C8
:10207000F9E700000148FFF713BB0000FC00002057
:102080000148FFF70DBB000044010020FEE70000FF
:102090000FB4054B10B503A9044A029800F042F9A9
:1020A00010BC5DF814FB0000393A0008B0000020B5
:1020B0000FB47CB50C0009AD01D0611E00E0002119
:1020C000CDE90001064B6A462946089800F02AF936
:1020D000002C02D0009A002111707CBC5DF814FB2A
:1020E0002B2A00087CB50C001D461646014601D07F
:1020F000601E00E00020CDE90010064B6A4629462C
:10210000304600F00FF9002C02D0009A0021117027
:102110007CBD00002B2A00080907090E002804DBFB
:1021200000F1E02080F80014704700F00F0000F18B
:10213000E02080F8141D704702E008C8121F08C193
:10214000002AFAD170477047002001E001C1121F38
:10215000002AFBD1704700002DE9FF5F82B000210B
:10216000DDE90430020DDDF840B0034318D044F639
:102170001050A2F2FF3242431514119801281FD0CB
:10218000A5EB0B00401C5FEA000A4FF000064E4F23
:10219000DFF83891B046504615D5CAF1000413E077
:1021A000119801244AA3012801D16FEA0B0102987A
:1021B000119AC0E90031C0E9024206B0BDE8F09FC3
:1021C000CBF10000DFE704460021404A491842EB0A
:1021D0000450CDE9001012E0E00707D032463B463C
:1021E00040464946FEF7A9F98046894632463B46B5
:1021F00010461946FEF7A1F906460F466410002C5A
:10220000EAD1DDE90401DDE90023BAF1000F06DAC5
:10221000FEF793F942464B46FEF78FF905E0FEF7CD
:10222000FEF942464B46FEF7FAF904460E460022F6
:10223000284BFEF77BFA03D84FF0FF30014607E04A
:102240000022254B20463146FEF7D0F8FEF756FA1D
:10225000102409E0002C0ADB0A220023FEF726F8EE
:10226000039B30321A55641E50EA0102F2D1641CFD
:10227000039AC4F111031444119A012A03D00122D4
:1022800008430DD10AE0084304D000204FF0110BA1
:10229000119072E7A3EB0B056D1E0DE05B4504DDAD
:1022A0004FF0000205F1010504E003DA4FF00002EF
:1022B000A5F10105002AECD002981199C0E902317C
:1022C000C0E9004579E70000000014400000F03F3D
:1022D000300000000000F0430000E03F10B5002A8D
:1022E00006DA22F00042D21D22F00703102203E09A
:1022F000D21C22F003030C2213B19C188C4201D98A
:10230000012010BD024401448360C0E90021C91AC4
:10231000D018884202D810600246F9E70020106009
:1023200010BD00002DE9FF4F95B09A46884606463D
:102330000025EEE1252877D100242746F94A01211E
:10234000039400E0044316F8013F203B01FA03F038
:102350001042F7D130782A2811D06FF02F0330784F
:10236000A0F13002092A16D8039A44F0020402EBC5
:10237000820203EB42021044761C0390EFE758F808
:10238000042B0392002A03DA504244F400540390D1
:1023900044F00204761C30782E2816D116F8010F6E
:1023A00044F004042A280DD06FF02F023078A0F1F9
:1023B0003003092B09D807EB870302EB4303C71847
:1023C000761CF3E758F8047B761C30786C280FD025
:1023D00006DC4C2817D068280DD06A2814D104E0F8
:1023E000742810D07A280FD10DE044F400140AE0CC
:1023F00044F4801401E044F440147278824202D123
:1024000004F58014761C761C307866280BD013DC1B
:10241000582877D009DC002875D04528F6D0462802
:10242000F4D047281AD193E118E0632835D0642806
:1024300079D0652812D18BE1702873D008DC672829
:10244000F1D069286FD06E280DD06F2806D1ACE08E
:1024500073282CD0752874D0782853D052461799F9
:1024600090476D1C54E1C4F30250022809D00328A0
:102470000DD0D8F8001004280DD00D6008F1040824
:1024800046E1D8F80010EA17C1E90052F6E7D8F89B
:1024900000100D80F2E70D70F0E718F8041B8DF8BE
:1024A000001000208DF80100EB46012003E058F8F1
:1024B00004BB4FF0FF3061074FF0000102D40DE084
:1024C00009F101018946B9420FDA8145F8DB1BF8B1
:1024D00009100029F4D108E009F10101894681427F
:1024E000FADB1BF809100029F6D103985346A0EB3C
:1024F000090721463846179A00F080FA284400EB75
:10250000090507E044E008E10DE01BF8010B524625
:1025100017999047B9F10109F7D253462146384639
:10252000179AF2E039E00A21C4F302524FF0000B8F
:102530000091022A06D058F8040BC117032A09D0CB
:102540000AE023E008F1070020F00702F2E80201A8
:10255000904605E000B2C117042A01D140B2C1176C
:10256000002906DA0A460021404261EB02012D22D1
:1025700002E0220504D52B228DF80420012203E07D
:10258000E20701D02022F7E7914657E00A2100E058
:1025900010214FF0000B00910BE010214FF0000BC9
:1025A00044F004040827009103E008204FF0000BDA
:1025B0000090C4F30252022A05D058F8040B0021FF
:1025C000032A08D008E008F1070020F00702F2E82B
:1025D0000201904603E080B2042A00D1C0B24FF05D
:1025E000000922072AD53278702A07D0DDF800C00A
:1025F0008CF0100C5CEA0B0C05D00EE040228DF83C
:102600000420012208E050EA010306D030238DF8AF
:1026100004308DF8052002229146009B83F00803C8
:1026200053EA0B030AD150EA010201D1620705D532
:1026300030228DF804204FF001097F1E3278582A8D
:1026400004D039A20C920CAA02920BE03BA2F9E74B
:102650005B46009AFDF72AFE0C9B9B5C029A521E79
:102660000292137050EA0102F2D1029804A9081AEA
:1026700000F1200B600702D524F4803400E001272C
:102680005F4502DDA7EB0B0000E0002000EB0B0133
:10269000009003984944401A0390E00306D453463F
:1026A0002146179A039800F0A9F90544002706E08F
:1026B00001A85246C05D179990476D1C7F1C4F457D
:1026C000F6DBE0030CD553462146179A039800F039
:1026D00095F9054404E030205246179990476D1C47
:1026E0000099481E00900029F5DC08E00298029944
:1026F00052460078491C0291179990476D1CBBF116
:102700000001ABF1010BF1DC5BE100F065F9054480
:10271000761C307800287FF40DAE19B02846BDE84D
:10272000F08F00000928010030313233343536375C
:10273000383961626364656600000000303132330D
:1027400034353637383941424344454600000000AD
:10275000600700D4062708F1070020F00700F0E822
:102760000223804603F0004C5FEA0C0001D097A0E2
:1027700009E0200501D596A005E0E00701D095A06D
:1027800001E0AFF24C001390307823F0004365284D
:102790000CD006DC452809D046281DD047287FD11B
:1027A0003BE0662818D067287AD136E00021112F47
:1027B00001DB112000E0781CCDE9000104A90CA880
:1027C000FFF7CAFCDDE90D010C9A4FF0000B07F191
:1027D0000109109200914EE04FF000400097CDE9C2
:1027E000011004A90CA8FFF7B7FCDDE90D020C9B52
:1027F0000F994FF0000B91461093009211B9791C7C
:1028000000EB0109B7EB090003D4C0F1FF3B07F16E
:102810000109A9EB0700019042E0012F00DA01272E
:102820000021112F01DD112000E03846CDE9000123
:1028300004A90CA8FFF790FCDDE90D010C9A0091AA
:102840004FF0000BB946109221070FD4009A4A4569
:1028500003DA914601E0A9F10109B9F1010F05DDA3
:10286000109AA9F10101515C3029F4D0B84202DA82
:1028700010F1040F03DA0121CDE9011010E0002866
:1028800003DC8344A9EB000102E0411C494500DD63
:102890008946A0EB0B00401C01904FF000400290D5
:1028A000200705D40198484502DB4FF0FF30019026
:1028B00000208DF84B0002980DF14B07B0F1004F4E
:1028C00025D002200C902B200D90029800280CDAC5
:1028D000404202902D200D9007E00A210298FDF75A
:1028E00060FD3031029007F8011D0C99481E0C90D4
:1028F0000029F2DC02980028EFD1791E0D980870AB
:10290000307800F0200040F0450007F8020D11A8D3
:10291000C01BC01D02901398007800B1012000EB8D
:102920000901019801EBE071029801440398401AF3
:10293000401E0390E00306D453462146179A03989D
:1029400000F05CF805441398007818B152461799C6
:1029500090476D1CE00323D553462146179A0398F0
:1029600000F04CF805441BE0BBF1000F07DB0098BA
:10297000584504DD1098179910F80B0001E01799DD
:1029800030205246904701980BF1010B401E05F193
:102990000105019004D12E205246179990476D1CD5
:1029A000B9F10001A9F10109DEDC05E017F8010B1E
:1029B0005246179990476D1C0299481E02900029B3
:1029C000F4DC53462146179A03989EE62D0000003A
:1029D0002B000000200000002DE9F04104460025F6
:1029E0001E461746880404D405E039462020B04727
:1029F0006D1C641EF9D52846BDE8F0812DE9F04133
:102A0000044600251E469046C80301D5302700E045
:102A10002027880404D505E041463846B0476D1CA0
:102A2000641EF9D52846BDE8F0814A68002A06D020
:102A30000A68531C0B6010704868401E486070475D
:102A40003EB505460068724C0E2872D01D280BD08A
:102A5000A0F5807013386DD12869A16888426BD1C8
:102A6000BDE83E4001F03CBA01234FF4FA62002178
:102A7000686803F043F8606000283BD065A14220FD
:102A8000CDE900016D4B6EA271A1032000F0EAFABE
:102A9000606803F0C1F801230A220021686803F08E
:102AA0002DF8A060002830D06AA14A20CDE90001AD
:102AB000624B63A266A1032000F0D4FAA06803F081
:102AC000ABF8012341F288320021686803F016F860
:102AD000E060002824D06AA15220CDE90001574BC4
:102AE00057A25BA1032000F0BDFAE068BDE83E40BC
:102AF00003F092B86EA14020CDE900014F4B50A2E7
:102B000053A1012000F0AEFAC5E774A14820CDE939
:102B100000014A4B4AA24EA1012000F0A3FAD0E7DF
:102B20007AA15020CDE90001444B45A248A10120E3
:102B300062E024E022E0FFE7616888420BD134497B
:102B40001131481EFDF73DFF03B00221BDE83040C2
:102B50007B48FEF742B9E16888420FD179A1612034
:102B6000CDE90001354B36A239A1032000F07AFAF5
:102B700079A17AA000F006FF0028F9D13EBD2869AE
:102B800000B30128FAD101F065F9002837D00120FF
:102B900001F060F90128F1D173A17720CDE900019E
:102BA000264B27A22AA1032000F05CFA627C72A1C6
:102BB00078208DE80700214B21A225A1032000F0F9
:102BC00051FA3EBD002001F045F990B1002001F01E
:102BD00041F90128F5D16BA16F20CDE90001174B18
:102BE00017A21BA1032000F03DFA227C69A17020EE
:102BF000DFE76BA16C2004E000F034FA3EBD6CA16D
:102C00007420CDE900010D4B0DA211A10320F3E7C3
:102C1000B40700206170705F696E69742056574D6B
:102C20005F43726561746554696D65722064687490
:102C30005F74696D6572206F6B210000955C000800
:102C40002E2E5C7372635C6170702E630000000056
:102C5000415050006170705F696E69742056574D25
:102C60005F43726561746554696D6572206B657947
:102C70005F7363616E5F74696D6572206F6B2100B5
:102C80006170705F696E69742056574D5F4372655D
:102C900061746554696D657220776966695F6765FF
:102CA000745F69705F74696D6572206F6B210000DD
:102CB0006170705F696E69742056574D5F4372652D
:102CC00061746554696D6572206468745F74696DC0
:102CD0006572206572726F72210000006170705F12
:102CE000696E69742056574D5F437265617465540F
:102CF000696D6572206B65795F7363616E5F74697E
:102D00006D6572206572726F722100006170705F74
:102D1000696E69742056574D5F43726561746554DE
:102D2000696D657220776966695F6765745F697050
:102D30005F74696D6572206572726F7221000000A8
:102D4000000C0140676574204950204349465352A6
:102D50002E2E2E0D0A0000004F4B000041542B4335
:102D6000494653520D0A00004B455932202020207D
:102D7000205345540000000068756D693A202564B1
:102D8000000000004B45593120202020205345549D
:102D90000000000074656D703A202564000000009A
:102DA0004B455931202020202052455345540000E6
:102DB0004B455932202020202052455345540000D5
:102DC0001CB514211448FDF7B9FA0021134801F08D
:102DD00031FA114C2060A8B111A12D20CDE90001DC
:102DE000184B19A21CA1032000F03CF9154903233C
:102DF00002221839206801F039F8BDE81C40174854
:102E000000F0B2BC16A12B20CDE900010D4B0EA2A3
:102E100011A10120E8E70000B4070020412A0008C2
:102E20006170705F696E6974204D73674578656382
:102E30005F4372656174654D6F64756C65206F6B7F
:102E4000210000008C5C00082E2E5C7372635C61B4
:102E500070702E63000000004150500044010020BB
:102E60006170705F696E6974204D73674578656342
:102E70005F4372656174654D6F64756C6520657242
:102E8000726F72210000000010B5421100F01F04A3
:102E900051F822300120A040834341F8223010BD78
:102EA00008480068C0010BD507480068C00707D074
:102EB000054880380068002802DA044901200870BB
:102EC00070470000FCED00E0800E00E0A400002050
:102ED0004FF06042D36F002BFCD0036BD367D36FEE
:102EE000002BFCD0C07840EA0120A2F87C0070479B
:102EF0004FF06041CA6F002AFCD081F87C00704717
:102F000002494FF4C84000F0C3BE0000D8070020BB
:102F1000F0B585B0070007D11E484FF4EF72036883
:102F200093B11D491DA09847214D0024052695F811
:102F3000F000C0B100F04EFA04EB4410411991F8D2
:102F40005100012812D017E01348CDE90302009286
:102F500012A118A3CDE9013103461FA225A100202B
:102F600000F080F8FEE705B03046F0BD1E2238467E
:102F70003231FDF707FA30B1641CE4B2052CDBD323
:102F800000F04EFAEFE704EB4410284490F831606B
:102F9000F6E70000400000203E61000874616720F1
:102FA000213D202828766F6964202A2930290000D5
:102FB000D86F0020282573292068617320617373FE
:102FC000657274206661696C656420617420257384
:102FD0003A256C642E0000002E2E5C656173796CBE
:102FE0006F676765725C7372635C656C6F672E6395
:102FF00000000000656C6F67000000002DE9F041E3
:10300000174D002095F8F010012927D000F021FA83
:10301000060023D1012000F0EDF9002785F8F370B8
:1030200085F8F470012085F8F500052000F01EFAFF
:103030000024B84604EB4410471907F132001F2161
:10304000FDF77CF9641C87F83180E4B287F8518081
:10305000052CEFD3012085F8F0003046BDE8F08163
:10306000D86F00200FB42DE9F04F06468BB08B4689
:103070000846FDF780F900240A940746A146099402
:103080000594069407940894052E08D9A9484FF48E
:103090000F720368002B7DD0A749A8A09847AE4DBA
:1030A00095F8F100002876D02878B04273D35846BE
:1030B000FFF72EFFB0426ED3691C5846FDF749F961
:1030C000002868D00DF1680A00F084F9A84695F848
:1030D000F500A5F5806570B12946A0A2204600F054
:1030E000BDFA0446934829191C3050F82620204682
:1030F00000F0B4FA04440121304600F069FD40B10B
:103100008C482919001D50F82620204600F0A6FA08
:1031100004440221304600F05BFDC8B129195A462B
:10312000204600F09BFA04440F2F0BD8C7F10F0183
:10313000202205A8FDF7FBF8291905AA204600F072
:103140008DFA0444291986A2204600F087FA044427
:103150001C21304600F03CFD00284BD0291981A2EB
:10316000204600F07BFA04440421304600F030FD94
:10317000A8B100F06DF902462919204600F06EFA58
:1031800004441821304600F023FD40B1291974A2EF
:10319000204601E04EE0C8E000F060FA0444082157
:1031A000304600F015FD90B100F04AF902462919A9
:1031B000204600F053FA04441021304600F008FD88
:1031C00028B1291966A2204600F048FA04441021CB
:1031D000304600F0FDFC38B100F036F902462919FE
:1031E000204600F03BFA044429195FA2204600F073
:1031F00035FA0444E021304600F0EAFC002860D0B3
:1032000029195AA2204600F029FA04442021304608
:1032100000F0DEFC002827D029192046169A00F07D
:103220001DFA04444021304600F0D2FC88B129192F
:103230004FA215E04048CDE9030200923FA14DA303
:10324000CDE90131034654A25AA10020FFF70AFF3D
:10325000FEE78021304600F0BBFC28B1291940A2CE
:10326000204600F0FBF904448021304600F0B0FC19
:10327000B0B152A2052109A8189BFEF719FF291920
:1032800009AA204600F0EAF904444021304600F043
:103290009FFC28B1291932A2204600F0DFF904442E
:1032A0004021304600F094FC28B129192046179A95
:1032B00000F0D4F90444291941A2204600F0CEF9C7
:1032C0000444C4F5806128195346199AFEF70AFF91
:1032D00004444FF48062944204D8002802DB601D4D
:1032E000904201D940F2FB3498F82000464640B1A4
:1032F000194905F804902031A1F58460FDF729F8FB
:1033000088B196F8F50028B129192EA2204600F0C0
:10331000A5F9044429192DA2204600F09FF90119AE
:103320002B4800F099F800F07BF80BB0BDE8F00FE7
:103330005DF814FB40000020566100086C6576655E
:103340006C203C3D20454C4F475F4C564C5F5645EA
:1033500052424F5345000000D86F00201B5B000015
:10336000200000005B0000005D200000280000003D
:103370003A00000028257329206861732061737367
:10338000657274206661696C6564206174202573C0
:103390003A256C642E0000002E2E5C656173796CFA
:1033A0006F676765725C7372635C656C6F672E63D1
:1033B00000000000656C6F6700000000256C640071
:1033C000290000001B5B306D000000000A000000B7
:1033D000D86B002070B5064C012594F8F20020B19E
:1033E00000F042F884F8F45070BD84F8F35070BDDA
:1033F000D86F00200949002881F8F2000DD0074855
:1034000091F8F41090F8F30019B1002805D100F0FC
:103410002CB8002801D000F027B87047D86F0020E2
:1034200070B5064C002594F8F20020B100F01DF8AC
:1034300084F8F45070BD84F8F35070BDD86F00204C
:1034400000A070470000000000A0704700000000CE
:103450007047002070470000024601A0FEF718BE2A
:10346000252E2A73000000007047704710B586B003
:103470000446052807D90D484FF4AC72036833B1F0
:103480000B490CA098471248047006B010BD0848BC
:10349000CDE90302009207A10EA3CDE90131034655
:1034A00015A21CA10020FFF7DDFDFEE74000002073
:1034B000126100086C6576656C203C3D20454C4FE0
:1034C000475F4C564C5F564552424F5345000000F3
:1034D000D86F0020282573292068617320617373D9
:1034E000657274206661696C65642061742025735F
:1034F0003A256C642E0000002E2E5C656173796C99
:103500006F676765725C7372635C656C6F672E636F
:1035100000000000656C6F670000000030B585B0EA
:103520000D460446052807D90E484FF49F720368DC
:103530004BB10D490DA09847134800EB8400C0F82B
:10354000D85005B030BD0848CDE90302009207A16C
:103550000EA3CDE90131034615A21CA10020FFF7FF
:1035600081FDFEE740000020F56000086C6576658F
:103570006C203C3D20454C4F475F4C564C5F5645B8
:1035800052424F5345000000D86F00202825732970
:103590002068617320617373657274206661696C61
:1035A00065642061742025733A256C642E00000048
:1035B0002E2E5C656173796C6F676765725C7372E0
:1035C000635C656C6F672E6300000000656C6F675D
:1035D000000000000EB50A4890F8F01000290DD048
:1035E000012180F8F11007A208A1F4208DE807005E
:1035F000104B11A217A10320FFF734FD0EBD0000F0
:10360000D86F0020322E322E39390000456173798F
:103610004C6F676765722056257320697320696E49
:10362000697469616C697A65207375636365737326
:103630002E000000AC6000082E2E5C656173796C72
:103640006F676765725C7372635C656C6F672E632E
:1036500000000000656C6F67000000002DE9F0437A
:10366000DFF88C90DFF88C8085B00D00064614469C
:10367000174606D1D8F800302BB12C2249461EA09F
:1036800098477CB115E01CA202922C20CDE9039052
:103690001AA3CDE90003164B21A229A10020FFF7B0
:1036A000E1FCFEE7D8F800307BB12D22104926A0BE
:1036B00098474FF480622078B0B13146761C914231
:1036C00012D205F8010B641CF5E71FA202922D200F
:1036D000CDE9039009A3CDE90003054B10A218A181
:1036E0000020FFF7BFFCFEE705B0E01BBDE8F0835C
:1036F0008E6100084000002064737400282573293F
:103700002068617320617373657274206661696CEF
:1037100065642061742025733A256C642E000000D6
:103720002E2E5C656173796C6F676765725C73726E
:10373000635C656C6F675F7574696C732E63000002
:10374000656C6F67000000007372630010B5802124
:103750000348FCF7F3FD03490020088010BD00007A
:10376000D0700020740000201CB549490122486037
:103770004849FEF76BF9484C012251022046FDF7FB
:1037800034FB012211022046FDF72FFBFFF7DEFF7D
:1037900042A17420CDE90001434B44A24AA1032079
:1037A000FFF760FC4AA14BA000F0ECF80028F9D12B
:1037B0004FF47A742046FDF7FDF948A17920CDE950
:1037C0000001394B39A240A10320FFF74BFC40A177
:1037D00047A000F0D7F80028F9D12046FDF7EAF914
:1037E00047A17E20CDE900012F4B30A236A1032056
:1037F000FFF738FC36A146A000F0C4F80028F9D144
:103800002046FDF7D7F945A18320CDE90001264BDD
:1038100026A22DA10320FFF725FC2DA144A000F036
:10382000B1F80028F9D12046FDF7C4F943A188205A
:10383000CDE900011C4B1DA223A10320FFF712FCC0
:1038400023A143A000F09EF80028F9D12046FDF7FF
:10385000B1F92BA18D20CDE90001134B13A21AA1C0
:103860000320FFF7FFFB1AA129A000F08BF8002826
:10387000F9D12046FDF79EF93EA1A120CDE9000136
:10388000094B0AA210A10320FFF7ECFB1CBD0000AE
:103890007400002010000020000C01407465737457
:1038A0002041542E2E2E0000C26100082E2E5C7383
:1038B00072635C657370383236365C6573703832AB
:1038C00036362E630000000057694669000000008C
:1038D0004F4B000041540D0A000000007365742036
:1038E0005354412043574D4F44452E2E2E00000087
:1038F00041542B43574D4F44453D310D0A000000C4
:103900006765742049502043494653522E2E2E009D
:1039100041542B43494653520D0A000072657365AA
:103920007420455350383236362E2E2E00000000BB
:1039300041542B5253540D0A00000000636F6E6E09
:103940006563742041502043574A41502E2E2E006B
:1039500041542B43574A41503D22746573742D578F
:10396000694669222C223132333435363738220DFC
:103970000A0000004553503832363620496E6974CB
:10398000204F4B00FEB50F460546C824FCF7F3FC5C
:1039900082B213482946406802F098F8114D362645
:1039A00019E000BF00F038F890B90FA00096CDE9FB
:1039B00001050F4B0FA216A10320FFF753FB394659
:1039C0000848FCF7C6FC18B1FFF7C0FE0020FEBD9A
:1039D0000A20FDF7EFF8641EE4B2E3D20120FEBD39
:1039E00074000020D070002025730D0A0000000034
:1039F000B16100082E2E5C7372635C65737038329F
:103A000036365C657370383236362E63000000003F
:103A100057694669000000000648018831B14288B4
:103A2000914205D10021018008467047012070476E
:103A30004180FBE77400002013B54FF6FF730122AD
:103A400069460248FEF72EF800981CBDFC000020D5
:103A50002DE9FC4100270D460097019700287DD0F5
:103A6000A0F1080405F11408606840F001006060EE
:103A7000AA6820F00300101A0838A860A760E76061
:103A8000606820F003000619F06806F10806C20716
:103A900031D020F0030001AA6946FEF752F8F06821
:103AA00008B1B1688160B06808B1F168C160009880
:103AB000019905EBC01000EB8100016DB14211D1FD
:103AC000F1680165DDE9002061B905EB820118317B
:103AD000FFF7DAF9009805EB8001896911B94146D1
:103AE000FFF7D2F9B760F7607068616820F00300F3
:103AF0000830084460602079800736D5266801AA1E
:103B00006946706820F00300FEF71BF8F06808B102
:103B1000B1688160B06808B1F168C160009801992E
:103B200005EBC01000EB8100016DB14211D1F268CC
:103B30000265DDE9001062B905EB81011831FFF77C
:103B4000A3F9009805EB8001896911B94146FFF797
:103B50009BF9B760F7607168606800E034E020F0BE
:103B600003000830084434467060606801AA20F001
:103B700003006946FDF7E5FFA7600098019905EB92
:103B8000C01000EB8100016DE160016D01B18C603E
:103B90000465009805EB80011831019801F0CCFC18
:103BA0004146009801F0C8FC606820F00300204402
:103BB000C16841F00201C0E90241A868B0F5C84FF0
:103BC00002D9024902200870BDE8FC8134000020BF
:103BD00030B585B00D460446052807D9104840F297
:103BE000DB22036863B10F490FA09847154800EB2B
:103BF0008400D0F8D800284000D0012005B030BDA6
:103C00000848CDE90302009207A10FA3CDE90131D5
:103C1000034616A21CA10020FFF724FAFEE70000CD
:103C200040000020626100086C6576656C203C3DB8
:103C300020454C4F475F4C564C5F564552424F53C0
:103C400045000000D86F0020282573292068617383
:103C500020617373657274206661696C65642061AC
:103C6000742025733A256C642E0000002E2E5C65AE
:103C70006173796C6F676765725C7372635C656CA6
:103C80006F672E6300000000656C6F670000000026
:103C90002DE9F04105460A004FF0FF3403D015B17D
:103CA000B5F5F26F01D21FA002E0900705D028A061
:103CB000FEF7EEF92046BDE8F0810F46334E11685D
:103CC000334802F5EA64B14202D14760606826E0F9
:103CD000426082604FF4EA611046FCF72FFB2D48EA
:103CE0003E6000F0EFFB7860A5F5EA6020F0070188
:103CF000204600F0AFFC04464068394620F003003F
:103D0000204400F108061030FFF7A2FE08343C61A1
:103D1000706820F00300281AB860F860706820F01E
:103D20000300C8E7696E69745F6D656D6F72795FD6
:103D3000706F6F6C2028293A206D656D6F72795F06
:103D4000706F6F6C20696E76616C69640A000000A8
:103D5000696E69745F6D656D6F72795F706F6F6C9E
:103D60002028293A206D656D5F706F6F6C206D752E
:103D7000737420626520616C69676E656420746F7E
:103D8000206120776F72640A0000000059FA592AF6
:103D900034000020A85C00080EB5802200B109B1F3
:103DA00010460AE001780129FAD101A900F020F8B3
:103DB000042801D0002000E01020DDE9011203B04A
:103DC00000BD70B50D46040003D012B9207801285B
:103DD00001D0802070BD204600F00CFE28B129469D
:103DE000204600F030F8002070BD812070BD00003A
:103DF00010B504468089002824D0608904EB800037
:103E000000690860606840B16078022805D100212F
:103E1000204601F03FF801F02DF804F10C0000BF3E
:103E2000D0E85F1F491E8AB2C0E8512F0029F7D1A0
:103E30006089401C80B26081E189884201D1002004
:103E40006081042010BD10B501F024F8BDE81040D9
:103E500001F010B8044900EB40000922896802EB28
:103E60008000085C704700008C0100202DE9F05FA5
:103E70001A4C82469B46A06816460F46002510B194
:103E800001F0C2FDA560C4E900A5267106EB46005D
:103E9000A046A94684F805B0800001F0D5FD0025B4
:103EA000A06017E005EB4501D8F8080007EB810298
:103EB00000EB810457F8210091889379127A2060F1
:103EC000A180E38084F80A902272FCF781FF6D1CC8
:103ED0006072EDB2B542E5D3BDE8F09F8C010020E1
:103EE000F8B500263746134D20E000BFA86806EB62
:103EF000460100EB8104A1882068FCF769FF617A24
:103F0000814210D0A17A491CC9B2A1726A7991424A
:103F10000AD36072207A00972968E3880A460E2047
:103F200001F062FE00E0A772761CF6B22879B0427A
:103F3000DCD8F8BD8C01002041420840B0F5803F3C
:103F400005D2FF2801D8002107E0082105E0B0F1E3
:103F5000807F01D2102100E01821034AC84052F8A6
:103F60002000084470470000AC5C00081CB5FCF75A
:103F700047FFFDF78FFEFDF7FBFDFDF755FE2C48D3
:103F80002A494FF4E13500240160C0E901540C26B0
:103F9000C460C0E904468461C461FDF7B7FC08B1A0
:103FA00072B6FEE72248234948300160C0E9015457
:103FB000C460C0E904468461C461FDF7A7FC08B190
:103FC00072B6FEE7FFF71AF8FF210020FFF7A6FA06
:103FD00007210120FFF7A2FA07210220FFF79EFA2E
:103FE00007210320FFF79AFABF210420FFF796FA72
:103FF000BF210520FFF792FAFFF7ECFAFEF780FFEA
:1040000000F094F901F010FE00F0BCF9FEF7D8FEC4
:1040100009A18320CDE900010D4B0EA212A10320BE
:10402000FFF720F800F034F9FCE700000038014009
:10403000FC0000200048004073797374656D2069AE
:10404000732072756E6E696E672121210000000079
:10405000385C00082E2E2F436F72652F5372632F2A
:104060006D61696E2E630000574952454C455353AC
:10407000000000002DE9FC4700270C46082801D26B
:10408000082504E0C01D20F00705802D03D2A808F4
:10409000CDE9007012E0284600F0ACF80126401F80
:1040A0008640761E3544284600F0A4F8411F25FAC4
:1040B00001F1B543801F2039CDE90001009A019B31
:1040C00004EB82004FF0FF31806901FA03F32646CA
:1040D000184018D0FFF730FF0099019006EBC1118E
:1040E00001EB8000066DDEB1009AF06804EBC211AE
:1040F000019A04F1140901EB82010865DDE900125F
:1041000088B187601DE0521C706991400840FFF73C
:1041100013FF0090002803DD06EB80008069D9E7DB
:104120000020BDE8FC8704EB810110461831FEF742
:10413000ABFE009804EB8001896911B94946FEF78E
:10414000A3FEB760F7607068B84620F003008119DD
:10415000401B0831102843D37719083840F001027A
:10416000FA6008370F6001AA6946FDF7EAFCC7F854
:1041700008800098019904EBC01000EB8100006DED
:10418000F8600098019904EBC01000EB8101086D04
:1041900000B187600F65009804EB80011831019829
:1041A00001F0CAF94946009801F0C6F93E6030793D
:1041B00000F002002843706020F00300A16808307E
:1041C0000844A060E168884200D9E060A068B0F5CA
:1041D000C84F02D906490320087006F10800A0E77D
:1041E000486820F002004860706820F00100E2E7B3
:1041F00034000020B0F5803F05D2FF2801D800210F
:1042000007E0082105E0B0F1807F01D2102100E035
:104210001821034AC84052F82000084470470000A3
:10422000AC5C000802480021006800F0E1B8000022
:104230002000002070B506460D46102001F004FC59
:10424000041E17D00022E56022601048C4E9012650
:10425000416881B10C60416861604460C4F800202D
:10426000FFF7E0FF60B11D21C0E90014846000F099
:104270006DF8204670BD4460046022606260EFE724
:10428000204600F025F8002070BD0000240000202A
:1042900070B50E4D4FF0FF31286800F0E5F820288A
:1042A00011D148680C4618B1816809B12046884789
:1042B000207B012803D1206908B101F0A5FB21462C
:1042C000286800F0C3F8002070BD00002000002026
:1042D00010B5041E26D014494B68A34202D00A68C8
:1042E000A24210D10022A34204D163684B606368EC
:1042F00003B11A600B68A3420DD123680B602168DB
:1043000049B14A6007E0616809B122680A60216822
:1043100009B16268F5E701F0E5FB2046BDE8104011
:1043200001F072BB10BD00002400002010B5054C48
:10433000002001466060A060034800F071F8206032
:10434000002010BD20000020685C0008002804D078
:1043500001460248006800F092B870472000002033
:10436000EFF3058008B182207047EFF31480C00797
:1043700003D0DFF80CC000DF704701F0E9B800009F
:104380005155000888B0EFF3058010B1822008B0C5
:104390007047EFF3148010F00301134806D0012991
:1043A0001BD0022911D0032919D113E008A981F3E8
:1043B00009880078C0070BD05FF0020080F31488F2
:1043C000BFF34F8FBFF36F8F09E00078C00706D1AE
:1043D0000320F3E70078C00701D0FF20D7E7DFF81C
:1043E0000CC000DFD3E70000E0610008C155000801
:1043F00070B50546EFF3058020B10122284601F093
:1044000079FA04E028460022DFF810C000DF0446F5
:104410002146686800F0A0F9204670BDF5580008F4
:10442000EFF305820AB100207047EFF31482D20740
:1044300002D1044A52781AB1DFF80CC000DF70478D
:1044400001F0E2B88800002009560008EFF3058269
:1044500012B1012201F07ABA0022DFF808C000DFB1
:10446000704700004D59000810B530B1006800F0E9
:1044700011F8102800D1202010BD802010BD20B1DF
:1044800029B10068002200F011B880207047862012
:1044900070470000EFF305820AB1FFF77DBCDFF83B
:1044A00008C000DF704700006F560008EFF3058377
:1044B0000BB1FFF786BCDFF808C000DF70470000D3
:1044C000A9560008EFF3058109B100207047EFF30A
:1044D0001481C90702D10449497819B1DFF80CC029
:1044E00000DF704701F0FBB888000020DF560008AD
:1044F000EFF3058109B182207047DFF808C000DFC3
:1045000070470000FB560008EFF305820AB18220D5
:104510007047DFF808C000DF704700001D57000833
:10452000EFF305820AB100207047EFF31482D2073F
:1045300002D1044A52781AB1DFF80CC000DF70478C
:1045400001F00AB98800002059570008DFF80CC0B4
:1045500000DFDFF80CC000DFFEE70000C5570008F1
:10456000E1570008DFF804C000DF70471958000861
:10457000EFF305830BB100207047EFF31483DB07E3
:1045800002D1044B5B781BB1DFF80CC000DF704731
:1045900001F04EB98800002031580008EFF3058182
:1045A00009B182207047DFF808C000DF70470000C3
:1045B00069580008EFF305820AB182207047DFF8DE
:1045C00008C000DF7047000091580008094C4FF008
:1045D000FF3529462068FFF75DFF02460846102A8E
:1045E000F7D1FFF7BFFF0028F3D0024608469047F7
:1045F000EFE7000084000020FEE7FEE707480168BF
:104600004FF0E020416100218161072101610448F0
:10461000016841F07F41016040177047DC6100088C
:1046200020ED00E0704710B5040012D0A06800280B
:104630000FD0FFF7F7FD00280BD040F213110160F7
:10464000A1684160A16804618160BDE81040FFF786
:104650007DBE10BD10B508234360024600F108037B
:1046600010302039002421F00701C460C0E9011492
:10467000014441F8080F0220486012C3104610BDE3
:1046800050E8001F31B10B6840E80032002AF7D132
:1046900008467047BFF32F8FFAE710B568B161B1D4
:1046A0000B3121F00302016844680B1A1B1B934273
:1046B00005D2084609680029F5D1002010BD210067
:1046C00007D021180368C1E90032016001F1080038
:1046D00010BD4260083010BD70B50D46002812D0E4
:1046E0004FF6FF71084C884204D2226801461046FA
:1046F00000F0FEFB20684570044800F0E5F8BDE8D6
:10470000704000F0B9BC70BD94000020688F00209C
:104710000F4810B50D4942680E480B680068934277
:1047200004D00A60CB88421E1A448A808A8880B2EC
:1047300082420AD100200860054800F0C5F8014611
:10474000BDE81040024800F0F7BB10BDA8000020F3
:10475000688F002090000020002808D0002906D093
:104760008068002803D0002204C1001FFCD17047DC
:1047700070B5194DE86800282CD0A88A401EA88280
:10478000002621E0A06838B161684160606810B11E
:10479000A16881606660A6600F482146183800F065
:1047A000CBFBA08AA8826078042804D10B49E08A58
:1047B00009880844A08201206070E068E860E06831
:1047C00008B10561E6602661A88A002802D1EC687C
:1047D000002CD7D170BD0000808F002090000020F9
:1047E00070B504000FD00D4DA1780126286882789D
:1047F00091420CD900F0BCFB286846702046BDE809
:10480000704000F039BC064800F05EF8F7E76670CB
:104810002146BDE87040024800F08EBB94000020A5
:10482000688F002010B50446008B0843208362780F
:10483000618B062A18D0052A19D1084217D001EA3F
:104840000002628388432083204600F0BCFB0120E5
:104850006070628B0821204600F0B1FB2146BDE864
:104860001040034800F068BB31EA0002EAD010BDF6
:10487000688F0020814202D342688A4201D8012019
:10488000704702680A60BFF35F8F50E8003F0A6814
:104890009A42F6D140E80012002AF2D10020704777
:1048A00068B161B10022083902E00246006830B107
:1048B0008842FAD12AB100681060002070470120B8
:1048C000704700214160F8E70146406842684A604D
:1048D0000B780022022B05D0012B03D0032B01D033
:1048E0004260704743680BB19960426082607047D4
:1048F000810700D00020704770B50446002015469F
:10490000207001226270A17084F824106060A060A1
:10491000E06020612062A082E0822083608384F8CE
:104920002500E08C18B90548FFF7AAFEE062294689
:104930002046BDE8704000F01DB80000E87200207D
:1049400008B1082901D2012070470144091F002243
:1049500001600A6042601046704700000348002171
:10496000016003490988C18070470000A800002049
:10497000D861000870B5C28C1C4D930802D12A88FA
:10498000C2F38D03C26A02EB8302540700D5121FE3
:104990004FF0807442E9021400242646B2F140022E
:1049A00042F82460641C0E2CFAD3C469146282623B
:1049B00001632968C90014D5112B12D94FF0FF31BA
:1049C000103B11EB53014FF0CC3305D042F8043CBF
:1049D00042F8083D491EF9D1C16A121F8A4200D926
:1049E0001360C06A0249016070BD0000D461000814
:1049F000A52E5AE2C1898089081A704701220270E7
:104A000000224270827042600281428110398281AC
:104A10008908C181704700002DE9F04104464068D3
:104A20000E464FF0000804F10C05E8B3607801274A
:104A300001283ED0022813D003285CD10846FFF796
:104A40001FFE050057D02046FFF73EFF04462946CB
:104A500000F0B2FA6770204600F0B5FA214621E076
:104A60002046FFF731FF0646002100F0A5FA218914
:104A7000F06904EB81010861D5E85F0F401C81B249
:104A8000C5E8501F0028F7D12089401C80B2208142
:104A9000E189884201D1A4F808807770304600F09F
:104AA00092FA3146174800E00CE0BDE8F04100F012
:104AB00043BA2046FFF708FF04463246102100F0B3
:104AC0007EFAC7E7A089E189884216D2208904EBE3
:104AD00080000661D5E85F0F401C81B2C5E8501F19
:104AE0000028F7D12089401C80B22081E1898842CA
:104AF00001D1A4F80880BDE8F081BDE8F0410320B1
:104B0000FFF77ABD688F002070B5164642680D46E3
:104B100012B1417801290BD08189C4890023A142B7
:104B200024D19EB11D4C216892B100F005FA16E027
:104B3000FFF7CAFE04462A46102100F040FA20463C
:104B400000F041FA2046FFF74BFE25E0012070BD42
:104B5000416021684B6021688860022141702068B3
:104B60000821C5613046FFF7B7FDEFE7018900EB8B
:104B700081010D6100F10C01D1E85F2F521C94B24C
:104B8000C1E8524F002AF7D10189491C89B201813D
:104B9000C289914200D10381002070BD94000020A1
:104BA00070B50446808915460026C0B3608904EBC1
:104BB0008000006908606089401C80B26081E189E2
:104BC000884200D16681606810B1607802280BD0FD
:104BD00014F10C04D4E85F0F401E81B2C4E8501FEA
:104BE0000028F7D1002070BD2046FFF76DFE054676
:104BF000002100F0E1F92189E86904EB81010861F5
:104C00002089401C80B22081E189884200D1268120
:104C1000284600F0D8F92846FFF7E2FDE2E7FFE773
:104C20003DB10B48626801682AB1204600F084F962
:104C300008E0012070BD616001684E60006884601A
:104C40000120607008212846FFF746FDF1E70000CB
:104C500094000020002814D0411C13D00C4A4FF6B9
:104C6000FE7190420CD800EB4002C2EBC012094822
:104C7000036803EBC202521EB2FBF3F0884204D970
:104C8000084670474FF6FF70704780B270470000CB
:104C900000093D00EC610008032101700021418002
:104CA00041608160C16070472DE9F0410446408851
:104CB00020B1314DA1682A68914202D0FF20BDE8A1
:104CC000F081401E0004000C608053D12968086AFE
:104CD000A04209D1E068086208E0C268A24202D19D
:104CE000E268C26002E010460028F6D191F8240084
:104CF0000A6A06E053681BB19B78834200D91846C4
:104D0000D268002AF6D18870DFF8708061680126C9
:104D100011B32046FFF7D8FD0746002100F04CF9FB
:104D2000384600F050F96680A760386AE0603C625F
:104D30002968D8F804008A788078824201D33846FE
:104D400016E00E4800F0F8F839460C4800F0F4F888
:104D5000286846707E700AE0D8F804108A782968BE
:104D6000824207D9054800F0E7F82868467000201D
:104D7000FFF736FD0020A2E794000020688F002096
:104D800070B51C4D0E4604464188286861B1A26882
:104D9000824210D1A1F57F40FF3803D0491C6180C9
:104DA000002070BDFF2070BDA060016AE160046258
:104DB00001206080F4E776B191788078814203D257
:104DC0009070A06800F0DEF8606830B12046296875
:104DD00000F0B2F808E0012070BD28686060296822
:104DE000002048602868846009213046FFF774FC81
:104DF000F1E700009400002070B51B480121026813
:104E00005170006800F0B4F8184D6C7818E000BFDD
:104E100005EBC40148680278EAB1012A20D000F00D
:104E2000FFF8E878641C844200D100240F48801CFD
:104E3000D0E84F1F491EC9B2C0E8421F002AF7D16F
:104E4000A8780028E4D16C700948FFF73DFDBDE863
:104E5000704000F011B9098989B2FFF7E3FCE0E77F
:104E60008968FFF7D9FDDCE794000020188D002049
:104E7000688F00200548017811B101214170704709
:104E800003494FF080500860704700009C000020EC
:104E900004ED00E0F0B4154DAB1CEE784FEA0507C9
:104EA000D3E84F2FB24202D1BFF32F8F11E0521C33
:104EB000D4B2C3E8424F002AF2D100BFD7E84F2F47
:104EC000541CB44200D10024E4B2C7E8434F002B85
:104ED000F4D1EB78934205D905EBC202C2E9010196
:104EE000F0BC7047F0BC0220FFF786BB188D002095
:104EF000104A10B5D368ABB113469B8A03E08CB15E
:104F00002246A48A2344D4688B42F8D3C460D0607C
:104F10000261C46804B12061591A8182908A401AE2
:104F2000908210BD0024C460D060C91A02619182D1
:104F3000848210BD808F002030B502780023022AC1
:104F400003D0012A01D0032A00D101238C7800E08C
:104F50001046426812B19578A542F9D24A60416084
:104F60001BB102B19160886030BD0020FBE70000FA
:104F700003494A684260002282604860704700002E
:104F8000688F002010B5836804462BB9607801282B
:104F90000ED1084B03E09B6818780028FBD0204610
:104FA00000F026F82146BDE810401846FFF7C4BFC0
:104FB00010BD0000688F0020806A01627047806A1F
:104FC000C0E90812704710B5016900290ED0C26807
:104FD000CA60C36800223BB18B8A848A23448B82D7
:104FE000C3681961C26000E08A82026110BD0000DE
:104FF000816839B142684A604168002901D08068FF
:1050000088607047054906E04A68824202D14068DC
:105010004860704711460029F6D17047688F00201C
:1050200010B5416881B1FFF74FFC0446FFF7CBFF95
:105030000120607001462046FFF7BEFF2146BDE813
:1050400010400348FFF778BF4188491C418010BDDC
:10505000688F002006480068D0E90A10814203D317
:1050600000680449884202D00120FFF7C5BA7047A2
:1050700094000020A52E5AE207490222486042709F
:10508000064A1278002A05D006C98A4202D0C078A2
:10509000FDF72EBF7047000094000020A400002000
:1050A00070B5FDF7FDFE00200446204A204902E0CD
:1050B00042F82040401C0B889842F9D31D48342206
:1050C00001881D48FDF70AF91C48008880B240F0AD
:1050D00000421B4801681B48FDF700F91A480822E6
:1050E00001881A480068FDF7F9F8194DFF20194AA0
:1050F000E870EC8400212846FFF7FEFB16480421E7
:105100000170446015480170C460046184821448D1
:1051100015490560022068701248047044700978CF
:10512000C170BDE87040FFF719BC00001C8F002063
:10513000D061000804620008A0710020D46100085A
:1051400008620008E87200202C6200087C00002041
:10515000348F0020FB450008688F0020808F0020DE
:1051600094000020188D0020106200081B4810B524
:10517000016841F47F01016000684FF07F4101EA5E
:1051800000201649C0431439B0FA80F00968C0F114
:105190000800C1F30221814200D3481C0F49091FB6
:1051A0000B686FF08072824063F317020A60FFF7AA
:1051B00025FA0B49002808600EDB00F1E021FF22F0
:1051C00081F8002400F01F02012191404009800075
:1051D00000F1E020C0F8001110BD000020ED00E05B
:1051E000A00000200C4810B5026801215170006831
:1051F000FFF7BEFEFFF78CFA08480168491C016002
:10520000FFF7B6FA00F0D2FB0548FFF75DFBBDE8FB
:105210001040FFF731BF00009400002090000020F4
:10522000688F0020002805D0810702D1017800296D
:1052300000D000207047000030B50B4C002362689E
:1052400005E095688D4204D813461268491B002A70
:10525000F7D10260816012B19568691A91600BB153
:10526000186030BD606030BD880000200D4B00220A
:10527000596803E0814204D00A4609680029F9D13F
:1052800004E019B1016822B1116003E04FF0FF3072
:1052900070475960016819B18A6880681044886055
:1052A00000207047880000202DE9F0411E46174677
:1052B00080460D4611F0FF0F00D14D1C1848FFF736
:1052C000DFF9041E16D0280AE762E084E9B24246FC
:1052D0002046E661FFF710FB01251248124905E060
:1052E00000EB850252F8042C32B16D1C0A889542FD
:1052F000F6D90020BDE8F081002DFAD000EB850042
:1053000040F8044C0948E570007818B101212046A6
:10531000FDF7DEFD2046FFF763FA2846EAE70000C6
:10532000A07100201C8F0020D0610008A400002084
:105330002DE9F05F584DDFF85891DFF85881296862
:105340004FF0010A002618B1CA78AB46824243D119
:105350004E70FAF704FF29688862FFF77BFE286821
:10536000046A1FE06068C0B12046FFF7ADFA074647
:105370000021FFF721FE3846FFF725FE87F801A040
:1053800039464648FFF7D8FDE168A4F802A0A760B7
:10539000386AE0603C620C4604E0E0686680A66023
:1053A000E6600446002CDDD12868C27808EB820153
:1053B00041F8046CC16A3A48FFF75CFA2868C66293
:1053C00099F8001011B10021FDF782FD35482968D8
:1053D000FFF750FA2E6056E03349098888420CD80E
:1053E00008EB800858F8045C3DB12846FFF700FE42
:1053F0002846FFF7E8FD2C6A22E0FF20BDE8F09F79
:105400006068C0B12046FFF75FFA07460021FFF74A
:10541000D3FD3846FFF7D7FD87F801A039461F486E
:10542000FFF78AFDE168A4F802A0A760386AE0608F
:105430003C620C4604E0E0686680A660E6600446D4
:10544000002CDDD148F8046C1548E96AFFF712FA20
:10545000EE6299F8000018B100212846FDF738FDEA
:1054600029461048FFF706FA0C48DBF800104068A0
:105470008B7882789A4209D981F801A00748DBF835
:105480000010FFF759FD0020FFF7AAF90020B5E74B
:10549000A40000201C8F002094000020688F0020B2
:1054A000E8720020A0710020D061000870B51A4D8C
:1054B00080B11A4A128890421FD8194A02EB800024
:1054C00050F8044CCCB1A17084F824102868A04294
:1054D00005D014E028688170286880F824101148ED
:1054E00040688078884215D90E482968FFF724FD66
:1054F00029680120487000200AE0FF2070BD204686
:10550000FFF740FD6078012804D10648FFF7DCF979
:10551000FFF766F9002070BD94000020D0610008FC
:105520001C8F0020688F002002480068002800D0EF
:10553000C07870479400002010B5421100F01F049D
:1055400051F822300120A040034341F8223010BD21
:1055500010B5134C207860B91248400705D11248A5
:1055600001681048FFF7ECF908B1852010BDFFF77E
:1055700097FD0E49FF2009688870207858B90021EE
:105580000B4800F062F80B49086000210A4800F05F
:10559000E3F80A490860012020700020607010BD07
:1055A00088000020F88600200C620008940000208B
:1055B000246200088400002014620008800000209B
:1055C00070B50F4D687808B1002070BD0D4C206893
:1055D00090F824100020FFF769FF2068C178FF29A8
:1055E00003D1816A203181F30988616811B9606053
:1055F00000202060FFF7BAFD01206870E4E700009A
:10560000880000209400002070B504000BD02168B1
:1056100049B162683AB1A06828B1D0E9005010B130
:105620000DB12B780BB1002070BDD21C22F003020B
:1056300051430C31FCF752FE20888000103081B2BB
:105640002846FFF7DBF9A06870BD10B5040005D04F
:10565000216819B1606808B102780AB1002010BD54
:105660008900103189B2FFF7C9F9606810BD3EB5F5
:1056700004000D464FF0800012D0217801290FD18F
:105680002846FFF7E7FA0246204601A9FFF788FA05
:10569000012801D0102003E00DB1402000E00020DF
:1056A000DDE9011203B030BD70B50E4604001546A9
:1056B00002D02078012801D0802070BD1046FFF76D
:1056C000C9FA024631462046FFF71EFA012801D0EA
:1056D000002070BD0DB1C12070BD812070BD10B51E
:1056E000002804D004680CB1207808B1002010BD57
:1056F0002046FFF7D1FA204610BD10B5FFF7F8F8A5
:1057000010B10178032901D0802010BDFFF7CCFA39
:10571000FF2801D0002010BD812010BD70B50D46BE
:10572000FFF7E6F8040002D02078032801D080209B
:1057300070BD2846FFF78EFA01462046FFF720FB92
:10574000012803D0FF2804D0002070BD0DB1C12076
:1057500070BD812070BD000070B50E46040029D0D8
:10576000206838B3606810F1030F23DB032821DCC5
:10577000E16829B11048FEF790FF05001AD000E05B
:1057800000256068E168001D40EA012133462A4691
:105790002068FFF789FD40B1084901EB8000084906
:1057A00050F8040C826A516370BD1DB1294602484D
:1057B000FFF776F8002070BDF88600201C8F0020CF
:1057C0004D45000810B5FFF7AFFE002804D003498F
:1057D00001EB800050F8040C10BD00001C8F00206D
:1057E00010B5FFF71FFD18B1C18C19B1C46A02E0F2
:1057F000802010BD0024C078FFF79AFDFF2806D056
:105800001CB121460348FFF74BF8002010BD812052
:1058100010BD0000F886002010B5FFF769F820B130
:1058200041690A680169104610BD0020014610BD9B
:1058300010B503000CD0186850B15868002808D083
:1058400009B1012904D1074C24680CB104790CB1C9
:10585000002010BD00240460012404714171C0E9DE
:10586000042310BD8000002010B5FFF741F80400AC
:1058700006D02079012808D0022803D0812010BD4D
:10588000802010BD2046FFF7F1FC0020207110BDE4
:1058900070B50E46FFF72CF8040016D0BEB1144ABE
:1058A00000214FF47A7310681268401E41F1FF35F1
:1058B000E6FB030529460023FAF7F8FC05462079A4
:1058C00001280CD0022808D103E0802070BD86207A
:1058D00070BD2046FFF7CAFC20B1812070BD0220B8
:1058E0002071E56029462046FFF7A6FC002070BD28
:1058F000EC61000870B50D46002806D0D0E90040E4
:1059000010B10CB112B10DB1002070BDFEF7B8FEA0
:10591000060017D1B5B10C4861680029016803D0B1
:105920002046FFF709FB07E0616002680021516033
:1059300000688460032060702846FFF78BF9082117
:10594000FEF7CAFE304670BD9400002070B51646C2
:1059500048B1D0E9004534B12DB12846FEF78AFFA1
:1059600018B1862070BD802070BD6068E0B160789D
:10597000032819D136B129462046FFF78BFAFFF7E5
:1059800079FA11E02846FEF77BFE05000CD0204690
:10599000FEF79AFF04462946FFF70EFB2046FFF765
:1059A00012FB2046FEF71CFF002070BD2DE9F041E0
:1059B000134E7468002C1CD0A068124F401E4FF08C
:1059C0000108A06012E02546246874600022294680
:1059D0003868FEF7F6F910B10420FEF70DFE68797D
:1059E000012808D085F80480002C02D0A068002887
:1059F000E9D0BDE8F0812846E968FFF71DFCF3E730
:105A0000880000208400002070B50E4C054600BFC1
:105A1000EFF3058030B960684FF0FF314068FEF762
:105A200073FD72B628466168FEF712F8EFF3058041
:105A3000002806D162B660684068BDE87040FEF795
:105A400057BD70BD3400002070B5184C054600BF2E
:105A5000EFF3058030B960684FF0FF314068FEF722
:105A600053FD72B628466168FEF704FB0546EFF366
:105A7000058020B962B660684068FEF739FD0DB157
:105A8000284670BD0125257009A0FCF701FB85F3B0
:105A90001388BFF34F8F0B4801680B4A01F4E06194
:105AA00011430160BFF34F8F00BFFDE734000020BA
:105AB000646D5F616C6C6F63206572726F720D0A4A
:105AC000000000000CED00E00400FA0510B50446EB
:105AD0004FF6FF73FBF7E6FF2046FBF7DCFD2128BE
