:020000040800F2
:10000000B81C002085020008DF140008191400083D
:10001000DD140008F5020008C91700080000000000
:10002000000000000000000000000000BD0100080A
:1000300005030008000000003502000871020008F6
:100040009F0200089F0200089F0200089F0200080C
:100050009F020008E11400089F0200089F020008A8
:100060009F0200089F0200089F0200089F020008EC
:100070009F0200089F0200089F020008F902000882
:100080009F0200089F0200089F0200089F020008CC
:100090009F0200089F0200089F0200089F020008BC
:1000A0009F0200089F0200089F0200089F020008AC
:1000B0009F0200089F0200089F0200089F0200089C
:1000C0009F0200089F0200089F0200089F0200088C
:1000D0009F020008BD1700089F0200089F02000849
:1000E0009F0200089F0200089F0200089F0200086C
:1000F0009F0200089F0200089F0200089F0200085C
:100100009F0200089F0200089F0200089F0200084B
:100110009F0200089F0200089F0200089F0200083B
:100120009F0200089F0200089F0200089F0200082B
:10013000DFF81CD000F0CAF801F0C2FC002103482F
:1001400001F012FD01F0CEFCFEE70000182B0008C4
:10015000B81C002080F309887047EFF309807047CE
:10016000684680F3098804480078C00714BF02205D
:10017000032080F314887047042B0008DFF818C0B0
:10018000EFF305831B0618BF6047EFF31483DB070B
:1001900008BF604700DF7047131C0008DFF818C075
:1001A000EFF305831B0618BF6047EFF31483DB07EB
:1001B00008BF604700DF7047F11D0008EFF30980BA
:1001C000816911F8021CF1B990E80F10E047EFF3D4
:1001D000098C8CE80700144B93E8060091420FD07D
:1001E00039B12CE9F00FC1F828C00CB402F0F4F8D2
:1001F0000CBC1A60D2F828C0BCE8F00F8CF3098858
:100200006FF0020E704710B5084A1268914209D883
:10021000074C54F8214090E80F10A047EFF3098CE9
:100220008CE80F0010BD000034000020F002000830
:10023000F002000801F0A2FF0C4B93E80600914287
:1002400010D0EFF3098C2CE9F00FC1F828C00CB4E2
:1002500002F0C2F80CBC1A60D2F828C0BCE8F00F5B
:100260008CF309886FF0020E704700003400002004
:1002700002F07AF9E0E7000001F0CAFC02F074F93C
:10028000DAE700000648804706480047FEE7FEE739
:10029000FEE7FEE7FEE7FEE7FEE7FEE7FEE7FEE736
:1002A0003115000831010008D2B201E000F8012B3D
:1002B000491EFBD270470022F6E710B513460A46E6
:1002C00004461946FFF7F0FF204610BD064C074DC7
:1002D00006E0E06840F0010394E807009847103416
:1002E000AC42F6D3FFF728FF542B0008742B00080C
:1002F00000000000FEE70000014800F0C1B8000067
:100300009C0200207047704710B590F82110002221
:10031000022905D00421816380F82020012010BD2E
:1003200001680B6823F00E030B6001680B6823F073
:1003300001030B6090F84030C46B012101FA03F314
:10034000636080F8211080F82020104610BD000066
:100350002DE9F05F90F821100024022903D0042138
:100360008163012485E001680A6822F00E020A60B8
:1003700001680A6822F001020A603F4E3E4FB21542
:10038000DFF8F4C0DFF8F090DFF8ECA0DFF8E8B0B9
:10039000DFF8E4E00168783F13011502ACF1640C6A
:1003A000A9F15009AAF13C0AABF1280BAEF1140EE9
:1003B0004FF48018B14227D9B9420ED0614512D00E
:1003C00049451DD0514518D0594518D0714501D126
:1003D000424615E0294EB14201D1012210E0274EDC
:1003E0001436B14201D110220AE0244E2836B1421F
:1003F00006D0224A3C32914201D11A4600E02A46F8
:100400001E49091F0A602BE0B94213D0614517D07D
:10041000494522D051451DD059451DD0714501D1C6
:1004200042461AE0B14202D14FF0807215E0134EFD
:10043000B14201D1012210E0104E1436B14201D177
:1004400010220AE00D4E2836B14206D00B4A3C324B
:10045000914201D11A4600E02A46074980394A6094
:10046000012180F82110002180F82010416B01B19A
:1004700088472046BDE8F09F800002400804024003
:100480002DE9F05FC16B0A6801680B68046C4FF0DE
:10049000040808FA04F8844D844E854FDFF814C22E
:1004A000DFF81492DFF814A2DFF814B2DFF814E2D8
:1004B00018EA020F65D05FEA437862D50A689206AF
:1004C00003D40A6822F004020A60DFF8F0814FF4D6
:1004D0008062016808F1140813011402414524D90F
:1004E000A9420DD0B1420FD0B9421AD0614515D002
:1004F000494515D0514501D1120312E0594501D1AA
:1005000004220EE0714501D140220AE06D4D143500
:10051000A94206D06B4A2832914201D11A4600E026
:1005200022466749091F0A6029E0A94213D0B14257
:1005300015D0B94220D061451BD049451BD051454B
:1005400002D14FF4800217E0414502D14FF08062A2
:1005500012E0594501D104220EE0714501D140223B
:100560000AE0584D1435A94206D0564A2832914225
:1005700001D11A4600E022464B4908394A60C16A57
:1005800071E04FF0020808FA04F818EA020F70D080
:100590005FEA83786DD50A68920606D40A6822F06D
:1005A0000A020A60012180F82110DFF810814FF45F
:1005B0000072016808F1140813011402414524D99E
:1005C000A9420DD0B1420FD0B9421AD0614515D021
:1005D000494515D0514501D1120312E0594501D1C9
:1005E00002220EE0714501D120220AE0354D14357A
:1005F000A94206D0334A2832914201D11A4600E07E
:1006000022462F49091F0A6029E0A94213D0B142AE
:1006100015D0B94220D061451BD049451BD051456A
:1006200002D14FF4001217E0414502D14FF00072A1
:1006300012E0594501D102220EE0714501D120227C
:100640000AE0204D1435A94206D01E4A28329142B4
:1006500001D11A4600E02246134908394A600021B8
:1006600080F82010816A00291CD0BDE8F05F08479F
:10067000FFE70825A540154214D01A0712D50A68CD
:1006800022F00E020A6090F84020C36B012101FAAB
:1006900002F25A60816380F82110002180F8201056
:1006A000016BE0E7BDE8F09F080002401C0002403B
:1006B0003000024044000240580002406C000240FA
:1006C000080402401C04024030B560B11A4B0268B5
:1006D00014219A4209D2194B1344B3FBF1F189005A
:1006E000016417490AE0012030BD134B5B421344FB
:1006F000B3FBF1F1890001640F490839C16302219C
:1007000080F82110136843F6F0718B43F0E901146F
:100710002143D0E902452C43214304692143446924
:10072000214384692143194311600021416301225F
:1007300042770177084630BD08040240F8FFFDBF4C
:10074000000002402DE9F84FDFF8C8910024A9F11C
:10075000040B23460F2709F1040AABF1040ED1E084
:100760000125A54006EA0502AA4276D1DFF8A8C114
:100770004E68A6EB0C0866452BD00DDC032E34D05A
:1007800005DC36B3012E19D0022E2FD11BE0112E1D
:1007900016D0122E2AD119E0B8F5881F19D006DC20
:1007A000B8F5803F15D0B8F5801F1FD111E0B8F51E
:1007B000001F0ED0B8F5041F18D10AE0CB6815E071
:1007C000CB681B1D12E0CB6808330FE0CB680C33FD
:1007D0000CE08B682BB1012B4FF0080303D045616F
:1007E00004E0042302E0056100E00023FF2A01D8B1
:1007F000064601E000F104064FEA840501D9A5F19F
:100800002005D6F8008007FA05FC28EA0C0803FA50
:1008100005F548EA0508C6F800804D68ED0070D57A
:100820003E4DAE6946F00106AE61AD6924F00306A7
:1008300005F0010500953A4D06EB050CDCF8085073
:10084000A607360F07FA06F825EA0805DFF8D48070
:10085000404503D14FF0000825E052E0DFF8C880A2
:10086000404502D14FF001081DE0DFF8C08040454F
:1008700002D14FF0020816E0DFF8B480404502D103
:100880004FF003080FE0DFF8AC80404502D14FF095
:10089000040808E0DFF8A080404502D14FF00508C9
:1008A00001E04FF0060808FA06F848EA0508CCF817
:1008B00008804D68D9F80060ED024D4601D5164319
:1008C00000E096432E604D68DAF80060AD025546B0
:1008D00001D5164300E096432E604D68DBF80060BA
:1008E000AD035D4601D5164300E096432E604D688A
:1008F000DEF80060ED03754601D5164300E096432F
:100900002E60641C0A681646E2407FF429AFBDE8F9
:10091000F88F000008040140000011100010024090
:100920000000014000080140000C0140001001409F
:100930000014014000180140001C01400AB101618F
:1009400070470904FBE70000014800687047000099
:1009500030000020074810B5016841F01001016027
:10096000032000F083F8012000F006F800F024F8DE
:10097000002010BD0020024070B50D4D04464FF41C
:100980007A712878B1FBF0F00A490968B1FBF0F000
:1009900000F0EAFA48B9102C07D200222146501E76
:1009A00000F044F800206C6070BD012070BD0000B4
:1009B0000C00002018000020134808B5816941F0A0
:1009C00001018161816901F001010091C16941F07A
:1009D0008051C161C06900F080500090062000F095
:1009E00045F801210022C81E00F020F8002211461F
:1009F000052000F01BF8052000F00AF803484168C4
:100A000021F0E061416008BD00100240000001409B
:100A1000002809DB00F01F020121914040098000FD
:100A200000F1E020C0F8001170470000F0B40E4B58
:100A30001B680C46C3F30223C3F10705042D00D93C
:100A40000425191D072901D2002300E0DB1E012621
:100A500006FA05F1491E214099409E40761E164037
:100A60003143F0BC00F0C2BE0CED00E0064900F0DE
:100A7000070208684FF6FF03184040EA0220034AC5
:100A800010430860704700000CED00E00000FA051C
:100A90002DE9F0470F46050061D0434E306800F065
:100AA0000700B84209D2306820F0070038433060B0
:100AB000306800F00700B84251D128683B4C8107EC
:100AC00012D5400703D5606840F4E0606060287884
:100AD000000703D5606840F4605060606068A968F2
:100AE00020F0F000084360602878C00728D06868CC
:100AF000012810D02168022810D0890700292EDA99
:100B0000616821F0030101436160FFF71DFF80462A
:100B100041F288390DE021688903EFE78901EDE7AB
:100B2000FFF712FFA0EB0801494502D90320BDE8F9
:100B3000F0876068696800F00C00B0EB810FEFD1BE
:100B4000306800F00700B8420BD9306820F0070089
:100B500038433060306800F00700B84201D001200F
:100B6000E5E72878400705D56068E96820F4E0608B
:100B7000084360602878000706D56068296920F47A
:100B8000605040EAC100606000F038F86168084ACF
:100B9000C1F30311515CC84006490860064800686B
:100BA000FFF7EAFE0020C2E70020024000100240EA
:100BB000DE2A000818000020100000200448054923
:100BC00000684968044AC1F30221515CC84070477B
:100BD0001800002000100240EE2A000804480549D1
:100BE00000684968044AC1F3C221515CC84070479B
:100BF0001800002000100240EE2A00080E4A51683A
:100C00000E4801F00C03042B11D0082B0FD10C4817
:100C1000C1F38343C903C05C0AD55168084AC1F3D4
:100C20004041921E515C054A5043B0FBF1F07047C1
:100C300004494843704700000010024000127A0047
:100C4000CE2A000800093D002DE9F84F040070D0BD
:100C50002078C04DC00749D06868C0F381000128E2
:100C600007D06868C0F38100022809D16868C00312
:100C700006D52868800339D560680028E7D035E0BC
:100C80006068B0F5803F0BD010B1B0F5A02F11D047
:100C9000286820F480302860286820F4802002E052
:100CA000286840F480302860606890B1FFF74CFEFF
:100CB00006460AE0286840F480202860F0E700BF7C
:100CC000FFF742FE801B642873D828688003F7D59D
:100CD0000CE0FFF739FE064605E000BFFFF734FEE3
:100CE000801B6428F0D828688003F7D420789A4EB7
:100CF00080074FF001094FF0000839D5686810F0FF
:100D00000C0F07D06868C0F38100022809D1686819
:100D1000C00306D42868800714D52069012808D1AB
:100D200010E02069B0B1C6F80090FFF70DFE07464D
:100D300005E00AE1FFF708FEC01B0228C4D82868B6
:100D40008007F7D52868616920F0F80040EAC10003
:100D500028600DE0C6F80080FFF7F6FD074604E0C6
:100D6000FFF7F2FDC01B022823D828688007F7D4BC
:100D7000207800072CD57948A169D9B1C0F8009036
:100D8000FFF7E2FD074604E0FFF7DEFDC01B022887
:100D90000FD8686A8007F7D571484FF4FA51006898
:100DA000B0FBF1F0009000BF0098411E0091FAD214
:100DB0000EE080E0C0F80080FFF7C6FD074604E0C3
:100DC000FFF7C2FDC01B022875D8686A8007F7D4F8
:100DD0002078400760D5E8690027C00008D4E8699A
:100DE00040F08050E861E869012700F080500090F1
:100DF0005C480168C90513D40168834641F48071D9
:100E00000160FFF7A1FD824606E000BFFFF79CFDF1
:100E1000A0EB0A0064284ED8DBF80000C005F5D529
:100E2000E06801280AD008B1052813D0286A20F00C
:100E300001002862286A20F0040002E0286A40F0DD
:100E400001002862E06841F2883B98B1FFF77CFD21
:100E500082460BE0286A40F004002862EEE700BFFB
:100E6000FFF772FDA0EB0A0159455AD8286A80079E
:100E7000F6D50CE0FFF768FD824605E0FFF764FD5C
:100E8000A0EB0A0159454CD8286A8007F6D41FB157
:100E9000E86920F08050E861E06988B36968C1F3CF
:100EA0008101022944D00228C6F8608004D0FFF7EF
:100EB0004BFD044638E034E0FFF746FD074604E00A
:100EC000FFF742FDC01B02282BD828688001F7D409
:100ED000206AB0F5803F05D16868A16820F4003031
:100EE00008436860D4E908010843696821F4741173
:100EF00008436860C6F86090FFF726FD044606E0E8
:100F000025E000BFFFF720FD001B022809D8286854
:100F10008001F7D51BE000BFFFF716FD001B02287C
:100F200002D90320BDE8F88F28688001F4D40EE0D0
:100F30000128F7D06868226A00F48031914204D118
:100F4000616A00F47010884201D00120EAE70020B5
:100F5000E8E70000001002400000424280044242E4
:100F6000180000200070004010B5401EB0F1807FD6
:100F700001D3012010BD4FF0E02460610F21601704
:100F800000F034FC0020A06107202061002010BD8B
:100F900070477047F8B5016804460868CA684B692D
:100FA00010F00F0F4FF0000559D003F0010602F4C6
:100FB0009077374365D0C10705D0D10503D5616C63
:100FC00041F001016164410705D5D90703D0616C87
:100FD00041F002016164810705D5D90703D0616C36
:100FE00041F004016164010707D502F0200131439B
:100FF00003D0616C41F008016164616C00293AD052
:10100000800604D5900602D5204600F0C1FA20687B
:101010004069616CC0F38010090700D460B32046BA
:1010200000F08FFA20684069400621D5206814300E
:1010300050E8001F21F0400140E80012002AF5D1DD
:10104000E06BA8B16D494163E06BFFF781F90028BF
:1010500011D0E06B416B01B0BDE8F040084783065A
:101060000FD593060DD52046BDE8F84000F090BAA4
:101070002046FFF78EFFF8BD2046FFF78AFF656424
:10108000F8BD266B2023012E7CD1C6067AD5D60664
:1010900078D508684868009048694FF00206400615
:1010A00040D5E16B086840680004000CE8D0A28DD0
:1010B0008242E5D9E085886920282DD020680C304F
:1010C00050E8001F21F4807140E80012002AF5D199
:1010D0002068143050E8001F21F0010140E80012A0
:1010E000002AF5D12068143050E8001F21F040019B
:1010F00040E80012002AF5D184F8423025632068C8
:101100000C3050E8001F21F0100140E80012002AC6
:10111000F5D1E06BFFF7F8F86663A08DE18D401A1A
:1011200081B22AE0A08DE18D401A81B2E08D0028C5
:10113000A6D00029A4D022680C3252E8000F20F477
:10114000907042E80007002FF5D12068143050E875
:10115000002F22F0010240E80027002FF5D184F88B
:101160004230256320680C3050E8002F22F0100236
:1011700040E80023002BF5D166632046FFF708FF07
:10118000F8BDFFE705062BD5150629D594F84100D3
:101190002128F5D1A068B0F5805F01D12069B0B1F8
:1011A000206A411C2162216800784860E08C401E62
:1011B0000004000CE084E3D12068C16821F08001C4
:1011C000C1602068C16841F04001C160D8E7206A71
:1011D0000088C0F308004860206A801C2062E5E7B0
:1011E0004006CDD55006CBD5CA68204622F0400235
:1011F000CA6084F8413000F00EF9C1E733150008E9
:1012000070B5040004D094F84100002510B106E048
:10121000012070BD84F84050204600F023F82420BF
:1012200084F841002068C16821F40051C160204663
:1012300000F010FA2068016921F4904101612068F2
:10124000416921F02A0141612068C16841F40051DF
:10125000C1606564202084F8410084F84200656321
:10126000002070BD70B586B000250646009501953A
:10127000029503950068224988423ED12149886938
:1012800040F480408861886900F480400490886957
:1012900040F00400886188691B4C00F00400049051
:1012A00048150090022001900320039069462046D3
:1012B000FFF748FA2015CDE900056946204602955A
:1012C000FFF740FA124C1148C4E900058020C4E938
:1012D000025025616561A5612046E561FFF7F4F9DB
:1012E00008B1FFF710F8F46300221146252066626A
:1012F000FFF79CFB2520FFF78BFB06B070BD0000BD
:10130000003801400010024000080140580002402F
:101310009C02002090F84230202B01D00220704720
:1013200021B11AB10023036300F0F0B90120704726
:101330000F4930B4884219D10E480F4A81680378AA
:101340005354491C81600D2B0AD100234FF40074C3
:1013500001E05354491CA142FBDB0121C0E9011308
:1013600030BC012203490248FFF7D4BF30BC7047AC
:101370005402002000000020540000202DE9F84312
:10138000044690F841001F4616460D46202802D01C
:101390000220BDE8F8837DB176B100206064212091
:1013A00084F84100FFF7D0FAA6848046E684A0685E
:1013B000B0F5805F02D003E00120EAE7206910B1B8
:1013C0002E4600250EE000260CE08021204600F08D
:1013D000B8F9A0B9AEB116F8010B21684860E08CED
:1013E000401EE084E08C43464FF000020097002846
:1013F000EBD14FF04001204600F0A3F930B10320BB
:10140000C7E735F8020BC0F30800E6E7202084F8B0
:1014100041000020BDE77047FEE70000094808B51D
:10142000416941F0010141614069002200F0010081
:10143000009011460F20FFF7F9FABDE808400F2091
:10144000FFF7E6BA0010024030B585B0002413481B
:101450000094019402940394816941F00801816130
:10146000816901F008010491816941F00401816101
:1014700080690B4D00F004000490002201212846F1
:10148000FFF75CFA0220012103900091CDE90114DD
:1014900069462846FFF756F905B030BD00100240F6
:1014A000000C01400C4810B50A4901604FF4165178
:1014B0004160002181600C22C160C0E90412816199
:1014C000C161FFF79DFE002803D0BDE81040FEF784
:1014D0001ABF10BD0038014054020020FEE7FEE7AD
:1014E000704730B58FB028216846FEF7E4FE14211E
:1014F0000AA8FEF7E0FE01210804CDE9001000244F
:10150000029402250491CDE907504FF4E0100990B0
:101510006846FFF799FB0F20CDE90A056802CDE97F
:101520000C4002210AA80E94FFF7B2FA0FB030BDAA
:10153000704710B5406A0021C185C184FFF729FDBD
:1015400010BD01680C3151E8002F22F4907241E87F
:101550000023002BF5D10168143151E8002F22F04F
:10156000010241E80023002BF5D1016B012909D1CB
:1015700001680C3151E8002F22F0100241E80023ED
:10158000002BF5D1202180F8421000210163704723
:1015900008B590F84210222901D0022008BD8268C7
:1015A0004FF480539A4201D1016921B1816A9A4274
:1015B0001BD04AB10AE00268816A5268C2F308028D
:1015C0000A80816A891C08E0026972B10268526867
:1015D00002F07F020A70816A491C8162C18D491E36
:1015E0000904090CC18503D01BE002685268F1E7C9
:1015F0000168CA6822F02002CA600168CA6822F441
:101600008072CA6001684A6922F001024A612021A1
:1016100080F8421000214163026B012A03D0FFF7DA
:1016200087FE002008BD016301680C3151E8002FDE
:1016300022F0100241E80023002BF5D101680A686E
:10164000D20602D50A6849680091818DFFF7A0FC97
:10165000E7E7000070B5044600680169E26821F41C
:101660004051114301612169A06808436169084341
:101670002168CA6841F20C639A430243CA60206839
:101680004169A26921F44071114341611E492068FA
:10169000884202D1FFF7A2FA01E0FFF78FFA00EBD0
:1016A000C00101EB0012606864218000B2FBF0F31E
:1016B000B3FBF1F36FF018067343B2FBF0F5B2FB26
:1016C000F0F605EB8305322303EB0515B5FBF1F5C9
:1016D000B6FBF1F605F0F00505EB0615B2FBF0F6EA
:1016E000B2FBF0F0B0FBF1F06FF01802504306EBE4
:1016F000800003EB0010B0FBF1F0216800F00F0058
:101700002844886070BD00000038014081628285F5
:10171000C28500214164222180F84210016921B173
:101720000168CA6842F48072CA6001684A6942F07E
:1017300001024A610068C16841F02001C1600020D7
:1017400070472DE9F041984617460E460446069D1F
:1017500027E0681C25D02DB1FFF7F6F8A0EB0800B4
:10176000A8421ED920680C3050E8001F21F4D07127
:1017700040E80012002AF5D12068143050E8001F1C
:1017800021F0010140E80012002AF5D1202084F860
:10179000410084F84200002084F840000320BDE8A6
:1017A000F0812068006836EA000004D00020B842CA
:1017B000CFD00020F3E70120F9E700000148FFF750
:1017C000E9BB000054020020FEE700000FB4054B07
:1017D00010B503A9044A029800F04AF810BC5DF85D
:1017E00014FB0000A9190008500000200907090E89
:1017F000002804DB00F1E02080F80014704700F0BE
:101800000F0000F1E02080F8141D704702E008C8C6
:10181000121F08C1002AFAD170477047002001E06A
:1018200001C1121F002AFBD1704710B5002A06DA49
:1018300022F00042D21D22F00703102203E0D21C46
:1018400022F003030C2213B19C188C4201D9012011
:1018500010BD024401448360C0E90021C91AD018B8
:10186000884202D810600246F9E70020106010BDDF
:101870002DE9F84F9946924688460546002706E02E
:1018800025280AD051464A4690476D1C7F1C28786F
:101890000028F5D13846BDE8F88F002315F8011F60
:1018A00018462E2915D115F8011F04232A290DD019
:1018B0006FF02F022978A1F13004092C09D800EB30
:1018C000800002EB400008446D1CF3E758F8040B5D
:1018D0006D1C2A78002ADDD0632A07D0732A0FD026
:1018E000104651464A4690477F1C2AE018F8042BC0
:1018F0008DF8002000218DF801106E46012103E0D3
:1019000058F8046B4FF0FF315A074FF0000401D430
:1019100009E0641C84420BDA8C42FADB325D002A57
:10192000F7D105E0641C8C42FCDB305D0028F9D166
:10193000274404E016F8010B51464A469047641EBE
:10194000F8D26D1CA3E7000008480068C0010BD561
:1019500007480068C00707D005488038006800289D
:1019600002DA04490120087070470000FCED00E035
:10197000800E00E0440000204FF06042D36F002B47
:10198000FCD0036BD367D36F002BFCD0C07840EA48
:101990000120A2F87C0070474FF06041CA6F002A16
:1019A000FCD081F87C00704713B54FF6FF7301221D
:1019B00069460248FFF7E2FC00981CBD5402002073
:1019C0000EB5802200B109B110460AE00178012964
:1019D000FAD101A900F020F8042801D0002000E08D
:1019E0001020DDE9011203B000BD70B50D46040002
:1019F00003D012B92078012801D0802070BD204684
:101A000000F0B6FA28B12946204600F030F8002050
:101A100070BD812070BD000010B50446808900288B
:101A200024D0608904EB800000690860606840B1E0
:101A30006078022805D10021204600F0EDFB00F07F
:101A4000DBFB04F10C0000BFD0E85F1F491E8AB227
:101A5000C0E8512F0029F7D16089401C80B2608115
:101A6000E189884201D100206081042010BD10B5B9
:101A700000F0D2FBBDE8104000F0BEBBFEF76AFFED
:101A8000FFF72FFDFFF7E0FCFFF7C8FCFFF70AFDAB
:101A9000012207490748FFF73DFC054C0025606817
:101AA0000028FCD0044905A0FFF790FE6560F6E72A
:101AB0000000002054020020540000202573000084
:101AC000EFF3058008B182207047EFF31480C00760
:101AD00003D0DFF80CC000DF704700F0D1BE00007B
:101AE0008128000888B0EFF3058010B1822008B08B
:101AF0007047EFF3148010F00301134806D001295A
:101B00001BD0022911D0032919D113E008A981F3B0
:101B100009880078C0070BD05FF0020080F31488BA
:101B2000BFF34F8FBFF36F8F09E00078C00706D176
:101B30000320F3E70078C00701D0FF20D7E7DFF8E4
:101B40000CC000DFD3E70000042B0008F1280008D8
:101B5000EFF305820AB1FFF733BFDFF808C000DFFB
:101B6000704700005D290008EFF305820AB10020EC
:101B70007047EFF31482D20702D1044A52781AB1A7
:101B8000DFF80CC000DF704700F006BF280000201F
:101B900099290008DFF80CC000DFDFF80CC000DF77
:101BA000FEE70000052A0008212A0008DFF804C02B
:101BB00000DF7047592A0008094C4FF0FF352946CD
:101BC0002068FFF7C5FF02460846102AF7D1FFF745
:101BD000EDFF0028F3D0024608469047EFE70000EB
:101BE00024000020FEE7FEE7074801684FF0E020F0
:101BF000416100218161072101610448016841F0D0
:101C00007F41016040177047002B000820ED00E085
:101C1000704750E8001F31B10B6840E80032002ADD
:101C2000F7D108467047BFF32F8FFAE710B568B1B8
:101C300061B10B3121F00302016844680B1A1B1BD0
:101C4000934205D2084609680029F5D1002010BD4D
:101C5000210007D021180368C1E90032016001F1B9
:101C6000080010BD4260083010BD000070B50D4680
:101C7000002812D04FF6FF71084C884204D2226827
:101C80000146104600F0F6FA20684570044800F05E
:101C9000D9F8BDE8704000F0B1BB70BD3400002041
:101CA000881800200F4810B50D4942680E480B688F
:101CB0000068934204D00A60CB88421E1A448A808E
:101CC0008A8880B282420AD100200860054800F06C
:101CD000B9F80146BDE81040024800F0EFBA10BD67
:101CE00048000020881800203000002070B5194DF1
:101CF000E86800282CD0A88A401EA882002621E08F
:101D0000A06838B161684160606810B1A168816005
:101D10006660A6600F482146183800F0CFFAA08A06
:101D2000A8826078042804D10B49E08A0988084415
:101D3000A08201206070E068E860E06808B1056199
:101D4000E6602661A88A002802D1EC68002CD7D171
:101D500070BD0000A01800203000002070B5040005
:101D60000FD00D4DA17801262868827891420CD9B8
:101D700000F0C0FA286846702046BDE8704000F0C8
:101D80003DBB064800F05EF8F7E766702146BDE807
:101D90007040024800F092BA3400002088180020F9
:101DA00010B50446008B084320836278618B062AB5
:101DB00018D0052A19D1084217D001EA000262831F
:101DC00088432083204600F0C0FA01206070628BB7
:101DD0000821204600F0B5FA2146BDE8104003482E
:101DE00000F06CBA31EA0002EAD010BD8818002079
:101DF000814202D342688A4201D8012070470268BA
:101E00000A60BFF35F8F50E8003F0A689A42F6D13C
:101E100040E80012002AF2D10020704768B161B199
:101E20000022083902E00246006830B18842FAD147
:101E30002AB100681060002070470120704700211F
:101E40004160F8E70146406842684A600B7800222A
:101E5000022B05D0012B03D0032B01D04260704729
:101E600043680BB19960426082607047810700D07F
:101E70000020704770B504460020154620700122EE
:101E80006270A17084F824106060A060E06020613E
:101E90002062A082E0822083608384F82500E08CA9
:101EA00018B90548FFF7B5FEE06229462046BDE8AF
:101EB000704000F01DB800001004002008B108298F
:101EC00001D2012070470144091F002201600A600D
:101ED000426010467047000003480021016003493A
:101EE0000988C1807047000048000020FC2A0008D3
:101EF00070B5C28C1C4D930802D12A88C2F38D03A1
:101F0000C26A02EB8302540700D5121F4FF080749F
:101F100042E9021400242646B2F1400242F824604D
:101F2000641C0E2CFAD3C4691462826201632968AE
:101F3000C90014D5112B12D94FF0FF31103B11EB12
:101F400053014FF0CC3305D042F8043C42F8083D31
:101F5000491EF9D1C16A121F8A4200D91360C06AB2
:101F60000249016070BD0000F82A0008A52E5AE25F
:101F7000C1898089081A70470122027000224270CC
:101F80008270426002814281103982818908C18158
:101F9000704700002DE9F041044640680E464FF0BE
:101FA000000804F10C05E8B36078012701283ED051
:101FB000022813D003285CD10846FFF72AFE05004B
:101FC00057D02046FFF73EFF0446294600F0B6F9F9
:101FD0006770204600F0B9F9214621E02046FFF75E
:101FE00031FF0646002100F0A9F92189F06904EBD0
:101FF00081010861D5E85F0F401C81B2C5E8501F20
:102000000028F7D12089401C80B22081E1898842D4
:1020100001D1A4F808807770304600F096F9314677
:10202000174800E00CE0BDE8F04100F047B9204659
:10203000FFF708FF04463246102100F082F9C7E797
:10204000A089E189884216D2208904EB80000661CC
:10205000D5E85F0F401C81B2C5E8501F0028F7D1BA
:102060002089401C80B22081E189884201D1A4F8F6
:102070000880BDE8F081BDE8F0410320FFF7B2BD64
:102080008818002070B50446808915460026C0B324
:10209000608904EB8000006908606089401C80B2A0
:1020A0006081E189884200D16681606810B1607802
:1020B00002280BD014F10C04D4E85F0F401E81B24B
:1020C000C4E8501F0028F7D1002070BD2046FFF75C
:1020D000B9FE0546002100F031F92189E86904EBD9
:1020E000810108612089401C80B22081E1898842F9
:1020F00000D12681284600F028F92846FFF72EFE59
:10210000E2E7FFE73DB10B48626801682AB120466B
:1021100000F0D4F808E0012070BD616001684E60F5
:10212000006884600120607008212846FFF79EFD4A
:10213000F1E7000034000020002814D0411C13D027
:102140000C4A4FF6FE7190420CD800EB4002C2EBF5
:10215000C0120948036803EBC202521EB2FBF3F03F
:10216000884204D9084670474FF6FF70704780B226
:102170007047000000093D00102B000870B51B4897
:10218000012102685170006800F0B4F8184D6C78B5
:1021900018E000BF05EBC40148680278EAB1012AE3
:1021A00020D000F0FFF8E878641C844200D10024BD
:1021B0000F48801CD0E84F1F491EC9B2C0E8421F1B
:1021C000002AF7D1A8780028E4D16C700948FFF7FD
:1021D00039FEBDE8704000F011B9098989B2FFF7F6
:1021E000DFFDE0E78968FFF7D5FEDCE7340000207B
:1021F00040160020881800200548017811B10121FF
:102200004170704703494FF08050086070470000EC
:102210003C00002004ED00E0F0B4154DAB1CEE785E
:102220004FEA0507D3E84F2FB24202D1BFF32F8FF9
:1022300011E0521CD4B2C3E8424F002AF2D100BFD1
:10224000D7E84F2F541CB44200D10024E4B2C7E8B1
:10225000434F002BF4D1EB78934205D905EBC20232
:10226000C2E90101F0BC7047F0BC0220FFF7BABC24
:1022700040160020104A10B5D368ABB113469B8AB4
:1022800003E08CB12246A48A2344D4688B42F8D35D
:10229000C460D0600261C46804B12061591A8182AF
:1022A000908A401A908210BD0024C460D060C91A80
:1022B00002619182848210BDA018002030B502789E
:1022C0000023022A03D0012A01D0032A00D10123CE
:1022D0008C7800E01046426812B19578A542F9D298
:1022E0004A6041601BB102B19160886030BD00203E
:1022F000FBE7000003494A684260002282604860B0
:10230000704700008818002010B5836804462BB978
:10231000607801280ED1084B03E09B6818780028EC
:10232000FBD0204600F026F82146BDE810401846B4
:10233000FFF7C4BF10BD000088180020806A01624A
:102340007047806AC0E90812704710B5016900291A
:102350000ED0C268CA60C36800223BB18B8A848AEF
:1023600023448B82C3681961C26000E08A820261E3
:1023700010BD0000816839B142684A604168002997
:1023800001D0806888607047054906E04A6882424B
:1023900002D140684860704711460029F6D1704765
:1023A0008818002010B5416881B1FFF74BFD044645
:1023B000FFF7CBFF0120607001462046FFF7BEFF0C
:1023C0002146BDE810400348FFF778BF4188491C0B
:1023D000418010BD8818002006480068D0E90A1026
:1023E000814203D300680449884202D00120FFF7EC
:1023F000F9BB704734000020A52E5AE2074902229B
:1024000048604270064A1278002A05D006C98A42FE
:1024100002D0C078FFF7C0BA704700003400002037
:102420004400002070B5FFF78FFA00200446204AD0
:10243000204902E042F82040401C0B889842F9D322
:102440001D48342201881D48FFF7EFF91C48008819
:1024500080B240F000421B4801681B48FFF7E5F9D5
:102460001A48082201881A480068FFF7DEF9194D5A
:10247000FF20194AE870EC8400212846FFF7FAFC97
:10248000164804210170446015480170C46004615D
:10249000848214481549056002206870124804704F
:1024A00044700978C170BDE87040FFF715BD0000A9
:1024B00044180020F62A0008282B000830030020CA
:1024C000F82A00082C2B000810040020502B0008CC
:1024D0001C00002054180020E71B0008881800206A
:1024E000A01800203400002040160020342B0008E3
:1024F0001B4810B5016841F47F01016000684FF08E
:102500007F4101EA00201649C0431439B0FA80F037
:102510000968C0F10800C1F30221814200D3481CC0
:102520000F49091F0B686FF08072824063F3170236
:102530000A60FFF759FB0B49002808600EDB00F129
:10254000E021FF2281F8002400F01F0201219140C8
:102550004009800000F1E020C0F8001110BD00002B
:1025600020ED00E0400000200C4810B50268012179
:1025700051700068FFF7BEFEFFF794FB0848016842
:10258000491C0160FFF7B2FB00F072FA0548FFF743
:1025900059FCBDE81040FFF731BF000034000020B7
:1025A0003000002088180020002805D0810702D1C3
:1025B0000178002900D000207047000030B50B4C96
:1025C0000023626805E095688D4204D813461268BE
:1025D000491B002AF7D10260816012B19568691A1F
:1025E00091600BB1186030BD606030BD28000020E4
:1025F0002DE9F0411E46174680460D4611F0FF0FAB
:1026000000D14D1C1848FFF704FB041E16D0280A01
:10261000E762E084E9B242462046E661FFF72AFC21
:1026200001251248124905E000EB850252F8042CFE
:1026300032B16D1C0A889542F6D90020BDE8F081C0
:10264000002DFAD000EB850040F8044C0948E570F5
:10265000007818B101212046FFF78EF92046FFF7D8
:102660007DFB2846EAE700003003002044180020E4
:10267000F62A0008440000202DE9F05F584DDFF8ED
:102680005891DFF8588129684FF0010A002618B1E7
:10269000CA78AB46824243D14E70FDF75EFD296891
:1026A0008862FFF799FE2868046A1FE06068C0B17D
:1026B0002046FFF7C7FB07460021FFF73FFE3846DD
:1026C000FFF743FE87F801A039464648FFF7F6FDBD
:1026D000E168A4F802A0A760386AE0603C620C469A
:1026E00004E0E0686680A660E6600446002CDDD168
:1026F0002868C27808EB820141F8046CC16A3A4844
:10270000FFF776FB2868C66299F8001011B1002126
:10271000FFF732F935482968FFF76AFB2E6056E06B
:102720003349098888420CD808EB800858F8045CC3
:102730003DB12846FFF71EFE2846FFF706FE2C6A2D
:1027400022E0FF20BDE8F09F6068C0B12046FFF79F
:1027500079FB07460021FFF7F1FD3846FFF7F5FD4D
:1027600087F801A039461F48FFF7A8FDE168A4F8E3
:1027700002A0A760386AE0603C620C4604E0E068B2
:102780006680A660E6600446002CDDD148F8046C43
:102790001548E96AFFF72CFBEE6299F8000018B1C2
:1027A00000212846FFF7E8F829461048FFF720FBEC
:1027B0000C48DBF8001040688B7882789A4209D97F
:1027C00081F801A00748DBF80010FFF777FD002033
:1027D000FFF7C4FA0020B5E74400002044180020A9
:1027E000340000208818002010040020300300204E
:1027F000F62A000870B51A4D80B11A4A1288904224
:102800001FD8194A02EB800050F8044CCCB1A170DB
:1028100084F824102868A04205D014E0286881704C
:10282000286880F82410114840688078884215D9BB
:102830000E482968FFF742FD2968012048700020F2
:102840000AE0FF2070BD2046FFF75EFD607801289A
:1028500004D10648FFF7F6FAFFF780FA002070BDB2
:1028600034000020F62A00084418002088180020B0
:1028700002480068002800D0C0787047340000206B
:1028800010B5134C207860B91248400705D11248A2
:1028900001681048FFF712FB08B1852010BDFFF753
:1028A000C1FD0E49FF2009688870207858B90021C1
:1028B0000B4800F041F80B49086000210A4800F07D
:1028C0006BF80A490860012020700020607010BD7C
:1028D0002800002020100020302B000834000020A9
:1028E000482B000824000020382B0008200000207E
:1028F00070B50F4D687808B1002070BD0D4C206890
:1029000090F824100020FFF775FF2068C178FF2998
:1029100003D1816A203181F30988616811B960604F
:1029200000202060FFF7E4FD01206870E4E700006C
:10293000280000203400002010B5040005D02168D4
:1029400019B1606808B102780AB1002010BD890091
:10295000103189B2FFF710FB606810BD3EB504006E
:102960000D464FF0800012D0217801290FD1284662
:10297000FFF7E2FB0246204601A9FFF783FB01288F
:1029800001D0102003E00DB1402000E00020DDE97F
:10299000011203B030BD000070B50E46040029D00E
:1029A000206838B3606810F1030F23DB032821DCB3
:1029B000E16829B11048FFF739F905001AD000E0A5
:1029C00000256068E168001D40EA012133462A467F
:1029D0002068FFF70DFE40B1084901EB800008496F
:1029E00050F8040C826A516370BD1DB1294602483B
:1029F000FFF714FA002070BD2010002044180020BA
:102A0000951B000810B5FFF733FF002804D00349D9
:102A100001EB800050F8040C10BD000044180020A9
:102A200010B5FFF7C1FD18B1C18C19B1C46A02E03D
:102A3000802010BD0024C078FFF71EFEFF2806D0BE
:102A40001CB121460348FFF7E9F9002010BD8120A1
:102A500010BD00002010002010B5FFF707FA20B1CC
:102A600041690A680169104610BD0020014610BD89
:102A70002DE9F041134E7468002C1CD0A068124F51
:102A8000401E4FF00108A06012E0254624687460E3
:102A9000002229463868FEF7A8FF10B10420FFF78E
:102AA000A1F86879012808D085F80480002C02D0AC
:102AB000A0680028E9D0BDE8F0812846E968FFF762
:102AC0007DFDF3E72800002024000020010202031E
:102AD0000405060708090A0B0C0D0E0F1010000064
:102AE00000000000000001020304060708090000BE
:102AF0000000010203040400000402110A000100A6
:102B00003F19010001000000020001005200040012
:102B1000E8030000000000007D1A0008000000002B
:102B20000100000000040000DC000000100C0000A8
:102B30002006000040000000B91B00080200000051
:102B4000010000000002000010000000E002002070
:102B500000000000742B000800000020540000005A
:102B60000C180008C82B000854000020641C00004A
:102B70001C18000800000000010000000000000018
:102B80000100000010000000000000000024F4001C
:102B90000000000000000000000000000000000035
:102BA0000000000000000000000000000000000025
:102BB0000000000000000000000000000000000015
:082BC00000000000000000000D
:0400000508000131BD
:00000001FF
