:020000040800F2
:10000000E0BE0020E10100081B200008A91600083E
:1000100019200008610500080924000800000000FC
:10002000000000000000000000000000490100087E
:1000300063050008000000008D0100084120000851
:10004000FB010008FB010008FB010008FB010008A0
:10005000FB010008FB010008FB010008FB01000890
:10006000FB010008FB010008FB010008FB01000880
:10007000FB010008FB010008FB010008FB01000870
:10008000FB010008FB010008FB010008FB01000860
:10009000FB010008FB010008FB010008FB01000850
:1000A000FB010008FB010008FB010008FB01000840
:1000B000FB010008FB010008FB010008FB01000830
:1000C000FB010008FB010008FB010008FB01000820
:1000D000FB0100085D230008FB0100088D230008D8
:1000E00065050008FB010008FB010008FB01000892
:1000F000CD200008FB010008FB010008FB010008FF
:10010000FB010008FB010008FB010008FB010008DF
:10011000FB010008FB010008FB010008FB010008CF
:10012000FB010008FB010008FB010008FB010008BF
:10013000DFF810D000F006F900480047D929000880
:10014000AFF30080E0BE0020224B19680868B0E8D9
:10015000F00F80F30988BFF36F8F4FF0000080F33A
:1001600011884EF00D0E7047000000000648006830
:10017000006880F3088862B661B6BFF34F8FBFF3A3
:100180006F8F00DF00BF00BF08ED00E0EFF30980D4
:10019000BFF36F8F0F4B1A6820E9F00F106008B59E
:1001A0004FF0500080F31188BFF34F8FBFF36F8F74
:1001B00005F096FB4FF0000080F31188BDE8084081
:1001C00019680868B0E8F00F80F30988BFF36F8FF3
:1001D000704700BF14000020EFF305807047000057
:1001E0000648804706480047FEE7FEE7FEE7FEE7D1
:1001F000FEE7FEE7FEE7FEE7FEE7FEE7CB200008AE
:1002000031010008202A04DB203A21FA02F0002103
:10021000704721FA02F3D040C2F120029140084316
:10022000194670470649074A0868504343F23902A5
:10023000104408604008704701490860704700009A
:10024000AC0000206D4EC64140EA01039B0703D07D
:1002500009E008C9121F08C0042AFAD203E011F805
:10026000013B00F8013B521EF9D27047D2B201E0C7
:1002700000F8012B491EFBD270470022F6E710B5AB
:1002800013460A4604461946FFF7F0FF204610BD04
:1002900030B505462A460B4612F8010B13F8014B00
:1002A00008B1A042F8D01CB1002802D06D1CF1E7C3
:1002B000284630BD421C10F8011B0029FBD1801AD2
:1002C000704730B505460020034600E05B1C9342B2
:1002D00005D2EC5CC85C201A01D1002CF6D130BDEF
:1002E0002DE9F05F0546002092469B46884606466B
:1002F000814640241BE02846414647462246FFF7F8
:1003000081FF53465A46C01A914110D311461846F0
:10031000224600F029F82D1A67EB01084F462246C5
:100320000120002100F020F817EB00094E41201EAB
:10033000A4F10104DFDC484631462A464346BDE8C5
:10034000F09F0000064C074D06E0E06840F0010316
:1003500094E8070098471034AC42F6D3FFF7ECFE60
:10036000546A0008746A0008202A04DB203A00FA64
:1003700002F1002070479140C2F1200320FA03F3FC
:10038000194390407047000010B5094804F0B9F8CF
:10039000074804F0C5F80648001D04F0B2F8044808
:1003A000001D04F0BDF8034804F027FF002010BD35
:1003B0009C00002068B2002070B50C460546094933
:1003C000284604F020FF002807D02146064804F004
:1003D000ACF818B10128F2D0002070BD6FF0010018
:1003E00070BD000068B20020A000002000249AB078
:1003F000DFF8C8B0E946A046651E09EB04064F4683
:100400003046294600F0E4F886F8018034B116F849
:10041000010C0D2802D1385D0A280AD0684628A1AF
:10042000FFF736FF18B300246E4627466FF02F0AF9
:1004300021E025A16846FFF72BFF40B1224669461F
:100440002348FFF701FF0020CBF808000BE021A1B3
:100450006846FFF71DFF78B3224669461C48FFF740
:10046000F3FECBF80850154804F062F824E0641C51
:10047000642CC2DB20E03019294600F0A9F8305D79
:100480003A2806D007EB87020AEB42014718641CA2
:10049000F1E700240EE03019294600F099F8642CA9
:1004A00007DA305D0D4904F0C4FE0448001D04F075
:1004B0003FF8641CBC42EEDB00249EE79C00002059
:1004C0002B4950442C0000004F4B0D0A0000000047
:1004D00070B600204552524F520D0A0068B20020FB
:1004E0002DE9F0411F4614460D460646FFF7E2FE91
:1004F0000146304600F06EF802210DA000F06AF8C7
:1005000039460C4804F011F870B10A48866846B9BB
:100510003DB1642C00DD6424224607492846FFF7DC
:1005200093FE3046BDE8F0816FF00100FAE700006D
:100530000D0A00009C00002070B6002010B5144683
:1005400000F048F82146054803F0EFFF10B10348DA
:10055000806810BD6FF0010010BD00009C000020FD
:10056000FEE7704710B5012000F00CF9BDE810401F
:100570004FF4005000F006B910B5012200212520EB
:1005800000F0A8FA252000F097FA03480068C16837
:1005900041F06001C16010BDBC04002010B5002214
:1005A0000F21272000F096FA272000F085FA064850
:1005B00001680A6822F020020A600068C16841F000
:1005C0002001C16010BD00000405002072B6FEE7E6
:1005D00001F0F6BE01F008BF10B590F8211000221E
:1005E000022905D00421816380F82020012010BD5C
:1005F00001680B6823F00E030B6001680B6823F0A1
:1006000001030B6090F84030C46B012101FA03F341
:10061000636080F8211080F82020104610BD000093
:100620002DE9F05F90F821100024022903D0042165
:100630008163012485E001680A6822F00E020A60E5
:1006400001680A6822F001020A603F4E3E4FB2156F
:10065000DFF8F4C0DFF8F090DFF8ECA0DFF8E8B0E6
:10066000DFF8E4E00168783F13011502ACF1640C97
:10067000A9F15009AAF13C0AABF1280BAEF1140E16
:100680004FF48018B14227D9B9420ED0614512D03B
:1006900049451DD0514518D0594518D0714501D153
:1006A000424615E0294EB14201D1012210E0274E09
:1006B0001436B14201D110220AE0244E2836B1424C
:1006C00006D0224A3C32914201D11A4600E02A4625
:1006D0001E49091F0A602BE0B94213D0614517D0AB
:1006E000494522D051451DD059451DD0714501D1F4
:1006F00042461AE0B14202D14FF0807215E0134E2B
:10070000B14201D1012210E0104E1436B14201D1A4
:1007100010220AE00D4E2836B14206D00B4A3C3278
:10072000914201D11A4600E02A46074980394A60C1
:10073000012180F82110002180F82010416B01B1C7
:1007400088472046BDE8F09F800002400804024030
:1007500010B5094C012808D04FF40051884203D14C
:10076000064800F017F9607010BD0121044800F040
:1007700011F9207010BD00008C0000200010014015
:1007800000080140044910B50A68024202D008601E
:10079000FFF7DEFF10BD0000140401402DE9F84F03
:1007A000DFF8C8910024A9F1040B23460F2709F1B3
:1007B000040AABF1040ED1E00125A54006EA0502CA
:1007C000AA4276D1DFF8A8C14E68A6EB0C086645B0
:1007D0002BD00DDC032E34D005DC36B3012E19D01E
:1007E000022E2FD11BE0112E16D0122E2AD119E085
:1007F000B8F5881F19D006DCB8F5803F15D0B8F5DC
:10080000801F1FD111E0B8F5001F0ED0B8F5041FEE
:1008100018D10AE0CB6815E0CB681B1D12E0CB684D
:1008200008330FE0CB680C330CE08B682BB1012B45
:100830004FF0080303D0456104E0042302E00561A2
:1008400000E00023FF2A01D8064601E000F104067B
:100850004FEA840501D9A5F12005D6F8008007FAF2
:1008600005FC28EA0C0803FA05F548EA0508C6F86D
:1008700000804D68ED0070D53E4DAE6946F0010632
:10088000AE61AD6924F0030605F0010500953A4D0F
:1008900006EB050CDCF80850A607360F07FA06F839
:1008A00025EA0805DFF8D480404503D14FF0000861
:1008B00025E052E0DFF8C880404502D14FF0010842
:1008C0001DE0DFF8C080404502D14FF0020816E07D
:1008D000DFF8B480404502D14FF003080FE0DFF8A5
:1008E000AC80404502D14FF0040808E0DFF8A0805A
:1008F000404502D14FF0050801E04FF0060808FA24
:1009000006F848EA0508CCF808804D68D9F8006078
:10091000ED024D4601D5164300E096432E604D682A
:10092000DAF80060AD02554601D5164300E0964363
:100930002E604D68DBF80060AD035D4601D51643BF
:1009400000E096432E604D68DEF80060ED037546CA
:1009500001D5164300E096432E60641C0A681646D3
:10096000E2407FF429AFBDE8F88F000008040140A1
:10097000000011100010024000000140000801407A
:10098000000C01400010014000140140001801401B
:10099000001C01408068084000D0012070470AB167
:1009A000016170470904FBE7014880687047000057
:1009B0000400002002488168027811448160704779
:1009C00004000020074810B5016841F010010160E3
:1009D000032000F09FF80F2000F006F800F04AF81E
:1009E000002010BD0020024030B505461C4887B0ED
:1009F000816941F400518161806906A900F40050C9
:100A0000009001A800F02EF900F05CF91549164A93
:100A1000B0FBF1F11548491E0260416040F2E73237
:100A20000021C0E903218160816100F013FB040013
:100A300012D10E4800F03CFB04000DD12C2000F038
:100A40003BF8102D07D2002229462C2000F042F856
:100A50000748056000E0012407B0204630BD0000D3
:100A60000010024040420F00003401404C050020BD
:100A7000080000200E4808B5816941F0010181613C
:100A8000816901F001010091C16941F08051C161AA
:100A9000C069002200F0805000900F21901E00F0ED
:100AA00019F80448416821F0E061416008BD000088
:100AB0000010024000000140002809DB00F01F0286
:100AC000012191404009800000F1E020C0F80011B0
:100AD00070470000F0B40E4B1B680C46C3F30223B2
:100AE000C3F10705042D00D90425191D072901D2DA
:100AF000002300E0DB1E012606FA05F1491E214015
:100B000099409E40761E16403143F0BC01F0A2BCD5
:100B10000CED00E0064900F0070208684FF6FF03FD
:100B2000184040EA0220034A104308607047000062
:100B30000CED00E00000FA052DE9F0470F46050036
:100B400061D0434E306800F00700B84209D23068E7
:100B500020F0070038433060306800F00700B842EA
:100B600051D128683B4C810712D5400703D56068F6
:100B700040F4E06060602878000703D5606840F4C6
:100B8000605060606068A96820F0F0000843606011
:100B90002878C00728D06868012810D0216802286A
:100BA00010D0890700292EDA616821F00301014382
:100BB0006160FFF7F9FE804641F288390DE0216857
:100BC0008903EFE78901EDE7FFF7EEFEA0EB0801EF
:100BD000494502D90320BDE8F0876068696800F0E4
:100BE0000C00B0EB810FEFD1306800F00700B84285
:100BF0000BD9306820F0070038433060306800F0CF
:100C00000700B84201D00120E5E72878400705D564
:100C10006068E96820F4E0600843606028780007B5
:100C200006D56068296920F4605040EAC100606020
:100C300000F058F86168084AC1F30311515CC840DC
:100C40000649086006480068FFF7CEFE0020C2E7AC
:100C500000200240001002405266000810000020F0
:100C6000080000200F2202600C4A536803F00303BF
:100C70004360536803F0F0038360536803F4E06358
:100C8000C36052684FF4E06303EAD2020261044891
:100C9000006800F007000860704700000010024084
:100CA000002002400448054900684968044AC1F32D
:100CB0000221515CC8407047100000200010024023
:100CC000626600080448054900684968044AC1F39F
:100CD000C221515CC8407047100000200010024043
:100CE000626600080E4A51680E4801F00C03042B9E
:100CF00011D0082B0FD10C48C1F38343C903C05C4A
:100D00000AD55168084AC1F34041921E515C054A18
:100D10005043B0FBF1F0704704494843704700006E
:100D20000010024000127A004266000800093D00EF
:100D30002DE9F84F040070D02078C04DC00749D08D
:100D40006868C0F38100012807D06868C0F381009B
:100D5000022809D16868C00306D52868800339D500
:100D600060680028E7D035E06068B0F5803F0BD0C0
:100D700010B1B0F5A02F11D0286820F48030286081
:100D8000286820F4802002E0286840F48030286041
:100D9000606890B1FFF708FE06460AE0286840F454
:100DA00080202860F0E700BFFFF7FEFD801B64286D
:100DB00073D828688003F7D50CE0FFF7F5FD0646E9
:100DC00005E000BFFFF7F0FD801B6428F0D828681D
:100DD0008003F7D420789A4E80074FF001094FF036
:100DE000000839D5686810F00C0F07D06868C0F3A8
:100DF0008100022809D16868C00306D428688007EA
:100E000014D52069012808D110E02069B0B1C6F8D6
:100E10000090FFF7C9FD074605E00AE1FFF7C4FDB2
:100E2000C01B0228C4D828688007F7D528686169E4
:100E300020F0F80040EAC10028600DE0C6F800800C
:100E4000FFF7B2FD074604E0FFF7AEFDC01B022826
:100E500023D828688007F7D4207800072CD5794854
:100E6000A169D9B1C0F80090FFF79EFD074604E0E4
:100E7000FFF79AFDC01B02280FD8686A8007F7D5D4
:100E800071484FF4FA510068B0FBF1F0009000BFD8
:100E90000098411E0091FAD20EE080E0C0F8008078
:100EA000FFF782FD074604E0FFF77EFDC01B022826
:100EB00075D8686A8007F7D42078400760D5E8695C
:100EC0000027C00008D4E86940F08050E861E86974
:100ED000012700F0805000905C480168C90513D4D8
:100EE0000168834641F480710160FFF75DFD824631
:100EF00006E000BFFFF758FDA0EB0A0064284ED8BB
:100F0000DBF80000C005F5D5E06801280AD008B17B
:100F1000052813D0286A20F001002862286A20F0F2
:100F2000040002E0286A40F001002862E06841F213
:100F3000883B98B1FFF738FD82460BE0286A40F005
:100F400004002862EEE700BFFFF72EFDA0EB0A01C8
:100F500059455AD8286A8007F6D50CE0FFF724FDDA
:100F6000824605E0FFF720FDA0EB0A0159454CD869
:100F7000286A8007F6D41FB1E86920F08050E86144
:100F8000E06988B36968C1F38101022944D002286D
:100F9000C6F8608004D0FFF707FD044638E034E06F
:100FA000FFF702FD074604E0FFF7FEFCC01B022826
:100FB0002BD828688001F7D4206AB0F5803F05D18E
:100FC0006868A16820F4003008436860D4E908012B
:100FD0000843696821F4741108436860C6F860909A
:100FE000FFF7E2FC044606E025E000BFFFF7DCFC6B
:100FF000001B022809D828688001F7D51BE000BF34
:10100000FFF7D2FC001B022802D90320BDE8F88FAD
:1010100028688001F4D40EE00128F7D06868226ABD
:1010200000F48031914204D1616A00F4701088426A
:1010300001D00120EAE70020E8E7000000100240AC
:101040000000424280044242100000200070004034
:101050007047704710B5040003D094F83D0010B1FC
:1010600007E0012010BD002084F83C00204600F07D
:101070001EF8022084F83D00211D206801F02CF8A4
:10108000012084F8460084F83E0084F83F0084F88C
:10109000400084F8410084F8420084F8430084F85A
:1010A000440084F8450084F83D00002010BD7047DE
:1010B00090F83D10012901D001207047022180F8ED
:1010C0003D100168CA6842F00102CA6000680E491A
:1010D00088420ED00D4988420BD0B0F1804F08D025
:1010E0000B49884205D00B49884202D00A49884200
:1010F00004D1816801F00701062903D0016841F09D
:101100000101016000207047002C014000340140C3
:101110000004004000080040000C0040704770B51B
:101120000446006801694FF00005C943890715D4DA
:10113000C168C943890711D4E91E016101202077E4
:10114000206880698007204602D0FFF7E7FF04E0AF
:1011500000F098F8204600F096F82577206801699D
:10116000C943490717D4C168C943490713D46FF06D
:1011700004010161022020772068806910F4407F1B
:10118000204602D0FFF7CAFF04E000F07BF82046BB
:1011900000F079F8257720680169C943090716D45A
:1011A000C168C943090712D46FF008010161042026
:1011B00020772068C0698007204602D0FFF7AEFF85
:1011C00004E000F05FF8204600F05DF82577206825
:1011D0000169C943C90617D4C168C943C90613D4F4
:1011E0006FF010010161082020772068C06910F4B9
:1011F000407F204602D0FFF791FF04E000F042F864
:10120000204600F040F8257720680169C943C907E6
:1012100008D1C168C943C90704D1891E01612046AC
:1012200000F032F820680169C943090609D4C16891
:10123000C943090605D46FF0800101612046FFF71C
:1012400007FF20680169C943490609D4C168C94339
:10125000490605D46FF040010161204600F01EF8F8
:1012600020680169C94389060BD4C168C94389064E
:1012700007D46FF0200101612046BDE87040FFF700
:10128000E8BE70BD7047704700680349884201D1CD
:10129000FFF790BB70470000003401407047704773
:1012A00070470000F8B5016804460868CA684B69D1
:1012B00010F00F0F4FF0000559D003F0010602F4B3
:1012C0009077374365D0C10705D0D10503D5616C50
:1012D00041F001016164410705D5D90703D0616C74
:1012E00041F002016164810705D5D90703D0616C23
:1012F00041F004016164010707D502F02001314388
:1013000003D0616C41F008016164616C00293AD03E
:10131000800604D5900602D5204600F062FF2068C2
:101320004069616CC0F38010090700D460B32046A7
:1013300000F030FF20684069400621D52068143055
:1013400050E8001F21F0400140E80012002AF5D1CA
:10135000E06BA8B16D494163E06BFFF761F90028CC
:1013600011D0E06B416B01B0BDE8F0400847830647
:101370000FD593060DD52046BDE8F84000F031BFEB
:101380002046FFF78DFFF8BD2046FFF789FF656413
:10139000F8BD266B2023012E7CD1C6067AD5D60651
:1013A00078D508684868009048694FF00206400602
:1013B00040D5E16B086840680004000CE8D0A28DBD
:1013C0008242E5D9E085886920282DD020680C303C
:1013D00050E8001F21F4807140E80012002AF5D186
:1013E0002068143050E8001F21F0010140E800128D
:1013F000002AF5D12068143050E8001F21F0400188
:1014000040E80012002AF5D184F8423025632068B4
:101410000C3050E8001F21F0100140E80012002AB3
:10142000F5D1E06BFFF7D8F86663A08DE18D401A27
:1014300081B22AE0A08DE18D401A81B2E08D0028B2
:10144000A6D00029A4D022680C3252E8000F20F464
:10145000907042E80007002FF5D12068143050E862
:10146000002F22F0010240E80027002FF5D184F878
:101470004230256320680C3050E8002F22F0100223
:1014800040E80023002BF5D166632046FFF707FFF5
:10149000F8BDFFE705062BD5150629D594F84100C0
:1014A0002128F5D1A068B0F5805F01D12069B0B1E5
:1014B000206A411C2162216800784860E08C401E4F
:1014C0000004000CE084E3D12068C16821F08001B1
:1014D000C1602068C16841F04001C160D8E7206A5E
:1014E0000088C0F308004860206A801C2062E5E79D
:1014F0004006CDD55006CBD5CA68204622F0400222
:10150000CA6084F8413000F0C3F8C1E785210008C3
:1015100070B5040004D094F84100002510B106E035
:10152000012070BD84F84050204600F023F82420AC
:1015300084F841002068C16821F40051C160204650
:1015400000F0B0FE2068016921F49041016120683B
:10155000416921F02A0141612068C16841F40051CC
:10156000C1606564202084F8410084F8420065630E
:10157000002070BD70B586B00024009401940294E0
:10158000039403682B482A4E022103220515B34217
:1015900021D1836943F480438361836903F48043E9
:1015A0000493836943F0040383618069224E00F051
:1015B000040004900802CDE9000103926946304618
:1015C000FFF7ECF8CDE90054694630460294FFF786
:1015D000E5F806B070BD194EB342FAD1C36943F4C1
:1015E0008023C361C36903F480230493836943F0B8
:1015F000080383618069CDE9005100F00800CDE95E
:1016000003200F4D69462846FFF7C8F8E814CDE9D6
:101610000004694628460294FFF7C0F8002205211D
:101620002720FFF757FA2720FFF746FAD1E70000F7
:10163000003801400010024000080140004800400E
:10164000000C014000680349884202D10249012090
:1016500048707047003801408E00002090F84130FB
:10166000202B01D00220704779B172B101628284CF
:10167000C28400214164212180F841100068C168C2
:1016800041F08001C16000207047012070470000D8
:1016900000680349884202D102490120087070475E
:1016A000003801408E000020FEE7000010B586B033
:1016B000002003901548816941F0400181618169F2
:1016C00001F040010491816941F04001816180692C
:1016D000104C00F0400004900D4801900120029051
:1016E000009069462046FFF759F86014009069465B
:1016F0002046FFF753F8022200212820FFF7EAF9DD
:101700002820FFF7D9F906B010BD000000100240F4
:1017100000003110000801402DE9FC410746154644
:101720000E4600246846009303F03EFD60F3070474
:10173000C4F3C00030702009387001A9009800F08F
:10174000EFF80099019A014400910A44511A0229C4
:1017500004DB684603F02EFD28800120BDE8FC81F3
:101760002DE9FC41074600240E46254668460092B6
:1017700003F01AFD0146204661F307000009022824
:1017800019D101A9009800F0CBF80099054608444A
:10179000019900900144081A02280CDB684603F006
:1017A00003FD60F3070404F001003870684603F09D
:1017B000FBFC307001252846BDE8FC812DE9FC5F6B
:1017C0008046DDE90EA00024CDE9000499461746C5
:1017D0000E462546DDF834B0684603F0E5FC60F3BC
:1017E0000704200903282CD1C4F3C00188F8001095
:1017F000C4F34100306004F00100387001A9009882
:1018000000F08EF8009905460844019900904418AC
:10181000224669460C9803F0D6FC90B10098201A35
:101820000FD43068002804DD684603F0C3FCA9F833
:1018300000000098211ACAF8001000990125CBF881
:1018400000102846BDE8FC9F2DE9FC4781460A9818
:10185000002400909A46164688462546684603F0BE
:10186000A3FC0146204661F307000009092826D1A0
:1018700001A9009800F054F8009905460844019920
:1018800000904718381A022819DB684603F092FCCA
:10189000A9F8000034600EE03168414502DD4FF0E8
:1018A000FF350CE0684603F07FFC31688B00491C73
:1018B00031604AF803000098B842EDD3012528466C
:1018C000BDE8FC870EB500238DF804308DF8083094
:1018D00000920B46024602A901A8FFF71DFF9DF8E2
:1018E00004100B2900D101200EBDF8B501250024FC
:1018F0000E4607460C60641C042C0FDC0121684670
:10190000B84701280AD19DF80000316800F07F0235
:1019100002FB0511ED0131600006ECD42046F8BD54
:10192000024A10600248FFF7E0BF00009400002068
:10193000FD28000810B503460020CA1701EB5264C9
:1019400024F07F02891ACAB2E111002902DD00BF2A
:1019500042F080021A5400F10100EEDC10BD70B5B7
:1019600004680E4624B12046FEF7A4FC054601E0BB
:10197000D0E901543046FEF79DFC854205D12A4648
:1019800031462046FEF79DFC08B1002070BD0120C5
:1019900070BD0000401C802801DA401C7047B0F583
:1019A000804F01DA801C70470349884201DAC01C6D
:1019B0007047001D70470000FFFF1F00F8B50024AE
:1019C000069E05460090042901DAA01EF8BD62F3C8
:1019D000071463F3C304062A24F0060000D1801C18
:1019E000C1B2684603F0C2FF02210098FFF7A2FFD0
:1019F0000099084400903146684603F0BDFF009806
:101A0000401BF8BD2DE9F843074600908846144670
:101A10000025104600F082F88146FFF7BBFF4045E5
:101A200002DDA81EBDE8F8832E46314666F30701A5
:101A30006846103103F09AFF49460098FFF77AFF95
:101A4000009908440090207A04281DD02FA16846F0
:101A500003F078FF0321684603F088FFA07E66F359
:101A6000070560F34105E07E08B145F0040568070D
:101A700007D594F83D0060F3C40594F83C0060F38A
:101A80004515206C40B905E022A1684603F05AFFD5
:101A90000421E0E7A06C08B145F08005E06C08B9CE
:101AA000606D08B145F040052946684603F05EFFC9
:101AB000218B684603F060FF04F10C0168460EC9F3
:101AC00003F069FFE07E68B12434684694E80E00B4
:101AD000243C03F060FF3034684694E80E00303C4C
:101AE00003F059FF280605D504F1400168460EC9E8
:101AF00003F051FF680605D54C34684694E80E00A3
:101B000003F049FF0098C01B8CE700004D5149735A
:101B1000647000004D5154540000000070B504463C
:101B2000007A0025032802D0042802D002E00C2508
:101B300000E00A2504F10C0007C800F0BBF90544D9
:101B4000E07EAD1C78B1243494E80700243C00F01A
:101B5000B1F93034064694E80700303C00F0AAF9A9
:101B6000304405442D1D206C08B9A16C29B1D4E97D
:101B7000111200F09FF90544AD1CE06C08B9616DCD
:101B800029B1D4E9141200F095F90544AD1C28469A
:101B900070BD0C2200F0AFB82DE9FC5F1C46129E10
:101BA000CDE90060DDF838B09046DDF830A0DDE921
:101BB0000F23894607465946204600F030F805466F
:101BC000FFF7E8FE484503DD6FF00100BDE8FC9F2C
:101BD000302168F3C30164F342016AF3000101A8F4
:101BE00003F0C4FE29460198FFF7A4FE01990844BA
:101BF0000190DDE90F23594601A803F0CCFE002C2B
:101C000003DD01A80D9903F0B7FE32461199019842
:101C1000FEF71AFB019830440190C01BD6E770B55F
:101C20000E46114604461A463046049D00F042F91D
:101C30002844801C002C00DD801C70BD2DE9FF4F66
:101C400083B0064610A8894690E880090024924691
:101C5000254641463846009600F036F80190FFF7D9
:101C600099FE484503DDA01E07B0BDE8F08F64F380
:101C7000070480346AF3C30424F00600801CC1B258
:101C8000684603F073FEDDE90001FFF753FE00999B
:101C9000084400906846069903F06EFE0FE000BF0E
:101CA00005EB450108EB810090E80E00684603F063
:101CB00072FE1BF82510684603F058FE6D1CBD42ED
:101CC000EEDB0098801BCFE72DE9F04102250F469F
:101CD000064600240AE000BF04EB440007EB800046
:101CE00007C800F0E7F80544641CED1CB442F3DBC0
:101CF0002846BDE8F08138B500230446009002294B
:101D000001DA981E38BD194663F3070162F3071123
:101D1000684603F02BFE00210098FFF70BFE0099A8
:101D200008440090001B38BD8AB000242646009469
:101D300001940294039401F085FA054630A101F064
:101D40005BFF31A1284601F0E3FE0A2003F0D0F941
:101D50000146284601F094FE0A2003F0C9F9014625
:101D6000284601F083FF0A2003F0C2F90146284605
:101D700001F008FF0121284601F044FE284600F04A
:101D8000ACFF28B124A000F041FB002003F0FEFBD3
:101D9000264B002226A1284602F008F810B126A002
:101DA00000F034FB002301222AA1284601F0FEFFA7
:101DB00010B12AA000F02AFB002302222EA12846FF
:101DC00001F0F4FF10B12EA000F020FB04A88DF864
:101DD0000060039041F288362246641C2FA104A8BB
:101DE00000F024FB0398FEF765FA02906A462EA1E4
:101DF000284601F02BFB304603F0A2FBECE7000085
:101E0000313838330000000034372E3131342E3170
:101E100038372E32343700006D7174745F636F6E23
:101E20006E656374206572720D0A000051520008DD
:101E3000746F7069633100006D7174745F737562E3
:101E400073637269626520746F70696331206572B3
:101E5000720D0A00746F7069633200006D717474E2
:101E60005F73756273637269626520746F70696312
:101E700032206572720D0A00746F7069633300005E
:101E80006D7174745F7375627363726962652074D7
:101E90006F70696333206572720D0A0031303061F2
:101EA000736B2C20256400006D63755F746573741B
:101EB0000000000010B510B1FEF7FCF9014608461D
:101EC00010BD000010B5094A0021094802F0BAFA15
:101ED0000849064A08600021074802F0B3FABDE845
:101EE0001040024A0021054802F0ACBA1C66000806
:101EF0001D20000800000020ED030008291D000837
:101F00002DE9F04186B00024234800940194029406
:101F10000394816941F010018161816901F0100130
:101F20000491816941F004018161816901F004013A
:101F30000491816941F0080181618069174F00F0C7
:101F400008000490012223213846FEF728FD78146A
:101F500002258DE83100DFF8488069464046FEF7EB
:101F60001DFC0126009669460E48CDE90145FEF7A5
:101F700015FC2320CDE9000669463846CDE9024527
:101F8000FEF70CFCE8028DE8510069464046FEF77A
:101F900005FC06B0BDE8F08100100240000C0140D5
:101FA00000100140000801400C4810B50A490160CA
:101FB0004FF4E1314160002181600C22C160C0E931
:101FC00004128161C161FFF7A3FA002803D0BDE8C4
:101FD0001040FEF7FBBA10BD00380140BC040020E1
:101FE0000C4810B50A4901604FF4E131416000210D
:101FF00081600C22C160C0E904128161C161FFF7F8
:1020000087FA002803D0BDE81040FEF7DFBA10BD04
:102010000048004004050020FEE7FEE703A000F0B2
:10202000F5F9012002F0B8F9FBE700005374617282
:102030007444656661756C745461736B0D0A0000BD
:1020400010B5502080F31188BFF34F8FBFF36F8F0F
:1020500004F006F918B104494FF0805008600020E0
:1020600080F3118810BD000004ED00E030B58FB0A2
:1020700028216846FEF701F914210AA8FEF7FDF8A9
:1020800001210804CDE900100024029402250491E6
:10209000CDE907504FF4E01009906846FEF748FE7E
:1020A00008B172B6FEE70F20CDE90A054FF4806053
:1020B000CDE90C4002210AA80E94FEF73DFD002850
:1020C00001D072B6FEE70FB030BD70470148FFF790
:1020D00026B800004C050020F0B502681C4B1D4DD1
:1020E0001D4E1E4F1E4C4FF0804C984209D0A0420E
:1020F00007D0604505D0A84203D0B04201D0B84215
:1021000004D122F0700E4A6842EA0E02984209D0C9
:10211000A04207D0604505D0A84203D0B04201D00C
:10212000B84203D122F44075CA682A434D6922F0AF
:1021300080022A4302608A68C2620A688262984208
:1021400001D0A04201D10969016301214161F0BDC3
:10215000002C01400004004000080040000C00403A
:102160000034014010B5054802F0CBF9034802F0F5
:10217000D7F9BDE81040024803F03FB8A80000209E
:10218000D4B6002010B5406A0021C185C184FFF794
:1021900087F810BD01680C3151E8002F22F49072CD
:1021A00041E80023002BF5D10168143151E8002FDC
:1021B00022F0010241E80023002BF5D1016B012937
:1021C00009D101680C3151E8002F22F0100241E8DA
:1021D0000023002BF5D1202180F84210002101635B
:1021E000704708B590F84210222901D0022008BD9E
:1021F00082684FF480539A4201D1016921B1816A0A
:102200009A421BD04AB10AE00268816A5268C2F35E
:1022100008020A80816A891C08E0026972B10268BA
:10222000526802F07F020A70816A491C8162C18D86
:10223000491E0904090CC18503D01BE002685268DD
:10224000F1E70168CA6822F02002CA600168CA6822
:1022500022F48072CA6001684A6922F001024A6170
:10226000202180F8421000214163026B012A03D033
:10227000FFF7E8F9002008BD016301680C3151E85F
:10228000002F22F0100241E80023002BF5D1016855
:102290000A68D20602D50A6849680091818DFEF766
:1022A000FEFFE7E770B5044600680169E26821F4C3
:1022B0004051114301612169A068084361690843E5
:1022C0002168CA6841F20C639A430243CA602068DD
:1022D0004169A26921F44071114341611E4920689E
:1022E000884202D1FEF7EEFC01E0FEF7DBFC00EBDA
:1022F000C00101EB0012606864218000B2FBF0F3C2
:10230000B3FBF1F36FF018067343B2FBF0F5B2FBC9
:10231000F0F605EB8305322303EB0515B5FBF1F56C
:10232000B6FBF1F605F0F00505EB0615B2FBF0F68D
:10233000B2FBF0F0B0FBF1F06FF01802504306EB87
:10234000800003EB0010B0FBF1F0216800F00F00FB
:102350002844886070BD000000380140084810B56E
:102360000068800606D50648001D00680549C0B211
:1023700002F05FFFBDE810400348FEF793BF000086
:1023800000380140B4000020BC040020094810B50A
:1023900000680268C16892060BD5890609D54068B5
:1023A0000549C0B202F045FFBDE81040034802F005
:1023B000C5B810BD04050020D4B60020A800002038
:1023C00070B50C4605460649284602F01CFF002859
:1023D00004D02146034802F0A8F8F4E770BD0000DD
:1023E000D4B60020A800002030B50022054C06E03D
:1023F00023681D682D06FCD5855C5D60521C8A42F1
:10240000F6DB30BD04050020FEE700000FB4054BED
:1024100010B503A9044A029800F040F810BC5DF81A
:1024200014FB0000B5290008B00000200FB4084BD1
:1024300010B504A902AA039800F030F8044602A9D6
:10244000002000F056FA204610BC5DF814FB000096
:10245000F32800080907090E002804DB00F1E0203A
:1024600080F80014704700F00F0000F1E02080F8C1
:10247000141D704702E008C8121F08C1002AFAD1D3
:1024800070477047002001E001C1121F002AFBD1F4
:1024900070475060C0E90021086070472DE9FF4F88
:1024A0008DB00F460546002606E025280BD0DDE955
:1024B0000F1290476D1C761C28780028F5D111B0BA
:1024C0003046BDE8F08F0024A246A1460122E9492A
:1024D00000E0044315F8013F203B02FA03F00842F4
:1024E000F7D128782A2810D06FF02F022878A0F191
:1024F0003001092914D80AEB8A0102EB410144F0AA
:10250000020400EB010A6D1CF0E701CF5FEA000A4C
:1025100003D544F40054CAF1000A44F002046D1CCF
:1025200028782E2817D115F8010F44F004042A2822
:102530000ED06FF02F022878A0F1300109290AD8B7
:1025400009EB890102EB410100EB01096D1CF2E787
:1025500057F8049B6D1C28786C280FD006DC4C289B
:1025600017D068280DD06A2814D104E0742810D040
:102570007A280FD10DE044F400140AE044F48014EA
:1025800001E044F440146978814202D104F58014DA
:102590006D1C6D1C28786E281ED00CDC632830D092
:1025A00004DC00288BD0582811D19FE0642867D024
:1025B00069280CD164E073282DD004DC6F2872D018
:1025C000702804D194E075286ED078286DD0DDE9AC
:1025D0000F129047761C4BE1C4F30250022806D03C
:1025E000032809D0042801CF09D0066040E101CFBB
:1025F000F117C0E900613BE101CF068038E10670C8
:1026000036E117F8040B8DF8000000208DF801006A
:10261000EB46012003E057F804BB4FF0FF306107A1
:102620004FF0000102D40DE008F101018846494550
:102630000FDA8045F8DB1BF808100029F4D108E018
:1026400008F1010188468142FADB1BF808100029D5
:10265000F6D1DDE90F23AAEB08008146214600F000
:1026600031F9304400EB080604E0DDE90F121BF8F5
:10267000010B9047B8F10108F7D221464846F2E035
:102680000A21C4F302524FF0000B0891022A04D031
:1026900001CFC117032A09D00AE0FF1D27F0070761
:1026A000F7E8020108E02CE01EE01FE000B2C117CD
:1026B000042A01D140B2C117021E71F1000206DAEC
:1026C0000023D0EB030063EB01012D2202E0220581
:1026D00004D52B228DF82420012203E0E20701D04B
:1026E0002022F7E7904653E00A210BE0102109E091
:1026F00010214FF0000B44F004044FF0080908913A
:1027000003E008214FF0000B0891C4F30252022AA3
:1027100004D001CF0021032A06D006E0FF1D27F0D8
:102720000707F7E8020103E080B2042A00D1C0B233
:102730004FF0000822072BD52A78702A07D0DDF841
:1027400020C08CF0100C5CEA0B0C05D00EE040228F
:102750008DF82420012208E050EA010306D030233E
:102760008DF824308DF8252002229046089B83F0B6
:10277000080353EA0B030BD150EA010201D16207AF
:1027800006D530228DF824204FF00108A9F1010967
:102790002A78582A04D038A20B9208AA0A920BE091
:1027A0003AA2F9E75B46089AFDF79AFD0B9B9B5C02
:1027B0000A9A521E0A92137050EA0102F2D10A9844
:1027C000ADEB000000F1200B600702D524F480344B
:1027D00001E04FF00109D94502DDA9EB0B0000E053
:1027E000002000EB0B0141440890AAEB010AE00332
:1027F00006D4DDE90F232146504600F063F8064475
:102800004FF0000908E009A911F80900DDE90F12ED
:10281000904709F10109761CC145F4DBE0030CD5B2
:10282000DDE90F232146504600F04CF8064404E051
:10283000DDE90F1230209047761C0899481E089059
:102840000029F5DC08E00A980A990078491C0A91E9
:10285000DDE90F129047761CBBF10001ABF1010BD3
:10286000F1DC21465046DDE90F2300F019F806445B
:102870006D1C21E6092801003031323334353637FA
:1028800038396162636465660000000030313233BC
:10289000343536373839414243444546000000005C
:1028A0002DE9F041044600251E461746880404D44D
:1028B00005E039462020B0476D1C641EF9D5284636
:1028C000BDE8F0812DE9F041044600251E46904602
:1028D000C80301D5302700E02027880404D505E08F
:1028E00041463846B0476D1C641EF9D52846BDE800
:1028F000F0810A68531C0B601070704730B50446B5
:1029000006480023026803E012F8015B25705B1C97
:102910008B42F9DB0260084630BD000094000020C5
:102920000EB5086C074BC26800780091CDE9010232
:10293000112205A10EA0FFF769FDBDE80E4018A009
:10294000FFF764BD6C6600082E2E5C6D71747463B5
:102950006C69656E745C6D717474636C69656E74BA
:102960005C6D717474636C69656E742E6300000035
:1029700025733A256420257328292E2E2E0A746F7C
:102980007069633A2025732C20716F733A20256497
:102990002C200A6D6573736167653A25730000002A
:1029A0000D0A000010B5FDF747FCBDE81040FDF72B
:1029B00039BC000013B5064C002020700122694686
:1029C0000448FEF74BFE20780028FCD01CBD000018
:1029D0008E000020BC040020FDF7F4FFFFF746FB4B
:1029E000FFF78EFAFFF7E0FAFFF7FAFAFEF75EFE5E
:1029F0000A4802F002FCFFF7B5FBFDF7BDFDFDF74D
:102A0000CDFD07A0FFF702FD01F0E0FCFFF75AFA49
:102A1000FDF7BAFC01F0F6FCFEE70000B400002070
:102A200048656C6C6F20576F726C64210D0A000052
:102A300010B5040006D000F01BFC2046BDE8104095
:102A400001F05DBD10BD0000FEB505460C4602A8B4
:102A500001F0D2FE02A8E96A01F0C6FE04F1080006
:102A6000E96A01F0C1FE05F15000064601F058FD8B
:102A7000228BE169286AFDF7E7FB218B02AA284631
:102A800000F08EFF304601F053FD218AE068CDE969
:102A90000001064B40F26512054906A0FFF7B6FC9F
:102AA00003485C30FFF7B2FCFEBD00008066000802
:102AB000C03E000825733A256420257328292E2E50
:102AC0002E20726573656E64202564207061636BCF
:102AD0006167652C207061636B65745F6964206950
:102AE00073202564200000002DE9F84F0446603073
:102AF000DDF828A0994615460E464FF0000B074614
:102B0000009000F0C3FB78B9206E0AE0038AAB4264
:102B100006D1C268B24203D16FF01600BDE8F88F4B
:102B20000846B8420168F1D1B0464E462F46D1461C
:102B300006F1200001F0D8FC050029D000F0A3FB2D
:102B400005F10800824601F057FE5046E16A01F0A7
:102B50004BFEC5F80C802F822E8305F12000C5F8AE
:102B60001490E8613246216AFDF76EFB04F15400CF
:102B7000064601F0D5FCA06A00F58070A0623046E0
:102B800001F0D6FC2846009900F06DFB5846C5E7D9
:102B90006FF00200C2E72DE9F0410546603088463B
:102BA000064600F073FB002830D195F84C00012850
:102BB0002CD1286E27E00746083001F020FE10B91E
:102BC000B8F1010F1ED0F86804280AD0052808D0F3
:102BD000062806D0072804D0092807D00B2805D0DE
:102BE0000AE039462846FFF72FFF0BE0786918B155
:102BF00000F053FB002078613846FFF719FF2846A4
:102C000001F026F92046B0420468D4D1BDE8F08135
:102C10002DE9F04705466030994617468846064636
:102C200000F034FBB0B9286E11E0018AB9420DD131
:102C3000C26842450AD1B9F1000F02D04269C9F811
:102C40000020FFF7F5FE284601F002F92046B042C9
:102C50000468EAD10020BDE8F0872DE9F041044680
:102C60006030064600F012FB4FF00008A0B9206E5D
:102C70000CE0074600F0FCFA786918B100F00DFB93
:102C8000C7F81480384601F03AFC2846B04205687F
:102C9000EFD1304600F0F0FA94F82800A06204F179
:102CA0005800064600F0F2FA80B9A06D08E0074629
:102CB00000F0DEFA3846C7F80C8001F020FC284608
:102CC000B0420568F3D1304600F0D6FA2046BDE8A0
:102CD000F0414FF0FF3100F00DBF00F001B80000EF
:102CE0002DE9F0439BB00446002018906FF00306D6
:102CF00058226B4902A8FDF7A7FA9CB194F84C0042
:102D0000012814D0D4E903120023A06E01F028FB9F
:102D1000A06E01F021FB05000BD0A06E48B101F0C0
:102D20002BFB87E06FF001001BB0BDE8F0830020B3
:102D3000FAE75B4B40F2DF321A3B5AA163A0FFF780
:102D400065FB6CA0FFF762FBA08CADF8200094F847
:102D50002800C0F340008DF8220094F82800C0F34A
:102D600003108DF810002068059060681290A0682C
:102D70001590A06AC10711D000F001008DF8230062
:102D8000A06C80680E90A06C00788DF84500A06C57
:102D900040788DF84400A06C40680B90A18C4FF4F3
:102DA0007A70414304F1740001F01EFD04F15000FB
:102DB000814601F0B5FB02AA616B206AFEF722FE94
:102DC000071E2CDD19A801F017FD19A8E16A01F012
:102DD0000BFD19AA3946204600F0E2FD05001FD17F
:102DE00002270DF16408451E404601F008FD40B978
:102DF0004146204600F0ACFA0546B84203D0002D0B
:102E0000F2DA022D07D118A9481C236BE269FEF7FC
:102E1000A7FC012801D0354602E09DF860505DB165
:102E2000A06E01F0A9FA0021204600F063FE48469A
:102E300001F07EFB284677E7E06E40B10121204695
:102E400000F058FEA06A20F00C00A062EFE73221EB
:102E50000520CDE900014FF480632246264927A0D2
:102E600001F09FFCE06650B10121204600F042FED7
:102E7000E06E01F0B5FCE06E01F0AFFCE2E7A06EA1
:102E800001F07AFA064B35461A3B40F2164205A18C
:102E90001FA0FFF7BBFA2AA0FFF7B8FAD2E700009D
:102EA000146700082E2E5C6D717474636C69656E16
:102EB000745C6D717474636C69656E745C6D71744F
:102EC00074636C69656E742E6300000025733A2587
:102ED0006420257328292E2E2E206D717474206392
:102EE0006F6E6E65637420737563636573732E2EE6
:102EF0002E0000000D0A0000E54100086D71747499
:102F00005F7969656C645F74687265616400000074
:102F100025733A256420257328292E2E2E206D71C5
:102F20007474207969656C642074687265616420CA
:102F30006372656174206661696C652E2E2E0000D7
:102F40000A0000002DE9F04192B016468846074677
:102F50004FF0FF3500F024F8040006D03246414619
:102F6000684600F0E5F9226907E0F86F48B132469B
:102F70004146684600F0DCF9FA6F694638469047EA
:102F80000025F068FDF796F90146F068FDF775F940
:102F9000D8E90110FDF771F912B02846BDE8F081BB
:102FA0002DE9F041846D0F4600F15806256836E0A2
:102FB000E16891B33846FEF7D2FCA8BBD7E901100F
:102FC0000144E26820E000BF90F800C0BCF12F0F80
:102FD0000AD02B2B0BD0232B13D0634518D12B2BCE
:102FE00005D0232B0DD00DE02F2B11D10AE0431C6F
:102FF00001E0831C401C8B4204D21B782F2BF8D19C
:1030000000E0481E401C521C13780BB18842DBD3F1
:10301000884202D113F0FF0F07D02C462D68B4422E
:10302000C6D10020BDE8F081FFE72046FAE770B581
:1030300004465430054601F073FAE08CA0F57F4158
:10304000FE3906D0401CE084284601F071FAE08C7D
:1030500070BD0120F7E7000070B504460C2001F0B8
:1030600043FAA066011E3ED00020086048608860D8
:103070000121E18494F8281042F21072E26284F88F
:103080004C00E063206464226064A2844021A16259
:10309000A064A0614FF47A71A067A1634FF48065CA
:1030A000E0672946204600F07DFB2946204600F0D7
:1030B000B1FF04F1580000F0E6F804F1600000F000
:1030C000E2F804F1500001F01CFA04F1540001F0A0
:1030D00018FA04F1700001F08FFB04F1740001F0A4
:1030E0008BFB002070BD064B40F25A4205A10FA099
:1030F000FFF78CF917A0FFF789F96FF0020070BD98
:10310000976700082E2E5C6D717474636C69656E30
:10311000745C6D717474636C69656E745C6D7174EC
:1031200074636C69656E742E6300000025733A2524
:103130006420257328292E2E2E206D616C6C6F6300
:10314000206D656D6F7279206661696C65642E2EE5
:103150002E0000000A00000090F94C00032804D063
:10316000012805D06FF00D0070476FF01700704711
:103170000020704738B50446FFF7EEFF050037D151
:1031800004F1700001F03BFB28B904F1740001F078
:1031900036FB00282BD094F8280010F00C0F13D029
:1031A000144B40F2AD4214A11DA0FFF72FF924A04B
:1031B000FFF72CF9A06E01F0DFF80221204600F0A5
:1031C00099FC6FF00D0512E0616B206AFEF7E1FCDF
:1031D000011E04DD6A46204600F0E2FB0546A06AB7
:1031E0004FF0804101EB30104FEA3070A06228466A
:1031F00038BD0000DE6800082E2E5C6D71747463AB
:103200006C69656E745C6D717474636C69656E7401
:103210005C6D717474636C69656E742E630000007C
:1032200025733A256420257328292E2E2E207069B7
:103230006E67206F75747374616E64696E670000E9
:103240000A00000010B5802001F04EF9040006D0FD
:103250008021FDF712F82046FFF7FEFE08B100209E
:1032600010BD204610BD4B680A461946FFF711B93C
:1032700003C8416008607047D0E900124A601160DD
:1032800000604060704700604060704701688142A4
:1032900001D1012070470020704710B5040006D00E
:1032A000FFF7E6FF2046BDE8104001F028B910BD49
:1032B0002DE9FC47044658300E460746FFF7E6FF67
:1032C000D8B9A46D16E0E06898B1D6F80C908246A3
:1032D0004846FCF7EFFF80465046FCF7EBFF0146FF
:1032E0004046414505D1024649465046FCF7E9FFB4
:1032F00030B12C46BC422568E5D10020BDE8FC87F2
:10330000F168E068CDE90001064B40F2D1120649B0
:103310000648FFF77BF804485C30FFF777F8012098
:10332000ECE7000098660008C03E0008B869000895
:1033300070B54C68164605463F2C00DB3F24896873
:103340002246FCF781FF002028552E6470BD000046
:1033500070B586B00E4600250A46044603A90395BB
:1033600000F090FA03990E2963D2DFE801F00762BA
:10337000653B10404010621D6222625E083058D1E9
:103380003048FFF743F830A0FFF740F851E02046FF
:10339000FFF7E2FE28BB206B009001AA04A902A857
:1033A000E369FEF7B9F937E03146204600F09EFCAC
:1033B0003FE0ADF800502046FFF7CEFE88B96846E2
:1033C000226BE169FEF77EFA012832D101ABBDF82C
:1033D00000200B212046FFF71BFC019808B1FFF7E6
:1033E0005CFF26E03146204600F06AF921E02046E5
:1033F000FFF7B2FEE8B9206B009001AA04A902A869
:10340000E369FEF789F9012813D19DF80820BDF87A
:103410000410204600F010F90023BDF804209DF8A8
:1034200008102046FFF7F4FB03E0A06A20F00C0030
:10343000A0622046FFF79EFE002800D1039806B048
:1034400070BD0000546900080A0000002DE9F04733
:10345000894690F84C104FF0000888B01446054695
:103460004FF0FF36474600F1500A012902D06FF0B5
:103470000D066DE0E06820B1A16811B9FCF71AFFF4
:10348000A060A068696B88420AD940A0FEF7BEFF21
:103490004EA0FEF7BBFF6FF0070008B0BDE8F08755
:1034A000504601F03DF8207858B1A86A4021B1EBB0
:1034B000102F02D86FF015064AE02846FFF7B7FD37
:1034C000A080D4E90201CDE902970497CDE9051067
:1034D000A1886078CDE9000123780022696B286A11
:1034E000FEF75AFB071E33DD014607AA284600F007
:1034F00057FA06002CD1207850B3286A0090286A29
:103500000190286A4FF0010968B1684601F04CFE4D
:10351000414660F307010809032804D169F3C30198
:1035200001A802F023FA2078012802D0022806D050
:103530000EE0CDF80080BBB2A288042104E0CDF8F3
:103540000080A288BBB205212846FFF7CDFA0646C7
:103550005046C4F8088000F0EBFF16F1160F01D0BA
:10356000F01C10D11A4B4FF4B5621AA123A0FEF73C
:103570004DFF16A0FEF74AFFA86E00F0FDFE0221E7
:10358000284600F0B7FA304687E700007075626C95
:10359000697368207061796C6F6164206C656E205E
:1035A000697320697320677265617465722074683D
:1035B000616E20636C69656E742077726974652032
:1035C0006275666665722E2E2E0000000A000000ED
:1035D000FB6800082E2E5C6D717474636C69656EF7
:1035E000745C6D717474636C69656E745C6D717418
:1035F00074636C69656E742E6300000025733A2550
:103600006420257328292E2E2E207468657265206B
:103610006973206E6F7420656E6F756768206D65C5
:103620006D6F727920737061636520746F207265AD
:10363000636F72642E2E2E002DE9FC41044616465F
:103640000D4601A801F0D8F801A8E16A01F0CCF814
:1036500004F15000074600F063FF052E04D0062E4B
:1036600015D06FF0090525E0009500230622616B57
:10367000206AFEF7A3F9064600200090B3B22A465E
:1036800007212046FFF730FA050013D107E0009527
:1036900000230722616B206AFEF790F90646002E90
:1036A00002DC6FF00A0505E001AA3146204600F071
:1036B00077F90546384600F03BFF2846BDE8FC8117
:1036C0002DE9F0438DB0002688460446374607961C
:1036D000FFF742FD050014D107AAE169206B0292B1
:1036E000CDE9031008AB0AA8CDE9000305A8031D26
:1036F000421C09A9801CFEF761F8012804D06FF074
:1037000010000DB0BDE8F083099810F0FF008DF8AF
:1037100014002FD004F15000814600F001FF9DF805
:103720001400012802D0022808D012E0BDF81800C9
:10373000009000230422616B206A06E0BDF81800A7
:10374000009000230522616B206AFEF737F9061E00
:1037500005DC6FF01105484600F0EAFE1FE0014667
:103760004246204600F01CF90546484600F0E0FEBF
:10377000002D14DB9DF8140002280BD1B3B2009782
:10378000BDF8182006212046FFF7AEF9054610F1D6
:10379000170F04D005AA0AA92046FFF7D3FB284635
:1037A000AFE7000070B50D4604000CD0E06908B129
:1037B00000F0A5FE2563022D11D96FF070408542FF
:1037C0000DD228460EE0114B40F22A4210A11AA059
:1037D000FEF71CFE20A0FEF719FE002070BD4FF47E
:1037E0008060206300F080FEE06108B1206B70BD56
:1037F000064B4FF4876206A118A0FEF707FE16A03D
:10380000FEF704FE6FF0020070BD00006C67000858
:103810002E2E5C6D717474636C69656E745C6D7171
:103820007474636C69656E745C6D717474636C69D7
:10383000656E742E6300000025733A25642025739D
:1038400028292E2E2E20636865636B20666F7220F8
:103850006572726F722E00000A00000025733A250F
:103860006420257328292E2E2E206D616C6C6F63C9
:10387000207265616420627566206661696C6564AA
:103880002E2E2E002DE9F74F4FF0000882B05FEA90
:10389000010904464FF00107454614D0049800F092
:1038A000ABFFE16A049800F09FFF049800F0B4FFBA
:1038B00003463A46E169A06E00F05CFD6FF0060B2E
:1038C000012859D104E06FF0010005B0BDE8F08F88
:1038D000049800F0A1FF0126B246019005E000BF68
:1038E0000AF1010ABAF1040F10DCA06E0122694648
:1038F000019B00F03FFD012808D19DF8000000F079
:103900007F0101FB0655F6010006E9D4E06929466E
:103910003844FEF70FF8C619206B711981421DD982
:103920002F460026DDF81080B84200D805464046F4
:1039300000F072FF03462A46E169A06E00F01AFD0E
:1039400028B10644256BB91BA94200D20D46BE42E0
:1039500001DA0028EBD16FF00700B6E7002D0DDD8E
:10396000049800F059FF0346E0692A468119A06EC9
:1039700000F000FDA84201D05846A6E7E0690178B2
:10398000404661F307000109C9F80010A18C4FF40B
:103990007A70414304F1740000F026FF002094E7A0
:1039A0002DE9F04105460E4617460024104600F06A
:1039B00023FF3846E96A00F017FF0CE0384600F0B4
:1039C0002BFF0346286A32460119A86E00F0E1FC7D
:1039D000002807DD0444B44204DA384600F00FFF43
:1039E0000028EBD0B4420AD1A98C4FF47A7041433D
:1039F00005F1700000F0F8FE0020BDE8F0816FF0E6
:103A00001200FAE710B530B1826A61F341028262B6
:103A1000C2F3400010BD064B40F28D4205A10FA03D
:103A2000FEF7F4FC15A0FEF7F1FC002010BD00002D
:103A3000496800082E2E5C6D717474636C69656E44
:103A4000745C6D717474636C69656E745C6D7174B3
:103A500074636C69656E742E6300000025733A25EB
:103A60006420257328292E2E2E20636865636B2021
:103A7000666F72206572726F722E00000A0000007D
:103A800010B510B10160084610BD064B40F28442EB
:103A900005A10FA0FEF7BAFC15A0FEF7B7FC0020A9
:103AA00010BD0000A16700082E2E5C6D7174746358
:103AB0006C69656E745C6D717474636C69656E7449
:103AC0005C6D717474636C69656E742E63000000C4
:103AD00025733A256420257328292E2E2E2063680D
:103AE00065636B20666F72206572726F722E0000C4
:103AF0000A00000070B5044654300D46064600F03A
:103B00000FFD84F84C503046BDE8704000F010BD09
:103B100010B510B1C160084610BD064B40F2874297
:103B200005A10FA0FEF772FC15A0FEF76FFC0020A8
:103B300010BD0000D96700082E2E5C6D717474638F
:103B40006C69656E745C6D717474636C69656E74B8
:103B50005C6D717474636C69656E742E6300000033
:103B600025733A256420257328292E2E2E2063687C
:103B700065636B20666F72206572726F722E000033
:103B80000A00000010B510B18160084610BD064B58
:103B900040F2864205A10FA0FEF738FC15A0FEF703
:103BA00035FC002010BD0000C76700082E2E5C6D9C
:103BB000717474636C69656E745C6D717474636C3C
:103BC00069656E745C6D717474636C69656E742E76
:103BD0006300000025733A256420257328292E2EC2
:103BE0002E20636865636B20666F72206572726F4A
:103BF000722E00000A00000010B510B101610846E5
:103C000010BD064B4FF4916205A10FA0FEF7FEFB1D
:103C100015A0FEF7FBFB002010BD0000E7670008C1
:103C20002E2E5C6D717474636C69656E745C6D715D
:103C30007474636C69656E745C6D717474636C69C3
:103C4000656E742E6300000025733A256420257389
:103C500028292E2E2E20636865636B20666F7220E4
:103C60006572726F722E00000A00000010B510B16C
:103C70004160084610BD064B40F2854205A10FA0E9
:103C8000FEF7C4FB15A0FEF7C1FB002010BD00002D
:103C9000B46700082E2E5C6D717474636C69656E78
:103CA000745C6D717474636C69656E745C6D717451
:103CB00074636C69656E742E6300000025733A2589
:103CC0006420257328292E2E2E20636865636B20BF
:103CD000666F72206572726F722E00000A0000001B
:103CE0004FF47A71484300F0A2BD000030B587B0B0
:103CF000044600200490029003902046FFF72CFA1F
:103D000000280DD1216BE069CDE9000102AB04AAC6
:103D1000012105A8FDF798FD012803D06FF00C00E4
:103D200007B030BD0298802815D0002503ABBDF840
:103D3000142009212046FEF76BFF039868B17DB17E
:103D4000FFF7ABFA11A0FEF761FB1748FEF75EFB29
:103D50006FF00E00E4E70125E8E76FF00200DFE70F
:103D6000054644B129462046FFF7A2FA30B128465D
:103D7000FFF793FA07E06FF00100D1E704F1580173
:103D80002846FFF770FA0020CAE7000073756273D7
:103D9000637269626520746F706963206661696C23
:103DA00065642E2E2E0000001C3F00082DE9FF4FF9
:103DB00087B00546002004900391059095F84C00CB
:103DC0001F4688466FF01304012803D0A01D0BB0D6
:103DD000BDE8F08F2846FFF72AF9824605F150002A
:103DE000834600F09DFB09AA03A901208DE8070086
:103DF00053460022696B286AFDF720FF061E1DDD71
:103E0000014606AA2846FFF7CBFD040016D107B9E4
:103E10000E4F9DF82490142000F066FB040012D091
:103E2000FFF731FA84F80890C4E90387B3B2524629
:103E3000092128460094FEF757FE0446584600F034
:103E400077FB2046C3E76FF00204F7E7212900085B
:103E500070B5044654300025064600F061FBA06AA8
:103E6000010A02D0A0F58070A062304600F060FB2D
:103E7000284670BD38B5054690F84C006FF0030435
:103E800001280CD02846FEF728FF040007D1284659
:103E900000F046F8044600212846FEF77CFE60420A
:103EA0000090064B40F25B2205A10FA0FEF7AEFA90
:103EB0001AA0FEF7ABFA204638BD0000C76600081E
:103EC0002E2E5C6D717474636C69656E745C6D71BB
:103ED0007474636C69656E745C6D717474636C6921
:103EE000656E742E6300000025733A2564202573E7
:103EF00028292E2E2E206D717474207472792063FF
:103F00006F6E6E65637420726573756C742069736F
:103F1000202D307825303478000000000A000000A1
:103F20002DE9F04106466FF01405184B40F23D2292
:103F300017A121A0FEF76AFA29A0FEF767FA06F199
:103F400058000746FFF7A2F910B10020BDE8F08144
:103F5000B06D40F24728046814E0D0E90313027AF8
:103F60003046FFF723FF054610F1160F08D1074B27
:103F7000424607A11BA0FEF749FA19A0FEF746FA30
:103F800020462468B842E8D12846DFE7B266000838
:103F90002E2E5C6D717474636C69656E745C6D71EA
:103FA0007474636C69656E745C6D717474636C6950
:103FB000656E742E6300000025733A256420257316
:103FC00028292E2E2E206D7174742074727920721F
:103FD00065737562736372696265202E2E2E000010
:103FE0000A00000025733A256420257328292E2E07
:103FF0002E206D7174742061636B2068616E646C37
:104000006572206E756D20746F6F206D756368200A
:104010002E2E2E0070B50D4604000CD0206A08B17B
:1040200000F06DFA6563022D11D96FF07040854282
:104030000DD228460EE0114B4FF4886210A11AA051
:10404000FEF7E4F920A0FEF7E1F9002070BD4FF47F
:104050008060606300F048FA206208B1606B70BD58
:10406000064B40F24E4206A118A0FEF7CFF916A06B
:10407000FEF7CCF96FF0020070BD00008167000808
:104080002E2E5C6D717474636C69656E745C6D71F9
:104090007474636C69656E745C6D717474636C695F
:1040A000656E742E6300000025733A256420257325
:1040B00028292E2E2E20636865636B20666F722080
:1040C0006572726F722E00000A00000025733A2597
:1040D0006420257328292E2E2E206D616C6C6F6351
:1040E00020777269746520627566206661696C6507
:1040F000642E2E2E00000000F8B50E4605004FF08D
:10410000000401D01EB103E04FF0FF30F8BDEE6AAD
:10411000684600F071FB3146684600F065FB31E00F
:1041200095F94C00032810D0012813D0AA6F12B1C2
:104130002846A96990472846FFF79CFE40B1A86B26
:10414000FFF7CEFD6FF00F00F8BD6FF01700F8BD60
:10415000044617E069462846FFF7FAF8040004D43D
:1041600001212846FEF717FD0CE014F10E0F0ED1C9
:10417000084B40F2993208A111A0FEF747F918A0A8
:10418000FEF744F9684600F03AFB0028C8D0204604
:10419000F8BD0000DD6600082E2E5C6D717474633E
:1041A0006C69656E745C6D717474636C69656E7452
:1041B0005C6D717474636C69656E742E63000000CD
:1041C00025733A256420257328292E2E2E206D7103
:1041D0007474206E6F7420636F6E6E65637400007C
:1041E0000A00000070B5044690F84C0001280CD07D
:1041F0001C4B40F2AB321CA125A0FEF707F932A000
:10420000FEF704F9E06E00F0ECFA40F2B735204614
:10421000E16AFFF771FF10F1180F0BD01030F6D1E3
:10422000104B2A4610A129A0FEF7F0F826A0FEF7B1
:10423000EDF8ECE70B4B40F2B2320BA12EA0FEF7EB
:10424000E5F821A0FEF7E2F8A06E00F087F820461E
:10425000FEF703FD0021E06EE166BDE8704000F06E
:1042600095BA0000E86600082E2E5C6D71747463C8
:104270006C69656E745C6D717474636C69656E7481
:104280005C6D717474636C69656E742E63000000FC
:1042900025733A256420257328292E2E2E2C206D77
:1042A000717474206973206E6F7420636F6E6E6515
:1042B0006374656420746F2074686520736572761A
:1042C00065722E2E2E0000000A00000025733A258C
:1042D0006420257328292E2E2E2C206D71747420B5
:1042E0007265636F6E6E6563742074696D656F755A
:1042F000742E2E2E2E00000025733A25642025737F
:1043000028292E2E2E2C206D71747420636C65610B
:104310006E2073657373696F6E2E2E2E2E00000053
:1043200010B504460022D4E9000100F02BF9A0608A
:10433000002800DB002010BD10B5040002D0A068EA
:1043400000F012F94FF0FF30A06010BD806800F05F
:10435000B3B9806800F0C4B9FFF7E2BFFFF7ECBF64
:1043600028B14FF0FF3380E80E00002070476FF057
:1043700001007047FFF7EABF10B5044680680028C7
:1043800002DB2046FFF7D8FF002020606060A060BD
:1043900010BDFFF7DEBF000010B5EFF3058149B98E
:1043A000EFF3108131B908490968022905D1EFF30B
:1043B000118111B16FF0050403E0002408B101F090
:1043C000BFF8204610BD000064000020EFF3058018
:1043D00058B9EFF3108040B909490868022801D0A4
:1043E00030B109E0EFF3118030B16FF00500704794
:1043F00001200860002070474FF0FF307047000038
:104400006400002010B5EFF3058060B9EFF3108071
:1044100048B90B490868022802D0012806D00BE0F1
:10442000EFF3118040B16FF0050010BD022008606D
:1044300001F0BCF9002010BD4FF0FF3010BD0000AE
:1044400064000020F0B585B04FEA01034FF000048E
:10445000EFF305810394A1BBEFF3108189BB2149E0
:104460000968022902D1EFF3118151BB48B38026BC
:1044700018218DF8104004AD42B3176807B13D46CE
:1044800097691FB139467F1E382F02D21779FF076F
:1044900002D0002005B0F0BD576907B1BE08D2F8C0
:1044A00008C0BCF1000F0DD0D4685C2C18D3126981
:1044B0003AB137B18DE806103246294601F091FE37
:1044C00003900DE0D7685FB912694AB903AACDE934
:1044D0000012B2B2294601F057FE012800D0039421
:1044E0000398D7E76400002070B5054600F05EFD34
:1044F000040002D02946FBF7C0FE204670BD00F044
:104500007FBF10B5044603220021012001F0B2FA5A
:1045100000231A461946206001F048FB002010BD18
:1045200000684FF0FF3101F039BD006801F036BD81
:10453000002300681A46194601F038BB10B5006820
:10454000074901F041FC0648006838B105494FF0C1
:1045500080500860BFF34F8FBFF36F8F012010BDF5
:104560009800002004ED00E000224FF4FA631146A9
:1045700001A0FBF7B5BF000041542B434950434C09
:104580004F5345002DE9F0419AB015460F4680463D
:1045900042F210764FF4FA640022234611461AA024
:1045A000FBF79EFF010002D01AA0FDF72FFF0022AB
:1045B000334611461DA0FBF793FF010003D023A053
:1045C000FDF724FFE8E700222346114625A0FBF76C
:1045D00087FF3B4642468DB125A16846FDF726FF81
:1045E000002244F6206311466846FBF779FF02007B
:1045F00006D0694625A0FDF709FFCDE727A1ECE726
:104600001AB00020BDE8F08141542B43574D4F4470
:10461000453D310041542B43574D4F44453D3120DA
:10462000657272203D2025640D0A000041542B4321
:10463000574A41503D225732303133313448222CD1
:1046400022686567756F62616F220000636F6E6E2E
:1046500065637420415020657272203D2025640DF1
:104660000A00000041542B434950434C4F5345002E
:1046700041542B43495053544152543D22554450C8
:10468000222C222573222C2573000000257320651F
:104690007272203D2025640D0A00000041542B4316
:1046A000495053544152543D22544350222C222508
:1046B00073222C25730000002DE9F0411F4615469A
:1046C0000E46002408E030193946FBF775FE10B19C
:1046D0000020BDE8F081641CAC42F4DB2846F8E71A
:1046E000F0B59FB00F461E46154614A119A8FDF758
:1046F0009DFE33466422694619A8FBF7F1FE0400CB
:104700000BD000208DF863003346224619A90FA074
:10471000FDF77CFE694614A008E03246294638467B
:10472000FBF70CFF040006D0014612A0FDF76EFE59
:1047300020461FB0F0BD2846FBE7000041542B4344
:10474000495053454E443D256400000025732065C3
:104750007272203D2025642C2074696D656F75741C
:10476000203D2025640D0A0072657370203A2025D3
:10477000730D0A00415453656E6444617461206591
:104780007272203D2025640D0A00000010B504005F
:1047900002D0206800F0FAFE2046BDE81040FFF786
:1047A000AEBE2DE9FC4707461D4616468946042045
:1047B000DDF82880FFF798FE0446CDE90084AAB210
:1047C00033463946484601F0DFFC0128204602D036
:1047D000FFF795FE0020BDE8FC87006800F0A8BF49
:1047E0007047006801F026B870B50C46054601F028
:1047F00031FD2044286070BD00210160704710B574
:10480000044601F027FD2168884201D9012010BD2E
:10481000002010BD01F01EBD10B5044601F01AFDC8
:104820002168814201D8002010BD081A10BD00F097
:1048300087BE00002DE9F041134C0F46054666691E
:104840002068001D00F04CFD681C07D137B12168BD
:10485000BDE8F0410D48091D00F092BD20683544C7
:10486000B5424560216805D2A068BDE8F041091D48
:1048700000F06EBD6068091D00F06AFD206B854286
:1048800000D22563BDE8F08114000020840A0020D6
:104890002DE9F041054600F07FFD2D4C2069401CBC
:1048A000206120682B4F10B1E06930B32BE0256008
:1048B0002069012827D1002606EB860007EB80003F
:1048C00000F038FD761C382EF6D3234800F032FD78
:1048D0002148143000F02EFD1F48283000F02AFD3A
:1048E0001D483C3000F026FD1B48503000F022FDF2
:1048F000194860601430A06005E02068E96AC06A69
:10490000884200D82560E06A401CE0626864E86A7A
:10491000A169884200D9A06100EB800007EB80000C
:10492000291D00F02DFD00F057FDE06900280CD096
:104930002068E96AC06A884207D208494FF080506F
:104940000860BFF34F8FBFF36F8FBDE8F0810000A9
:1049500014000020D4050020340A002004ED00E0FB
:1049600038B500F019FD104CA068C8B90F4800F028
:10497000E1FC0E48143000F0DDFC0C4820601430DF
:1049800060600A4B00202833009003F15002102190
:104990000A2001F093F8A06010B105A100F09AFD83
:1049A000BDE8384000F018BD50000020980A0020F3
:1049B000546D72510000000030B4026C0B46002AA6
:1049C0000BD0C1681144C1604468A14201D30168A1
:1049D000C16030BC1846FBF737BC30BC70472DE9CE
:1049E000F041856B174604460026026C82B1C7B1C0
:1049F000E068FBF729FCE168206C091AE160226895
:104A0000914202D26168081AE060022F16D017E0C6
:104A10002068A8B9606801F087FC06460020606045
:104A20000EE0A068FBF710FC216CA0680844A060B1
:104A30006168884204D32068A06001E005B16D1E62
:104A40006D1CA5633046BDE8F08110B5044690F8B2
:104A5000590058B101280CD002280FD0502080F303
:104A60001188BFF34F8FBFF36F8FFEE7206B00F00D
:104A7000C7FC2046BDE8104000F0C2BC10BD0000DD
:104A800010484FF42041420706D0C01D0D4920F0C8
:104A90000700411AC1F520410B4A00230144C2E935
:104AA00000030839103A21F0070111604B600B60D8
:104AB0000B1AC0E9001393604FF000405360D060C0
:104AC000704700006812002078000020144E154C3A
:104AD000A6F29C474FF08058DFF84C9012E000BFE0
:104AE00000F05AFCF068C568281D00F0F9FB206949
:104AF000401E2061E068401EE06000F06DFC28462A
:104B0000FFF7A3FFE0680028EAD138680128F9D947
:104B1000C9F80080BFF34F8FBFF36F8FF2E700003B
:104B2000700A00201400002004ED00E070B51D465E
:104B3000049C51B1C4F80020C4E90F0101212046B2
:104B400000F0F0FF84F84C5070BD2460F4E72DE9CC
:104B5000F0470E46DDE909841746824691009946E2
:104B6000089DA522206BFBF781FB6FF00301206BF2
:104B700001EB8701084420F00707780707D0502091
:104B800080F31188BFF34F8FBFF36F8FFEE72218BA
:104B9000315C82F83410315C11B1401C1028F6D31E
:104BA000002684F84360382D00D33725E562C4E938
:104BB0001356201D00F0C9FB04F1180000F0C5FBDE
:104BC0002461C5F138006462A061666584F85860AC
:104BD0004A465146384600F061FA2060B8F1000FAD
:104BE00001D0C8F80040BDE8F087000030B5114999
:104BF00000E011460A688242FBD34B685C1884428D
:104C000003D1406818444860084643681C18944221
:104C100009D1084C103C2468A24209D052681A44B9
:104C200042600A6812680260814200D0086030BDAC
:104C30000460F9E77800002070B5002441600B4D56
:104C40000061914206D8D11A8269914206D2011DB3
:104C5000686807E09A4203D2994201D3012403E035
:104C6000011D286800F074FB204670BD5000002034
:104C700010B5044600F090FBA06B28B15FF0000473
:104C800000F0AAFB204610BD0124F9E730B589B039
:104C9000304D55E00498002806DADDE90601059A52
:104CA0009047049800284BDB069C606910B1201DDA
:104CB00000F016FB02A800F0B9F8024604980A2892
:104CC0003ED2DFE800F00505053D263705053D2607
:104CD0000598A169034601442046FFF7ADFF00B3E4
:104CE000616A20468847E069012829D100200090A8
:104CF0000598A169002342181946204601F05AFC84
:104D000078B9502080F31188BFF34F8FBFF36F8FB6
:104D1000FEE70598A06128B1811813462046FFF7E9
:104D20008BFF0DE0502080F31188BFF34F8FBFF34E
:104D30006F8FFEE794F82C0010B9204600F060FB5E
:104D4000002204A9A86801F08DF80028A2D109B0BA
:104D500030BD0000500000202DE9FC410F46054603
:104D600000F0B6FD01A800F061F80446019818B102
:104D700001F08EFBBDE8FC81224EAFB17068006887
:104D8000A8B30027291B3A46B06800F0B7FB01F032
:104D90007FFB0028EED11C494FF080500860BFF324
:104DA0004F8FBFF36F8FE5E7A542EBD801F070FBA3
:104DB00030682746C068C468201D00F091FAE06999
:104DC000012810D1A0692B4641193A462046FFF729
:104DD00033FF40B100200346014600902A4620469A
:104DE00001F0E8FB20B1616A20468847C2E707E08E
:104DF000502080F31188BFF34F8FBFF36F8FFEE712
:104E00000127BFE75000002004ED00E0064841689C
:104E1000096829B14168C968C96849680163704770
:104E20004FF0FF31FAE700001400002070B505468E
:104E300001F010FA064E04463069844203D200F0B5
:104E400009F8012000E0002028602046346170BD90
:104E500050000020F8B5194D1FE0C068C46806680E
:104E6000201D00F03DFA616A20468847E06901286C
:104E700013D1A0693044B04206D924616060211D7D
:104E8000286800F065FA08E000200346014600901B
:104E90003246204601F08EFB38B1286801680029AF
:104EA000DBD16968C5E90010F8BD502080F3118896
:104EB000BFF34F8FBFF36F8FFEE70000500000205D
:104EC00008484068401C4FF0500080F3118804D01F
:104ED000BFF34F8FBFF36F8FFEE7BFF34F8FBFF36B
:104EE0006F8FFEE780000020002150B10A4B42691D
:104EF0009A420FD1806AA3F1280290420AD040B1B1
:104F000008E0502080F31188BFF34F8FBFF36F8FFD
:104F1000FEE7012108467047840A0020074C2068FC
:104F2000016841B1C0680021D0F80000FFF714FF0C
:104F3000FFF7ACFEF3E701210020F7E75000002067
:104F40002DE9F041044600F027FA94F9455004F1A8
:104F5000240609E0606A48B1304601F061FA08B100
:104F600000F064FB6D1E6DB2002DF3DC4FF0FF36D8
:104F700084F8456000F030FA00F00EFA94F94450DD
:104F800004F1100709E0206948B1384601F048FAF9
:104F900008B100F04BFB6D1E6DB2002DF3DC84F800
:104FA0004460BDE8F04100F017BA00002DE9F0417F
:104FB0000546002700F08CFC314E306808B9FFF739
:104FC0005FFDF06805424BD1C5B3083568070ED0C8
:104FD00005F00700C0F108000544680707D050201D
:104FE00080F31188BFF34F8FBFF36F8FFEE72DB3B0
:104FF0007068854234D82248103001460C6801E0C0
:1050000020460C466168A94202D221680029F7D1E6
:1050100031688C4224D007682168016060680837D5
:10502000411B10290FD96019420708D0502080F386
:105030001188BFF34F8FBFF36F8FFEE710E0416021
:105040006560FFF7D3FD61687068401A7060B268F0
:10505000904200D2B060F06801430020C4E9000132
:1050600001F016FA780707D0502080F31188BFF3BB
:105070004F8FBFF36F8FFEE73846BDE8F081000029
:10508000680000200449086818B10868026D521CC5
:1050900002650868704700001400002010B5031F67
:1050A0004FF080741C601B1F21F001011960191F53
:1050B000024B0B60143940380A6010BDC14E000825
:1050C00070B5FFF7A7FB094A0324116880EA0103C2
:1050D000B3FBF4F504FB153320FA03F31944116014
:1050E000BDE870404840FDF75DBC00009000002026
:1050F0002DE9F05F0746401CFFF7F6F906000CD0DB
:10510000FFF7DEFF86EA000108448146FDF74AFC0E
:105110000024A2464FF01A0B32E00020BDE8F09FB9
:1051200089EA0000FDF73EFC05460320B5FBF0F1DF
:1051300000FB1150B0F1000806D001280DD0B8F1E5
:10514000020F23D0782012E02846FDF72BFC90FBBD
:10515000FBF20BFB1200413009E004F00100684053
:10516000FDF720FC90FBFBF20BFB120061300D49B8
:10517000305585EA010004EA080188402844641C8F
:10518000BC42CDD306F807A03046C7E704F00200C2
:105190006840FDF707FC0A2190FBF1F201FB1200C9
:1051A0003030E4E7C6E533B4016811F8012B016043
:1051B0001046704701684A7811F8023B016002EB23
:1051C000032210467047F0B5054608680026101AFD
:1051D00017460C4601280CDD0846FFF7EBFF686018
:1051E00021680A18BA4204D8A96021680126084437
:1051F0002060002028603046F0BD0021C0F8001477
:10520000C0F804147047D1F80424D1F800349A424D
:1052100002D14FF0FF307047D1F804248A5C02704D
:10522000D1F80404401CC0F30900C1F804040020B4
:105230007047D1F80024D1F80434521CC2F309029B
:10524000934204D0D1F80034C854C1F80024704708
:105250001CB50C460D48FDF7D9F80DA0FDF7D6F8A2
:10526000206C0C4B40F20D12C0680BA1CDE9004040
:1052700011A0FDF7CBF806A0FDF7C8F80348FDF72D
:10528000C5F8BDE81C4002A0FDF7C0B8006A0008E0
:105290000D0A0000386900082E2E5C6D717474636D
:1052A0006C69656E745C61745C61745F636F6D6D75
:1052B000616E642E6300000025733A256420257317
:1052C00028292E2E2E0D0A746F7069633A202573DB
:1052D0000D0A6D6573736167653A25730000000000
:1052E000D0E9013201699A60D0E901235A604A6825
:1052F000824201D182684A60002202610868401E31
:105300000860086870470000034B036003F15C000D
:105310000860802010607047B00B0020044B0360D1
:1053200003F15C0008604FF480701060704700006B
:105330000C0E002000F108014FF0FF32C0E901120D
:10534000C160016100210160704700210161704767
:1053500030B50B685A1C02D000F1080202E0026965
:1053600004E02246546825689D42FAD953684B6090
:1053700099608A60516008610168491C016030BD14
:1053800042684A6093688B609368596091600861D5
:105390000168491C01607047502080F31188BFF3F9
:1053A0004F8FBFF36F8F0A494868401C486001283F
:1053B0000CD10848006810F0FF0F07D0502080F390
:1053C0001188BFF34F8FBFF36F8FFEE77047000068
:1053D0008000002004ED00E00849486828B1401E24
:1053E000486001D180F311887047502080F3118804
:1053F000BFF34F8FBFF36F8FFEE7000080000020E8
:1054000070B5002827D0144DA0F108046168E86841
:10541000014207D1502080F31188BFF34F8FBFF3B3
:105420006F8FFEE722683AB1502080F31188BFF3F6
:105430004F8FBFF36F8FFEE78143616000F048FA42
:1054400060686968084468602046FFF7CFFBBDE8E4
:10545000704001F01DB870BD680000204FF0E020E2
:1054600000210161816105494FF47A720968B1FB3D
:10547000F2F1491E416107210161704710000020CF
:1054800010B5FAF7A9FE114910280ED300F1E0205B
:1054900090F8F0030A78904207D2502080F31188E8
:1054A000BFF34F8FBFF36F8FFEE70948006889682D
:1054B00000F4E060884207D9502080F31188BFF3E0
:1054C0004F8FBFF36F8FFEE710BD000080000020FC
:1054D0000CED00E010B5084B002200BF53F832403D
:1054E0001CB1521C082AF9D310BD43F8321003EB4B
:1054F000C201486010BD00009405002070B515463B
:105500000E460446FFF748FF94F944100020491C5A
:1055100001D184F8440094F94510491C01D184F864
:105520004500FFF759FFA06B28B92A46314604F120
:10553000240000F099F82046BDE87040FFF700BD58
:1055400010B5020014D00F48806B38B1502080F3A2
:105550001188BFF34F8FBFF36F8FFEE700F0B8F9EC
:1055600000211046FFF766F900F092FF002807D1EE
:1055700005494FF080500860BFF34F8FBFF36F8F26
:1055800010BD00001400002004ED00E070B50546D9
:10559000FFF702FF1E4C05B92568281DFFF7A0FE86
:1055A000A86A18B105F11800FFF79AFEE06A401CDE
:1055B000E0622068854207D1291D1648FFF7E0FE0A
:1055C000E068401CE06007E02069401E206128463A
:1055D000FFF73BFAFFF71AFCFFF7FEFEE069002831
:1055E00014D02068854211D1A06B38B1502080F3CF
:1055F0001188BFF34F8FBFF36F8FFEE706494FF05F
:1056000080500860BFF34F8FBFF36F8F70BD0000F5
:1056100014000020700A002004ED00E002498A6AAC
:10562000026049694160704714000020014901206F
:10563000486270471400002010B50C4650B109496B
:1056400009681831FFF784FE2046BDE810400121AB
:10565000FFF7F0B8502080F31188BFF34F8FBFF3EE
:105660006F8FFEE71400002070B514460D4668B138
:105670000A4909681831FFF783FE0CB14FF0FF3576
:1056800021462846BDE87040FFF7D4B8502080F38B
:105690001188BFF34F8FBFF36F8FFEE71400002018
:1056A00070B504003ED0226DA2B1E06C884200D3F8
:1056B0000146E06A884235D0012A33D11A4D2A6862
:1056C00094420FD1502080F31188BFF34F8FBFF366
:1056D0006F8FFEE7502080F31188BFF34F8FBFF329
:1056E0006F8FFEE7E162A269002A02DBC1F1380197
:1056F000A1610E4E00EB8000616906EB80008142E3
:1057000010D1201DFFF7ECFDE06AA969884200D99D
:10571000A86100EB800006EB8000211DBDE8704011
:10572000FFF72EBE70BD000014000020D40500203D
:1057300070B504002AD01A4D286884422ED0FFF795
:105740002BFE2046FFF7D0FBE0B1201DFFF7C8FD80
:10575000E06AA969884200D9A861124900EB80007B
:1057600001EB8000211DFFF70BFEE06A2968C96A82
:10577000884207D30C494FF080500860BFF34F8F29
:10578000BFF36F8FBDE87040FFF726BE502080F357
:105790001188BFF34F8FBFF36F8FFEE770BD00001E
:1057A00014000020D405002004ED00E030B587B0DF
:1057B0000024039405AA04A903A80494FFF7A4FDF8
:1057C000DDE903010094CDE90110002315A117487C
:1057D000059A00F006FD164D002868631FD000F002
:1057E000B9FE012809D0401C19D1502080F311883E
:1057F000BFF34F8FBFF36F8FFEE7502080F3118808
:10580000BFF34F8FBFF36F8F4FF0FF30286301203E
:10581000E8616C6107B0BDE8304000F0D7B807B070
:1058200030BD000049444C4500000000CD4A00084E
:105830001400002070B50446FFF7AEFD214D04B9F9
:105840002C68201DFFF74CFDA06A18B104F1180068
:10585000FFF746FD211D1C48FFF792FD94F8580004
:105860000026012801D184F85860FFF7B5FDE869EA
:1058700028B1FFF791FDFFF7C9FAFFF7ADFD2868E2
:10588000844213D1E86990B1A86B38B1502080F3FD
:105890001188BFF34F8FBFF36F8FFEE70B494FF0B7
:1058A00080500860BFF34F8FBFF36F8F70BD064805
:1058B00000682969884201D12E6070BDBDE8704042
:1058C00000F00EB814000020840A002004ED00E06F
:1058D0000248816B491C816370470000140000205E
:1058E000164810B5816B11B10121416210BD002134
:1058F00041628169124A01E0B9B1491E01EB81039D
:1059000052F82330002BF7D001EB810302EB830226
:1059100002F1080453685B685360A34201D15B68DD
:105920005360DA680260816110BD502080F31188F5
:10593000BFF34F8FBFF36F8FFEE70000140000200E
:10594000D405002070B504460E460846FAF7B2FCAE
:1059500005460146204600F00FF82A4631462068E9
:10596000FAF772FC20682844206070BD026811704C
:105970000168491C0160704710B5CA17046801EB43
:1059800012631A0A22700268521C026011700168C8
:10599000491C016010BD70B5141E1E4605460BDD86
:1059A0001146FFF7E9FF224631462868FAF74CFC1A
:1059B00028682044286070BD19B1BDE87040FFF729
:1059C000C1BFBDE870400021FFF7D6BF1CB5264916
:1059D00008780190FF20087008788DF800009DF885
:1059E00000009DF8002000F0F000904207D0502009
:1059F00080F31188BFF34F8FBFF36F8FFEE79DF8E1
:105A000000001A4B00F0500018700720986005E065
:105A10009DF8002052008DF80020401E9DF80020C7
:105A20001206F5D49860032807D0502080F311881F
:105A3000BFF34F8FBFF36F8FFEE74FF44070986056
:105A4000019808700A48016841F47001016001681A
:105A500041F070410160FFF701FD00205860FAF746
:105A600085FB00201CBD000000E400E08000002059
:105A700020ED00E0F8B517460E46050014D0DEB163
:105A800005FB06F05030FFF791FA04000AD0002021
:105A900084F8460004F150023B4631462846009403
:105AA000FFF744F82046F8BD502080F31188BFF37B
:105AB0004F8FBFF36F8FFEE70020E3E738B5049DFB
:105AC00018B153B1CAB181B120E0502080F31188E0
:105AD000BFF34F8FBFF36F8FFEE7502080F3118825
