:020000040800F2
:100000004828002085020008E7180008E7170008C4
:10001000E5180008610800089D1C000800000000A9
:10002000000000000000000000000000BD0100080A
:100030006308000800000000350200087102000893
:100040009F0200089F0200089F0200089F0200080C
:100050009F0200089F0200089F0200089F020008FC
:100060009F0200089F0200089F0200089F020008EC
:100070009F0200089F0200089F0200089F020008DC
:100080009F0200089F0200089F0200089F020008CC
:100090009F0200089F0200089F0200089F020008BC
:1000A0009F0200089F0200089F0200089F020008AC
:1000B0009F0200089F0200089F0200089F0200089C
:1000C0009F0200089F0200089F0200089F0200088C
:1000D0009F020008911C00089F0200089F02000870
:1000E0009F0200089F0200089F0200089F0200086C
:1000F0009F0200089F0200089F0200089F0200085C
:100100009F0200089F0200089F0200089F0200084B
:100110009F0200089F0200089F0200089F0200083B
:100120009F0200089F0200089F0200089F0200082B
:10013000DFF81CD000F010FB03F012F80021034898
:1001400003F062F803F01EF8FEE70000C442000866
:100150004828002080F309887047EFF30980704732
:10016000684680F3098804480078C00714BF02205D
:10017000032080F314887047B0420008DFF818C0ED
:10018000EFF305831B0618BF6047EFF31483DB070B
:1001900008BF604700DF7047B3320008DFF818C0BF
:1001A000EFF305831B0618BF6047EFF31483DB07EB
:1001B00008BF604700DF704791340008EFF3098003
:1001C000816911F8021CF1B990E80F10E047EFF3D4
:1001D000098C8CE80700144B93E8060091420FD07D
:1001E00039B12CE9F00FC1F828C00CB403F044FC7D
:1001F0000CBC1A60D2F828C0BCE8F00F8CF3098858
:100200006FF0020E704710B5084A1268914209D883
:10021000074C54F8214090E80F10A047EFF3098CE9
:100220008CE80F0010BD00005C0000205C08000896
:100230005C08000803F0F2FA0C4B93E806009142C8
:1002400010D0EFF3098C2CE9F00FC1F828C00CB4E2
:1002500003F012FC0CBC1A60D2F828C0BCE8F00F06
:100260008CF309886FF0020E704700005C000020DC
:1002700003F0CAFCE0E7000003F01AF803F0C4FC46
:10028000DAE700000648804706480047FEE7FEE739
:10029000FEE7FEE7FEE7FEE7FEE7FEE7FEE7FEE736
:1002A00047190008310100082DE9F05F05460020DC
:1002B00092469B4688460646814640241BE02846D7
:1002C00041464746224600F020F853465A46C01A97
:1002D000914110D311461846224600F076F82D1AA7
:1002E00067EB01084F4622460120002100F06DF81F
:1002F00017EB00094E41201EA4F10104DFDC484643
:1003000031462A464346BDE8F09F202A04DB203AC6
:1003100021FA02F00021704721FA02F3D040C2F125
:1003200020029140084319467047D2B201E000F81C
:10033000012B491EFBD270470022F6E710B5134689
:100340000A4604461946FFF7F0FF204610BD30B5B7
:1003500005462A460B4612F8010B13F8014B08B16B
:10036000A042F8D01CB1002802D06D1CF1E728464D
:1003700030BD421C10F8011B0029FBD1801A7047C8
:1003800030B505460020034600E05B1C934205D2D1
:10039000EC5CC85C201A01D1002CF6D130BD30B520
:1003A0000B46014600202022012409E021FA02F533
:1003B0009D4205D303FA02F5491B04FA02F52844CD
:1003C000151EA2F10102F1DC30BD202A04DB203A27
:1003D00000FA02F1002070479140C2F1200320FA98
:1003E00003F31943904070472DE9FE4F804681EAA0
:1003F0000300C00F0C46009021F0004123F000459F
:10040000B8EB0200A94105D24046214690461C4661
:100410000B46024623F00040104347D0270DC7F398
:100420000A00C3F30A510290401A019040286BDA87
:10043000C3F3130040F4801B0098924620B10023C0
:10044000D2EB030A63EB0B0B01985946C0F1400253
:100450005046FFF7BAFF06460D4650465946019AE8
:1004600000F08CF910EB08006141002487EA11527A
:1004700084EAE7731A4340D0009A62B3019A012AD2
:100480004FEA075215DC001B61EB02014FF00042FE
:1004900002EA0752CDE90042001C41F580113246C4
:1004A0002B4600F08CF903B0BDE8F08F40462146A2
:1004B000F9E7001B61EB0201001C41F580130018F5
:1004C0005B412018A2F5001747EB030140EAD57005
:1004D000B6196D4111E06D084FEA360645EAC07560
:1004E0004FEA0752001B61EB0201001C41F580112D
:1004F00049084FEA30000019514132462B4603B0FB
:10050000BDE8F04F00F04CB90098012240000023F4
:10051000D0EB020263EBE073009821464FEAE074EF
:10052000B8EB000061EB0401E9E783F000435BE70F
:1005300081F0004158E72DE9FE4F81EA030404F001
:10054000004421F0004100944FF0000B23F00043E1
:1005500050EA01045ED052EA03045BD0C3F30A54AC
:10056000C1F30A552C44A4F2F3340194A0FB0254C5
:10057000C1F3130141F48011C3F3130343F4801357
:1005800001FB024400FB034E840A970A44EA8154AB
:1005900047EA8357A4FB076802958D0A05FB078588
:1005A0004FEA932C04FB0C542705029D4FEA065892
:1005B00047EA1637B5EB08056EEB070C870E920E6F
:1005C00047EA811742EA8312A7FB0201B6EB0B014F
:1005D00064EB00042B0D43EA0C335E1844EB1C5013
:1005E000DA465146E7FB0201C5F313044FEA0B3329
:1005F00043EA14534FEA0432019C43EA0603A4F190
:100600000C040294009CCDE900B400F0D8F803B0CB
:10061000BDE8F08F00200146F9E72DE9F04D81EAB1
:10062000030404F0004B21F0004514464FF0000A8B
:1006300023F0004150EA050220D054EA01021DD007
:10064000C5F30A570246C5F31303C1F31300C1F300
:100650000A5640F4801543F48013A7EB0608101BDC
:10066000D64608F2FD3873EB050002D308F1010805
:1006700001E092185B41B8F1000F03DA0020014657
:10068000BDE8F08D00204FF48011064684460EE050
:10069000171B73EB050705D3121B63EB050306431A
:1006A0004CEA010C49084FEA300092185B4150EACD
:1006B0000107EDD152EA030012D082EA040083EA76
:1006C0000501084305D0101BAB4106D201220023CF
:1006D00006E000224FF0004302E06FF001025310E9
:1006E0001AEB06004CEB085110EB0A0041EB0B0132
:1006F000BDE8F04D00F054B8C1F30A52C1F3130144
:1007000040F2FF3341F480119A4202DA00200146A0
:10071000704740F233439A42A2F2334202DC524223
:10072000FFF7F3BDFFF751BE30B5041E71F10004B1
:1007300004DB4FF00044404264EB0101141E73F1EE
:10074000000405DB1C464FF00043524263EB0403F8
:10075000994208BF904230BD064C074D06E0E06864
:1007600040F0010394E8070098471034AC42F6D3F8
:10077000FFF7E2FC4843000868430008202A06DB34
:10078000CB17203A41FA02F043EAE07306E041FA5F
:1007900002F3D040C2F1200291400843194670474D
:1007A00010B5141E73F1000408DA401C41F1000179
:1007B00092185B411A4301D120F0010010BD2DE9D0
:1007C000F04D92469B4611B1B1FA81F202E0B0FAC7
:1007D00080F220329046FFF7F8FD04460F4640EACB
:1007E0000A0041EA0B0153465A46084313D011460A
:1007F00053EA010019D0C8F140025046FFF785FDC9
:1008000005460E46504659464246FFF7DEFD084370
:1008100005D0012004E020463946BDE8F08D0020D7
:10082000054346EAE0762C4337430A986305E40A19
:10083000A0EB08000022FD0A44EA47540A3002D522
:1008400000200146E9E7010510196941DDE9084585
:1008500000196941BDE8F04DA2E70000000000006A
:10086000FEE7704710B590F821100022022905D04C
:100870000421816380F82020012010BD01680B68ED
:1008800023F00E030B6001680B6823F001030B607B
:1008900090F84030C46B012101FA03F3636080F8E3
:1008A000211080F82020104610BD00002DE9F05FD7
:1008B00090F821100024022903D00421816301242F
:1008C00085E001680A6822F00E020A6001680A6881
:1008D00022F001020A603F4E3E4FB215DFF8F4C02D
:1008E000DFF8F090DFF8ECA0DFF8E8B0DFF8E4E044
:1008F0000168783F13011502ACF1640CA9F15009AD
:10090000AAF13C0AABF1280BAEF1140E4FF480189B
:10091000B14227D9B9420ED0614512D049451DD008
:10092000514518D0594518D0714501D1424615E0BE
:10093000294EB14201D1012210E0274E1436B142B6
:1009400001D110220AE0244E2836B14206D0224AB4
:100950003C32914201D11A4600E02A461E49091F45
:100960000A602BE0B94213D0614517D0494522D027
:1009700051451DD059451DD0714501D142461AE05F
:10098000B14202D14FF0807215E0134EB14201D155
:10099000012210E0104E1436B14201D110220AE0BB
:1009A0000D4E2836B14206D00B4A3C32914201D15D
:1009B0001A4600E02A46074980394A60012180F83A
:1009C0002110002180F82010416B01B1884720469A
:1009D000BDE8F09F80000240080402402DE9F84F76
:1009E000DFF8C8910024A9F1040B23460F2709F171
:1009F000040AABF1040ED1E00125A54006EA050288
:100A0000AA4276D1DFF8A8C14E68A6EB0C0866456D
:100A10002BD00DDC032E34D005DC36B3012E19D0DB
:100A2000022E2FD11BE0112E16D0122E2AD119E042
:100A3000B8F5881F19D006DCB8F5803F15D0B8F599
:100A4000801F1FD111E0B8F5001F0ED0B8F5041FAC
:100A500018D10AE0CB6815E0CB681B1D12E0CB680B
:100A600008330FE0CB680C330CE08B682BB1012B03
:100A70004FF0080303D0456104E0042302E0056160
:100A800000E00023FF2A01D8064601E000F1040639
:100A90004FEA840501D9A5F12005D6F8008007FAB0
:100AA00005FC28EA0C0803FA05F548EA0508C6F82B
:100AB00000804D68ED0070D53E4DAE6946F00106F0
:100AC000AE61AD6924F0030605F0010500953A4DCD
:100AD00006EB050CDCF80850A607360F07FA06F8F7
:100AE00025EA0805DFF8D480404503D14FF000081F
:100AF00025E052E0DFF8C880404502D14FF0010800
:100B00001DE0DFF8C080404502D14FF0020816E03A
:100B1000DFF8B480404502D14FF003080FE0DFF862
:100B2000AC80404502D14FF0040808E0DFF8A08017
:100B3000404502D14FF0050801E04FF0060808FAE1
:100B400006F848EA0508CCF808804D68D9F8006036
:100B5000ED024D4601D5164300E096432E604D68E8
:100B6000DAF80060AD02554601D5164300E0964321
:100B70002E604D68DBF80060AD035D4601D516437D
:100B800000E096432E604D68DEF80060ED03754688
:100B900001D5164300E096432E60641C0A68164691
:100BA000E2407FF429AFBDE8F88F0000080401405F
:100BB0000000111000100240000001400008014038
:100BC000000C0140001001400014014000180140D9
:100BD000001C01400AB1016170470904FBE70000F5
:100BE000014800687047000058000020074810B511
:100BF000016841F010010160032000F07BF8012042
:100C000000F006F800F024F8002010BD002002409B
:100C100070B50D4D04464FF47A712878B1FBF0F0B1
:100C20000A490968B1FBF0F000F0E2FA48B9102C6B
:100C300007D200222146501E00F03CF800206C60D4
:100C400070BD012070BD0000000000200C000020DD
:100C50000F4808B5816941F001018161816901F0A6
:100C600001010091C16941F08051C161C06900F08A
:100C700080500090062000F03DF801210022C81E9F
:100C800000F018F80348416821F0E061416008BDB8
:100C90000010024000000140002809DB00F01F02A4
:100CA000012191404009800000F1E020C0F80011CE
:100CB00070470000F0B40E4B1B680C46C3F30223D0
:100CC000C3F10705042D00D90425191D072901D2F8
:100CD000002300E0DB1E012606FA05F1491E214033
:100CE00099409E40761E16403143F0BC01F016B884
:100CF0000CED00E0064900F0070208684FF6FF031C
:100D0000184040EA0220034A104308607047000080
:100D10000CED00E00000FA052DE9F0470F46050054
:100D200061D0434E306800F00700B84209D2306805
:100D300020F0070038433060306800F00700B84208
:100D400051D128683B4C810712D5400703D5606814
:100D500040F4E06060602878000703D5606840F4E4
:100D6000605060606068A96820F0F000084360602F
:100D70002878C00728D06868012810D02168022888
:100D800010D0890700292EDA616821F003010143A0
:100D90006160FFF725FF804641F288390DE0216848
:100DA0008903EFE78901EDE7FFF71AFFA0EB0801E0
:100DB000494502D90320BDE8F0876068696800F002
:100DC0000C00B0EB810FEFD1306800F00700B842A3
:100DD0000BD9306820F0070038433060306800F0ED
:100DE0000700B84201D00120E5E72878400705D583
:100DF0006068E96820F4E0600843606028780007D4
:100E000006D56068296920F4605040EAC10060603E
:100E100000F038F86168084AC1F30311515CC8401A
:100E20000649086006480068FFF7F2FE0020C2E7A6
:100E30000020024000100240834100080C00002006
:100E4000040000200448054900684968044AC1F3C9
:100E50000221515CC84070470C0000200010024085
:100E6000934100080448054900684968044AC1F3F1
:100E7000C221515CC84070470C00002000100240A5
:100E8000934100080E4A51680E4801F00C03042BF0
:100E900011D0082B0FD10C48C1F38343C903C05CA8
:100EA0000AD55168084AC1F34041921E515C054A77
:100EB0005043B0FBF1F070470449484370470000CD
:100EC0000010024000127A007341000800093D0042
:100ED0002DE9F84F040070D02078C04DC00749D0EC
:100EE0006868C0F38100012807D06868C0F38100FA
:100EF000022809D16868C00306D52868800339D55F
:100F000060680028E7D035E06068B0F5803F0BD01E
:100F100010B1B0F5A02F11D0286820F480302860DF
:100F2000286820F4802002E0286840F4803028609F
:100F3000606890B1FFF754FE06460AE0286840F466
:100F400080202860F0E700BFFFF74AFE801B64287E
:100F500073D828688003F7D50CE0FFF741FE0646FA
:100F600005E000BFFFF73CFE801B6428F0D828682E
:100F70008003F7D420789A4E80074FF001094FF094
:100F8000000839D5686810F00C0F07D06868C0F306
:100F90008100022809D16868C00306D42868800748
:100FA00014D52069012808D110E02069B0B1C6F835
:100FB0000090FFF715FE074605E00AE1FFF710FE77
:100FC000C01B0228C4D828688007F7D52868616943
:100FD00020F0F80040EAC10028600DE0C6F800806B
:100FE000FFF7FEFD074604E0FFF7FAFDC01B0228ED
:100FF00023D828688007F7D4207800072CD57948B3
:10100000A169D9B1C0F80090FFF7EAFD074604E0F6
:10101000FFF7E6FDC01B02280FD8686A8007F7D5E6
:1010200071484FF4FA510068B0FBF1F0009000BF36
:101030000098411E0091FAD20EE080E0C0F80080D6
:10104000FFF7CEFD074604E0FFF7CAFDC01B0228EC
:1010500075D8686A8007F7D42078400760D5E869BA
:101060000027C00008D4E86940F08050E861E869D2
:10107000012700F0805000905C480168C90513D436
:101080000168834641F480710160FFF7A9FD824643
:1010900006E000BFFFF7A4FDA0EB0A0064284ED8CD
:1010A000DBF80000C005F5D5E06801280AD008B1DA
:1010B000052813D0286A20F001002862286A20F051
:1010C000040002E0286A40F001002862E06841F272
:1010D000883B98B1FFF784FD82460BE0286A40F018
:1010E00004002862EEE700BFFFF77AFDA0EB0A01DB
:1010F00059455AD8286A8007F6D50CE0FFF770FDED
:10110000824605E0FFF76CFDA0EB0A0159454CD87B
:10111000286A8007F6D41FB1E86920F08050E861A2
:10112000E06988B36968C1F38101022944D00228CB
:10113000C6F8608004D0FFF753FD044638E034E081
:10114000FFF74EFD074604E0FFF74AFDC01B0228EB
:101150002BD828688001F7D4206AB0F5803F05D1EC
:101160006868A16820F4003008436860D4E9080189
:101170000843696821F4741108436860C6F86090F8
:10118000FFF72EFD044606E025E000BFFFF728FD2F
:10119000001B022809D828688001F7D51BE000BF92
:1011A000FFF71EFD001B022802D90320BDE8F88FBF
:1011B00028688001F4D40EE00128F7D06868226A1C
:1011C00000F48031914204D1616A00F470108842C9
:1011D00001D00120EAE70020E8E70000001002400B
:1011E00000004242800442420C0000200070004097
:1011F00010B5401EB0F1807F01D3012010BD4FF02B
:10120000E02460610F21601700F088FD0020A061DC
:1012100007202061002010BD70B590F83C20012A05
:101220002CD0012480F83C40022280F83D20036845
:101230005A689D6822F070060A6832435A60104B63
:1012400002689A420ED00F4B9A420BD0B2F1804FF7
:1012500008D00D4B9A4205D00C4B9A4202D00C4B51
:101260009A4204D1496825F080031943916080F8BF
:101270003D40002180F83C10084670BD022070BD42
:10128000002C0140003401400004004000080040F0
:10129000000C004010B5040003D094F83D0010B1DC
:1012A00007E0012010BD002084F83C00204600F03B
:1012B0001FF8022084F83D00211D206800F044FB47
:1012C000012084F8460084F83E0084F83F0084F84A
:1012D000400084F8410084F8420084F8430084F818
:1012E000440084F8450084F83D00002010BD000053
:1012F00008B500680649884208D10648C16941F02E
:101300000401C161C06900F00400009008BD000044
:10131000000800400010024070B5044690F83C0000
:101320000025012817D0012684F83C60022084F8AB
:101330003D002068826822F0770222F47F428260BA
:101340000868502838D00DDC20284FD005DC90B339
:10135000102811D14AE0022070BD302846D0402824
:101360000AD13BE060282FD070280DD0B0F5805F07
:1013700003D0B0F5005F12D0012584F83D60002055
:1013800084F83C00284670BDCB68D1E90121206873
:1013900000F020FB2068816841F0770109E0CB680C
:1013A000D1E90121206800F015FB2068816841F433
:1013B00080418160E1E719E0CA684968206800F06F
:1013C0001BFB5021206806E0CA684968206800F0CD
:1013D00024FB6021206800F007FBCEE7CA6849685B
:1013E000206800F009FB40212068F4E722680146EC
:1013F0001046F0E770477047F8B501680446086882
:10140000CA684B6910F00F0F4FF0000559D003F078
:10141000010602F49077374365D0C10705D0D105A6
:1014200003D5616C41F001016164410705D5D9071D
:1014300003D0616C41F002016164810705D5D907D1
:1014400003D0616C41F004016164010707D502F02B
:101450002001314303D0616C41F008016164616C8B
:1014600000293AD0800604D5900602D5204600F027
:1014700015FB20684069616CC0F38010090700D437
:1014800060B3204600F0E3FA20684069400621D5A9
:101490002068143050E8001F21F0400140E800129D
:1014A000002AF5D1E06BA8B16D494163E06BFFF70D
:1014B000FDF9002811D0E06B416B01B0BDE8F040B0
:1014C000084783060FD593060DD52046BDE8F840A2
:1014D00000F0E4BA2046FFF78EFFF8BD2046FFF784
:1014E0008AFF6564F8BD266B2023012E7CD1C606D9
:1014F0007AD5D60678D508684868009048694FF0D4
:101500000206400640D5E16B086840680004000C04
:10151000E8D0A28D8242E5D9E085886920282DD0C7
:1015200020680C3050E8001F21F4807140E8001260
:10153000002AF5D12068143050E8001F21F0010185
:1015400040E80012002AF5D12068143050E8001F4E
:1015500021F0400140E80012002AF5D184F8423021
:10156000256320680C3050E8001F21F0100140E88E
:101570000012002AF5D1E06BFFF774F96663A08DC5
:10158000E18D401A81B22AE0A08DE18D401A81B22E
:10159000E08D0028A6D00029A4D022680C3252E8A1
:1015A000000F20F4907042E80007002FF5D120686A
:1015B000143050E8002F22F0010240E80027002FED
:1015C000F5D184F84230256320680C3050E8002FB4
:1015D00022F0100240E80023002BF5D1666320467C
:1015E000FFF708FFF8BDFFE705062BD5150629D53F
:1015F00094F841002128F5D1A068B0F5805F01D1B1
:101600002069B0B1206A411C2162216800784860DD
:10161000E08C401E0004000CE084E3D12068C16827
:1016200021F08001C1602068C16841F04001C160C3
:10163000D8E7206A0088C0F308004860206A801C50
:101640002062E5E74006CDD55006CBD5CA682046D6
:1016500022F04002CA6084F8413000F0C3F8C1E7CC
:101660003F1A000870B5040004D094F8410000252A
:1016700010B106E0012070BD84F84050204600F013
:1016800023F8242084F841002068C16821F4005127
:10169000C160204600F064FA2068016921F490419D
:1016A00001612068416921F02A0141612068C16817
:1016B00041F40051C1606564202084F8410084F841
:1016C00042006563002070BD30B585B000240094F1
:1016D0000194029403940068184988422CD1184858
:1016E000816941F480418161816901F48041049103
:1016F000816941F0040181618069124D00F00400AC
:1017000004904FF400700090022001900320039099
:1017100069462846FFF762F92815CDE900046946B5
:1017200028460294FFF75AF9002211462520FFF7B8
:10173000C1FA2520FFF7B0FA05B030BD00380140EE
:10174000001002400008014070472DE9F8430446AC
:1017500090F841001F4616460D46202802D0022070
:10176000BDE8F8837DB176B100206064212084F863
:101770004100FFF735FAA6848046E684A068B0F5FC
:10178000805F02D003E00120EAE7206910B12E4615
:1017900000250EE000260CE08021204600F03CFAF7
:1017A000A0B9AEB116F8010B21684860E08C401E6C
:1017B000E084E08C43464FF0000200970028EBD114
:1017C0004FF04001204600F027FA30B10320C7E770
:1017D00035F8020BC0F30800E6E7202084F841004A
:1017E0000020BDE77047FEE770B586B000241F48B3
:1017F0000094019402940394816941F01001816185
:10180000816901F010010491816941F00401816155
:10181000816901F004010491816941F0080181614D
:101820008069134E00F00800049001222321304605
:10183000FFF7D0F94FF4405001258DE8310069469B
:101840000C48FFF7CBF8CDE9005469460A480295E9
:10185000FFF7C4F82320CDE900050220CDE90240BE
:1018600069463046FFF7BAF806B070BD0010024076
:10187000000C0140001001400008014010B586B086
:10188000002417480094019402940394049413498B
:10189000059401604721C0E901144FF6FF71C0E9CA
:1018A00003148461FFF7F6FC08B172B6FEE74FF44B
:1018B0008050009069460A48FFF72EFD08B172B6C5
:1018C000FEE7049404A906480594FFF7A5FC002848
:1018D00001D072B6FEE706B010BD0000000800405F
:1018E0007C000020FEE7FEE730B58FB02821684677
:1018F000FEF722FD14210AA8FEF71EFD01210804AF
:10190000CDE900100024029402250491CDE907508E
:101910004FF4E01009906846FFF7DAFA08B172B6A2
:10192000FEE70F20CDE90A054FF48060CDE90C40B9
:1019300002210AA80E94FFF7EFF9002801D072B631
:10194000FEE70FB030BD7047F0B502681C4B1D4D6F
:101950001D4E1E4F1E4C4FF0804C984209D0A042A5
:1019600007D0604505D0A84203D0B04201D0B842AC
:1019700004D122F0700E4A6842EA0E02984209D061
:10198000A04207D0604505D0A84203D0B04201D0A4
:10199000B84203D122F44075CA682A434D6922F047
:1019A00080022A4302608A68C2620A6882629842A0
:1019B00001D0A04201D10969016301214161F0BD5B
:1019C000002C01400004004000080040000C0040D2
:1019D0000034014010B5846842EA032224F47F44B5
:1019E0000A432243826010BD826822F070020A43DB
:1019F00042F007018160704710B5036A046A24F061
:101A000001040462846924F0F00444EA021423F01F
:101A10000A020A438461026210BD10B5036A046AB7
:101A200024F010040462846923F0A00324F47044B9
:101A300044EA023243EA01118261016210BD10B52D
:101A4000406A0021C185C184FFF7D5FC10BD016843
:101A50000C3151E8002F22F4907241E80023002B52
:101A6000F5D10168143151E8002F22F0010241E85C
:101A70000023002BF5D1016B012909D101680C313C
:101A800051E8002F22F0100241E80023002BF5D18D
:101A9000202180F8421000210163704708B590F8BA
:101AA0004210222901D0022008BD82684FF48053E1
:101AB0009A4201D1016921B1816A9A421BD04AB18F
:101AC0000AE00268816A5268C2F308020A80816AE9
:101AD000891C08E0026972B10268526802F07F0254
:101AE0000A70816A491C8162C18D491E0904090C72
:101AF000C18503D01BE002685268F1E70168CA683B
:101B000022F02002CA600168CA6822F48072CA60AA
:101B100001684A6922F001024A61202180F84210DE
:101B200000214163026B012A03D0FFF70DFE002064
:101B300008BD016301680C3151E8002F22F010024A
:101B400041E80023002BF5D101680A68D20602D5CE
:101B50000A6849680091818DFFF74CFCE7E70000B7
:101B600070B5044600680169E26821F440511143F0
:101B700001612169A0680843616908432168CA6856
:101B800041F20C639A430243CA6020684169A2692A
:101B900021F44071114341611E492068884202D1FD
:101BA000FFF760F901E0FFF74DF900EBC00101EB31
:101BB0000012606864218000B2FBF0F3B3FBF1F324
:101BC0006FF018067343B2FBF0F5B2FBF0F605EBCD
:101BD0008305322303EB0515B5FBF1F5B6FBF1F6F2
:101BE00005F0F00505EB0615B2FBF0F6B2FBF0F0E0
:101BF000B0FBF1F06FF01802504306EB800003EBEE
:101C00000010B0FBF1F0216800F00F00284488605C
:101C100070BD0000003801402DE9F041984617469C
:101C20000E460446069D27E0681C25D02DB1FEF720
:101C3000D7FFA0EB0800A8421ED920680C3050E85E
:101C4000001F21F4D07140E80012002AF5D120686D
:101C5000143050E8001F21F0010140E80012002A72
:101C6000F5D1202084F8410084F84200002084F857
:101C700040000320BDE8F0812068006836EA0000DB
:101C800004D00020B842CFD00020F3E70120F9E7CC
:101C90000148FFF7B1BB0000C4000020FEE70000D0
:101CA0000FB4054B10B503A9044A029800F03CF9A3
:101CB00010BC5DF814FB0000092F0008780000201C
:101CC0000FB41CB50246002007AC00290BD0491EFA
:101CD000CDE90021054B6A462146069800F024F91B
:101CE000009A002111701CBC5DF814FB57260008F7
:101CF0007CB5044600201D46164600290BD0491E1F
:101D0000CDE90041044B6A462946304600F00CF903
:101D1000009A002111707CBD572600080907090EA2
:101D2000002804DB00F1E02080F80014704700F088
:101D30000F0000F1E02080F8141D704702E008C891
:101D4000121F08C1002AFAD170477047002001E035
:101D500001C1121F002AFBD1704700002DE9FF5F6F
:101D600082B00021DDE90430020DDDF840B003430C
:101D700018D044F61050A2F2FF32424315141198C5
:101D800001281FD0A5EB0B00401C5FEA000A4FF0B2
:101D900000064E4FDFF83891B046504615D5CAF1CF
:101DA000000413E0119801244AA3012801D16FEA2D
:101DB0000B010298119AC0E90031C0E9024206B055
:101DC000BDE8F09FCBF10000DFE704460021404A68
:101DD000491842EB0450CDE9001012E0E00707D0AB
:101DE00032463B4640464946FEF7A5FB80468946BB
:101DF00032463B4610461946FEF79DFB06460F4607
:101E00006410002CEAD1DDE90401DDE90023BAF118
:101E1000000F06DAFEF78FFB42464B46FEF78BFBC0
:101E200005E0FEF7FAFB42464B46FEF7F6FB04469A
:101E30000E460022284BFEF777FC03D84FF0FF3008
:101E4000014607E00022254B20463146FEF7CCFA3A
:101E5000FEF752FC102409E0002C0ADB0A220023C2
:101E6000FEF722FA039B30321A55641E50EA010233
:101E7000F2D1641C039AC4F111031444119A012A8B
:101E800003D0012208430DD10AE0084304D000200A
:101E90004FF0110B119072E7A3EB0B056D1E0DE0D7
:101EA0005B4504DD4FF0000205F1010504E003DAB3
:101EB0004FF00002A5F10105002AECD0029811991B
:101EC000C0E90231C0E9004579E700000000144094
:101ED0000000F03F300000000000F0430000E03F51
:101EE00010B5002A06DA22F00042D21D22F00703C4
:101EF000102203E0D21C22F003030C2213B19C1821
:101F00008C4201D9012010BD024401448360C0E924
:101F10000021C91AD018884202D810600246F9E799
:101F20000020106010BD00002DE9FF4F95B09B46CA
:101F30008946064600250FE2252877D1002427464A
:101F4000F84A0121059400E0044316F8013F203BC4
:101F500001FA03F01042F7D130782A2811D06FF03F
:101F60002F033078A0F13002092A16D8059A44F0E0
:101F7000020402EB820203EB42021044761C05903D
:101F8000EFE759F8042B0592002A03DA504244F493
:101F90000054059044F00204761C30782E2816D1A7
:101FA00016F8010F44F004042A280DD06FF02F0218
:101FB0003078A0F13003092B09D807EB870302EB37
:101FC0004303C718761CF3E759F8047B761C307876
:101FD0006C280FD006DC4C2817D068280DD06A2852
:101FE00014D104E0742810D07A280FD10DE044F405
:101FF00000140AE044F4801401E044F440147278C0
:10200000824202D104F58014761C761C3078662852
:102010000BD013DC582877D009DC002875D0452870
:10202000F6D04628F4D047281AD19DE118E063285D
:1020300035D0642879D0652812D195E1702873D005
:1020400008DC6728F1D069286FD06E280DD06F2882
:1020500006D1B5E073282CD0752875D0782874D0B7
:102060005A46179990476D1C75E1C4F30250022837
:1020700009D003280DD0D9F8001004280DD00D6028
:1020800009F1040967E1D9F80010EA17C1E9005223
:10209000F6E7D9F800100D80F2E70D70F0E719F8B7
:1020A000041B8DF8001000208DF80100EA46012085
:1020B00003E059F804AB4FF0FF3061074FF0000127
:1020C00002D40DE008F101018846B9420FDA8045DB
:1020D000F8DB1AF808100029F4D108E008F1010132
:1020E00088468142FADB1AF808100029F6D10598D3
:1020F0005B46A0EB080721463846179A00F094FA91
:10210000284400EB080507E04DE029E10DE01AF84E
:10211000010B5A4617999047B8F10108F7D25B4670
:1021200021463846179A13E142E00A220092C4F38E
:1021300002524FF0000A022A08D059F804CB032AB1
:102140004FEAEC710AD00DE029E02AE009F107011D
:1021500021F00702F2E802C1914609E00FFA8CFC77
:102160004FEAEC71042A03D14FFA8CFC4FEAEC7170
:10217000002907DA0A460021DCF1000C61EB0201BC
:102180002D2202E0220504D52B228DF80420012205
:1021900003E0E20701D02022F7E7904659E00A2148
:1021A00002E010220DE010214FF0000A00910BE038
:1021B00010224FF0000A44F004040827009203E0C4
:1021C00008224FF0000A0092C4F30252022A05D0FE
:1021D00059F804CB0021032A08D009E009F10701CE
:1021E00021F00702F2E802C1914605E01FFA8CFCDB
:1021F000042A01D10CF0FF0C4FF00008220728D56B
:10220000702806D0009B83F0100353EA0A0305D020
:102210000EE040228DF80420012208E05CEA010271
:1022200006D030228DF804208DF805000222904659
:10223000009B83F0080353EA0A030AD15CEA010217
:1022400001D1620705D530228DF804204FF0010836
:102250007F1E582804D034A003900EA802900DE0F1
:1022600036A0F9E753466046009AFEF71DF884460B
:102270000398825C0298401E029002705CEA0100A2
:10228000F0D1029806A9081A00F1200A600702D5C9
:1022900024F4803400E00127574502DDA7EB0A0053
:1022A00000E0002000EB0A01009005984144401A2C
:1022B0000590E00306D45B462146179A059800F086
:1022C000B3F90544002706E001A85A46C05D1799F6
:1022D00090476D1C7F1C4745F6DBE0030CD55B4641
:1022E0002146179A059800F09FF9054404E0302034
:1022F0005A46179990476D1C0099481E0090002976
:10230000F5DC08E0029802995A460078491C0291CF
:10231000179990476D1CBAF10001AAF1010AF1DC8E
:1023200065E1000009280100303132333435363799
:102330003839616263646566000000003031323311
:1023400034353637383941424344454600000000B1
:1023500000F058F90544761C307800287FF4ECAD85
:1023600019B02846BDE8F08F620700D4062709F1AE
:10237000070222F0070CFCE80223E14603F00048C4
:102380005FEA080C02D00FF2702C0DE05FEA045CEB
:1023900002D50FF2682C07E05FEAC47C02D00FF28E
:1023A000602C01E0AFF2700C4FF0FF3823F00043D7
:1023B000CDF850C065280CD006DC452809D0462849
:1023C0001DD047283DD13DE0662818D067287ED132
:1023D00038E00021112F01DB112000E0781CCDE94D
:1023E000000106A90EA8FFF7B9FCDDE90F010E9A5E
:1023F00003910021009207F1010A04914DE04FF092
:1024000000400097CDE9011006A90EA8FFF7A6FC31
:10241000DDE90F0203920E9B11990022DDF80CA05A
:102420000093049211B9791C00EB010AB7EB0A0082
:1024300004D4C0F1FF3007F1010A0490AAEB0700B1
:10244000019044E0012F00DA01270021112F01DD66
:10245000112000E03846CDE9000106A90EA8FFF7DB
:102460007DFCDDE90F010E9A039100210491009299
:10247000BA4621070CD40399514500DA8A46BAF1CD
:10248000010F05DD009AAAF10101515C302908D045
:10249000B84202DA10F1040F06DA0121CDE9011089
:1024A00015E0AAF10101E9E7002805DC04990144DF
:1024B0000491AAEB000102E0411C514500DD8A466F
:1024C0000499401A401C01904FF0004002902007F0
:1024D00004D40198504501DBCDF8048000208DF82C
:1024E0004F0002980DF14F07B0F1004F25D02B207F
:1024F0000E9002984FF0020800280CDA4042029039
:102500002D200E9007E00A210298FDF748FF303198
:10251000029007F8011DB8F10001A8F10108F2DCF2
:1025200002980028EFD1791E0E980870307800F0DC
:10253000200040F0450007F8020D12A8C01B00F172
:1025400007081498007800B1012000EB0A010198F7
:1025500001EBE07105984144401A401E0590E003EC
:1025600006D45B462146179A059800F05DF80544AD
:102570001498007818B15A46179990476D1CE003DB
:1025800024D55B462146179A059800F04DF805447E
:102590001CE00498002807DBDDE90301884203DD25
:1025A0000098405C179901E0179930205A469047EF
:1025B000049805F10105401C04900198401E01900B
:1025C00004D12E205A46179990476D1CBAF100018C
:1025D000AAF1010ADDDC05E017F8010B5A4617994C
:1025E00090476D1CB8F10001A8F10108F4DC5B46CE
:1025F0002146179A0598ABE62D0000002B0000003D
:10260000200000002DE9F041044600251E46174633
:10261000880404D405E039462020B0476D1C641EB0
:10262000F9D52846BDE8F0812DE9F04104460025A2
:102630001E469046C80301D5302700E020278804B5
:1026400004D505E041463846B0476D1C641EF9D5F7
:102650002846BDE8F0814A68002A06D00A68531C63
:102660000B6010704868401E48607047084800685A
:10267000C0010BD507480068C00707D0054880385F
:102680000068002802DA0449012008707047000041
:10269000FCED00E0800E00E06C0000204FF0604296
:1026A000D36F002BFCD0036BD367D36F002BFCD010
:1026B000C07840EA0120A2F87C0070474FF06041EA
:1026C000CA6F002AFCD081F87C007047F0B585B055
:1026D000070007D11E484FF4EF72036893B11D49FC
:1026E0001DA09847214D0024052695F8F000C0B1A3
:1026F00000F04EFA04EB4410411991F85100012802
:1027000012D017E01348CDE90302009212A118A3DA
:10271000CDE9013103461FA225A1002000F080F879
:10272000FEE705B03046F0BD1E2238463231FDF7D7
:1027300027FE30B1641CE4B2052CDBD300F04EFA66
:10274000EFE704EB4410284490F83160F6E700000E
:10275000100000202D42000874616720213D2028D0
:1027600028766F6964202A29302900000C05002092
:102770002825732920686173206173736572742042
:102780006661696C65642061742025733A256C6408
:102790002E0000002E2E5C656173796C6F67676593
:1027A000725C7372635C656C6F672E63000000007F
:1027B000656C6F67000000002DE9F041174D0020A7
:1027C00095F8F010012927D000F021FA060023D156
:1027D000012000F0EDF9002785F8F37085F8F4701A
:1027E000012085F8F500052000F01EFA0024B84607
:1027F00004EB4410471907F132001F21FDF79CFD3F
:10280000641C87F83180E4B287F85180052CEFD33F
:10281000012085F8F0003046BDE8F0810C0500206D
:102820000FB42DE9F04F06468BB08B460846FDF7F6
:10283000A0FD00240A940746A14609940594069435
:1028400007940894052E08D9A9484FF40F7203681D
:10285000002B7DD0A749A8A09847AE4D95F8F10070
:10286000002876D02878B04273D35846FFF72EFF61
:10287000B0426ED3691C5846FDF769FD002868D048
:102880000DF1680A00F084F9A84695F8F500A5F561
:10289000806570B12946A0A2204600F0BDFA04462A
:1028A000934829191C3050F82620204600F0B4FA2D
:1028B00004440121304600F033FB40B18C48291913
:1028C000001D50F82620204600F0A6FA04440221FC
:1028D000304600F025FBC8B129195A46204600F0C1
:1028E0009BFA04440F2F0BD8C7F10F01202205A833
:1028F000FDF71BFD291905AA204600F08DFA0444B6
:10290000291986A2204600F087FA04441C2130468B
:1029100000F006FB00284BD0291981A2204600F0C8
:102920007BFA04440421304600F0FAFAA8B100F022
:102930006DF902462919204600F06EFA0444182168
:10294000304600F0EDFA40B1291974A2204601E0AA
:102950004EE0C8E000F060FA04440821304600F080
:10296000DFFA90B100F04AF902462919204600F03A
:1029700053FA04441021304600F0D2FA28B1291944
:1029800066A2204600F048FA04441021304600F0C8
:10299000C7FA38B100F036F902462919204600F08E
:1029A0003BFA044429195FA2204600F035FA04449A
:1029B000E021304600F0B4FA002860D029195AA26C
:1029C000204600F029FA04442021304600F0A8FAFD
:1029D000002827D029192046169A00F01DFA044431
:1029E0004021304600F09CFA88B129194FA215E029
:1029F0004048CDE9030200923FA14DA3CDE901314A
:102A0000034654A25AA10020FFF70AFFFEE78021E7
:102A1000304600F085FA28B1291940A2204600F07E
:102A2000FBF904448021304600F07AFAB0B152A29A
:102A3000052109A8189BFFF743F9291909AA20467F
:102A400000F0EAF904444021304600F069FA28B168
:102A5000291932A2204600F0DFF904444021304613
:102A600000F05EFA28B129192046179A00F0D4F92F
:102A70000444291941A2204600F0CEF90444C4F5CB
:102A8000806128195346199AFFF732F904444FF42C
:102A90008062944204D8002802DB601D904201D974
:102AA00040F2FB3498F82000464640B1194905F839
:102AB00004902031A1F58460FDF749FC88B196F8B7
:102AC000F50028B129192EA2204600F0A5F90444EA
:102AD00029192DA2204600F09FF901192B4800F07A
:102AE00099F800F07BF80BB0BDE8F00F5DF814FB2F
:102AF00010000020454200086C6576656C203C3D66
:102B000020454C4F475F4C564C5F564552424F5301
:102B1000450000000C0500201B5B000020000000A9
:102B20005B0000005D200000280000003A0000006B
:102B3000282573292068617320617373657274207E
:102B40006661696C65642061742025733A256C6444
:102B50002E0000002E2E5C656173796C6F676765CF
:102B6000725C7372635C656C6F672E6300000000BB
:102B7000656C6F6700000000256C64002900000090
:102B80001B5B306D000000000A0000000C010020FB
:102B900070B5064C012594F8F20020B100F042F81F
:102BA00084F8F45070BD84F8F35070BD0C0500201B
:102BB0000949002881F8F2000DD0074891F8F41077
:102BC00090F8F30019B1002805D100F02CB80028C6
:102BD00001D000F027B870470C05002070B5064CF6
:102BE000002594F8F20020B100F01DF884F8F450AC
:102BF00070BD84F8F35070BD0C05002000A0704734
:102C00000000000000A07047000000007047002096
:102C100070470000024601A0FFF742B8252E2A7334
:102C2000000000007047704710B586B004460528C4
:102C300007D90D484FF4AC72036833B10B490CA0AF
:102C400098471248047006B010BD0848CDE9030249
:102C5000009207A10EA3CDE90131034615A21CA1E4
:102C60000020FFF7DDFDFEE7100000200142000814
:102C70006C6576656C203C3D20454C4F475F4C565B
:102C80004C5F564552424F53450000000C05002052
:102C9000282573292068617320617373657274201D
:102CA0006661696C65642061742025733A256C64E3
:102CB0002E0000002E2E5C656173796C6F6767656E
:102CC000725C7372635C656C6F672E63000000005A
:102CD000656C6F670000000030B585B00D46044696
:102CE000052807D90E484FF49F7203684BB10D4970
:102CF0000DA09847134800EB8400C0F8D85005B0E9
:102D000030BD0848CDE90302009207A10EA3CDE92A
:102D10000131034615A21CA10020FFF781FDFEE74B
:102D200010000020E44100086C6576656C203C3D95
:102D300020454C4F475F4C564C5F564552424F53CF
:102D4000450000000C0500202825732920686173C8
:102D500020617373657274206661696C65642061BB
:102D6000742025733A256C642E0000002E2E5C65BD
:102D70006173796C6F676765725C7372635C656CB5
:102D80006F672E6300000000656C6F670000000035
:102D90000EB50A4890F8F01000290DD0012180F8F6
:102DA000F11007A208A1F4208DE80700104B11A232
:102DB00017A10320FFF734FD0EBD00000C05002015
:102DC000322E322E39390000456173794C6F6767B6
:102DD00065722056257320697320696E6974696174
:102DE0006C697A6520737563636573732E000000E8
:102DF0009B4100082E2E5C656173796C6F67676577
:102E0000725C7372635C656C6F672E630000000018
:102E1000656C6F67000000002DE9F043DFF88C90CF
:102E2000DFF88C8085B00D0006461446174606D1A3
:102E3000D8F800302BB12C2249461EA098477CB10F
:102E400015E01CA202922C20CDE903901AA3CDE933
:102E50000003164B21A229A10020FFF7E1FCFEE7A9
:102E6000D8F800307BB12D22104926A098474FF4A6
:102E700080622078B0B13146761C914212D205F8BA
:102E8000010B641CF5E71FA202922D20CDE90390EF
:102E900009A3CDE90003054B10A218A10020FFF7FC
:102EA000BFFCFEE705B0E01BBDE8F0837D420008F3
:102EB0001000002064737400282573292068617352
:102EC00020617373657274206661696C656420614A
:102ED000742025733A256C642E0000002E2E5C654C
:102EE0006173796C6F676765725C7372635C656C44
:102EF0006F675F7574696C732E630000656C6F6734
:102F0000000000007372630013B54FF6FF730122D7
:102F100069460248FEF719FC00981CBDC400002059
:102F200030B585B00D460446052807D9104840F253
:102F3000DB22036863B10F490FA09847154800EBE7
:102F40008400D0F8D800284000D0012005B030BD62
:102F50000848CDE90302009207A10FA3CDE9013192
:102F6000034616A21CA10020FFF75AFCFEE7000052
:102F700010000020514200086C6576656C203C3DD5
:102F800020454C4F475F4C564C5F564552424F537D
:102F9000450000000C050020282573292068617376
:102FA00020617373657274206661696C6564206169
:102FB000742025733A256C642E0000002E2E5C656B
:102FC0006173796C6F676765725C7372635C656C63
:102FD0006F672E6300000000656C6F6700000000E3
:102FE0000EB5802200B109B110460AE0017801292E
:102FF000FAD101A900F020F8042801D0002000E057
:103000001020DDE9011203B000BD70B50D460400CB
:1030100003D012B92078012801D0802070BD20464D
:1030200000F0F6FA28B12946204600F030F80020DA
:1030300070BD812070BD000010B504468089002855
:1030400024D0608904EB800000690860606840B1AA
:103050006078022805D10021204600F02DFC00F008
:103060001BFC04F10C0000BFD0E85F1F491E8AB2B0
:10307000C0E8512F0029F7D16089401C80B26081DF
:10308000E189884201D100206081042010BD10B583
:1030900000F012FCBDE8104000F0FEBB1CB5FDF7CF
:1030A000A5FDFEF721FCFEF79FFBFEF7E7FB1E48A0
:1030B0001C490C2201604FF4E13141600021816024
:1030C000C160C0E904128161C161FEF7CBFA08B1A9
:1030D00072B6FEE7FFF770FBFF210020FFF7FCFD53
:1030E00007210120FFF7F8FD07210220FFF7F4FD7B
:1030F00007210320FFF7F0FDBF210420FFF7ECFDBF
:10310000BF210520FFF7E8FDFFF742FE07A186205B
:10311000CDE90001094B0AA20EA10320FFF780FBB5
:10312000FEE7000000380140C400002068656C6CB8
:103130006F20776F726C640D0A0000006C4100080C
:103140002E2E2F436F72652F5372632F6D61696E40
:103150002E630000574952454C4553530000000070
:10316000EFF3058008B182207047EFF31480C007A9
:1031700003D0DFF80CC000DF704700F0D1BE0000C4
:10318000213F000888B0EFF3058010B1822008B01D
:103190007047EFF3148010F00301134806D00129A3
:1031A0001BD0022911D0032919D113E008A981F3FA
:1031B00009880078C0070BD05FF0020080F3148804
:1031C000BFF34F8FBFF36F8F09E00078C00706D1C0
:1031D0000320F3E70078C00701D0FF20D7E7DFF82E
:1031E0000CC000DFD3E70000B0420008913F0008A8
:1031F000EFF305820AB1FFF7F3BEDFF808C000DF86
:1032000070470000FD3F0008EFF305820AB100207F
:103210007047EFF31482D20702D1044A52781AB1F0
:10322000DFF80CC000DF704700F006BF5000002040
:1032300039400008DFF80CC000DFDFF80CC000DF09
:10324000FEE70000A5400008C1400008DFF804C008
:1032500000DF7047F9400008094C4FF0FF35294660
:103260002068FFF7C5FF02460846102AF7D1FFF78E
:10327000EDFF0028F3D0024608469047EFE7000034
:103280004C000020FEE7FEE7074801684FF0E02011
:10329000416100218161072101610448016841F019
:1032A0007F41016040177047AC42000820ED00E00C
:1032B000704750E8001F31B10B6840E80032002A27
:1032C000F7D108467047BFF32F8FFAE710B568B102
:1032D00061B10B3121F00302016844680B1A1B1B1A
:1032E000934205D2084609680029F5D1002010BD97
:1032F000210007D021180368C1E90032016001F103
:10330000080010BD4260083010BD000070B50D46C9
:10331000002812D04FF6FF71084C884204D2226870
:103320000146104600F0F6FA20684570044800F0A7
:10333000D9F8BDE8704000F0B1BB70BD5C00002062
:10334000182400200F4810B50D4942680E480B683C
:103350000068934204D00A60CB88421E1A448A80D7
:103360008A8880B282420AD100200860054800F0B5
:10337000B9F80146BDE81040024800F0EFBA10BDB0
:1033800070000020182400205800002070B5194D4E
:10339000E86800282CD0A88A401EA882002621E0D8
:1033A000A06838B161684160606810B1A16881604F
:1033B0006660A6600F482146183800F0CFFAA08A50
:1033C000A8826078042804D10B49E08A098808445F
:1033D000A08201206070E068E860E06808B10561E3
:1033E000E6602661A88A002802D1EC68002CD7D1BB
:1033F00070BD0000302400205800002070B504008B
:103400000FD00D4DA17801262868827891420CD901
:1034100000F0C0FA286846702046BDE8704000F011
:103420003DBB064800F05EF8F7E766702146BDE850
:103430007040024800F092BA5C000020182400207E
:1034400010B50446008B084320836278618B062AFE
:1034500018D0052A19D1084217D001EA0002628368
:1034600088432083204600F0C0FA01206070628B00
:103470000821204600F0B5FA2146BDE81040034877
:1034800000F06CBA31EA0002EAD010BD1824002026
:10349000814202D342688A4201D801207047026803
:1034A0000A60BFF35F8F50E8003F0A689A42F6D186
:1034B00040E80012002AF2D10020704768B161B1E3
:1034C0000022083902E00246006830B18842FAD191
:1034D0002AB1006810600020704701207047002169
:1034E0004160F8E70146406842684A600B78002274
:1034F000022B05D0012B03D0032B01D04260704773
:1035000043680BB19960426082607047810700D0C8
:103510000020704770B50446002015462070012237
:103520006270A17084F824106060A060E060206187
:103530002062A082E0822083608384F82500E08CF2
:1035400018B90548FFF7B5FEE06229462046BDE8F8
:10355000704000F01DB800009807002008B108294D
:1035600001D2012070470144091F002201600A6056
:103570004260104670470000034800210160034983
:103580000988C1807047000070000020A842000830
:1035900070B5C28C1C4D930802D12A88C2F38D03EA
:1035A000C26A02EB8302540700D5121F4FF08074E9
:1035B00042E9021400242646B2F1400242F8246097
:1035C000641C0E2CFAD3C4691462826201632968F8
:1035D000C90014D5112B12D94FF0FF31103B11EB5C
:1035E00053014FF0CC3305D042F8043C42F8083D7B
:1035F000491EF9D1C16A121F8A4200D91360C06AFC
:103600000249016070BD0000A4420008A52E5AE2E4
:10361000C1898089081A7047012202700022427015
:103620008270426002814281103982818908C181A1
:10363000704700002DE9F041044640680E464FF007
:10364000000804F10C05E8B36078012701283ED09A
:10365000022813D003285CD10846FFF72AFE050094
:1036600057D02046FFF73EFF0446294600F0B6F942
:103670006770204600F0B9F9214621E02046FFF7A7
:1036800031FF0646002100F0A9F92189F06904EB19
:1036900081010861D5E85F0F401C81B2C5E8501F69
:1036A0000028F7D12089401C80B22081E18988421E
:1036B00001D1A4F808807770304600F096F93146C1
:1036C000174800E00CE0BDE8F04100F047B92046A3
:1036D000FFF708FF04463246102100F082F9C7E7E1
:1036E000A089E189884216D2208904EB8000066116
:1036F000D5E85F0F401C81B2C5E8501F0028F7D104
:103700002089401C80B22081E189884201D1A4F83F
:103710000880BDE8F081BDE8F0410320FFF7B2BDAD
:103720001824002070B50446808915460026C0B3D1
:10373000608904EB8000006908606089401C80B2E9
:103740006081E189884200D16681606810B160784B
:1037500002280BD014F10C04D4E85F0F401E81B294
:10376000C4E8501F0028F7D1002070BD2046FFF7A5
:10377000B9FE0546002100F031F92189E86904EB22
:10378000810108612089401C80B22081E189884242
:1037900000D12681284600F028F92846FFF72EFEA2
:1037A000E2E7FFE73DB10B48626801682AB12046B5
:1037B00000F0D4F808E0012070BD616001684E603F
:1037C000006884600120607008212846FFF79EFD94
:1037D000F1E700005C000020002814D0411C13D049
:1037E0000C4A4FF6FE7190420CD800EB4002C2EB3F
:1037F000C0120948036803EBC202521EB2FBF3F089
:10380000884204D9084670474FF6FF70704780B26F
:103810007047000000093D00BC42000870B51B481D
:10382000012102685170006800F0B4F8184D6C78FE
:1038300018E000BF05EBC40148680278EAB1012A2C
:1038400020D000F0FFF8E878641C844200D1002406
:103850000F48801CD0E84F1F491EC9B2C0E8421F64
:10386000002AF7D1A8780028E4D16C700948FFF746
:1038700039FEBDE8704000F011B9098989B2FFF73F
:10388000DFFDE0E78968FFF7D5FEDCE75C0000209C
:10389000C8210020182400200548017811B1012119
:1038A0004170704703494FF0805008607047000036
:1038B0006400002004ED00E0F0B4154DAB1CEE7880
:1038C0004FEA0507D3E84F2FB24202D1BFF32F8F43
:1038D00011E0521CD4B2C3E8424F002AF2D100BF1B
:1038E000D7E84F2F541CB44200D10024E4B2C7E8FB
:1038F000434F002BF4D1EB78934205D905EBC2027C
:10390000C2E90101F0BC7047F0BC0220FFF7BABC6D
:10391000C8210020104A10B5D368ABB113469B8A6A
:1039200003E08CB12246A48A2344D4688B42F8D3A6
:10393000C460D0600261C46804B12061591A8182F8
:10394000908A401A908210BD0024C460D060C91AC9
:1039500002619182848210BD3024002030B502784B
:103960000023022A03D0012A01D0032A00D1012317
:103970008C7800E01046426812B19578A542F9D2E1
:103980004A6041601BB102B19160886030BD002087
:10399000FBE7000003494A684260002282604860F9
:1039A000704700001824002010B5836804462BB926
:1039B000607801280ED1084B03E09B681878002836
:1039C000FBD0204600F026F82146BDE810401846FE
:1039D000FFF7C4BF10BD000018240020806A0162F8
:1039E0007047806AC0E90812704710B50169002964
:1039F0000ED0C268CA60C36800223BB18B8A848A39
:103A000023448B82C3681961C26000E08A8202612C
:103A100010BD0000816839B142684A6041680029E0
:103A200001D0806888607047054906E04A68824294
:103A300002D140684860704711460029F6D17047AE
:103A40001824002010B5416881B1FFF74BFD0446F2
:103A5000FFF7CBFF0120607001462046FFF7BEFF55
:103A60002146BDE810400348FFF778BF4188491C54
:103A7000418010BD1824002006480068D0E90A10D3
:103A8000814203D300680449884202D00120FFF735
:103A9000F9BB70475C000020A52E5AE207490222BC
:103AA00048604270064A1278002A05D006C98A4248
:103AB00002D0C078FEF702BE704700005C00002014
:103AC0006C00002070B5FEF7D1FD00200446204AAE
:103AD000204902E042F82040401C0B889842F9D36C
:103AE0001D48342201881D48FEF7FAF91C48008859
:103AF00080B240F000421B4801681B48FEF7F0F915
:103B00001A48082201881A480068FEF7E9F9194D99
:103B1000FF20194AE870EC8400212846FFF7FAFCE0
:103B2000164804210170446015480170C4600461A6
:103B30008482144815490560022068701248047098
:103B400044700978C170BDE87040FFF715BD0000F2
:103B5000CC230020A0420008D442000854060020D4
:103B6000A4420008D842000898070020FC42000840
:103B700044000020E423002087320008182400209D
:103B8000302400205C000020C8210020E042000812
:103B90001B4810B5016841F47F01016000684FF0D7
:103BA0007F4101EA00201649C0431439B0FA80F081
:103BB0000968C0F10800C1F30221814200D3481C0A
:103BC0000F49091F0B686FF08072824063F3170280
:103BD0000A60FFF759FB0B49002808600EDB00F173
:103BE000E021FF2281F8002400F01F020121914012
:103BF0004009800000F1E020C0F8001110BD000075
:103C000020ED00E0680000200C4810B5026801219A
:103C100051700068FFF7BEFEFFF794FB084801688B
:103C2000491C0160FFF7B2FB00F072FA0548FFF78C
:103C300059FCBDE81040FFF731BF00005C000020D8
:103C40005800002018240020002805D0810702D148
:103C50000178002900D000207047000030B50B4CDF
:103C60000023626805E095688D4204D81346126807
:103C7000491B002AF7D10260816012B19568691A68
:103C800091600BB1186030BD606030BD5000002005
:103C90002DE9F0411E46174680460D4611F0FF0FF4
:103CA00000D14D1C1848FFF704FB041E16D0280A4B
:103CB000E762E084E9B242462046E661FFF72AFC6B
:103CC00001251248124905E000EB850252F8042C48
:103CD00032B16D1C0A889542F6D90020BDE8F0810A
:103CE000002DFAD000EB850040F8044C0948E5703F
:103CF000007818B101212046FEF7D0FC2046FFF7DE
:103D00007DFB2846EAE7000054060020CC23002073
:103D1000A04200086C0000202DE9F05F584DDFF84C
:103D20005891DFF8588129684FF0010A002618B130
:103D3000CA78AB46824243D14E70FCF70EFA29682E
:103D40008862FFF799FE2868046A1FE06068C0B1C6
:103D50002046FFF7C7FB07460021FFF73FFE384626
:103D6000FFF743FE87F801A039464648FFF7F6FD06
:103D7000E168A4F802A0A760386AE0603C620C46E3
:103D800004E0E0686680A660E6600446002CDDD1B1
:103D90002868C27808EB820141F8046CC16A3A488D
:103DA000FFF776FB2868C66299F8001011B1002170
:103DB000FEF774FC35482968FFF76AFB2E6056E071
:103DC0003349098888420CD808EB800858F8045C0D
:103DD0003DB12846FFF71EFE2846FFF706FE2C6A77
:103DE00022E0FF20BDE8F09F6068C0B12046FFF7E9
:103DF00079FB07460021FFF7F1FD3846FFF7F5FD97
:103E000087F801A039461F48FFF7A8FDE168A4F82C
:103E100002A0A760386AE0603C620C4604E0E068FB
:103E20006680A660E6600446002CDDD148F8046C8C
:103E30001548E96AFFF72CFBEE6299F8000018B10B
:103E400000212846FEF72AFC29461048FFF720FBF0
:103E50000C48DBF8001040688B7882789A4209D9C8
:103E600081F801A00748DBF80010FFF777FD00207C
:103E7000FFF7C4FA0020B5E76C000020CC23002037
:103E80005C00002018240020980700205406002021
:103E9000A042000870B51A4D80B11A4A12889042AB
:103EA0001FD8194A02EB800050F8044CCCB1A17025
:103EB00084F824102868A04205D014E02868817096
:103EC000286880F82410114840688078884215D905
:103ED0000E482968FFF742FD29680120487000203C
:103EE0000AE0FF2070BD2046FFF75EFD60780128E4
:103EF00004D10648FFF7F6FAFFF780FA002070BDFC
:103F00005C000020A0420008CC23002018240020E0
:103F100002480068002800D0C07870475C0000208C
:103F200010B5134C207860B91248400705D11248EB
:103F300001681048FFF712FB08B1852010BDFFF79C
:103F4000C1FD0E49FF2009688870207858B900210A
:103F50000B4800F041F80B49086000210A4800F0C6
:103F60006BF80A490860012020700020607010BDC5
:103F700050000020A81B0020DC4200085C0000204C
:103F8000F44200084C000020E442000848000020F1
:103F900070B50F4D687808B1002070BD0D4C2068D9
:103FA00090F824100020FFF775FF2068C178FF29E2
:103FB00003D1816A203181F30988616811B9606099
:103FC00000202060FFF7E4FD01206870E4E70000B6
:103FD000500000205C00002010B5040005D02168CE
:103FE00019B1606808B102780AB1002010BD8900DB
:103FF000103189B2FFF710FB606810BD3EB50400B8
:104000000D464FF0800012D0217801290FD12846AB
:10401000FFF7E2FB0246204601A9FFF783FB0128D8
:1040200001D0102003E00DB1402000E00020DDE9C8
:10403000011203B030BD000070B50E46040029D057
:10404000206838B3606810F1030F23DB032821DCFC
:10405000E16829B11048FFF739F905001AD000E0EE
:1040600000256068E168001D40EA012133462A46C8
:104070002068FFF70DFE40B1084901EB80000849B8
:1040800050F8040C826A516370BD1DB12946024884
:10409000FFF714FA002070BDA81B0020CC230020DD
:1040A0003532000810B5FFF733FF002804D003496C
:1040B00001EB800050F8040C10BD0000CC23002060
:1040C00010B5FFF7C1FD18B1C18C19B1C46A02E087
:1040D000802010BD0024C078FFF71EFEFF2806D008
:1040E0001CB121460348FFF7E9F9002010BD8120EB
:1040F00010BD0000A81B002010B5FFF707FA20B183
:1041000041690A680169104610BD0020014610BDD2
:104110002DE9F041134E7468002C1CD0A068124F9A
:10412000401E4FF00108A06012E02546246874602C
:10413000002229463868FEF768FF10B10420FFF717
:10414000A1F86879012808D085F80480002C02D0F5
:10415000A0680028E9D0BDE8F0812846E968FFF7AB
:104160007DFDF3E7500000204C0000206D61696E7A
:1041700000010202030405060708090A0B0C0D0ED4
:104180000F101000000000000000000102030406F0
:104190000708090000000001020304656C6F675FF7
:1041A000737461727400656C6F675F73746F700015
:1041B000656C6F675F7365745F6F75747075745F3E
:1041C000656E61626C656400656C6F675F736574D2
:1041D0005F746578745F636F6C6F725F656E616248
:1041E0006C656400656C6F675F7365745F666D74A2
:1041F00000656C6F675F7365745F66696C74657288
:1042000000656C6F675F7365745F66696C74657277
:104210005F6C766C00656C6F675F7365745F666971
:104220006C7465725F7461675F6C766C00656C6F4F
:10423000675F6765745F66696C7465725F746167F8
:104240005F6C766C00656C6F675F6F75747075740A
:10425000006765745F666D745F656E61626C65644E
:1042600000656C6F675F66696E645F6C766C006595
:104270006C6F675F66696E645F74616700656C6F21
:10428000675F73747263707900656C6F675F6370EA
:10429000796C6E00656C6F675F6D656D637079003A
:1042A00006000000000402110A0001003F1901008D
:1042B000010000000200010052000400E8030000B9
:1042C000000000009D300008000000000100000018
:1042D000000400004401000010140000200600004B
:1042E00040000000593200080200000001000000F8
:1042F0000002000010000000040600200000000082
:10430000412F0000442F0000452F0000492F0000DE
:10431000562F0000572F000033313B32326D000022
:1043200033323B32326D000033333B32326D0000AA
:1043300033343B32326D000033353B32326D000096
:1043400033363B32326D0000684300080000002025
:104350007C0000003C1D0008E44300087C000020B5
:10436000CC2700004C1D00080100000010000000D8
:10437000000000000024F4000000000000430008DA
:1043800008430008144300080C43000804430008D5
:104390001043000838430008184300082843000869
:1043A000404300082043000830430008000000009C
:1043B00000000000000000000000000000000000FD
:1043C00000000000000000000000000000000000ED
:1043D00000000000000000000000000000000000DD
:0443E00000000000D9
:0400000508000131BD
:00000001FF
