:020000040800F2
:100000007041002045020008D9270008D7230008C6
:100010004D26000821080008B1310008000000004A
:100020000000000000000000000000007D0100084A
:10003000210A000800000000F50100083102000854
:100040005F0200085F0200085F0200085F0200080C
:100050005F0200085F0200085F0200085F020008FC
:100060005F0200085F0200085F0200085F020008EC
:100070005F0200085F0200085F0200085F020008DC
:10008000E50900085F0200085F0200085F0200083F
:100090005F0200085F0200085F0200085F020008BC
:1000A0005F0200085F0200085F0200085F020008AC
:1000B0005F0200085F0200085F0200085F0200089C
:1000C0005F0200085F0200085F0200085F0200088C
:1000D0005F02000865310008753100085F02000802
:1000E0005F0200085F0200085F020008DFF820D00E
:1000F00000F012FBAFF3008005F074FA0021034812
:1001000005F050FB05F080FAFEE7000038760008A5
:100110007041002080F309887047EFF30980704731
:10012000684680F3098804480078C00714BF02209D
:10013000032080F314887047F8750008DFF818C0B2
:10014000EFF305831B0618BF6047EFF31483DB074B
:1001500008BF604700DF7047795A0008DFF818C011
:10016000EFF305831B0618BF6047EFF31483DB072B
:1001700008BF604700DF70476D5C0008EFF309803F
:10018000816911F8021CF1B990E80F10E047EFF314
:10019000098C8CE80700144B93E8060091420FD0BD
:1001A00039B12CE9F00FC1F828C00CB406F04EF9B3
:1001B0000CBC1A60D2F828C0BCE8F00F8CF3098898
:1001C0006FF0020E704710B5084A1268914209D8C4
:1001D000074C54F8214090E80F10A047EFF3098C2A
:1001E0008CE80F0010BD0000780000201C080008FB
:1001F0001C08000805F0FCFF0C4B93E80600914238
:1002000010D0EFF3098C2CE9F00FC1F828C00CB422
:1002100006F01CF90CBC1A60D2F828C0BCE8F00F3C
:100220008CF309886FF0020E704700007800002000
:1002300006F0D4F9E0E7000005F060FB06F0CEF927
:10024000DAE700000648804706480047FEE7FEE779
:10025000FEE7FEE7FEE7FEE7FEE7FEE7FEE7FEE776
:10026000D52A0008ED0000082DE9F05F05460020C2
:1002700092469B4688460646814640241BE0284617
:1002800041464746224600F020F853465A46C01AD7
:10029000914110D311461846224600F076F82D1AE7
:1002A00067EB01084F4622460120002100F06DF85F
:1002B00017EB00094E41201EA4F10104DFDC484683
:1002C00031462A464346BDE8F09F202A04DB203A07
:1002D00021FA02F00021704721FA02F3D040C2F166
:1002E00020029140084319467047D2B201E000F85D
:1002F000012B491EFBD270470022F6E710B51346CA
:100300000A4604461946FFF7F0FF204610BD30B5F7
:1003100005462A460B4612F8010B13F8014B08B1AB
:10032000A042F8D01CB1002802D06D1CF1E728468D
:1003300030BD421C10F8011B0029FBD1801A704708
:1003400030B505460020034600E05B1C934205D211
:10035000EC5CC85C201A01D1002CF6D130BD30B560
:100360000B46014600202022012409E021FA02F573
:100370009D4205D303FA02F5491B04FA02F528440D
:10038000151EA2F10102F1DC30BD202A04DB203A67
:1003900000FA02F1002070479140C2F1200320FAD8
:1003A00003F31943904070472DE9FE4F804681EAE0
:1003B0000300C00F0C46009021F0004123F00045DF
:1003C000B8EB0200A94105D24046214690461C46A2
:1003D0000B46024623F00040104347D0270DC7F3D9
:1003E0000A00C3F30A510290401A019040286BDAC8
:1003F000C3F3130040F4801B0098924620B1002301
:10040000D2EB030A63EB0B0B01985946C0F1400293
:100410005046FFF7BAFF06460D4650465946019A28
:1004200000F08CF910EB08006141002487EA1152BA
:1004300084EAE7731A4340D0009A62B3019A012A12
:100440004FEA075215DC001B61EB02014FF000423E
:1004500002EA0752CDE90042001C41F58011324604
:100460002B4600F08CF903B0BDE8F08F40462146E2
:10047000F9E7001B61EB0201001C41F58013001835
:100480005B412018A2F5001747EB030140EAD57045
:10049000B6196D4111E06D084FEA360645EAC075A0
:1004A0004FEA0752001B61EB0201001C41F580116D
:1004B00049084FEA30000019514132462B4603B03B
:1004C000BDE8F04F00F04CB9009801224000002335
:1004D000D0EB020263EBE073009821464FEAE07430
:1004E000B8EB000061EB0401E9E783F000435BE750
:1004F00081F0004158E72DE9FE4F81EA030404F042
:10050000004421F0004100944FF0000B23F0004321
:1005100050EA01045ED052EA03045BD0C3F30A54EC
:10052000C1F30A552C44A4F2F3340194A0FB025405
:10053000C1F3130141F48011C3F3130343F4801397
:1005400001FB024400FB034E840A970A44EA8154EB
:1005500047EA8357A4FB076802958D0A05FB0785C8
:100560004FEA932C04FB0C542705029D4FEA0658D2
:1005700047EA1637B5EB08056EEB070C870E920EAF
:1005800047EA811742EA8312A7FB0201B6EB0B018F
:1005900064EB00042B0D43EA0C335E1844EB1C5053
:1005A000DA465146E7FB0201C5F313044FEA0B3369
:1005B00043EA14534FEA0432019C43EA0603A4F1D0
:1005C0000C040294009CCDE900B400F0D8F803B00C
:1005D000BDE8F08F00200146F9E72DE9F04D81EAF2
:1005E000030404F0004B21F0004514464FF0000ACC
:1005F00023F0004150EA050220D054EA01021DD048
:10060000C5F30A570246C5F31303C1F31300C1F340
:100610000A5640F4801543F48013A7EB0608101B1C
:10062000D64608F2FD3873EB050002D308F1010845
:1006300001E092185B41B8F1000F03DA0020014697
:10064000BDE8F08D00204FF48011064684460EE090
:10065000171B73EB050705D3121B63EB050306435A
:100660004CEA010C49084FEA300092185B4150EA0D
:100670000107EDD152EA030012D082EA040083EAB6
:100680000501084305D0101BAB4106D2012200230F
:1006900006E000224FF0004302E06FF00102531029
:1006A0001AEB06004CEB085110EB0A0041EB0B0172
:1006B000BDE8F04D00F054B8C1F30A52C1F3130184
:1006C00040F2FF3341F480119A4202DA00200146E1
:1006D000704740F233439A42A2F2334202DC524264
:1006E000FFF7F3BDFFF751BE30B5041E71F10004F2
:1006F00004DB4FF00044404264EB0101141E73F12F
:10070000000405DB1C464FF00043524263EB040338
:10071000994208BF904230BD064C074D06E0E068A4
:1007200040F0010394E8070098471034AC42F6D338
:10073000FFF7E0FC6076000880760008202A06DBE0
:10074000CB17203A41FA02F043EAE07306E041FA9F
:1007500002F3D040C2F1200291400843194670478D
:1007600010B5141E73F1000408DA401C41F10001B9
:1007700092185B411A4301D120F0010010BD2DE910
:10078000F04D92469B4611B1B1FA81F202E0B0FA07
:1007900080F220329046FFF7F8FD04460F4640EA0B
:1007A0000A0041EA0B0153465A46084313D011464A
:1007B00053EA010019D0C8F140025046FFF785FD09
:1007C00005460E46504659464246FFF7DEFD0843B1
:1007D00005D0012004E020463946BDE8F08D002018
:1007E000054346EAE0762C4337430A986305E40A5A
:1007F000A0EB08000022FD0A44EA47540A3002D563
:1008000000200146E9E7010510196941DDE90845C5
:1008100000196941BDE8F04DA2E7000000000000AA
:1008200000BFFEE710B5002400F02AF804E0601CC9
:10083000C4B2012000F0F6F84FF400410F4800F078
:10084000C7FC08B1642CF2DB642C01DB012010BD75
:10085000002404E0601CC4B2012000F0E3F84FF46F
:100860000041064800F0B4FC08B9642CF2DB642CAB
:1008700001DB0120EBE70020E9E700000010014068
:100880001FB5002000900190029003904FF40040AB
:10089000009000200190012002906946014800F07C
:1008A00007FB1FBD001001401FB500200090019004
:1008B0000290039000224FF40041084800F09AFC97
:1008C0004FF400400090012001900290022003901C
:1008D0006946024800F0ECFA1FBD0000001001401C
:1008E00010B5FFF7E1FF00224FF40041074800F088
:1008F00081FC142000F0C8FA0122D103034800F063
:1009000079FC1E2000F08EF810BD000000100140A0
:1009100010B504E0601CC4B2012000F083F84FF46D
:100920000041114800F054FC08B1642CF2DB0024B3
:1009300004E0601CC4B2012000F074F84FF40041E0
:10094000094800F045FC08B9642CF2DB282000F0CF
:1009500069F84FF40041044800F03AFC08B1012066
:1009600010BD0020FCE700000010014070B500241D
:10097000002506E06006040EFFF7CAFF0443681C6A
:10098000C5B2082DF6DB204670BD7CB505460E4687
:10099000FFF7A6FFFFF746FFF8B9002405E0FFF7D1
:1009A000E5FF0DF80400601CC4B2052CF7DB9DF8D0
:1009B00000009DF8011008449DF8021008449DF8BD
:1009C000031008449DF80410884208D19DF80000E7
:1009D00030709DF80200287001E001207CBD0020ED
:1009E000FCE7000010B5024800F0FEF810BD000062
:1009F0007001002030B590F840500124AC40C56B28
:100A00006C60046863604468102C04D10468A260C0
:100A10000468E16003E00468A1600468E26030BD3E
:100A20007047000010B50446002008490968486274
:100A3000064801F0B7F800BF04480068406AA042C9
:100A4000FAD9024801F0E4F810BD00009800002037
:100A500072B600BFFEE72DE9F04105460C4616468A
:100A600005F11800216850F8210032784FF0FF316D
:100A7000914000EA01074FF0000867B1384604F0E2
:100A80003DFC306005F15000216800EBC110316879
:100A900050F821801DE02278521C4FF0FF33934024
:100AA000696901EA030004F029FC2060206800283D
:100AB0000FDD05F11801226851F8220004F01EFC38
:100AC000306005F15000216800EBC110316850F82A
:100AD00021804046BDE8F0810146002291F82100C6
:100AE000022808D00420886300BF002081F820007D
:100AF00000BF012070470868006820F00E000B68F6
:100B000018600868006820F001000B68186091F810
:100B1000403001209840CB6B5860012081F82100C3
:100B200000BF002081F8200000BF1046E2E700006F
:100B300070B50446002594F82100022803D0042053
:100B4000A063012548E02068006820F00E002168BD
:100B500008602068006820F00100216808601F49D3
:100B60002068884201D1012026E01C491431206808
:100B7000884201D110201FE018492831206888429E
:100B800001D1801518E015493C312068884201D117
:100B9000801411E0114950312068884202D14FF48D
:100BA000803009E00D4964312068884202D14FF459
:100BB000801001E04FF0807008490839486001203A
:100BC00084F8210000BF002084F8200000BF606B83
:100BD00010B12046616B8847284670BD080002406E
:100BE0000146886B7047000070B50446E06B0568ED
:100BF0002068066894F840100420884028400028A7
:100C000046D006F00400002842D02068006800F0BA
:100C1000200028B92068006820F0040021680860DE
:100C200057492068884201D1042027E054491431F3
:100C30002068884201D1402020E0514928312068B5
:100C4000884201D1001519E04D493C3120688842A5
:100C500002D14FF4804011E0494950312068884268
:100C600002D14FF4802009E0454964312068884270
:100C700002D14FF4800001E04FF080604049083914
:100C80004860E06A00287AD02046E16A884776E02A
:100C900094F84010022088402840A0B306F00200DB
:100CA00088B32068006800F0200040B92068006820
:100CB00020F00A0021680860012084F821003049F2
:100CC0002068884201D1022028E02D491431206893
:100CD000884201D1202021E029492831206888421A
:100CE00001D140151AE026493C312068884202D1E2
:100CF0004FF4005012E0224950312068884203D15D
:100D00004FF400300AE017E01D4964312068884242
:100D100002D14FF4001001E04FF00070184908397B
:100D2000486000BF002084F8200000BFA06A30B3F4
:100D30002046A16A884722E094F8401008208840A5
:100D40002840E0B106F00800C8B12068006820F033
:100D50000E002168086094F8401001208840E16B83
:100D600048600120A06384F8210000BF002084F8BF
:100D7000200000BF206B10B12046216B884770BD5A
:100D8000080002400146002209B901207047164BB5
:100D90000868C01A1423B0FBF3F0800008641248FE
:100DA0000838C863022081F821000868026843F609
:100DB000F0708243D1E901031843CB6818430B69F3
:100DC00018434B6918438B691843CB691843024396
:100DD0000868026000208863012081F8210000205B
:100DE00081F8200000BFD1E7080002402DE9F04162
:100DF00004460D4616461F464FF0000800BF94F803
:100E00002000012802D10220BDE8F081012084F8F1
:100E1000200000BF94F8210001282CD1022084F882
:100E200021000020A0632068006820F001002168F4
:100E300008603B46324629462046FFF7DBFDE06A64
:100E400030B12068006840F00E00216808600BE0B7
:100E50002068006820F004002168086020680068AD
:100E600040F00A00216808602068006840F0010036
:100E70002168086006E000BF002084F8200000BF61
:100E80004FF002084046BFE770B5044600F0B8F9DD
:100E900006462546681C10B104480078054400BF8A
:100EA00000F0AEF9801BA842FAD370BD0800002004
:100EB0002DE9F8470346002294466EE14FF0010801
:100EC00008FA02F4D1F8008008EA0400A0427DD1BB
:100ED000DFF8DCA2D1F80480A8EB0A09D0453AD0AB
:100EE00014DCB8F1030F50D009DCB8F1000F31D099
:100EF000B8F1010F1CD0B8F1020F49D120E0B8F1D0
:100F0000110F18D0B8F1120F42D11EE0B9F5881FA9
:100F100025D006DCB9F5803F20D0B9F5801F37D148
:100F20001AE0B9F5001F18D0B9F5041F30D117E049
:100F3000D1F80CC02DE0D1F80C8008F1040C28E0A9
:100F4000D1F80C8008F1080C23E0D1F80C8008F1EE
:100F50000C0C1EE000BF00BF00BF00BF00BF00BF01
:100F6000D1F80880B8F1000F02D14FF0040C0BE06B
:100F7000D1F80880B8F1010F03D14FF0080C1C61C3
:100F800002E04FF0080C5C6103E04FF0000C00E061
:100F900000BF00BFFF2801D8984601E003F1040814
:100FA0004646FF2802D84FEA820803E0A2F108086B
:100FB0004FEA88084746D6F800804FF00F0909FA33
:100FC00007F928EA09080CFA07F900E088E048EA7E
:100FD0000908C6F80080D1F8048008F08058B8F1FC
:100FE000805F7DD100BFDFF8CC81D8F8188048F051
:100FF0000108DFF8C091C9F81880C846D8F81880F1
:1010000008F00108CDF8008000BF00BF4FEAB938F2
:101010004FEA920958F829504FEA82784FEA187936
:101020004FF00F0808FA09F825EA0805DFF888816B
:10103000434502D14FF0000816E0DFF880814345B8
:1010400002D14FF001080FE0DFF87481434502D16F
:101050004FF0020808E0DFF86C81434502D14FF001
:10106000030801E04FF004084FEA82794FEA19794A
:1010700008FA09F848EA0505DFF84C814FEA9209B9
:1010800048F82950D1F8048008F48018B8F5801F7A
:101090000AD1DFF83881D8F8008048EA0008DFF884
:1010A0002C91C9F8008009E0DFF82081D8F8008091
:1010B00028EA0008DFF81491C9F80080D1F804800C
:1010C00008F40018B8F5001F10D1DFF8008108F10E
:1010D0000408D8F8008048EA0008DFF8F09000E043
:1010E0005AE009F10409C9F800800DE0DFF8DC805E
:1010F00008F10408D8F8008028EA0008DFF8CC904E
:1011000009F10409C9F80080D1F8048008F4003816
:10111000B8F5003F0ED1DFF8B480A8F10408D8F884
:10112000008048EA0008DFF8A490A9F10409C9F892
:1011300000800DE0DFF89480A8F10408D8F8008062
:1011400028EA0008DFF88490A9F10409C9F80080B2
:10115000D1F8048008F48038B8F5803F0ED1DFF86C
:101160006C80A8F10808D8F8008048EA0008DFF889
:101170005C90A9F10809C9F800800DE0DFF84C8007
:10118000A8F10808D8F8008028EA0008DFF83C90A9
:10119000A9F10809C9F80080521CD1F8008028FA8A
:1011A00002F8B8F1000F7FF489AEBDE8F8870000BF
:1011B000000011100010024000080140000C014026
:1011C00000100140001401400800014008040140E3
:1011D000024693680B400BB1012000E000207047ED
:1011E00010B5C26821EA020302EA010443EA04439B
:1011F000036110BD0AB1016101E00B040361704796
:1012000001480068704700007400002010B50848CD
:10121000006840F0100006490860032000F0B0F8B4
:10122000012000F007F800F02BF8002010BD0000AE
:101230000020024070B504460E4800784FF47A71E1
:10124000B1FBF0F00C490968B1FBF0F5284600F05D
:1012500001FC08B1012070BD102C07D200222146EC
:10126000501E00F04FF80548046001E00120F2E74D
:101270000020F0E7080000200C00002004000020FF
:1012800008B500BF1548806940F001001349886126
:101290000846806900F00100009000BF00BF00BF59
:1012A0000846C06940F08050C8610846C06900F037
:1012B0008050009000BF00BF062000F061F80022BF
:1012C0000121C81E00F01EF800BF0549486820F043
:1012D000E06040F00070486000BF08BD00100240B0
:1012E0000000014001460846002809DB00F01F030A
:1012F00001229A4043099B0003F1E023C3F8002137
:1013000000BF70472DE9F05F80460D461646002766
:1013100002F072F8074639462A46334601F00700C4
:10132000C0F1070ABAF1040F02D94FF0040A01E034
:10133000C0F1070AD14600F1040ABAF1070F02D240
:101340004FF0000A01E0A0F1030AD4464FF0010A71
:101350000AFA09FAAAF1010A0AEA020A0AFA0CFAD6
:101360004FF0010B0BFA0CFBABF1010B0BEA030B7B
:101370004AEA0B042146404602F046F8BDE8F09FD9
:1013800000BF00F00702064B19684FF6FF03194033
:10139000044B0B4343EA0221014B196000BF704725
:1013A0000CED00E00000FA0570B504460D460CB9DE
:1013B000012070BD5A48006800F00700A8420ED214
:1013C0005748006820F00700284355490860084640
:1013D000006800F00700A84201D00120E9E720786A
:1013E00000F0020002281DD1207800F0040004283B
:1013F00005D14C48406840F4E0604A494860207894
:1014000000F00800082805D14648406840F46050C4
:10141000444948604348406820F0F000A168084310
:1014200040494860207800F0010078B360680128E6
:1014300006D13C48006800F4003090B90120B8E7BC
:101440006068022806D13748006800F0007040B993
:101450000120AEE73348006800F0020008B901201F
:10146000A7E73048406820F00300616808432D4931
:101470004860FFF7C5FE064609E0FFF7C1FE801B86
:1014800041F28831884202D9032092E707E02548DB
:10149000406800F00C006168B0EB810FEDD120488E
:1014A000006800F00700A8420ED91D48006820F02F
:1014B000070028431A4908600846006800F0070042
:1014C000A84201D0012074E7207800F0040004282D
:1014D00007D11448406820F4E060E16808431149EE
:1014E0004860207800F00800082808D10D484068BE
:1014F00020F46050216940EAC1000A49486000F0C8
:101500003FF808494968C1F30311074A515CC840D4
:101510000649086006480068FFF78CFE002048E78F
:101520000020024000100240877000080C000020DC
:101530000400002001480068704700000C000020F3
:1015400000B5FFF7F7FF04494968C1F30221034AD8
:10155000515CC84000BD00000010024097700008B8
:1015600000B5FFF7E7FF04494968C1F3C221034A08
:10157000515CC84000BD0000001002409770000898
:1015800070B500210022002400230020134D69685B
:1015900001F00C05F5B1042D02D0082D19D101E0A0
:1015A0000F4819E00F4DC1F38346AB5D01F4803560
:1015B00055B10A4D6D68C5F340450B4E725D084D3F
:1015C0005D43B5FBF2F402E0084D03FB05F4204651
:1015D00002E000BF024800BF00BF70BD0010024023
:1015E00000127A00757000088570000800093D003F
:1015F000F8B504460CB90120F8BD207800F00100D0
:10160000002878D0F848406800F00C0004280CD07E
:10161000F548406800F00C00082811D1F2484068F5
:1016200000F48030B0F5803F0AD1EF48006800F444
:10163000003000285FD0606800285CD10120DBE723
:1016400000BF6068B0F5803F06D1E748006840F40D
:101650008030E549086028E0606858B9E2480068D1
:1016600020F48030E04908600846006820F48020BB
:1016700008601AE06068B0F5A02F0BD1DA48006866
:1016800040F48020D84908600846006840F4803063
:1016900008600AE0D448006820F48030D24908602D
:1016A0000846006820F48020086000BF606888B1A8
:1016B000FFF7A6FD054606E0FFF7A2FD401B6428E4
:1016C00001D9032098E7C848006800F400300028DA
:1016D000F2D010E0FFF794FD054606E0FFF790FD1D
:1016E000401B642801D9032086E7BF48006800F446
:1016F00000300028F2D1207800F00200022857D1F3
:10170000B948406800F00C0050B1B748406800F09C
:101710000C00082818D1B448406800F4803098B90B
:10172000B148006800F0020020B12069012801D012
:10173000012061E7AC48006820F0F800616940EAE8
:10174000C100A949086033E02069E8B10120A74938
:101750000860FFF755FD054606E0FFF751FD401B09
:10176000022801D9032047E79F48006800F00200E3
:101770000028F2D09C48006820F0F800616940EA37
:10178000C1009949086013E0002098490860FFF7FC
:1017900037FD054606E0FFF733FD401B022801D95F
:1017A000032029E79048006800F002000028F2D1E9
:1017B000207800F0080008282DD1A069B8B10120D8
:1017C0008B490860FFF71CFD054606E0FFF718FD92
:1017D000401B022801D903200EE78348406A00F02D
:1017E00002000028F2D0012001F0B4F813E000203C
:1017F0007F490860FFF704FD054606E0FFF700FD9E
:10180000401B022801D90320F6E67748406A00F021
:1018100002000028F2D1207800F00400042873D1DF
:1018200000277148C06900F0805070B900BF6E4851
:10183000C06940F080506C49C8610846C06900F03A
:101840008050009000BF00BF01276A48006800F484
:101850008070B0B96748006840F4807065490860DE
:10186000FFF7CEFC054606E0FFF7CAFC401B6428E4
:1018700001D90320C0E65F48006800F480700028AA
:10188000F2D000BFE068012806D15748006A40F056
:1018900001005549086227E0E06858B95248006ADB
:1018A00020F00100504908620846006A20F0040058
:1018B000086219E0E06805280BD14B48006A40F047
:1018C0000400494908620846006A40F001000862C5
:1018D0000AE04548006A20F00100434908620846D2
:1018E000006A20F00400086200BFE068A0B1FFF7C2
:1018F00087FC054609E0FFF783FC401B41F2883175
:10190000884202D9032077E622E03748006A00F0D7
:1019100002000028EFD012E0FFF772FC054608E055
:10192000FFF76EFC401B41F28831884201D9032049
:1019300062E62D48006A00F002000028F0D1012F75
:1019400005D12948C06920F080502749C86100BFEF
:10195000E069C8B32448406800F00C00082860D053
:10196000E069022848D1002020490866FFF748FCBA
:10197000054606E0FFF744FC401B022801D903207E
:101980003AE61948006800F000700028F2D1206A99
:10199000B0F5803F07D11448406820F40030A168BA
:1019A000084311494860D4E9080108430E494968D1
:1019B00021F4741108430C49486001200B49086662
:1019C000FFF71EFC054607E03DE0FFF719FC401B52
:1019D000022801D903200FE60348006800F00070D8
:1019E0000028F2D02FE00000001002400000424228
:1019F0008004424200700040002014490866FFF74E
:101A0000FFFB054606E0FFF7FBFB401B022801D960
:101A10000320F1E50E48006800F000700028F2D1C4
:101A200011E0E069012800D1E6E50948466806F4BE
:101A30008031206A814204D106F47011606A8142CB
:101A400001D00120D8E50020D6E500000000424288
:101A50000010024070B504462546681EB0F1807F34
:101A600001D301200FE0681E4FF0E02148610F21F3
:101A70004FF0FF3001F0C8FC00204FF0E0218861FA
:101A800007200861002070BD30B502460B4600BF3C
:101A900092F83C00012801D1022030BD012082F8DB
:101AA0003C0000BF022082F83D00106844681068C6
:101AB000816824F070041868044310684460104D75
:101AC0001068A8420BD01068B0F1804F07D00D4DC0
:101AD0001068A84203D00C4D1068A84205D121F02F
:101AE00080015868014310688160012082F83D0040
:101AF00000BF002082F83C0000BF00BFCDE700001F
:101B0000002C0140000400400008004010B50446CD
:101B10000CB9012010BD94F83D0028B9002084F8CC
:101B20003C00204600F026F8022084F83D00211DEC
:101B3000206800F0D1FF012084F8460000BF84F83F
:101B40003E0001213F200155402001554120015513
:101B500000BF00BF012084F842004320015544200B
:101B600001554520015500BF012084F83D000020AB
:101B7000D0E7000008B5094A016891420DD100BFC5
:101B80000749C96941F00401054AD1611146C96993
:101B900001F00401009100BF00BF08BD0008004033
:101BA00000100240014691F83D00012801D00120BB
:101BB0007047022081F83D00124B086898420BD014
:101BC0000868B0F1804F07D00F4B0868984203D0E7
:101BD0000E4B086898420CD10868806800F0070234
:101BE000062A0CD00868006840F001000B681860F5
:101BF00005E00868006840F001000B6818600020EC
:101C0000D6E70000002C014000040040000800401E
:101C1000014600BF0868006A41F21112104050B935
:101C20000868006A9210104028B90868006820F01F
:101C300001000A68106000BF012081F83D0000200B
:101C400070472DE9F04104460D46002700BF94F887
:101C50003C00012802D10220BDE8F081012084F877
:101C60003C0000BF022084F83D002068866826F012
:101C7000770626F47F46206886602868502833D08F
:101C80000CDC202850D004DC00284BD0102851D187
:101C900049E0302849D040284CD139E060282DD087
:101CA000702807D0B0F5805F03D0B0F5005F41D158
:101CB0000DE041E0D5E902136A68206800F046FFB4
:101CC0002068866846F077062068866034E0D5E9AB
:101CD00002136A68206800F039FF2068806840F4C9
:101CE00080402168886027E0EA686968206800F021
:101CF00041FF5021206800F034FF1DE0EA68696868
:101D0000206800F04AFF6021206800F02AFF13E0FD
:101D1000EA686968206800F02DFF4021206800F023
:101D200020FF09E000BF00BF00BF2968206800F065
:101D300018FF01E0012700BF00BF012084F83D002B
:101D400000BF002084F83C0000BF384684E770479D
:101D500010B5044600BF00BF21680C3151E8001FD8
:101D600021F4907021680C3141E80002002AF3D17F
:101D700000BF00BF00BF2168143151E8001F21F0EF
:101D800001002168143141E80002002AF3D100BFAC
:101D9000206B01280ED100BF00BF21680C3151E833
:101DA000001F21F0100021680C3141E80002002AD8
:101DB000F3D100BF2068406900F0400000B300BFCD
:101DC00000BF2168143151E8001F21F04000216854
:101DD000143141E80002002AF3D100BFE06B78B172
:101DE0000020E16B4863E06BFEF776FE40B1E06BEC
:101DF000FEF7F6FE202803D110206064032010BDFA
:101E00000020E085202084F842000020206300BFED
:101E1000F5E7704710B504460348844203D100211A
:101E2000024805F0A1F810BD28010020042500207B
:101E30002DE9F84F0446206805682068C6682068C8
:101E400047694FF00009CA4605F00F09B9F1000FC4
:101E50000AD105F0200038B106F0200020B120465C
:101E600000F0A6FFBDE8F88FB9F1000F7BD007F0B6
:101E7000010018B906F49070002874D005F0010034
:101E800030B106F4807018B1606C40F001006064FD
:101E900005F0040030B107F0010018B1606C40F0AB
:101EA0000200606405F0020030B107F0010018B1D3
:101EB000606C40F00400606405F0080048B106F072
:101EC000200010B907F0010018B1606C40F0080064
:101ED0006064606C002845D005F0200028B106F051
:101EE000200010B1204600F063FF20684069C0F375
:101EF000801A606C00F0080010B9BAF1000F2CD005
:101F0000204600F0FCFE2068406900F0400000B36D
:101F100000BF00BF2168143151E8001F21F04000CC
:101F20002168143141E80002002AF3D100BFE06BC0
:101F300050B17748E16B4863E06BFEF7F9FD88B17B
:101F4000E06B416B88470DE02046FFF762FF09E038
:101F500009E02046FFF75DFF04E02046FFF759FF48
:101F6000002060647EE7206B012877D105F0100027
:101F7000002873D006F010000028FAD000BF00201F
:101F8000009020680068009020684068009000BFC2
:101F900000BF2068406900F0400000285FD0E06B7F
:101FA000006840681FFA80F8B8F1000F55D0A08D86
:101FB000404552DDA4F82E80E06B8069202843D094
:101FC00000BF00BF21680C3151E8001F21F4807070
:101FD00021680C3141E80002002AF3D100BF00BFA4
:101FE00000BF2168143151E8001F21F00100216871
:101FF000143141E80002002AF3D100BF00BF00BF46
:102000002168143151E8001F21F04000216814318B
:1020100041E80002002AF3D100BF202084F84200EA
:102020000020206300BF00BF21680C3151E8001F71
:1020300021F0100021680C3141E80002002AF3D1A0
:1020400000BFE06BFEF748FD02206063A08DE28DCB
:10205000801A81B22046FFF77AFE03E742E0A08DA6
:10206000E18D401A1FFA80F8E08DD0B3B8F1000F6F
:1020700037D000BF00BF21680C3151E8001F21F4A8
:10208000907021680C3141E80002002AF3D100BFB2
:1020900000BF00BF2168143151E8001F21F001008A
:1020A0002168143141E80002002AF3D100BF20204A
:1020B00084F842000020206300BF00BF21680C317B
:1020C00051E8001F21F0100021680C3141E80002A6
:1020D000002AF3D100BF0220606341462046FFF78B
:1020E00036FEBFE605F0800030B106F0800018B182
:1020F000204600F0BDFFB5E605F0400030B106F027
:10210000400018B1204600F030FEABE600BFA9E663
:10211000C32B000810B504460CB9012010BDA069FE
:1021200000B100E000BF94F8410028B9002084F815
:102130004000204600F02AF8242084F8410020685E
:10214000C06820F400502168C860204600F0AEFE50
:102150002068006920F49040216808612068406987
:1021600020F02A00216848612068C06840F40050CF
:102170002168C86000206064202084F8410084F851
:1021800042000020606300BFC8E7000010B586B0C1
:10219000044600200290039004900590484920686E
:1021A000884237D100BF4748806940F480404549A4
:1021B00088610846806900F48040019000BF00BF3C
:1021C00000BF0846806940F00400886108468069C5
:1021D00000F00400019000BF00BF481502900220EB
:1021E00003900320059002A93748FEF761FE4FF4E3
:1021F0008060029000200390049002A93248FEF70C
:1022000057FE002211462520FFF77CF82520FFF716
:1022100069F852E02D49206888424ED100BF294814
:10222000C06940F400302749C8610846C06900F41D
:102230000030019000BF00BF00BF0846806940F039
:10224000040088610846806900F00400019000BF26
:1022500000BF04200290022003900320059002A9F1
:102260001948FEF725FE08200290002003900490F4
:1022700002A91548FEF71CFE154816490860002003
:1022800048600021134881608021C1600021016104
:1022900041618161C161FEF775FD08B1FEF7D8FBB0
:1022A00000BF0C48E063446200BF002211462620B4
:1022B000FFF728F82620FFF715F806B010BD00003C
:1022C0000038014000100240000801400044004076
:1022D0006C0002407001002070B504460D461646A1
:1022E00094F8420020280BD105B10EB9012070BD31
:1022F0000020206332462946204600F055FEF6E7CE
:102300000220F4E710B504460348844203D10121BA
:10231000024804F029FE10BD2801002004250020F9
:1023200070472DE9F84F04460E46174699464FF080
:10233000000A94F8410020284AD106B117B90120BB
:10234000BDE8F88F00206064212084F84100FEF78A
:1023500057FF8246A784E784A068B0F5805F04D168
:10236000206910B90025B04602E035464FF000085C
:102370001BE05346002280212046CDF8009000F05B
:10238000A7FE08B10320DBE745B9B8F80000C0F3A9
:1023900008002168486008F1020803E028782168F5
:1023A00048606D1CE08C401EE084E08C0028E0D189
:1023B0005346002240212046CDF8009000F088FED0
:1023C00008B10320BCE7202084F841000020B7E7D3
:1023D0000220B5E7704700BFFEE770B505460C4622
:1023E0001646802D04D200202060A80830600CE042
:1023F000284603F0DBF820602178491F25FA01F018
:10240000203830602068801F206070BD2DE9F041C9
:1024100004460D4616462068802805D20020286014
:102420002068800830601AE0206803F0BFF8401F81
:10243000012101FA00F0471E20683844206020681E
:1024400003F0B4F828602978491F2068C840203874
:1024500030602868801F28602068B8432060BDE88D
:10246000F081000008B500BF0A48406940F0010053
:10247000084948610846406900F00100009000BF2B
:1024800000BF002211461020FEF73CFF1020FEF78F
:1024900029FF08BD0010024000B585B00020019062
:1024A00002900390049000BF2E48806940F0100015
:1024B0002C4988610846806900F01000009000BF38
:1024C00000BF00BF0846806940F0200088610846D0
:1024D000806900F02000009000BF00BF00BF0846E8
:1024E000806940F0040088610846806900F00400BB
:1024F000009000BF00BF00BF0846806940F00800A0
:1025000088610846806900F00800009000BF00BFA5
:10251000012251031448FEF76DFE4FF40050019064
:1025200001200290002003900220049001A90E488F
:10253000FEF7BEFC4FF440400190002002900120C5
:10254000039001A90848FEF7B3FC4FF4C040019086
:10255000002002900120039001A90448FEF7A8FC86
:1025600005B000BD0010024000100140000C014009
:1025700000B587B00020039004900590069001906C
:10258000029014481449086047204860002112480E
:1025900081604FF6FF71C160002101618161FFF729
:1025A000B5FA08B1FEF754FA4FF48050039003A92E
:1025B0000948FFF746FB08B1FEF74AFA00200190F0
:1025C000029001A90448FFF75FFA08B1FEF740FA4C
:1025D00007B000BD000800409800002010B50B486F
:1025E0000B4908604FF4E1304860002108488160E1
:1025F000C16001610C21416100218161C161FFF76E
:1026000089FD08B1FEF724FA10BD00000038014032
:10261000E000002010B50B480B4908604FF416503D
:102620004860002108488160C16001610C2141615E
:1026300000218161C161FFF76DFD08B1FEF708FA65
:1026400010BD0000004400402801002000BFFEE74C
:1026500010B500210248006803F00CF810BD00001E
:10266000480000202DE9F04106460F46102004F0F6
:10267000E7FB044614B90020BDE8F081002020608B
:102680006060A060E060E760A6601348406830B911
:1026900011484460046000202060606009E00E483A
:1026A000406804600C48406860600B48446000204B
:1026B0002060FFF7CDFF054625B9204600F034F82D
:1026C0000020D9E71D2028606C60AC60284600F02F
:1026D00077F82046D0E70000380000203EB54FF0E4
:1026E000FF311048006803F001F88DE807000098FA
:1026F000202815D1019C606828B16568A86810B1D0
:102700002046A9688847207B012804D1206910B1A0
:10271000206904F077FB21460248006802F0D8FFE8
:1027200000203EBD4800002070B505462C4605B986
:1027300070BD19484068A04203D017480068A04205
:1027400018D115484068A04207D113496068486015
:10275000606810B10020616808600F480068A042FE
:1027600012D10D4920680860206868B100202168F6
:10277000486009E0606810B1D4E900010860206891
:1027800010B1D4E900104860284600F013FD20463F
:1027900004F038FB00BFCBE73800002010B5054837
:1027A000002101604160044802F07CFF0349086099
:1027B000002010BD380000208C7500084800002063
:1027C00010B5044624B121460248006802F099FF82
:1027D00010BD00004800002000BFFEE710B5012238
:1027E0000221032000F0D4F810BD00007FB504469C
:1027F0000D461646012E0CD10CA0A221164B17A295
:10280000CDE90245CDE9001018A1032001F01AFE20
:102810000BE017A0A421104B10A2CDE90245CDE991
:10282000001012A1032001F00DFE7FBD42757474EB
:102830006F6E20507265737365642C2053637265EC
:10284000656E49443A25643B20436F6E74726F6C29
:1028500049443A2564000000D17500082E2E5C75AD
:102860007365725C6170702E63000000415050000F
:10287000427574746F6E2052656C65617365642C6B
:102880002053637265656E49443A25643B20436F6B
:102890006E74726F6C49443A256400002DE9F05F54
:1028A00004468B466578A678E7792079E17840EA96
:1028B0000128A079617940EA0129207A0106607A2D
:1028C00041EA0041A07A41EA0020E17A40EA010AA7
:1028D0000D2D15D008DC012D0FD0032D0ED00B2DA2
:1028E0000FD00C2D31D10AE00F2D0BD0552D29D052
:1028F000B12D09D0F72D28D105E000BF26E025E055
:1029000024E023E022E021E0012E1AD0A7F11000FC
:102910000C2814D2DFE800F0060C0D0E0F13131272
:1029200013131011627A49464046FFF75FFF07E034
:1029300006E005E004E003E002E001E000E000BFA3
:1029400000BF03E0FFF74AFF00E000BF00BFBDE8A3
:10295000F09F000008B508490968C9084FF47A7269
:10296000B1FBF2F14143009100BF00BF00994A1E44
:1029700000920029F9D108BD0C00002001B56E239A
:10298000012269460148FFF7CCFC08BD2801002060
:1029900070B504460D461646EE20FFF7EFFFB12056
:1029A000FFF7ECFF1020FFF7E9FF200AFFF7E6FF33
:1029B000E0B2FFF7E3FF280AFFF7E0FFE8B2FFF716
:1029C000DDFFF0B2FFF7DAFFFF20FFF7D7FFFC20B3
:1029D000FFF7D4FFFF20FFF7D1FFFF20FFF7CEFF67
:1029E00070BD2DE9F04105460E4614461F46DDF840
:1029F0001880EE20FFF7C2FFB120FFF7BFFF0720CE
:102A0000FFF7BCFF280AFFF7B9FFE8B2FFF7B6FFF0
:102A1000300AFFF7B3FFF0B2FFF7B0FF0FB10121AB
:102A200000E00021C8B2FFF7A9FF08F00F0141F054
:102A30008000FFF7A3FF200EFFF7A0FFC4F30740BD
:102A4000FFF79CFFC4F30720FFF798FFE0B2FFF702
:102A500095FFFF20FFF792FFFC20FFF78FFFFF207D
:102A6000FFF78CFFFF20FFF789FFBDE8F08100B57D
:102A70008FB0282105A8FDF73FFC14216846FDF71B
:102A80003BFC0120059000040690002007900120E7
:102A9000099002200C90C1030D914FF4E0110E91AA
:102AA00005A8FEF7A5FD08B1FDF7D2FF0F200090A5
:102AB00002200190002002904FF4806003900020DB
:102AC000049002216846FEF76FFC08B1FDF7C0FFD5
:102AD0000FB000BD7047000010B50268184B984257
:102AE00008D0B0F1804F05D0164B984202D0164B5B
:102AF000984203D122F070024B681A43104B98425F
:102B000008D0B0F1804F05D00E4B984202D00E4B4A
:102B1000984203D122F44072CB681A4322F080031A
:102B20004C6943EA040202608B68C3620B688362EB
:102B3000034B984201D10B6903630123436110BD2C
:102B4000002C0140000400400008004030B50C4655
:102B5000816821F47F4142EA0325254329438160AE
:102B600030BD0A46816821F0700142F00703194325
:102B70008160704730B50B461446026A056A25F03D
:102B800001050562816921F0F00141EA041122F09A
:102B90000A021A438161026230BD30B50B46144609
:102BA000026A056A25F010050562816921F4704109
:102BB00041EA043122F0A00242EA0312816102627A
:102BC00030BD70B505466C6A0020E085E084204683
:102BD000FFF71FF970BD70B506460025746A2068BE
:102BE0004069C0F3C01594F84100212805D125B1F2
:102BF0000020E084204600F0C8F820684069C0F357
:102C0000801594F84200222805D125B10020E085E6
:102C1000204600F074F8606C40F0100060642046BC
:102C2000FFF7F7F870BD70B505466C6A2868006854
:102C300000F02000002842D1E08500BF00BF2168DD
:102C40000C3151E8001F21F4807021680C3141E8FB
:102C50000002002AF3D100BF00BF00BF2168143179
:102C600051E8001F21F001002168143141E8000201
:102C7000002AF3D100BF00BF00BF2168143151E822
:102C8000001F21F040002168143141E80002002AB1
:102C9000F3D100BF202084F84200206B01280ED120
:102CA00000BF00BF21680C3151E8001F21F0100067
:102CB00021680C3141E80002002AF3D100BF002056
:102CC0006063206B012804D1A18D2046FFF73FF8F7
:102CD00002E02046FFF716FB70BD70B505466C6A32
:102CE00001206063206B012805D1A08D410820469A
:102CF000FFF72DF802E02046FFF712FB70BD00BF82
:102D000000BF02680C3252E8002F22F49071026872
:102D10000C3242E80013002BF3D100BF00BF00BF0C
:102D20000268143252E8002F22F0010102681432C6
:102D300042E80013002BF3D100BF016B01290ED133
:102D400000BF00BF02680C3252E8002F22F01001D1
:102D500002680C3242E80013002BF3D100BF20219F
:102D600080F8421000210163704710B504462068C6
:102D7000C06820F040002168C860202084F841002D
:102D80002046FFF727FB002010BD00BF00BF0268F0
:102D90000C3252E8002F22F0C00102680C3242E8E7
:102DA0000013002BF3D100BF202180F841107047A1
:102DB000F8B5044694F84200222875D1A068B0F511
:102DC000805F0CD1206950B90025A66A2068406850
:102DD000C0F308003080A06A801CA06215E0A56ADC
:102DE0000026A068B0F5805F03D0A06828B92069EC
:102DF00018B920684068287004E02068406800F036
:102E00007F002870A06A401CA062E08D401E80B246
:102E1000E085002846D12068C06820F020002168A5
:102E2000C8602068C06820F480702168C86020688D
:102E3000406920F0010021684861202084F84200A8
:102E400000206063206B012826D10020206300BF92
:102E500000BF21680C3151E8001F21F010002168EB
:102E60000C3141E80002002AF3D100BF206800685D
:102E700000F0100010280AD100BF00200090206848
:102E80000068009020684068009000BF00BFA18DDE
:102E90002046FEF75CFF02E02046FFF733FA0020F1
:102EA000F8BD01E00020FBE70220F9E770B5044619
:102EB0002168096921F44051E268114322681161D7
:102EC0002269A1681143626941EA02052168C96863
:102ED00041F20C62914329432268D160216849691B
:102EE00021F44071A2691143226851612D4A216881
:102EF000914202D1FEF734FB01E0FEF721FB00EB2B
:102F0000C00101EB001162689200B1FBF2F100EB2D
:102F1000C00202EB001263689B00B2FBF3F2642371
:102F2000B2FBF3F202EBC20303EB0212A1EB82014C
:102F3000322202EB01116422B1FBF2F101F0F00147
:102F400000EBC00202EB001263689B00B2FBF3F2DD
:102F50006423B2FBF3F201EB021200EBC00101EBC0
:102F6000001163689B00B1FBF3F100EBC00303EBBE
:102F700000136668B600B3FBF6F36426B3FBF6F302
:102F800003EBC30606EB0313A1EB8301322303EB30
:102F900001116423B1FBF3F101F00F011144226828
:102FA000916070BD0038014077B581B00446154688
:102FB0000298A062A58500206064222084F8420067
:102FC0002848E16B88622848E16BC8622748E16BBA
:102FD00008630020E16B486302AE32682368191D64
:102FE0002B46E06BFDF702FF00BF00200090206839
:102FF0000068009020684068009000BF00BF206912
:1030000070B100BF00BF21680C3151E8001F41F4CE
:10301000807021680C3141E80002002AF3D100BF22
:1030200000BF00BF2168143151E8001F41F00100CA
:103030002168143141E80002002AF3D100BF00BF2B
:1030400000BF2168143151E8001F41F040002168A1
:10305000143141E80002002AF3D100BF002004B07F
:1030600070BD0000272C0008DB2C0008D72B0008BF
:10307000014691F84100212828D18868B0F5805F89
:103080000BD1086948B90A6A1088C0F308000B68B8
:103090005860086A801C086205E00B6A581C0862C8
:1030A00018780B685860C88C401E80B2C88458B924
:1030B0000868C06820F080000B68D8600868C068A5
:1030C00040F040000B68D860002070470220FCE709
:1030D0002DE9F04104460D4617469846069E34E019
:1030E000701C88B32EB1FEF78BF8A0EB0800B0423D
:1030F0002BD900BF00BF21680C3151E8001F21F41B
:10310000D07021680C3141E80002002AF3D100BFE1
:1031100000BF00BF2168143151E8001F21F00100F9
:103120002168143141E80002002AF3D100BF2020B9
:1031300084F8410084F8420000BF002084F8400079
:1031400000BF0320BDE8F081FFE720680068284049
:10315000A84201D1012000E00020B842C0D00020E8
:10316000F0E7000010B50248FEF762FE10BD000057
:10317000E000002008B50D48FEF75AFE0B48006835
:103180000068C0F3001078B100BF0020009007482D
:10319000006800680090054800684068009000BF23
:1031A00000BF0248FEF736FE08BD000028010020DF
:1031B00000BFFEE770B50546284600F08FF80446CC
:1031C00006E0204600F050F8284600F087F8044654
:1031D000002CF6D170BD00002DE9F04106460F46E7
:1031E00090461D46542003F02BFE044614B90020DF
:1031F000BDE8F08154212046FDF77EF82761257354
:10320000C4F81480A6601648206304F118006063B7
:1032100035B922460021183002F0ECFAA06308E02C
:10322000012D06D12246012104F1300002F0E2FA1C
:10323000A0630C48406830B90A484460046000202C
:103240002060606009E00748406804600548406805
:10325000606004484460002020602046C8E7000009
:103260007D5800084C00002070B505462C4604B976
:1032700070BDA06B02F0D4FA17484068A04203D09A
:1032800015480068A04218D113484068A04207D1F1
:10329000114960684860606810B10020616808608A
:1032A0000D480068A04212D10B49206808602068D0
:1032B00068B100202168486009E0606810B1D4E975
:1032C00000010860206810B1D4E900104860204671
:1032D00003F098FD00BFCBE74C0000200146064AF2
:1032E000106804E082688A4200D1704700680028B4
:1032F000F8D100BFF9E700004C00002070B504468B
:103300000E46254605B970BD3146A86B02F094FA09
:1033100000BFF8E72DE9F04705460E4617469846E8
:10332000DDF82090FFF794F904460CB9BDE8F0876A
:1033300025606660A76084F80C90C4F81080204671
:10334000FFF73EFA00BFF1E770B50446254605B920
:1033500070BD6969A86B02F06FFA00BFF8E7000062
:103360000248002101604160002070474C000020AD
:103370000FB4054B10B503A9044A029800F050F9A8
:1033800010BC5DF814FB0000B54C00089400002050
:103390000FB47CB50C0009AD01D0611E00E0002126
:1033A000CDE90001064B6A462946089800F038F935
:1033B000002C02D0009A002111707CBC5DF814FB37
:1033C000273D00087CB50C001D461646014601D07D
:1033D000601E00E00020CDE90010064B6A46294639
:1033E000304600F01DF9002C02D0009A0021117027
:1033F0007CBD0000273D000802480068C0F30220A1
:10340000704700000CED00E010B5002804DB0A074F
:10341000130E054A135406E00A07140E034A00F07F
:103420000F031B1FD45410BD00E400E018ED00E0B2
:10343000EFF30580704702E008C8121F08C1002A98
:10344000FAD170477047002001E001C1121F002A25
:10345000FBD170472DE9FF5F82B00021DDE9043028
:10346000020DDDF840B0034318D044F61050A2F22C
:10347000FF3242431514119801281FD0A5EB0B0011
:10348000401C5FEA000A4FF000064E4FDFF838910B
:10349000B046504615D5CAF1000413E01198012436
:1034A0004AA3012801D16FEA0B010298119AC0E9E1
:1034B0000031C0E9024206B0BDE8F09FCBF1000048
:1034C000DFE704460021404A491842EB0450CDE9A9
:1034D000001012E0E00707D032463B46404649461E
:1034E000FDF709F88046894632463B4610461946A4
:1034F000FDF701F806460F466410002CEAD1DDE91D
:103500000401DDE90023BAF1000F06DAFCF7F3FF4E
:1035100042464B46FCF7EFFF05E0FDF75EF84246FA
:103520004B46FDF75AF804460E460022284BFDF79D
:10353000DBF803D84FF0FF30014607E00022254BAF
:1035400020463146FCF730FFFDF7B6F8102409E0BD
:10355000002C0ADB0A220023FCF786FE039B303294
:103560001A55641E50EA0102F2D1641C039AC4F198
:1035700011031444119A012A03D0012208430DD1EA
:103580000AE0084304D000204FF0110B119072E7BD
:10359000A3EB0B056D1E0DE05B4504DD4FF0000253
:1035A00005F1010504E003DA4FF00002A5F1010581
:1035B000002AECD002981199C0E90231C0E9004517
:1035C00079E70000000014400000F03F30000000E8
:1035D0000000F0430000E03F10B5002A06DA22F0B8
:1035E0000042D21D22F00703102203E0D21C22F079
:1035F00003030C2213B19C188C4201D9012010BD89
:10360000024401448360C0E90021C91AD0188842ED
:1036100002D810600246F9E70020106010BD0000DB
:103620002DE9FF4F95B09A46884606460025EEE103
:10363000252877D100242746F94A0121039400E088
:10364000044316F8013F203B01FA03F01042F7D182
:1036500030782A2811D06FF02F033078A0F1300293
:10366000092A16D8039A44F0020402EB820203EB03
:1036700042021044761C0390EFE758F8042B0392A3
:10368000002A03DA504244F40054039044F0020448
:10369000761C30782E2816D116F8010F44F0040459
:1036A0002A280DD06FF02F023078A0F13003092BBB
:1036B00009D807EB870302EB4303C718761CF3E72F
:1036C00058F8047B761C30786C280FD006DC4C2828
:1036D00017D068280DD06A2814D104E0742810D0BF
:1036E0007A280FD10DE044F400140AE044F4801469
:1036F00001E044F440147278824202D104F580144F
:10370000761C761C307866280BD013DC582877D0CE
:1037100009DC002875D04528F6D04628F4D0472883
:103720001AD193E118E0632835D0642879D0652850
:1037300012D18BE1702873D008DC6728F1D069289A
:103740006FD06E280DD06F2806D1ACE073282CD036
:10375000752874D0782853D05246179990476D1C1D
:1037600054E1C4F30250022809D003280DD0D8F840
:10377000001004280DD00D6008F1040846E1D8F8C7
:103780000010EA17C1E90052F6E7D8F800100D80E2
:10379000F2E70D70F0E718F8041B8DF80010002018
:1037A0008DF80100EB46012003E058F804BB4FF010
:1037B000FF3061074FF0000102D40DE009F1010173
:1037C0008946B9420FDA8145F8DB1BF80910002958
:1037D000F4D108E009F1010189468142FADB1BF8C6
:1037E00009100029F6D103985346A0EB090721469A
:1037F0003846179A00F080FA284400EB090507E0E4
:1038000044E008E10DE01BF8010B52461799904780
:10381000B9F10109F7D2534621463846179AF2E02A
:1038200039E00A21C4F302524FF0000B0091022A42
:1038300006D058F8040BC117032A09D00AE023E088
:1038400008F1070020F00702F2E80201904605E0C7
:1038500000B2C117042A01D140B2C117002906DA0B
:103860000A460021404261EB02012D2202E02205BE
:1038700004D52B228DF80420012203E0E20701D0B9
:103880002022F7E7914657E00A2100E010214FF08F
:10389000000B00910BE010214FF0000B44F00404EA
:1038A0000827009103E008204FF0000B0090C4F3BC
:1038B0000252022A05D058F8040B0021032A08D02E
:1038C00008E008F1070020F00702F2E80201904644
:1038D00003E080B2042A00D1C0B24FF000092207F1
:1038E0002AD53278702A07D0DDF800C08CF0100C91
:1038F0005CEA0B0C05D00EE040228DF8042001227A
:1039000008E050EA010306D030238DF804308DF82A
:10391000052002229146009B83F0080353EA0B0323
:103920000AD150EA010201D1620705D530228DF893
:1039300004204FF001097F1E3278582A04D039A2A2
:103940000C920CAA02920BE03BA2F9E75B46009AAC
:10395000FCF78AFC0C9B9B5C029A521E029213702D
:1039600050EA0102F2D1029804A9081A00F1200BD2
:10397000600702D524F4803400E001275F4502DDB2
:10398000A7EB0B0000E0002000EB0B010090039878
:103990004944401A0390E00306D453462146179A3F
:1039A000039800F0A9F90544002706E001A8524653
:1039B000C05D179990476D1C7F1C4F45F6DBE003F7
:1039C0000CD553462146179A039800F095F9054403
:1039D00004E030205246179990476D1C0099481E0C
:1039E00000900029F5DC08E0029802995246007820
:1039F000491C0291179990476D1CBBF10001ABF176
:103A0000010BF1DC5BE100F065F90544761C3078D0
:103A100000287FF40DAE19B02846BDE8F08F0000F5
:103A20000928010030313233343536373839616294
:103A30006364656600000000303132333435363758
:103A4000383941424344454600000000600700D435
:103A5000062708F1070020F00700F0E8022380465F
:103A600003F0004C5FEA0C0001D097A009E02005AC
:103A700001D596A005E0E00701D095A001E0AFF2E6
:103A80004C001390307823F0004365280CD006DCFE
:103A9000452809D046281DD047287FD13BE066281D
:103AA00018D067287AD136E00021112F01DB1120D0
:103AB00000E0781CCDE9000104A90CA8FFF7CAFCBE
:103AC000DDE90D010C9A4FF0000B07F1010910928E
:103AD00000914EE04FF000400097CDE9011004A99D
:103AE0000CA8FFF7B7FCDDE90D020C9B0F994FF016
:103AF000000B91461093009211B9791C00EB01095B
:103B0000B7EB090003D4C0F1FF3B07F10109A9EBB2
:103B10000700019042E0012F00DA01270021112F58
:103B200001DD112000E03846CDE9000104A90CA810
:103B3000FFF790FCDDE90D010C9A00914FF0000BAE
:103B4000B946109221070FD4009A4A4503DA9146EC
:103B500001E0A9F10109B9F1010F05DD109AA9F100
:103B60000101515C3029F4D0B84202DA10F1040F9F
:103B700003DA0121CDE9011010E0002803DC8344C1
:103B8000A9EB000102E0411C494500DD8946A0EB9C
:103B90000B00401C01904FF000400290200705D41C
:103BA0000198484502DB4FF0FF30019000208DF86E
:103BB0004B0002980DF14B07B0F1004F25D00220C9
:103BC0000C902B200D90029800280CDA40420290B5
:103BD0002D200D9007E00A210298FCF7C0FB303140
:103BE000029007F8011D0C99481E0C900029F2DC88
:103BF00002980028EFD1791E0D980870307800F0F7
:103C0000200040F0450007F8020D11A8C01BC01DA0
:103C100002901398007800B1012000EB090101988F
:103C200001EBE071029801440398401A401E039092
:103C3000E00306D453462146179A039800F05CF837
:103C400005441398007818B15246179990476D1C97
:103C5000E00323D553462146179A039800F04CF809
:103C600005441BE0BBF1000F07DB0098584504DD5D
:103C70001098179910F80B0001E017993020524660
:103C8000904701980BF1010B401E05F101050190D1
:103C900004D12E205246179990476D1CB9F10001AE
:103CA000A9F10109DEDC05E017F8010B524617996E
:103CB00090476D1C0299481E02900029F4DC53467F
:103CC0002146179A03989EE62D0000002B00000065
:103CD000200000002DE9F041044600251E4617464D
:103CE000880404D405E039462020B0476D1C641ECA
:103CF000F9D52846BDE8F0812DE9F04104460025BC
:103D00001E469046C80301D5302700E020278804CE
:103D100004D505E041463846B0476D1C641EF9D510
:103D20002846BDE8F0814A68002A06D00A68531C7C
:103D30000B6010704868401E486070477FB50446AD
:103D400020681D2809D0A0F21310002876D0A0F515
:103D50009050EE38002870D1ECE001234FF4FA7255
:103D600000216068FFF738FA7649486008464068E5
:103D700050B975A049217D4B7DA2CDE9001080A1ED
:103D8000012000F05FFB0DE07EA04B21774B78A275
:103D9000CDE900107AA1032000F054FB694948687E
:103DA000FFF7D2FA01230A2200216068FFF714FA14
:103DB000644988600846806850B97AA051216B4BED
:103DC0006BA2CDE900106EA1012000F03BFB0DE0DD
:103DD0007EA05321654B66A2CDE9001068A10320A7
:103DE00000F030FB57498868FFF7AEFA01234FF423
:103DF0007A7200216068FFF7EFF95249C8600846FF
:103E0000C06850B97AA05921584B59A2CDE9001089
:103E10005BA1012000F016FB0DE07EA05B21534B5F
:103E200053A2CDE9001056A1032000F00BFB454939
:103E3000C868FFF789FA82E000E07FE04149206925
:103E40004968884235D14FF400517B48FDF7C0F9ED
:103E500001282BD13B48407C5A2801DB642515E022
:103E60003848407C322802DC4FF4FA750EE03548C1
:103E7000407C32384FF4C8714843282190FBF1F060
:103E8000C0F5FA7005B2002D00DA64252D494868A6
:103E90002946FFF733FA69A06F21344B34A2CDE9EC
:103EA0000105009136A1032000F0CCFA01F01CFAC4
:103EB0003FE0244920698968884202D101F0B8F9BD
:103EC00037E020492069C968884232D11D49113143
:103ED000481EFCF75AFD50B15CA07621234B24A26A
:103EE000CDE9001026A1012000F0ACFA21E0154830
:103EF000407C1449097C5BA27823CDE90032CDE9EE
:103F000002101A4B1AA21EA1032000F09BFA0220F5
:103F100000900C48027C002302211846FEF761FD48
:103F2000022000900748427C002303211846FEF738
:103F300058FD04E0206902F0E9FF00E000BF00BF87
:103F40007FBD0000F02400206170705F696E6974AD
:103F50002063726561746520626C696E6B5F746961
:103F60006D6572206572726F72210000A97500087C
:103F70002E2E5C757365725C6170702E630000009C
:103F8000415050006170705F696E697420637265A2
:103F900061746520626C696E6B5F74696D65722017
:103FA0006F6B21006170705F696E69742063726568
:103FB000617465206B65797363616E5F74696D65AB
:103FC00072206572726F7221000000006170705F74
:103FD000696E697420637265617465206B657973BD
:103FE00063616E5F74696D6572206F6B2100000004
:103FF0006170705F696E69742063726561746520B9
:1040000073656E736F725F74696D6572206572722D
:104010006F7221006170705F696E697420637265F0
:104020006174652073656E736F725F74696D65721C
:10403000206F6B2100000000001001404C4544201F
:1040400054696D65723A256400000000444854319B
:10405000315F526561645F44617461206572726FA3
:104060007221000054656D703A25643B2048756DDF
:10407000693A2564000000001FB578211B48FCF751
:104080003BF900211A48FEF7EDFA18490860084686
:10409000006850B917A02A21204B21A2CDE90010B9
:1040A00023A1012000F0CEF909E022A02C211B4B16
:1040B0001BA2CDE900101EA1032000F0C3F9264881
:1040C00001F07AF801F0B6FC002000900190029017
:1040D00003900648214B22490268143002F021FF68
:1040E0000248143002F086FF1FBD0000F0240020BB
:1040F0003D3D00086170705F696E6974204D7367A3
:10410000457865635F4372656174654D6F64756C76
:1041100065206572726F722100000000A0750008B2
:104120002E2E5C757365725C6170702E63000000EA
:10413000415050006170705F696E6974204D736703
:10414000457865635F4372656174654D6F64756C36
:1041500065206F6B2100000065410008BD4100082B
:10416000280100203EB504460D46012C0BD106A0C7
:1041700094210C4B0CA2CDE9010500910EA1032066
:1041800000F060F900BF3EBD6170705F6B65795FE4
:1041900072656C656173652063616C6C6261636BF1
:1041A00020256400B97500082E2E5C757365725C5D
:1041B0006170702E63000000415050002DE9F04105
:1041C00080460E461746002500243DE0305D01F094
:1041D00019FC40211E4801F0B9FB0546002D0ADDFF
:1041E0001B48383890F83900072804D02946184869
:1041F000FEF754FB26E0002D24DD1548383890F8F2
:10420000390007281ED171B600BF00BF00BF00BF34
:1042100000BFBFF34F8F00BF00BF00BF0D48006855
:1042200000F4E0600C490843001D0A49086000BF23
:1042300000BF00BFBFF34F8F00BF00BF00BF00BF74
:1042400000BFFDE7601C84B2BC42BFDBBDE8F0816B
:10425000282500200CED00E00000FA0510B5421101
:1042600051F8222000F01F040123A3409A43431178
:1042700041F8232010BD000008480068C0010BD59C
:1042800007480068C00707D0054880380068002844
:1042900002DA04490120087070470000FCED00E0DC
:1042A000800E00E0880000204FF06042D36F002BAA
:1042B000FCD0036BD367D36F002BFCD0C07840EAEF
:1042C0000120A2F87C0070474FF06041CA6F002ABD
:1042D000FCD081F87C00704710B503494FF4C05002
:1042E00000F076FE10BD0000BC06002070B586B060
:1042F0000546002D1CD126480068002811D14FF436
:10430000EF70244924A229A3CDE90310CDE901329D
:1043100000900B462EA235A1002000F093F800BFBC
:10432000FEE74FF4EF721B491BA0194B1B6898471F
:10433000002405262F4890F8F00010B9304606B04A
:1043400070BD00F045FA00241BE004EB441129483D
:104350003130084490F82000012810D104EB4412B9
:10436000244831301044411C1E222846FBF7E8FF48
:1043700028B904EB44111F483130465C03E0601C4F
:10438000C4B2052CE1DB00BF00F056FA3046D6E798
:10439000280000201571000874616720213D202845
:1043A00028766F6964202A2930290000282573297E
:1043B0002068617320617373657274206661696C33
:1043C00065642061742025733A256C642E0000001A
:1043D0002E2E5C656173796C6F676765725C7372B2
:1043E000635C656C6F672E6300000000656C6F672F
:1043F00000000000B401002010B50024104890F81F
:10440000F000012801D1204610BD00F035FA044625
:104410000CB12046F8E7012000F0EEF90020084931
:1044200081F8F30081F8F400052000F039FA00F07B
:1044300095FA0120024981F8F0002046E4E70000E7
:10444000B40100202DE9F04F8DB005460F4693468C
:1044500098463846FBF76DFF814600244FF0020A6C
:1044600000200B900C900790089009900A90052D61
:104470001CDDB1480068002811D14FF40F70AF491E
:10448000AFA2B6A3CDE90310CDE9013200900B46EF
:10449000BBA2C2A10020FFF7D5FF00BFFEE74FF48B
:1044A0000F72A649A6A0A44B1B689847BD4890F878
:1044B000F10010B90DB0BDE8F08FBA480078A842FD
:1044C00004DB3846FFF712FFA84200DAF2E7B549ED
:1044D000491C3846FBF71BFF00B9EBE718A806900C
:1044E00000F076F90121284600F00CFD40B1AE48FD
:1044F00050F82520AD480119204600F05BFB04442C
:104500000221284600F0FEFCE8B1A84801193A460D
:10451000204600F04FFB0444B9F10F0F0CD8C9F14D
:104520000F01202207A8FBF7E0FEA048011907AA07
:10453000204600F03FFB04449C4801199CA2204601
:1045400000F038FB04441C21284600F0DBFC002866
:1045500052D09648011997A2204600F02BFB044444
:104560000421284600F0CEFCA8B100F081F90590A6
:104570008E4801192046059A00F01CFB04441821BE
:10458000284600F0BFFC30B18848011988A22046B7
:1045900000F010FB04440821284600F0B3FCA8B149
:1045A00000F05EF90590814801192046059A00F057
:1045B00001FB04441021284600F0A4FC30B17B48E4
:1045C00001197BA2204600F0F5FA04441021284688
:1045D00000F098FC48B100F047F9059073480119C4
:1045E0002046059A00F0E6FA04447048011972A2C8
:1045F000204600F0DFFA0444E021284600F082FC67
:1046000000285CD0694801196CA2204600F0D2FA5B
:1046100004442021284600F075FCF8B163480119D4
:104620005A46204600F0C6FA04444021284600F0CD
:1046300069FC38B15D48011961A2204600F0BAFA60
:1046400004440BE08021284600F05CFC30B1574860
:10465000011957A2204600F0ADFA044480212846F3
:1046600000F050FCC0B157A205210BA8169BFEF725
:104670008FFE4E4801190BAA204600F09BFA044415
:104680004021284600F03EFC30B14848011948A2BC
:10469000204600F08FFA04444021284600F032FC06
:1046A00030B1424801194246204600F083FA0444E2
:1046B0003E48011944A2204600F07CFA0444C4F5A7
:1046C00080613A4A1019069B179AFEF77BFE064650
:1046D00000200690A019B0F5806F03D8002E01DBF2
:1046E000344401E04FF4806404EB0A00B0F5806FBD
:1046F00003D94FF48064A4EB0A042A4890F8200000
:1047000058B1002029490855264920312748FBF790
:10471000FEFD10B900F090F8CCE6244801192BA258
:10472000204600F047FA04442146204800F0A6F84D
:1047300000F082F800BFBDE6280000202D710008BF
:104740006C6576656C203C3D20454C4F475F4C5670
:104750004C5F564552424F534500000028257329AF
:104760002068617320617373657274206661696C7F
:1047700065642061742025733A256C642E00000066
:104780002E2E5C656173796C6F676765725C7372FE
:10479000635C656C6F672E6300000000656C6F677B
:1047A00000000000B401002010000020AC02002036
:1047B000200000005B0000005D20000028000000D9
:1047C0003A000000256C6400290000000D0A00007A
:1047D00010B5084890F8F20030B100F05FF8012001
:1047E000044981F8F40003E00120024981F8F30054
:1047F00010BD0000B401002010B504460D4880F83B
:10480000F24090F8F200A0B10A4890F8F40030B9F4
:10481000084890F8F30010B100F040F809E00548AE
:1048200090F8F40028B1034890F8F30008B900F0BC
:1048300036F810BDB401002010B5084890F8F20019
:1048400030B100F02CF80020044981F8F40003E0B6
:104850000020024981F8F30010BD0000B4010020DF
:1048600000A070470000000000A07047000000009A
:1048700000A07047000000000020704770B505469A
:104880000C4604EB8400642101EB4003A2B22946EC
:104890000148FDF746FD70BDE000002070477047FD
:1048A00010B586B00446052C1CDD104800680028B1
:1048B00011D14FF4AC700E490EA215A3CDE903102F
:1048C000CDE9013200900B461AA221A10020FFF78A
:1048D000B9FD00BFFEE74FF4AC72054905A0034BDC
:1048E0001B6898471C48047006B010BD28000020C3
:1048F000E97000086C6576656C203C3D20454C4FA6
:10490000475F4C564C5F564552424F53450000009E
:104910002825732920686173206173736572742080
:104920006661696C65642061742025733A256C6446
:104930002E0000002E2E5C656173796C6F676765D1
:10494000725C7372635C656C6F672E6300000000BD
:10495000656C6F6700000000B401002010B50024F2
:1049600000BF13E004EB44120A491144481C1F2104
:10497000FBF7C2FC002104EB44120648815404EB0F
:104980004412104480F82010601CC4B2052CE9DBEE
:1049900010BD0000E501002030B585B004460D468D
:1049A000052C1CDD10480068002811D14FF49F70C1
:1049B0000E490FA215A3CDE90310CDE901320090F5
:1049C0000B461BA221A10020FFF73CFD00BFFEE724
:1049D0004FF49F72054906A0034B1B6898471D487A
:1049E00040F8245005B030BD28000020CC700008ED
:1049F0006C6576656C203C3D20454C4F475F4C56BE
:104A00004C5F564552424F534500000028257329FC
:104A10002068617320617373657274206661696CCC
:104A200065642061742025733A256C642E000000B3
:104A30002E2E5C656173796C6F676765725C73724B
:104A4000635C656C6F672E6300000000656C6F67C8
:104A5000000000008C02002010B586B00446002C37
:104A60001ED0012C1CD011480068002811D140F242
:104A700013100F490FA219A3CDE90310CDE901329C
:104A800000900B461EA225A10020FFF7DBFC00BF13
:104A9000FEE740F21312064906A0044B1B68984734
:104AA000204880F8F14006B010BD0000280000202A
:104AB000B470000828656E61626C6564203D3D201D
:104AC00066616C736529207C7C2028656E61626C50
:104AD0006564203D3D207472756529002825732981
:104AE0002068617320617373657274206661696CFC
:104AF00065642061742025733A256C642E000000E3
:104B00002E2E5C656173796C6F676765725C73727A
:104B1000635C656C6F672E6300000000656C6F67F7
:104B200000000000B40100200EB50B4890F8F00022
:104B300000B90EBD0120FFF78FFF08A009A1F422E4
:104B4000124BCDE90021029011A218A10320FFF71A
:104B500079FC00BFEDE70000B4010020322E322EB8
:104B600039390000456173794C6F6767657220566B
:104B7000257320697320696E697469616C697A654F
:104B800020737563636573732E0000009F700008C7
:104B90002E2E5C656173796C6F676765725C7372EA
:104BA000635C656C6F672E6300000000454C4F47E7
:104BB00000000000F0B585B006460D4614462746B5
:104BC000002D19D12448006880B92C20234924A243
:104BD00024A3CDE90310CDE9013200900B462AA2AF
:104BE00031A10020FFF72EFC00BFFEE72C221B495D
:104BF0001BA0194B1B689847002C19D11648006858
:104C000080B92D2015492AA216A3CDE90310CDE9BC
:104C1000013200900B461CA223A10020FFF712FCDA
:104C200000BFFEE72D220D4921A00B4B1B689847C2
:104C30000AE03046761CB0F5806F04D214F8010B00
:104C400005F8010B00E002E020780028F1D100BF58
:104C5000E01B05B0F0BD00002800002065710008D1
:104C6000647374002825732920686173206173734D
:104C7000657274206661696C6564206174202573B7
:104C80003A256C642E0000002E2E5C656173796CF1
:104C90006F676765725C7372635C656C6F675F7585
:104CA00074696C732E630000656C6F670000000010
:104CB0007372630013B50C460A2301226946024849
:104CC000FDF72FFB00981CBDE00000202DE9FC4102
:104CD0000746884645460020019000900FB9BDE880
:104CE000FC81A7F10806706840F00100706000BF09
:104CF000A968706820F003000830081AA86000BF97
:104D00000020B0600021F160706820F0030106F11E
:104D100008000C18207900F0010000284CD06168D0
:104D200021F003006A4601A9FDF757FB00BFE068C8
:104D300010B1D4E902108160A06810B1D4E9020179
:104D4000C16005F15000019900EBC110009950F8C5
:104D50002100A04224D105F15000E168019A00EB46
:104D6000C210009A40F8221005F15000019900EBA2
:104D7000C110009950F8210090B905F11800019A6E
:104D800000EB82010098FFF769FA05F1180001991C
:104D900050F8210020B905F114010198FFF75EFADF
:104DA0000020A0600021E16000BF7168606820F011
:104DB0000300083008447060307900F002000028D9
:104DC0004ED03468616821F003006A4601A9FDF7FE
:104DD00004FB00BFE06810B1D4E902108160A06854
:104DE00010B1D4E90201C16005F15000019900EB56
:104DF000C110009950F82100A04224D105F15000C3
:104E0000E168019A00EBC210009A40F8221005F107
:104E10005000019900EBC110009950F8210090B9A1
:104E200005F11800019A00EB82010098FFF716FACD
:104E300005F11800019950F8210020B905F114017D
:104E40000198FFF70BFA0020A0600021E16000BF8D
:104E50006168706820F003000830084460602646EE
:104E6000716821F003006A4601A9FDF7B6FA00BF98
:104E70000020B06005F15000019900EBC1100099CD
:104E800050F82110F16005F15000019900EBC110BC
:104E9000009950F8210040B105F15000019900EB54
:104EA000C110009950F82100866005F15000019969
:104EB00000EBC110009940F8216005F11800019A3B
:104EC00000EB8201009801F033FD05F11401019817
:104ED00001F02EFD00BF706820F0030106F108000C
:104EE0000C18606840F0020060602660A868B0F5A9
:104EF000C05F02D902200249087000BFEFE600003F
:104F00002C00002030B585B004460D46052C1CDD74
:104F100013480068002811D140F2DB20114912A289
:104F200018A3CDE90310CDE9013200900B461EA273
:104F300024A10020FFF786FA00BFFEE740F2DB2243
:104F4000084909A0064B1B689847204850F82400E0
:104F5000284010B1012005B030BD0020FBE7000063
:104F600028000020397100086C6576656C203C3D96
:104F700020454C4F475F4C564C5F564552424F536D
:104F80004500000028257329206861732061737330
:104F9000657274206661696C656420617420257394
:104FA0003A256C642E0000002E2E5C656173796CCE
:104FB0006F676765725C7372635C656C6F672E63A5
:104FC00000000000656C6F67000000008C0200208C
:104FD0002DE9F04107460C461CB117B1B7F5F26F49
:104FE00006D228A0FEF7C4F94FF0FF30BDE8F081EB
:104FF00004F0030028B12EA0FEF7BAF94FF0FF30FD
:10500000F4E725462C4639492868884208D13848B3
:105010000460006800F5EA66706820F00300E5E7C8
:1050200033480460334804604FF4EA612046FBF7DC
:1050300063F92E482860304800F086FB6860A7F5C9
:10504000EA6020F0070104F5EA6000F058FC8046B1
:10505000D8F8040020F0030108F108000E182946D2
:1050600006F10800FFF732FE08F1080028617068B9
:1050700020F00300381AA860A868E860706820F083
:105080000300B3E7696E69745F6D656D6F72795F78
:10509000706F6F6C2028293A206D656D6F72795F93
:1050A000706F6F6C20696E76616C69640A00000035
:1050B000696E69745F6D656D6F72795F706F6F6C2B
:1050C0002028293A206D656D5F706F6F6C206D75BB
:1050D000737420626520616C69676E656420746F0B
:1050E000206120776F72640A0000000059FA592A83
:1050F0003000002034000020887100080EB58022A6
:1051000000B109B110460AE001780129FAD101A9DC
:1051100000F020F8042801D0002000E01020DDE994
:10512000011203B000BD70B50D46040003D012B9E2
:105130002078012801D0802070BD204600F056FE66
:1051400028B12946204600F030F8002070BD8120AB
:1051500070BD000010B504468089002824D0608905
:1051600004EB800000690860606840B16078022844
:1051700005D10021204601F089F801F077F804F10B
:105180000C0000BFD0E85F1F491E8AB2C0E8512F53
:105190000029F7D16089401C80B26081E189884292
:1051A00001D100206081042010BD10B501F06EF81F
:1051B000BDE8104001F05AB810B50446282119483E
:1051C000FBF79AF81848174948604FF48040088167
:1051D000012088720A4611895068FBF7F9FF1149CE
:1051E000087012490F4801614914818202218175BA
:1051F0000246918A1069FBF7EBFF0A4908730B49D5
:105200000848C1614FF480410184032180F82210D5
:105210000246118CD069FBF7DBFF0249087608468D
:10522000446210BD6825002000100140000C0140C0
:1052300070B5002453E004EB44022A4B03EB8202D6
:10524000118904EB440203EB82025068FBF7C0FFB4
:10525000054604EB4400234911F82000A84207D179
:10526000002004EB44011F4A02EB8101487034E046
:1052700004EB44001B4901EB80004078401C04EB28
:105280004401184A02EB8101487004EB44001146C6
:1052900001EB8000407803281FDB04EB440001F899
:1052A00020506DB90846406AB8B104EB44000B4683
:1052B00003EB8000817A1046426A002090470CE0A0
:1052C0000848406A48B104EB4400064B03EB8000F9
:1052D000817A1846426A01209047601CC4B2032CB0
:1052E000A9DB70BD6825002010B54FF400510248BD
:1052F000FBF776FF10BD00000010014010B502461C
:10530000504202EA0001B1F5803F05D2FF2901D8E1
:10531000002007E0082005E0B1F1807F01D21020D5
:1053200000E01820034621FA03F0024C54F8200054
:10533000184410BD8C7100081CB5FBF767FF00F026
:1053400051F9FDF794FBFDF7A7F8FDF78BF8FDF792
:1053500045F9FDF70DF9FDF75DF9FFF74DF8FF2170
:105360000020FFF719FB03210120FFF715FB0321A4
:105370000220FFF711FB03210846FFF70DFBBF21B9
:105380000420FFF709FBBF210520FFF705FBFFF70E
:10539000CBFBFEF7A1FFFDF701FAFDF7E1FF09A046
:1053A0008621104B10A2CDE9001014A10320FFF7B5
:1053B00049F8FEF761FE00F027F901E0FDF78EF9EC
:1053C000FCE70000576972656C6573732041636385
:1053D0006573732053797374656D20496E69742009
:1053E0004F4B2100707000082E2E2F436F72652FD7
:1053F0005372632F6D61696E2E6300004E4F5F54D0
:10540000414700002DE9F34383B089464C46039899
:10541000082801D2082003E00398C01D20F00700EF
:10542000039001AA02A903A8FCF7F0FF01AA02A9B0
:105430002046FBF710FB05461DB9002005B0BDE86E
:10544000F08300BF04F15000E968029A00EBC2103B
:10545000019A40F8221004F15000029900EBC110AB
:10546000019950F8210050B1002104F15000029A36
:1054700000EBC210019A50F82200816012E004F1A2
:105480001800029A00EB82010198FEF7E7FE04F192
:105490001800029950F8210020B904F11401029873
:1054A000FEF7DCFE0020A8600021E96000BF68680C
:1054B00020F0030105F1080001EB0008686820F006
:1054C00003000399471A102F4AD3083F05F108003B
:1054D0000399461847F001007060C8F8006001AAFF
:1054E00002A93846FCF779FF00BF0020B06004F144
:1054F0005000029900EBC110019950F82110F160A1
:1055000004F15000029900EBC110019950F82100FC
:1055100040B104F15000029900EBC110019950F81C
:105520002100866004F15000029900EBC11001993E
:1055300040F8216004F11800029A00EB8201019802
:1055400001F0F6F904F11401029801F0F1F900BF3D
:105550003560287900F0020003990843686009E08B
:10556000D8F8040020F00200C8F80400686820F0B1
:105570000100686000BFA168686820F0030008307F
:105580000844A060D4E90201884201D9A068E06023
:1055900000BFA068B0F5C05F02D9032002490870BF
:1055A00005F108004AE700002C00002010B5024673
:1055B0001146B1F5803F05D2FF2901D8002007E050
:1055C000082005E0B1F1807F01D2102000E0182012
:1055D000034621FA03F0024C54F82000184410BD91
:1055E0008C710008EFF3058008B182207047EFF35B
:1055F0001480C00703D0DFF80CC000DF704701F053
:10560000A5B900004D69000888B0EFF3058010B11E
:10561000822008B07047EFF3148010F003011348A4
:1056200006D001291BD0022911D0032919D113E07A
:1056300008A981F309880078C0070BD05FF0020049
:1056400080F31488BFF34F8FBFF36F8F09E00078AA
:10565000C00706D10320F3E70078C00701D0FF2080
:10566000D7E7DFF80CC000DFD3E70000F8750008CB
:10567000BD69000870B50546EFF3058020B1012231
:10568000284601F035FB04E028460022DFF810C070
:1056900000DF04462146686800F05AFA204670BDD3
:1056A000F16C0008EFF305820AB100207047EFF3B8
:1056B0001482D20702D1044A52781AB1DFF80CC022
:1056C00000DF704701F09EB96C000020056A0008F9
:1056D000EFF3058212B1012201F036BB0022DFF8A0
:1056E00008C000DF70470000496D000810B530B1F8
:1056F000006800F011F8102800D1202010BD802093
:1057000010BD20B129B10068002200F011B880203E
:105710007047862070470000EFF305820AB1FFF75B
:10572000EDBCDFF808C000DF704700006B6A0008BE
:10573000EFF305830BB1FFF7F6BCDFF808C000DF1D
:1057400070470000A56A0008EFF3058109B1002049
:105750007047EFF31481C90702D10449497819B1A0
:10576000DFF80CC000DF704701F0B7B96C00002013
:10577000DB6A0008EFF3058109B182207047DFF88A
:1057800008C000DF70470000F76A0008EFF30582E9
:105790000AB182207047DFF808C000DF70470000C0
:1057A000196B0008EFF305820AB100207047EFF390
:1057B0001482D20702D1044A52781AB1DFF80CC021
:1057C00000DF704701F0C6B96C000020556B00087F
:1057D000DFF80CC000DFDFF80CC000DFFEE70000E0
:1057E000C16B0008DD6B0008DFF804C000DF704704
:1057F000156C0008EFF305830BB100207047EFF341
:105800001483DB0702D1044B5B781BB1DFF80CC0BB
:1058100000DF704701F00ABA6C0000202D6C000810
:10582000EFF3058109B182207047DFF808C000DF7F
:1058300070470000656C0008EFF305820AB1822012
:105840007047DFF808C000DF704700008D6C00086B
:10585000094C4FF0FF3529462068FFF75DFF0246EF
:105860000846102AF7D1FFF7BFFF0028F3D0024601
:1058700008469047EFE700006000002070B506463C
:10588000354606B970BDA86878B1FCF7E1FE04465C
:1058900004B9F7E740F213102060A8686060A868B8
:1058A000A06025612046FCF78BFF00BFEAE70128D6
:1058B00006D0022805D0032804D0042804D102E031
:1058C00003E002E001E000E000BF00BF00BFFEE730
:1058D00000BFFEE7074801684FF0E020416100216A
:1058E0008161072101610448016841F07F41016045
:1058F00040177047F475000820ED00E07047F0B5E0
:105900000C46024608265660566826F0030702F148
:105910000806B919A4F11806576827F00307F61B03
:1059200026F007064E600027CF608F604E6826F095
:10593000030701F10806BB19196002265E6002F137
:10594000080500266E602B601046F0BDF8B50446D1
:105950000D460026002000902FE0684600F038F841
:105960001948008820B99DF80000EE2800D024E0F6
:1059700015480088A84208DA9DF8001012480288ED
:105980000088401C104B1880A1549DF800000F495E
:10599000096840EA01200D490860084600686FF474
:1059A0004031884208D1084806880020074908602D
:1059B000054908803046F8BD00BF00F04BF80028CC
:1059C000CBDC0020F7E70000580000205400002046
:1059D00001460B4840880A4A128890420FD0084876
:1059E0004288001D805C0870054A5288501CC2170E
:1059F00000EBD2525212A0EB4222014B5A80704768
:105A00009025002001460A4B1B88581CC31700EB49
:105A1000D3535B12A0EB43239AB2054840889042CF
:105A200005D003480388001DC154001F0280704741
:105A30009025002000200449488008800349086020
:105A40000349088070470000902500205400002082
:105A5000580000200748008800F50070054A528869
:105A6000811AC81701EBD0504012A1EB402080B240
:105A7000704700009025002050E8001F31B10B68EE
:105A800040E80032002AF7D108467047BFF32F8F55
:105A9000FAE710B568B161B10B3121F0030201687A
:105AA00044680B1A1B1B934205D20846096800295B
:105AB000F5D1002010BD210007D021180368C1E9ED
:105AC0000032016001F1080010BD4260083010BDD5
:105AD00070B50D46002812D04FF6FF71084C884271
