:020000040800F2
:10000000200400204501000845080008C307000837
:10001000410800084506000809100008000000001B
:10002000000000000000000000000000790C000843
:100030009D06000800000000FD0B0008010E0008EE
:100040005F0100085F0100085F0100085F01000810
:100050005F0100085F0100085F0100085F01000800
:100060005F0100085F0100085F0100085F010008F0
:100070005F0100085F0100085F0100085F010008E0
:100080005F0100085F0100085F0100085F010008D0
:100090005F0100085F0100085F0100085F010008C0
:1000A0005F0100085F0100085F0100085F010008B0
:1000B0005F0100085F0100085F0100085F010008A0
:1000C0005F0100085F0100085F0100085F01000890
:1000D0005F0100085F0100085F0100085F01000880
:1000E0005F0100085F0100085F0100085F01000870
:1000F0005F0100085F0100085F0100085F01000860
:100100005F0100085F0100085F0100085F0100084F
:100110005F0100085F0100085F0100085F0100083F
:100120005F0100085F0100085F0100085F0100082F
:10013000DFF80CD000F030F9004800472D1000081F
:10014000200400200648804706480047FEE7FEE7F7
:10015000FEE7FEE7FEE7FEE7FEE7FEE7FEE7FEE777
:10016000290E000831010008F0B480EA0102D40F22
:100170004200B2EB410F02D20246084611464A0045
:1001800042D0C30DDDB2C1F3C752AD1A202D35DA0E
:10019000C1F3160141F4000204B15242C5F1200638
:1001A00002FA06F12A411044B3EBD05F23D0C4B168
:1001B000012DA0EBC35009DCF0BC4FF0004202EA75
:1001C000C352DBB200F5000000F0B8B8400000F107
:1001D000807000EBC350A0F1807040EAD1704900FC
:1001E00009E0490841EAC071A0EBC35000F50000E6
:1001F000400800EBC350F0BC00F097B86142012208
:1002000002EB4101001BF6E7F0BC704781F00041B2
:10021000AAE780F00040A7E780EA010210B502F0EB
:100220000043400022D04A001FD0010E01EB1261B2
:10023000C0F35600C2F3560240F4000042F400023C
:10024000A0FB022000047F39140400D0401C50EAB7
:10025000124001D44000491EC2B20C0604EBD0107B
:10026000401C4008802A02D003E0002010BD20F08E
:100270000100002900DA0020184310BD30B480EAE4
:10028000010202F0004530F0004221F0004013D09E
:1002900090B1C30DD40DC2F31601C0F31600E41AD9
:1002A00041F4000140F400027D34914201D3641C0A
:1002B00000E04900002C02DA30BC002070474FF407
:1002C00000000023914201D3891A034340084FEAFA
:1002D0004101F7D151B1914202D14FF0004105E007
:1002E00002D24FF0010101E06FF0010103EBC450B5
:1002F000284430BC00F019B896230022114600F0C3
:100300001DB820F00040C10DC0F3160040F40000FD
:100310007F2901DA00207047962903DCC1F196019C
:10032000C84070479639884070470029A8BF704779
:10033000401C490008BF20F00100704710B4B0FA1B
:1003400080FC00FA0CF050EA010404BF10BC7047B6
:1003500049B1CCF1200421FA04F411FA0CF118BFD0
:10036000012121430843A3EB0C01CB1D4FEA00619F
:100370004FEA102042BF002010BC704700EBC35072
:1003800010440029A4BF10BC7047401C490008BF9E
:1003900020F0010010BC7047064C074D06E0E068F5
:1003A00040F0010394E8070098471034AC42F6D3BC
:1003B000FFF7C2FEC4160008E416000821B18268E7
:1003C00042F00102826003E0826822F00102826052
:1003D000704721B1826842F48072826003E08268D3
:1003E00022F4807282607047014600208A6802F021
:1003F00004020AB1012000E00020704701460020FD
:100400008A6802F008020AB1012000E0002070476B
:1004100030B502460020002350680F4C20400D7973
:100420000C6844EA05242043506090680B4C20403F
:10043000D1E902542C434D7944EA450420439060AD
:10044000D06A20F470000C7C641EE4B2234340EABE
:100450000350D06230BD0000FFFEF0FFFDF7F1FF5A
:10046000F0B504460D4600200021092D11DDE0689D
:10047000A5F10A0606EB4607072606FA07F18843A8
:10048000A5F10A0606EB460603FA06F10843E0600A
:100490000CE0206905EB4507072606FA07F18843BB
:1004A00005EB450603FA06F108432061072A0FDA37
:1004B000606B561E06EB86071F2606FA07F1884377
:1004C000561E06EB860605FA06F10843606322E035
:1004D0000D2A0FDA206BD61F06EB86071F2606FAB9
:1004E00007F18843D61F06EB860605FA06F1084396
:1004F000206310E0E06AA2F10D0606EB86071F26D6
:1005000006FA07F18843A2F10D0606EB860605FA06
:1005100006F10843E062F0BD816841F008018160A6
:10052000704721B1826842F4A002826003E08268D1
:1005300022F4A00282607047816841F0040181606A
:100540007047000000B591B00121480200F084FB23
:100550000121102000F080FB0121084600F05CFB27
:100560004FF4004000F04CFB0820ADF840000020A4
:100570008DF8430003208DF8420010A92D4800F0AB
:100580008EF8052301220D212B48FFF769FF00207B
:100590000B900E904FF460200D9001208DF83100EB
:1005A0008DF830008DF83C000BA92348FFF730FF91
:1005B00021484C30009080150690002004901F4880
:1005C00001904FF4806007908020059000200290F9
:1005D000022003902020089000200A904FF48050C1
:1005E00009906946164800F03BF80121144800F0D4
:1005F0002BF801211048FFF7ECFE01210E48FFF710
:10060000DDFE0D48FFF788FF00BF0B48FFF7F6FE41
:100610000128FAD00848FFF78FFF00BF0648FFF710
:10062000E3FE0128FAD001210348FFF77AFF11B059
:1006300000BD000000100140002401401400002013
:100640000800024000BFFEE721B1026842F001024B
:10065000026004E002684FF6FE731A4002607047C1
:1006600010B50022026847F6F0739A430C6A8B6853
:1006700023430C6923434C6923438C692343CC698E
:1006800023434C6A23438C6A23431A430260CB689A
:1006900043600B6883604B68C36010BD70472DE9F1
:1006A000F0410246002500260020002300240027F8
:1006B00091F803C00CF00F0591F803C00CF0100C7A
:1006C000BCF1000F03D091F802C04CEA050591F887
:1006D00000C0BCF1000F31D0146800202BE04FF0B7
:1006E000010C0CFA00F3B1F800C00CEA03069E42BC
:1006F00020D183004FF00F0C0CFA03F7BC4305FA2E
:1007000003FC4CEA040491F803C0BCF1280F06D1A5
:100710004FF0010C0CFA00FCC2F814C00AE091F88A
:1007200003C0BCF1480F05D14FF0010C0CFA00FCDE
:10073000C2F810C0401C0828D1D31460B1F800C022
:10074000BCF1FF0F34DD546800202EE000F1080CEE
:100750004FF0010808FA0CF3B1F800C00CEA0306E8
:100760009E4221D183004FF00F0C0CFA03F7BC43DB
:1007700005FA03FC4CEA040491F803C0BCF1280F0D
:1007800005D100F1080C08FA0CF8C2F8148091F8B1
:1007900003C0BCF1480F07D100F1080C4FF001086D
:1007A00008FA0CF8C2F81080401C0828CED3546018
:1007B000BDE8F081016170470AB1016100E041616B
:1007C000704700BFFEE710B500F01CFB00F008F812
:1007D00000F0C8F8FFF7B6FE00F0C6F910BD000043
:1007E00008B50121082000F037FA2020ADF80000FC
:1007F00010208DF8030003208DF8020069460F4891
:10080000FFF74DFF0120ADF8000069460B48FFF7E8
:1008100046FF0220ADF8000069460848FFF73FFF99
:1008200020210648FFF7C6FF01210448FFF7C2FF59
:1008300002210248FFF7BEFF08BD0000000C014086
:1008400000BFFEE7704770B500240EE0002120468F
:1008500000F0E9F8002504E0002000F075F9681CBC
:10086000C5B2802DF8DB601CC4B2082CEEDB70BD75
:1008700008B50121082000F0EFF914208DF80300DD
:1008800003208DF802004020ADF8000069460A48B8
:10089000FFF705FF8020ADF8000069460648FFF726
:1008A000FEFE012240210448FFF786FF012280213D
:1008B0000148FFF781FF08BD000C014070B50546F7
:1008C000002413E08020204100EA050280210E4828
:1008D000FFF772FF012240210B48FFF76DFF002256
:1008E00040210948FFF768FF601CC4B2082CE9DB0F
:1008F000012240210448FFF75FFF00224021024807
:10090000FFF75AFF70BD0000000C014010B5012236
:1009100080210948FFF750FF012240210648FFF7D8
:100920004BFF002280210448FFF746FF00224021B0
:100930000148FFF741FF10BD000C014010B5002237
:1009400080210748FFF738FF012240210448FFF7C4
:1009500033FF012280210248FFF72EFF10BD000067
:10096000000C014070B5002406E0002500E06D1C7D
:10097000B5F57A7FFBD3641CB4F57A7FF5D3FFF726
:1009800077FFAE2000F0D0F8D52000F0CDF8802021
:1009900000F0CAF8A82000F0C7F83F2000F0C4F823
:1009A000D32000F0C1F8002000F0BEF8402000F095
:1009B000BBF8A12000F0B8F8C82000F0B5F8DA20A4
:1009C00000F0B2F8122000F0AFF8812000F0ACF88F
:1009D000CF2000F0A9F8D92000F0A6F8F12000F00F
:1009E000A3F8DB2000F0A0F8302000F09DF8A42050
:1009F00000F09AF8A62000F097F88D2000F094F807
:100A0000142000F091F8AF2000F08EF8FFF71BFFE4
:100A100070BD10B50246012000E050430B1EA1F14D
:100A20000101FAD110BD70B505460C4645F0B00085
:100A300000F07AF8102141EA141000F075F804F083
:100A40000F0000F071F870BD2DE9F04105460E462B
:100A50001746721ED206110E6A1E5206100EFFF7BE
:100A6000E2FF002409E0A7F12001134A02EB011183
:100A7000085D00F069F8601CC4B2082CF3DB721E3C
:100A8000D206110E6A1E012303EB4202D0B2FFF719
:100A9000CAFF00240BE0A7F12001074A02EB011274
:100AA00004F10801505C00F04FF8601CC4B2082C3F
:100AB000F1DBBDE8F0810000D41000082DE9F0471B
:100AC00080460E4617461D46002415E0281B411E91
:100AD0000A20FFF79EFFB7FBF0F00A21B0FBF1F20E
:100AE00001FB120000F130093019C1B24A464046FC
:100AF000FFF7AAFF601CC4B2AC42E7DBBDE8F08799
:100B00002DE9F04107460E461546002407E02A5D10
:100B10003019C1B23846FFF797FF601CC4B2285D98
:100B20000028F4D1BDE8F08110B50446FFF7EEFED1
:100B30007820FFF7C3FE0020FFF7C0FE2046FFF736
:100B4000BDFEFFF7FBFE10BD10B50446FFF7DEFE4D
:100B50007820FFF7B3FE4020FFF7B0FE2046FFF7F6
:100B6000ADFEFFF7EBFE10BD00B589B001210220FC
:100B700000F062F80121082000F06EF80120ADF8C5
:100B8000200018208DF8230003208DF8220008A9EA
:100B90001848FFF784FD184800F082F90020ADF8EE
:100BA0001A00ADF816006320ADF8180040F2CF200F
:100BB000ADF8140000208DF81C0005A90E4800F0C7
:100BC000D1F901A800F0C2F96020ADF804000020BE
:100BD000ADF80C000120ADF806000A20ADF80A00BF
:100BE00001A9054800F062F90121034800F04CF921
:100BF00009B000BD000C0140000400407047000037
:100C000001460020034A506820F4404008435060E9
:100C1000704700000010024029B1064A52690243A1
:100C2000044B5A6104E0034A52698243014B5A6102
:100C3000704700000010024029B1064AD269024301
:100C4000044BDA6104E0034AD2698243014BDA6162
:100C5000704700000010024029B1064A9269024321
:100C6000044B9A6104E0034A92698243014B9A6102
:100C70007047000000100240704710B500F002F805
:100C800010BD00000CB500200190009033480068B2
:100C900040F480303149086000BF3048006800F4FB
:100CA000003000900198401C0190009818B90198FC
:100CB000B0F5A06FF1D12948006800F4003010B100
:100CC0000120009001E0002000900098012843D10D
:100CD0002348006840F01000214908600846006879
:100CE00020F0070008600846006840F00200086035
:100CF0001A484068194948600846406848600846F4
:100D0000406840F4806048600846406820F47C10E9
:100D100048600846406840F4E810486008460068AB
:100D200040F08070086000BF0C48006800F0007060
:100D30000028F9D00948406820F0030007494860BE
:100D40000846406840F00200486000BF0348406821
:100D500000F00C000828F9D10CBD00000010024082
:100D60000020024030B50146B1F1807F01D301205F
:100D700030BD21F07F40401E4FF0E02250615017FF
:100D80000F22002807DA13071D0E094B00F00F048D
:100D9000241F1D5503E013071C0E064B1C5400BFF7
:100DA00000204FF0E0229061072010610020DFE773
:100DB00018ED00E000E400E031B5104800684FF4A1
:100DC0007A71B0FBF1F52846FFF7CCFF002408E06C
:100DD00000BF4FF0E020006900F480300028F8D018
:100DE000641C00988442F3D34FF0E020006920F0A7
:100DF00001004FF0E021086138BD00000000002034
:100E00007047000010B5064800680649B0FBF1F4D1
:100E10002046FFF7A7FF08B100BFFEE710BD0000A6
:100E200000000020A086010010B51348006840F0C3
:100E300001001149086008464068104908400E4901
:100E40004860084600680E4908400B49086008469B
:100E5000006820F4802008600846406820F4FE0006
:100E600048604FF41F008860FFF707FF4FF00060F5
:100E70000449086010BD0000001002400000FFF8A7
:100E8000FFFFF6FE08ED00E021B1028842F001020A
:100E9000028004E002884FF6FE731A400280704719
:100EA00001894FF6F87211400181704770B5002436
:100EB00000220023058C4FF6FF6635400584028C26
:100EC0008388848B4FF68F752C404FF6FC752C4031
:100ED0000D882C434FF6FF552A400D894FF6FF76BB
:100EE00006EA05252A434D8806EA05252A43154DBD
:100EF000A84202D0144DA8421DD14FF2FF752A40DE
:100F00004D894FF6FF7606EA05252A434FF6FF3551
:100F10002A408D8806EA05252A434EF6FF752B40A8
:100F20004DF6FF752B408D8906EA05152B43CD89BB
:100F300006EA05152B4383808483CD888587028448
:100F400070BD0000002C01400034014000210180F0
:100F500041808180C180018141818181C18170474F
:100F600081877047002202881D4B98420ED01D4B8E
:100F700098420BD0B0F1804F08D01B4B984205D05F
:100F80001A4B984202D01A4B984204D14FF68F73F5
:100F90001A404B881A43174B984207D0164B984279
:100FA00004D04FF6FF431A40CB881A4302808B8847
:100FB00083850B8803850A4B98420BD0094B9842D6
:100FC00008D00E4B984205D00D4B984202D00D4BE5
:100FD000984201D10B7A0386012383827047000077
:100FE000002C014000340140000400400008004093
:100FF000000C004000100040001400400040014080
:10100000004401400048014000BFFEE702E008C87C
:10101000121F08C1002AFAD170477047002001E072
:1010200001C1121F002AFBD170470000FFF7CBFB64
:10103000FFF709FC1EA201210220FFF761FD36E047
:101040001E490888FFF758F980461D49FFF716F931
:1010500007461C49FFF7E0F80646FFF752F984B24D
:1010600019A201210320FFF74BFDC4F16402022302
:1010700008210320FFF722FD10490888FFF73CF9FB
:1010800081460F49FFF7FAF880460E49FFF7C4F88A
:1010900007460C49FFF7BDF80646FFF732F985B25F
:1010A00029460B48FFF75CFF0A20FFF785FEC7E7DC
:1010B00068656C6C6F2066726A0000001400002086
:1010C00000F07F450000C8424C69676874313A00FF
:1010D00000040040000000000000000000000000CC
:1010E00000000000000000F80000000000000033D5
:1010F0003000000000100C06100C0600000000007C
:101100000000000040C07840C0784000043F040464
:101110003F040400007088FC08300000001820FF25
:10112000211E0000F008F000E018000000211C0360
:101130001E211E0000F00888700000001E212324DC
:101140001927211010160E000000000000000000FA
:1011500000000000000000E018040200000000078A
:101160001820400000020418E00000000040201891
:1011700007000000404080F0804040000202010F64
:1011800001020200000000F0000000000101011F48
:1011900001010100000000000000000080B07000AC
:1011A000000000000000000000000000000101013C
:1011B00001010101000000000000000000303000CB
:1011C00000000000000000008060180400601806A5
:1011D0000100000000E010080810E000000F1020DF
:1011E00020100F00001010F8000000000020203F29
:1011F00020200000007008080888700000302824B3
:101200002221300000300888884830000018202053
:1012100020110E000000C02010F800000007042478
:10122000243F240000F808888808080000192120BD
:1012300020110E0000E0108888180000000F112017
:1012400020110E0000380808C83808000000003FD0
:10125000000000000070880808887000001C22212F
:1012600021221C0000E010080810E00000003122DC
:1012700022110F00000000C0C0000000000000307C
:1012800030000000000000800000000000008060CE
:10129000000000000000804020100800000102044F
:1012A0000810200040404040404040000404040436
:1012B00004040400000810204080000000201008F2
:1012C00004020100007048080808F0000000003027
:1012D00036010000C030C828E810E00007182724B5
:1012E00023140B000000C038E0000000203C230263
:1012F0000227382008F8888888700000203F2020C6
:1013000020110E00C03008080808380007182020F7
:101310002010080008F808080810E000203F2020EE
:1013200020100F0008F88888E8081000203F2020CF
:101330002320180008F88888E8081000203F2000C3
:1013400003000000C03008080838000007182020FB
:10135000221E020008F808000008F808203F2101BA
:1013600001213F20000808F8080800000020203F65
:101370002020000000000808F8080800C0808080D5
:101380007F00000008F888C028180800203F2001CE
:101390002638200008F8080000000000203F202028
:1013A0002020300008F8F800F8F80800203F003F3F
:1013B000003F200008F830C00008F808203F200057
:1013C00007183F00E01008080810E0000F10202068
:1013D00020100F0008F808080808F000203F21013D
:1013E00001010000E01008080810E0000F18242494
:1013F00038504F0008F8888888887000203F200007
:10140000030C3020007088080808380000382021BC
:1014100021221C00180808F8080818000000203FC6
:101420002000000008F808000008F808001F20202D
:1014300020201F000878880000C8380800000738FE
:101440000E010000F80800F80008F800033C07004F
:10145000073C0300081868808068180820302C03B7
:10146000032C30200838C800C83808000000203F8E
:101470002000000010080808C8380800203826217D
:1014800020201800000000FE020202000000007F81
:1014900040404000000C30C000000000000000018F
:1014A0000638C00000020202FE000000004040407A
:1014B0007F0000000000040202020400000000009F
:1014C000000000000000000000000000808080801C
:1014D0008080808000020204000000000000000004
:1014E000000000000000808080800000001924229D
:1014F00022223F2008F8008080000000003F1120D9
:1015000020110E000000008080800000000E1120DD
:1015100020201100000000808088F800000E1120BB
:1015200020103F200000808080800000001F2222C9
:1015300022221300008080F0888888180020203F35
:10154000202000000000808080808000006B949448
:101550009493600008F8008080800000203F210004
:1015600000203F2000809898000000000020203FCD
:1015700020200000000000809898000000C08080BB
:10158000807F000008F8000080808000203F240257
:101590002D302000000808F8000000000020203F47
:1015A000202000008080808080808000203F2000FC
:1015B0003F20003F8080008080800000203F21008D
:1015C00000203F200000808080800000001F20203D
:1015D00020201F00808000808000000080FFA1206C
:1015E00020110E000000008080808000000E11207D
:1015F00020A0FF80808080008080800020203F210C
:1016000020000100000080808080800000332424BE
:1016100024241900008080E0808000000000001F6A
:10162000202000008080000000808000001F20201B
:1016300020103F20808080000080808000010E30DC
:101640000806010080800080008080800F300C033D
:101650000C300F0000808000808080000020312E40
:101660000E312000808080000080808080818E701C
:101670001806010000808080808080000021302CCE
:101680002221300000000000807C020200000000E7
:10169000003F404000000000FF000000000000008C
:1016A000FF0000000002027C800000000040403F7C
:1016B0000000000000060101020204040000000016
:1016C00000000000E4160008000000201C000000DC
:1016D0000C100008001700081C0000200404000083
:1016E0001C10000800A24A040000000000000000D6
:1016F00001020304060708090000000000000000C2
:0400000508000131BD
:00000001FF
