:020000040800F2
:10000000B008002045010008E31500086712000849
:10001000E1150008B1010008611B000800000000A4
:100020000000000000000000000000009F18000811
:10003000B3010008000000009D180008A118000886
:100040005F0100085F0100085F0100085F01000810
:100050005F0100085F0100085F0100085F01000800
:100060005F0100085F0100085F0100085F010008F0
:100070005F0100085F0100085F0100085F010008E0
:100080005F0100085F0100085F0100085F010008D0
:100090005F0100085F0100085F0100085F010008C0
:1000A0005F0100085F0100085F0100085F010008B0
:1000B0005F0100085F0100085F0100085F010008A0
:1000C0005F0100085F0100085F0100085F01000890
:1000D0005F010008551B00085F0100085F01000870
:1000E0005F0100085F0100085F0100085F01000870
:1000F0005F0100085F0100085F0100085F01000860
:100100005F0100085F0100085F0100085F0100084F
:100110005F0100085F0100085F0100085F0100083F
:100120005F0100085F0100085F0100085F0100082F
:10013000DFF80CD000F02AF800480047351C000812
:10014000B00800200648804706480047FEE7FEE763
:10015000FEE7FEE7FEE7FEE7FEE7FEE7FEE7FEE777
:100160000319000831010008D2B201E000F8012BA8
:10017000491EFBD270470022F6E710B513460A4627
:1001800004461946FFF7F0FF204610BD064C074D08
:1001900006E0E06840F0010394E807009847103457
:1001A000AC42F6D3FFF7C8FF7C3400089C3400084B
:1001B000FEE7704772B6FEE710B590F821100022F6
:1001C000022905D00421816380F82020012010BD80
:1001D00001680B6823F00E030B6001680B6823F0C5
:1001E00001030B6090F84030C46B012101FA03F366
:1001F000636080F8211080F82020104610BD0000B8
:100200002DE9F05F90F821100024022903D0042189
:100210008163012485E001680A6822F00E020A6009
:1002200001680A6822F001020A603F4E3E4FB21593
:10023000DFF8F4C0DFF8F090DFF8ECA0DFF8E8B00A
:10024000DFF8E4E00168783F13011502ACF1640CBB
:10025000A9F15009AAF13C0AABF1280BAEF1140E3A
:100260004FF48018B14227D9B9420ED0614512D05F
:1002700049451DD0514518D0594518D0714501D177
:10028000424615E0294EB14201D1012210E0274E2D
:100290001436B14201D110220AE0244E2836B14270
:1002A00006D0224A3C32914201D11A4600E02A4649
:1002B0001E49091F0A602BE0B94213D0614517D0CF
:1002C000494522D051451DD059451DD0714501D118
:1002D00042461AE0B14202D14FF0807215E0134E4F
:1002E000B14201D1012210E0104E1436B14201D1C9
:1002F00010220AE00D4E2836B14206D00B4A3C329D
:10030000914201D11A4600E02A46074980394A60E5
:10031000012180F82110002180F82010416B01B1EB
:1003200088472046BDE8F09F800002400804024054
:100330002DE9F84FDFF8C8910024A9F1040B2346FA
:100340000F2709F1040AABF1040ED1E00125A54005
:1003500006EA0502AA4276D1DFF8A8C14E68A6EBEC
:100360000C0866452BD00DDC032E34D005DC36B3EB
:10037000012E19D0022E2FD11BE0112E16D0122ED5
:100380002AD119E0B8F5881F19D006DCB8F5803FEE
:1003900015D0B8F5801F1FD111E0B8F5001F0ED0A1
:1003A000B8F5041F18D10AE0CB6815E0CB681B1D17
:1003B00012E0CB6808330FE0CB680C330CE08B689D
:1003C0002BB1012B4FF0080303D0456104E0042357
:1003D00002E0056100E00023FF2A01D8064601E0A3
:1003E00000F104064FEA840501D9A5F12005D6F8ED
:1003F000008007FA05FC28EA0C0803FA05F548EA2C
:100400000508C6F800804D68ED0070D53E4DAE6918
:1004100046F00106AE61AD6924F0030605F0010562
:1004200000953A4D06EB050CDCF80850A607360F90
:1004300007FA06F825EA0805DFF8D480404503D11D
:100440004FF0000825E052E0DFF8C880404502D1B7
:100450004FF001081DE0DFF8C080404502D14FF0A9
:10046000020816E0DFF8B480404502D14FF00308DF
:100470000FE0DFF8AC80404502D14FF0040808E0FF
:10048000DFF8A080404502D14FF0050801E04FF0B1
:10049000060808FA06F848EA0508CCF808804D680E
:1004A000D9F80060ED024D4601D5164300E09643B1
:1004B0002E604D68DAF80060AD02554601D516434E
:1004C00000E096432E604D68DBF80060AD035D46AA
:1004D00001D5164300E096432E604D68DEF80060BB
:1004E000ED03754601D5164300E096432E60641C6B
:1004F0000A681646E2407FF429AFBDE8F88F000095
:1005000008040140000011100010024000000140EA
:1005100000080140000C014000100140001401409F
:1005200000180140001C014001488068704700002D
:100530000000002070B5040025D094F83D0000258F
:1005400020B984F83C50204600F050F9242084F86B
:100550003D002068016821F0010101602068016808
:1005600041F4004101602068016821F4004101600C
:1005700000F096FA4D4A6168914201D84C4900E07A
:100580004C49884201D2012070BD4B492368B0FB21
:10059000F1F15E6826F03F060E435E6063689342A9
:1005A00006D94FF4967359434FF47A73B1FBF3F1C4
:1005B0002368491C1E6A26F03F06314319626168B0
:1005C000914210D84900401EB0FBF1F2521CC2F318
:1005D0000B02042A01D2042022E0B0FBF1F0401CFF
:1005E000C0F30B001CE0A268F2B301EBC10303EB04
:1005F0000116431EB3FBF6F35B1C43F480431B055B
:1006000049D092B301EBC10202EB0111401EB0FBD5
:10061000F1F0401CC0F30B0040F4804040F4004077
:100620002168CA694CF6FF739A431043C861D4E944
:10063000071001432068026822F0C00211430160E4
:10064000D4E9030101432068826848F2FF339A43EA
:1006500011438160D4E9050108432168CA6822F08A
:10066000FF021043C86001E00EE016E02068016858
:1006700041F0010101602564202084F83D002563DC
:1006800084F83E50002070BD01EB4106431EB3FBD1
:10069000F6F35B1CB3E70120C2E701EB4101401E0A
:1006A000B0FBF1F0401CC0F30B00B7E7A0860100DF
:1006B00080841E0000093D0040420F002DE9FF4FDD
:1006C00083B09A46DDE9119793460446DDF84080F1
:1006D000FFF72AFF054694F83D0020287FD1192313
:1006E000012240492046009500F056FE002876D1B0
:1006F00094F83C00012872D0012084F83C00206866
:100700000168C90703D1016841F001010160206857
:10071000016821F400610160212084F83D0040203F
:1007200084F83E0000262664C4F82480A4F82A90A9
:10073000608D20852C48E062CDE9007553465A460D
:100740002046049900F0A8FD70B930E02A463946E9
:10075000204600F0C7FE58B1206C042804D1206860
:10076000016841F400710160012007B0BDE8F08F1D
:10077000606A216800780861606A401C6062218DAF
:10078000491E89B22185628D521E62852268536995
:10079000DB435B070BD469B100781061606A401CD1
:1007A0006062208D401E2085608D401E6085208DFA
:1007B0000028CBD12A463946204600F0C1FD00284A
:1007C000CAD154F83D0B016841F40071016020204A
:1007D00004F81E09E67766770020C6E7FFE70220E7
:1007E000C3E70000020010000000FFFF10B586B054
:1007F0000021009101910291039100680F49884204
:100800001AD10F4CA06940F00800A061A0696946A8
:1008100000F008000490C0200090122001900320F6
:1008200003900848FFF784FDE06940F40010E061A0
:10083000E06900F40010049006B010BD00540040C0
:1008400000100240000C0140024881680278114407
:100850008160704700000020074810B5016841F032
:1008600010010160032000F073F80F2000F006F87B
:1008700000F024F8002010BD0020024070B50D4D9E
:1008800004464FF47A712878B1FBF0F00A49096800
:10089000B1FBF0F000F0DAFA48B9102C07D20022D0
:1008A0002146501E00F034F800206C6070BD01201D
:1008B00070BD0000000000200C0000200B4808B5AF
:1008C000816941F001018161816901F001010091BB
:1008D000C16941F08051C161C06900F08050009051
:1008E0000348416821F0E061416008BD001002400A
:1008F00000000140002809DB00F01F0201219140A7
:100900004009800000F1E020C0F8001170470000AD
:10091000F0B40E4B1B680C46C3F30223C3F107056A
:10092000042D00D90425191D072901D2002300E058
:10093000DB1E012606FA05F1491E214099409E4022
:10094000761E16403143F0BC01F038B90CED00E0E2
:10095000064900F0070208684FF6FF03184040EA16
:100960000220034A10430860704700000CED00E0CD
:100970000000FA052DE9F0470F46050061D0434E0F
:10098000306800F00700B84209D2306820F0070054
:1009900038433060306800F00700B84251D1286811
:1009A0003B4C810712D5400703D5606840F4E060F6
:1009B00060602878000703D5606840F4605060608C
:1009C0006068A96820F0F000084360602878C007DC
:1009D00028D06868012810D02168022810D0890723
:1009E00000292EDA616821F0030101436160FFF7FD
:1009F0009BFD804641F288390DE021688903EFE7CD
:100A00008901EDE7FFF790FDA0EB0801494502D908
:100A10000320BDE8F0876068696800F00C00B0EB67
:100A2000810FEFD1306800F00700B8420BD9306871
:100A300020F0070038433060306800F00700B8420B
:100A400001D00120E5E72878400705D56068E9680E
:100A500020F4E060084360602878000706D56068ED
:100A6000296920F4605040EAC100606000F038F865
:100A70006168084AC1F30311515CC8400649086027
:100A800006480068FFF7FAFE0020C2E70020024097
:100A900000100240623400080C0000200400002016
:100AA0000448054900684968044AC1F30221515CC1
:100AB000C84070470C00002000100240723400084B
:100AC0000448054900684968044AC1F3C221515CE1
:100AD000C84070470C00002000100240723400082B
:100AE0000E4A51680E4801F00C03042B11D0082B5C
:100AF0000FD10C48C1F38343C903C05C0AD55168C8
:100B0000084AC1F34041921E515C054A5043B0FB74
:100B1000F1F070470449484370470000001002405C
:100B200000127A005234000800093D002DE9F84F08
:100B3000040070D02078C04DC00749D06868C0F369
:100B40008100012807D06868C0F38100022809D11C
:100B50006868C00306D52868800339D56068002816
:100B6000E7D035E06068B0F5803F0BD010B1B0F54C
:100B7000A02F11D0286820F480302860286820F445
:100B8000802002E0286840F480302860606890B1DE
:100B9000FFF7CAFC06460AE0286840F48020286077
:100BA000F0E700BFFFF7C0FC801B642873D82868FB
:100BB0008003F7D50CE0FFF7B7FC064605E000BF61
:100BC000FFF7B2FC801B6428F0D828688003F7D4B4
:100BD00020789A4E80074FF001094FF0000839D570
:100BE000686810F00C0F07D06868C0F38100022815
:100BF00009D16868C00306D42868800714D5206925
:100C0000012808D110E02069B0B1C6F80090FFF7C4
:100C10008BFC074605E00AE1FFF786FCC01B0228B3
:100C2000C4D828688007F7D52868616920F0F800E3
:100C300040EAC10028600DE0C6F80080FFF774FCB0
:100C4000074604E0FFF770FCC01B022823D8286881
:100C50008007F7D4207800072CD57948A169D9B14D
:100C6000C0F80090FFF760FC074604E0FFF75CFC6B
:100C7000C01B02280FD8686A8007F7D571484FF467
:100C8000FA510068B0FBF1F0009000BF0098411EDF
:100C90000091FAD20EE080E0C0F80080FFF744FC3B
:100CA000074604E0FFF740FCC01B022875D8686ABD
:100CB0008007F7D42078400760D5E8690027C00096
:100CC00008D4E86940F08050E861E869012700F045
:100CD000805000905C480168C90513D401688346C0
:100CE00041F480710160FFF71FFC824606E000BFFF
:100CF000FFF71AFCA0EB0A0064284ED8DBF80000CE
:100D0000C005F5D5E06801280AD008B1052813D040
:100D1000286A20F001002862286A20F0040002E01E
:100D2000286A40F001002862E06841F2883B98B1EF
:100D3000FFF7FAFB82460BE0286A40F004002862C5
:100D4000EEE700BFFFF7F0FBA0EB0A0159455AD8C8
:100D5000286A8007F6D50CE0FFF7E6FB824605E03F
:100D6000FFF7E2FBA0EB0A0159454CD8286A80073F
:100D7000F6D41FB1E86920F08050E861E06988B3DB
:100D80006968C1F38101022944D00228C6F8608055
:100D900004D0FFF7C9FB044638E034E0FFF7C4FB9A
:100DA000074604E0FFF7C0FBC01B02282BD82868C9
:100DB0008001F7D4206AB0F5803F05D16868A1684A
:100DC00020F4003008436860D4E9080108436968EA
:100DD00021F4741108436860C6F86090FFF7A4FB23
:100DE000044606E025E000BFFFF79EFB001B02283B
:100DF00009D828688001F7D51BE000BFFFF794FBF6
:100E0000001B022802D90320BDE8F88F2868800162
:100E1000F4D40EE00128F7D06868226A00F480312B
:100E2000914204D1616A00F47010884201D001201F
:100E3000EAE70020E8E7000000100240000042421C
:100E4000800442420C0000200070004010B5401E9B
:100E5000B0F1807F01D3012010BD4FF0E02460612C
:100E60000F21601700F0AAFE0020A061072020617A
:100E7000002010BD70477047F8B501680446086847
:100E8000CA684B6910F00F0F4FF0000559D003F0FE
:100E9000010602F49077374365D0C10705D0D1052C
:100EA00003D5616C41F001016164410705D5D907A3
:100EB00003D0616C41F002016164810705D5D90757
:100EC00003D0616C41F004016164010707D502F0B1
:100ED0002001314303D0616C41F008016164616C11
:100EE00000293AD0800604D5900602D5204600F0AD
:100EF00038FD20684069616CC0F38010090700D498
:100F000060B3204600F006FD20684069400621D508
:100F10002068143050E8001F21F0400140E8001222
:100F2000002AF5D1E06BA8B16D494163E06BFFF792
:100F300067F9002811D0E06B416B01B0BDE8F040CB
:100F4000084783060FD593060DD52046BDE8F84027
:100F500000F007BD2046FFF78EFFF8BD2046FFF7E3
:100F60008AFF6564F8BD266B2023012E7CD1C6065E
:100F70007AD5D60678D508684868009048694FF059
:100F80000206400640D5E16B086840680004000C8A
:100F9000E8D0A28D8242E5D9E085886920282DD04D
:100FA00020680C3050E8001F21F4807140E80012E6
:100FB000002AF5D12068143050E8001F21F001010B
:100FC00040E80012002AF5D12068143050E8001FD4
:100FD00021F0400140E80012002AF5D184F84230A7
:100FE000256320680C3050E8001F21F0100140E814
:100FF0000012002AF5D1E06BFFF7DEF86663A08DE2
:10100000E18D401A81B22AE0A08DE18D401A81B2B3
:10101000E08D0028A6D00029A4D022680C3252E826
:10102000000F20F4907042E80007002FF5D12068EF
:10103000143050E8002F22F0010240E80027002F72
:10104000F5D184F84230256320680C3050E8002F39
:1010500022F0100240E80023002BF5D16663204601
:10106000FFF708FFF8BDFFE705062BD5150629D5C4
:1010700094F841002128F5D1A068B0F5805F01D136
:101080002069B0B1206A411C216221680078486063
:10109000E08C401E0004000CE084E3D12068C168AD
:1010A00021F08001C1602068C16841F04001C16049
:1010B000D8E7206A0088C0F308004860206A801CD6
:1010C0002062E5E74006CDD55006CBD5CA6820465C
:1010D00022F04002CA6084F8413000F0C3F8C1E752
:1010E0000519000870B5040004D094F841000025EB
:1010F00010B106E0012070BD84F84050204600F099
:1011000023F8242084F841002068C16821F40051AC
:10111000C160204600F086FC2068016921F49041FE
:1011200001612068416921F02A0141612068C1689C
:1011300041F40051C1606564202084F8410084F8C6
:1011400042006563002070BD30B585B00024009476
:101150000194029403940068184988422CD11848DD
:10116000816941F480418161816901F48041049188
:10117000816941F0040181618069124D00F0040031
:1011800004904FF40070009002200190032003901F
:1011900069462846FFF7CCF82815CDE900046946D2
:1011A00028460294FFF7C4F8002211462520FFF7D5
:1011B000AFFB2520FFF79EFB05B030BD0038014096
:1011C000001002400008014070472DE9F843044632
:1011D00090F841001F4616460D46202802D00220F6
:1011E000BDE8F8837DB176B100206064212084F8E9
:1011F0004100FFF799F9A6848046E684A068B0F51F
:10120000805F02D003E00120EAE7206910B12E469A
:1012100000250EE000260CE08021204600F05EFC58
:10122000A0B9AEB116F8010B21684860E08C401EF1
:10123000E084E08C43464FF0000200970028EBD199
:101240004FF04001204600F049FC30B10320C7E7D1
:1012500035F8020BC0F30800E6E7202084F84100CF
:101260000020BDE77047FEE701684A69D243520596
:101270000FD46FF480624A61002140F8301F2022B1
:1012800042738173026942F004020261017301201A
:1012900070470020704700002DE9F84304460068BD
:1012A0000D46DDE9089701689846164641F48071BD
:1012B00001604B4600224FF001112046009700F0DC
:1012C0006BF848B120680068C00502D54FF4007083
:1012D00020640320BDE8F883216805F0FE00086162
:1012E0003B464A461549204600F09EF888B92068DA
:1012F0004169806900903A464946204600F0F2F87C
:1013000048B1206C042804D12068016841F40071C0
:1013100001600120DEE7F5B2B8F1010F09D02168C4
:10132000300A08613A464946204600F0DBF80028BA
:10133000E7D1206805610020CCE700000200010031
:1013400070B516460D4604461EE02046FFF78CFF9A
:1013500008B1012070BD681C16D0FFF7E5F8801BAE
:10136000A84200D885B920684069C04340070BD522
:10137000002044F8300F20216173A073216941F0EF
:10138000200121612073E4E720684069C0434007E1
:10139000DBD4002070BD00002DE9F04798461746C9
:1013A0000D460446C1F30746DDF820902AE000BF51
:1013B000B8F1FF3F26D0FFF7B7F8A0EB0901414590
:1013C00002D8B8F1000F1DD12068012E16D0806917
:1013D00025EA00000004000C12D00020B84211D110
:1013E000002044F8300F20216173A073216941F07F
:1013F0002001216120730120BDE8F0874069E7E703
:101400000120EBE72068012E0AD0806925EA000060
:101410000004000C06D00020B842C9D00020EBE741
:101420004069F3E70120F7E72DE9F04798461646B3
:101430000D4604464FF000094FF0200AC1F307475C
:1014400023E020684069C043400515D42068016846
:1014500041F40071016021686FF480604861C4F854
:10146000309084F83DA084F83E90216C41F0040156
:10147000216484F83C9021E0701C06D0FFF754F8FA
:10148000A0EB0800B04203D816B1012F1FD021E015
:101490002068012F15D0806925EA00000004000CA7
:1014A00018D000BF44F8309F84F80DA084F80E9047
:1014B000216941F02001216184F80C900120BDE8F0
:1014C000F087406925EA00000004000CEAD120689A
:1014D000406901E02068806925EA00000004000CF2
:1014E000AFD1ECE770B516460D4604461EE0204627
:1014F000FFF7BAFE08B1012070BD681C16D0FFF7D7
:1015000013F8801BA84200D885B920684069C04301
:1015100000060BD5002044F8300F20216173A07322
:10152000216941F0200121612073E4E720684069CE
:10153000C0430006DBD4002070BD0000094808B598
:10154000816941F004018161816901F00401009128
:10155000816941F008018161806900F00800009014
:1015600008BD0000001002400D4810B50B49016095
:101570000C49416000214FF480428160C0E90312B0
:1015800041618161C1610162FEF7D4FF002803D08F
:10159000BDE81040FEF70EBE10BD00000054004034
:1015A00014000020A08601000C4810B50A49016013
:1015B0004FF416514160002181600C22C160C0E9E6
:1015C00004128161C161FFF78DFD002803D0BDE8E1
:1015D0001040FEF7EFBD10BD00380140680000204C
:1015E000FEE7FEE730B40021084B0A465FF000003A
:1015F00003EBC004401CC0B262548028F8D3491CDD
:10160000C9B20829F2D330BC00F09AB8B00000206B
:1016100010B500218D2000F03CF90021142000F0CD
:1016200038F90021BDE81040AF2000F032B90000C9
:1016300010B57F2816D83F2914D80723A3EBD10370
:1016400001F00701C1F107040121A140064CDBB202
:1016500004EBC000002AC25CC9B201D00A4300E01A
:101660008A43C25410BD0000B000002010B5002114
:10167000AE2000F00EF90021D52000F00AF900217B
:10168000502000F006F90021A82000F002F9002106
:101690003F2000F0FEF80021D32000F0FAF80021EE
:1016A000084600F0F6F80021402000F0F2F8002192
:1016B0008D2000F0EEF80021142000F0EAF800215F
:1016C000202000F0E6F80021022000F0E2F80021DE
:1016D000A12000F0DEF80021C02000F0DAF800219F
:1016E000DA2000F0D6F80021122000F0D2F8002114
:1016F000812000F0CEF80021EF2000F0CAF8002190
:10170000D92000F0C6F80021F12000F0C2F8002135
:10171000DB2000F0BEF80021302000F0BAF80021F4
:10172000A42000F0B6F80021A62000F0B2F80021B5
:10173000AF2000F0AEF8BDE81040FFF753BF000047
:1017400070B5114E002400BF04F1B000C0B20021FA
:1017500000F09FF80021084600F09BF800211020BF
:1017600000F097F85FF0000506EBC5000121005D71
:1017700000F08FF86D1CEDB2802DF5D3641CE4B23F
:10178000082CE1D370BD0000B00000202DE9FF4F10
:101790001D460C468946580700D0012000EBD500B5
:1017A00069084843203A00F0FF0A02F0FF0B0026C8
:1017B00039E00C2D0FD0102D11D0182D35D11C492A
:1017C0000BEBCB0001EB80004FF00008875D380683
:1017D00009D50D9A0AE00BEB4B001649F2E71649C2
:1017E00001EB0B10F0E70D9890B100222146009814
:1017F000FFF71EFF7806641C070EE4B2A4EB090095
:10180000A84207D100984C46401CC0B2009008E0A6
:101810000122EBE708F1010000F0FF08B8F1080F22
:10182000D5D3761CF6B25645C3D3BDE8FF8F000072
:10183000F4260008901C0008042100082DE9F84F48
:1018400004461F46802016460D46A0EB5709C3F1FB
:1018500040084FF0010A16E0A14502D20024E81921
:10186000C5B2A84503DA00242546FFF7BBFECDF834
:1018700000A032783B4629462046FFF787FF04EB5D
:101880005700C4B2761C307820385E28E4D9BDE811
:10189000F88F09B100F078B900F064B9704770476B
:1018A000FEF7D2BF30B58FB028216846FEF763FC43
:1018B00014210AA8FEF75FFC01210804CDE90010FD
:1018C0000024029402250491CDE907504FF4E01062
:1018D00009906846FFF72AF908B172B6FEE70F20B3
:1018E000CDE90A054FF48060CDE90C4002210AA839
:1018F0000E94FFF73FF8002801D072B6FEE70FB054
:1019000030BD704710B5406A0021C185C184FFF722
:10191000B2FA10BD01680C3151E8002F22F4907228
:1019200041E80023002BF5D10168143151E8002F64
:1019300022F0010241E80023002BF5D1016B0129BF
:1019400009D101680C3151E8002F22F0100241E862
:101950000023002BF5D1202180F8421000210163E3
:10196000704708B590F84210222901D0022008BD26
:1019700082684FF480539A4201D1016921B1816A92
:101980009A421BD04AB10AE00268816A5268C2F3E7
:1019900008020A80816A891C08E0026972B1026843
:1019A000526802F07F020A70816A491C8162C18D0F
:1019B000491E0904090CC18503D01BE00268526866
:1019C000F1E70168CA6822F02002CA600168CA68AB
:1019D00022F48072CA6001684A6922F001024A61F9
:1019E000202180F8421000214163026B012A03D0BC
:1019F000FFF7EAFB002008BD016301680C3151E8E4
:101A0000002F22F0100241E80023002BF5D10168DD
:101A10000A68D20602D50A6849680091818DFFF7ED
:101A200029FAE7E770B5044600680169E26821F425
:101A30004051114301612169A0680843616908436D
:101A40002168CA6841F20C639A430243CA60206865
:101A50004169A26921F44071114341611E49206826
:101A6000884202D1FFF72CF801E0FFF719F800EBEC
:101A7000C00101EB0012606864218000B2FBF0F34A
:101A8000B3FBF1F36FF018067343B2FBF0F5B2FB52
:101A9000F0F605EB8305322303EB0515B5FBF1F5F5
:101AA000B6FBF1F605F0F00505EB0615B2FBF0F616
:101AB000B2FBF0F0B0FBF1F06FF01802504306EB10
:101AC000800003EB0010B0FBF1F0216800F00F0084
:101AD0002844886070BD0000003801402DE9F041C5
:101AE000984617460E460446069D27E0681C25D0FA
:101AF0002DB1FEF719FDA0EB0800A8421ED9206801
:101B00000C3050E8001F21F4D07140E80012002A88
:101B1000F5D12068143050E8001F21F0010140E8A1
:101B20000012002AF5D1202084F8410084F84200F8
:101B3000002084F840000320BDE8F08120680068A0
:101B400036EA000004D00020B842CFD00020F3E7EE
:101B50000120F9E70148FFF78FB900006800002075
:101B6000FEE7000001B584B0012104A864228DE8DD
:101B700007000B46002278210248FEF79FFD05B0C2
:101B800000BD00001400002001B584B0012104A8AC
:101B900064228DE807000B46402278210248FEF7B8
:101BA0008DFD05B000BD000014000020014A02496F
:101BB00000F023B81D1C0008100000200907090EC2
:101BC000002804DB00F1E02080F80014704700F0EA
:101BD0000F0000F1E02080F8141D704702E008C8F3
:101BE000121F08C1002AFAD170477047002001E097
:101BF00001C1121F002AFBD170472DE9F0411646A2
:101C00000F460446002503E03946B047641C6D1CAE
:101C100020780028F8D12846BDE8F08113B54FF6AA
:101C2000FF73012269460248FFF7CFFA00981CBDF6
:101C30006800002008B5FEF70FFEFFF733FEFFF740
:101C40007DFCFFF791FCFFF7AFFCFFF70FFDFFF7FF
:101C5000DFFCFFF775FD0AA0FFF7A8FF102308A21D
:101C600001211846FFF7EAFD00201023009078229A
:101C700019461846FFF78AFD03A0FFF797FFFEE716
:101C800068656C6C6F0000006363636300000000B4
:101C90000000000000000000000000000000000044
:101CA0003F40000000000000000030004000300015
:101CB0004000000009000BC03D000BC03D000900C2
:101CC00018C024407FE0224031800000180024C06A
:101CD0001B000D803240018003801C4027401C8087
:101CE00007400040100060000000000000000000FD
:101CF0000000000000001F80204040200000402025
:101D000020401F8000000000090006001F80060020
:101D100009000000040004003F80040004000000EB
:101D2000001000600000000000000000040004003B
:101D30000400040004000000000000400000000057
:101D400000000000002001C0060038004000000034
:101D50001F802040204020401F80000000001040D5
:101D60003FC000400000000018C021402240244035
:101D70001840000010802040244024401B800000B8
:101D800002000D0011003FC0014000003C802440D3
:101D900024402440238000001F80244024403440FD
:101DA000038000003000200027C038002000000021
:101DB0001B802440244024401B8000001C0022C0C3
:101DC000224022401F800000000000000840000068
:101DD000000000000000000004600000000000009F
:101DE000000004000A0011002080404009000900A2
:101DF0000900090009000000000040402080110097
:101E00000A000400180020002340240018000000ED
:101E10001F802040274029401F400000004007C08D
:101E200039000F0001C0004020403FC02440244042
:101E30001B8000001F802040204020403080000098
:101E400020403FC0204020401F80000020403FC075
:101E500024402E4030C0000020403FC024402E00CF
:101E6000300000000F00108020402240338002002C
:101E700020403FC0040004003FC0204020402040DC
:101E80003FC02040204000000060202020203FC0B4
:101E90002000200020403FC024400B0030C02040E4
:101EA00020403FC020400040004000C03FC03C00F8
:101EB00003C03C003FC0000020403FC00C40230056
:101EC0003FC020001F802040204020401F80000095
:101ED00020403FC024402400180000001F80214003
:101EE000214020E01FA0000020403FC024402600E9
:101EF00019C0004018C02440244022403180000016
:101F0000300020403FC020403000000020003F80D3
:101F1000004000403F80200020003E0001C007003C
:101F200038002000380007C03C0007C0380000001F
:101F3000204039C0060039C0204000002000384051
:101F400007C0384020000000304021C02640384003
:101F500020C00000000000007FE040204020000082
:101F6000000070000C0003800040000000004020D2
:101F700040207FE000000000000020004000200022
:101F800000000000001000100010001000100010F1
:101F9000000000004000000000000000000002807F
:101FA0000540054003C0004020003FC004400440FD
:101FB000038000000000038004400440064000004D
:101FC00000000380044024403FC000400000038024
:101FD0000540054003400000000004401FC02440AD
:101FE00024402000000002E0055005500650042067
:101FF00020403FC00440040003C0004000000440F3
:1020000027C000400000000000100010041027E06E
:102010000000000020403FC00140070004C0044011
:10202000204020403FC000400040000007C00400A6
:1020300007C0040003C00000044007C004400400BF
:1020400003C00040000003800440044003800000FF
:10205000041007F0045004400380000000000380D7
:102060000440045007F00010044007C00240040080
:1020700004000000000006400540054004C00000C8
:10208000000004001F80044000400000040007809E
:102090000040044007C000400400070004C0018065
:1020A00006000400060001C0070001C00600000091
:1020B000044006C0010006C00440000004100710E0
:1020C00004E00180060004000000044005C0064052
:1020D000044000000000000004007BE040200000FD
:1020E000000000000000FFF00000000000004020A1
:1020F0007BE0040000000000400080004000200061
:10210000200040000000000000000000000000006F
:10211000000000000000000000001FCC000C0000C8
:1021200000000000000008003000600008003000DF
:1021300060000000022003FC1E20022003FC1E2081
:102140000220000000000E1811043FFF10840C78DC
:10215000000000000F0010840F3800C007781884BA
:102160000078000000780F8410C411240E9800E459
:1021700000840008080068007000000000000000F3
:102180000000000000000000000007E01818200414
:1021900040020000000040022004181807E0000080
:1021A000000000000240024001800FF00180024068
:1021B000024000000080008000800FF80080008056
:1021C000008000000001000D000E00000000000073
:1021D000000000000000008000800080008000807F
:1021E000008000800000000C000C000000000000D7
:1021F00000000000000000060018006001800600DA
:1022000018002000000007F0080810041004080857
:1022100007F000000000080408041FFC000400048C
:102220000000000000000E0C101410241044118453
:102230000E0C000000000C18100411041104128888
:102240000C700000000000E00320042408241FFCA0
:102250000024000000001F9810841104110410884D
:1022600010700000000007F008881104110418889D
:102270000070000000001C00100010FC13001C0087
:102280001000000000000E38114410841084114426
:102290000E38000000000700088C10441044088825
:1022A00007F00000000000000000030C030C000019
:1022B0000000000000000000000101060000000016
:1022C0000000000000000080014002200410080807
:1022D000100400000220022002200220022002201E
:1022E0000220000000001004080804100220014031
:1022F0000080000000000E001200100C106C108016
:102300000F00000003E00C1813E4142417C408287D
:1023100007D000000004003C03C41C40074000E458
:10232000001C000410041FFC1104110411040E8889
:102330000070000003E00C181004100410041008D2
:102340001C10000010041FFC1004100410040808E6
:1023500007F0000010041FFC1104110417C410043E
:102360000818000010041FFC1104110017C0100011
:102370000800000003E00C181004100410441C783E
:102380000040000010041FFC1084008000801084B6
:102390001FFC10040000100410041FFC10041004A3
:1023A0000000000000030001100110011FFE1000DA
:1023B0001000000010041FFC110403801464181C9A
:1023C0001004000010041FFC1004000400040004AA
:1023D000000C000010041FFC1F0000FC1F001FFC6D
:1023E0001004000010041FFC0C04030000E010188F
:1023F0001FFC100007F0080810041004100408085F
:1024000007F0000010041FFC108410801080108062
:102410000F00000007F0081810241024101C080AF0
:1024200007F2000010041FFC1104110011C011304C
:102430000E0C000400000E1C1104108410841044C3
:102440001C3800001800100010041FFC10041000BD
:102450001800000010001FF810040004000410040D
:102460001FF8100010001E0011E0001C0070138007
:102470001C0010001FC0103C00E01F0000E0103CDA
:102480001FC000001004180C163401C001C016341F
:10249000180C100410001C00130400FC13041C0092
:1024A000100000000804101C1064108413041C04A5
:1024B000101800000000000000007FFE40024002F3
:1024C00040020000000030000C0003800060001C8F
:1024D0000003000000004002400240027FFE0000B6
:1024E000000000000000000020004000400040000C
:1024F00020000000000100010001000100010001B6
:102500000001000100004000400020000000000029
:10251000000000000000009801240144014401442F
:1025200000FC000410001FFC008801040104008866
:102530000070000000000070008801040104010424
:1025400000880000000000700088010401041108E8
:102550001FFC0004000000F8014401440144014450
:1025600000C800000000010401040FFC1104110464
:1025700011001800000000D601290129012901C914
:102580000106000010041FFC00840100010001048A
:1025900000FC000400000104190419FC00040004FC
:1025A000000000000000000300010101190119FEF4
:1025B0000000000010041FFC0024004001B4010CC6
:1025C000010400000000100410041FFC00040004BB
:1025D00000000000010401FC0104010001FC0104F1
:1025E000010000FC010401FC008401000100010461
:1025F00000FC0004000000F80104010401040104CF
:1026000000F80000010101FF0085010401040088B9
:102610000070000000000070008801040104010542
:1026200001FF00010104010401FC00840104010018
:1026300001800000000000CC0124012401240124B9
:102640000198000000000100010007F801040104E6
:1026500000000000010001F800040004000401086B
:1026600001FC0004010001800170000C00100160F9
:102670000180010001F0010C003001C00030010CAC
:1026800001F0010000000104018C00740170018C54
:1026900001040000010101810171000E00180160B8
:1026A0000180010000000184010C01340144018417
:1026B000010C0000000000000000000001003EFCD2
:1026C000400240020000000000000000FFFF000088
:1026D000000000000000400240023EFC010000003B
:1026E000000000000000600080008000400040000A
:1026F000200020000000000000000000000000009A
:1027000000000000000000000000000000000000C9
:1027100000000000000000000000000000000000B9
:10272000000000000000000F80380FFE380F8038D6
:102730000000000000000000000000000000000099
:1027400000000100000600000C000038000031000D
:10275000000600000C0000380000300000000000FF
:102760000000000061800067F807F98000618000C8
:1027700061800061800061800067F807F980006176
:102780008000000000000000000001C0E003E0F055
:102790000630080418081FFFFE040E080787F00320
:1027A00081E000000000000001F000060C000404BD
:1027B00008060C7001F9C0000E00003BE000EC18A8
:1027C000070808040C180003E00000000001E00006
:1027D00007F003F818041C0804170807E1D003C029
:1027E000E00023B0003C08002008000010000000BA
:1027F0000000000100003100003200001C00000059
:1028000000000000000000000000000000000000C8
:1028100000000000000000000000000000000000B8
:10282000000000007F0001FFC00780F00C001810BE
:102830000004200002000000000000200002100040
:10284000040C00180780F001FFC0007F00000000AA
:102850000000000000000000000000000000000078
:102860004200006600006600003C0000180003FF04
:10287000C0001800003C0000660000660000420036
:102880000000000008000008000008000008000028
:10289000080001FFC0000800000800000800000850
:1028A00000000800000000000001000031000032BC
:1028B00000001C00000000000000000000000000FC
:1028C00000000000000000000000000008000008F8
:1028D00000000800000800000800000800000800D0
:1028E00000080000080000080000000000000000D0
:1028F0000000000038000038000038000000000030
:1029000000000000000000000000000000000000C7
:1029100000000000000600001C00007000018000A4
:102920000E0000380000C0000700001C000030004E
:1029300000000000000000007F8001FFE0038070C5
:10294000060018040008040008060018038070013F
:10295000FFE0007F80000000000000000000010098
:102960000801000801000803FFF807FFF80000084D
:102970000000080000080000000000000000000146
:10298000C03802C058040098040118040218040456
:1029900018061C1803F81801E0F8000000000000F9
:1029A00000000001C0E003C0F004000804080804AF
:1029B000080806180803F41801E7F00001E0000019
:1029C00000000000000000000300000D00001100E6
:1029D00000610000810803010807FFF80FFFF800FD
:1029E00001080001080000000000000000E007FCF2
:1029F000D006080806100806100806100806183841
:102A0000060FF00607C000000000000000000000F4
:102A10003F8001FFE003843002081804100804100E
:102A200008041008071810030FF00007C00000008A
:102A300000000000000003C00007000006000006C0
:102A400000F80607F806180006E000070000060078
:102A50000000000000000001E1E003F7F006341080
:102A6000041808041808040C08040C0806161803B7
:102A7000F3F001C1E000000000000000F80003FCDA
:102A80003003063804020804020804020804041093
:102A90000308F001FFC0007F0000000000000000FC
:102AA000000000000000000000000000703800700E
:102AB0003800703800000000000000000000000036
:102AC0000000000000000000000000000000000006
:102AD000301A00301C000000000000000000000060
:102AE00000000000000000000000000800001400CA
:102AF000002200004100008080010040020020040C
:102B00000010080008000000000000002100002163
:102B10000000210000210000210000210000210010
:102B20000021000021000021000000000000000042
:102B3000000008000804001002002001004000808E
:102B40008000410000220000140000080000000086
:102B500000000003C00004C00004000008003808A2
:102B60000F380808380810000C300007E00003C0D8
:102B700000000000000000003F8000FFE0038070C4
:102B8000020F1006708804C088048308047F88023E
:102B9000C09003012000FE40000008000018000162
:102BA000F8003E0801C20007020007E20000FE0034
:102BB000001FC80001F800003800000804000807E2
:102BC000FFF807FFF80408080408080408080408C8
:102BD0000806180803F41801E7F00001E0000000FF
:102BE000000000003F8001FFE00380700200180435
:102BF00000080400080400080400100600200780F4
:102C0000C000000004000807FFF807FFF8040008F0
:102C1000040008040008040018020010038070017A
:102C2000FFE0007F8000000004000807FFF807FFB6
:102C3000F8040808040808040808040808043E0802
:102C400004000806001801006000000004000807E6
:102C5000FFF807FFF8040808040800040800040847
:102C600000043E0006000006000001800000000095
:102C7000000000003F8001FFE003807006001804A0
:102C800000080402080402080203F00783F00002AF
:102C90000000020004000807FFF807FFF804080816
:102CA00000080000080000080000080004080807E9
:102CB000FFF807FFF804000800000000000004000F
:102CC0000804000804000807FFF807FFF8040008DC
:102CD00004000804000800000000000000000000DC
:102CE00000060000070000010400010400010400C8
:102CF0000307FFFE07FFFC040000040000040000BF
:102D000004000807FFF807FFF8040C08001800008B
:102D10003E0004C7800503C80600F804003804001C
:102D20001800000804000807FFF807FFF80400086F
:102D3000000008000008000008000008000008006B
:102D4000001800006000000004000807FFF807807A
:102D50000807FC00007FC00003F80007C0007800EF
:102D600007800807FFF807FFF804000804000807B9
:102D7000FFF807000803C00000E000003800001E54
:102D8000000007000001C00400F007FFF804000085
:102D9000000000007F8001FFE0038070060018043F
:102DA000000804000806001803003001FFE0007F5F
:102DB0008000000004000807FFF807FFF80404087B
:102DC000040400040400040400040400060C0003CE
:102DD000F80001F000000000000000007F8001FF0B
:102DE000E00380700600880400880400C806003CE8
:102DF00003003E01FFE6007F840000000400080796
:102E0000FFF807FFF8040808040800040C00040F8A
:102E100000040BC00610F003F03801E008000008C1
:102E200000000001E0F803F0300630100418080438
:102E30001808040C08040C080206180207F00781A1
:102E4000E000000001800006000004000004000013
:102E500004000807FFF807FFF80400080400000456
:102E6000000006000001800004000007FFE007FFEB
:102E7000F004001800000800000800000800000826
:102E800000000804001007FFE00400000400000632
:102E9000000007E00007FE00041FE00001F800004A
:102EA000380001E0043E0007C000060000040000F6
:102EB00004000007E00007FFC0041FF80007C00778
:102EC000F80007FF80043FF80007C004F80007007F
:102ED0000004000000000004000806001807C07885
:102EE00005F1C8003E00001F800463E80780F80673
:102EF000001804000800000004000006000007801D
:102F00000007E008047C08001FF80007F800180814
:102F100004E00807000006000004000000000001B3
:102F200000080600380400F80403E8040F08047CD5
:102F30000805F00807C0080700180400600000003A
:102F40000000000000000000000000000000003F42
:102F5000FFFE2000022000022000022000022000CC
:102F60000200000000000000000008000007000050
:102F700000C0000038000006000001C00000300062
:102F8000000E000001000000000000000000200012
:102F9000022000022000022000022000023FFFFE6B
:102FA0000000000000000000000000000000000021
:102FB00000000000000800001000003000002000A9
:102FC00000300000100000080000000000000000B9
:102FD00000000100000100000100000100000100EC
:102FE00000010000010000010000010000010000DC
:102FF00001000001000000000000000000200000AF
:103000002000001000001000000000000000000080
:1030100000000000000000000000000000F00019A7
:10302000F8001B18002208002608002408002410BD
:10303000003FF8001FF8000008000018000000041E
:10304000000007FFF80FFFF000181800100800201C
:1030500008002008003018001FF0000FC00000001A
:103060000000000007C0001FF0001830002008001A
:103070002008002008003C08001C10000060000030
:10308000000000000000000007C0001FF00038181A
:1030900000200800200800200804101007FFF80F87
:1030A000FFF000001000000000000000000000071A
:1030B000C0001FF000123000221800220800220871
:1030C000003208001E10000E20000000000000006A
:1030D000200000200800200801FFF803FFF8062068
:1030E0000804200804200807200003000000000056
:1030F00000000000000E000E6E001FF30031B10052
:1031000020B10020B1003191001F13002E1E0020BD
:103110000E00300000000004000807FFF80FFFF861
:10312000001008002000002000002008003FF800E8
:103130001FF8000008000000000000000000002050
:1031400008002008002008063FF8063FF8000008A5
:10315000000008000008000000000000000000005F
:1031600000000000030000030020010020010020F7
:1031700003063FFE063FFC000000000000000000C8
:1031800000000004000807FFF80FFFF800018800A6
:103190000300002FC00038F800203800200800008D
:1031A00008000000000000000000040008040008FF
:1031B00004000807FFF80FFFF800000800000800EF
:1031C0000008000000000000002008003FF8003F59
:1031D000F8001008002000003FF8003FF800100839
:1031E000002000003FF8003FF80000080000000049
:1031F0002008003FF8003FF80010080010000020F1
:1032000000002008003FF8001FF800000800000040
:103210000000000007C0000FF00018300030080068
:103220002008002008003008001830000FF00007C8
:10323000C0000000000000002001003FFF003FFF31
:10324000001011002009002008002008003038007C
:103250001FF0000FC00000000000000007C0001FAA
:10326000F000381800200800200800200900101184
:10327000001FFF003FFF00000100000000200800C9
:103280002008002008003FF8003FF8000808001060
:10329000080020080020000030000030000000007E
:1032A000000000000000000C78001E180033080029
:1032B00023080021080021880021980030F0003800
:1032C000600000000000000020000020000020003E
:1032D00000FFF003FFF8002008002008002008008D
:1032E0000030000000000000000000002000003F4F
:1032F000F0007FF80000180000080000080020100F
:10330000003FF8007FF00000100000000000000007
:103310002000003000003C00003F800023F000004F
:1033200078000070002380003C0000300000200086
:10333000002000003C00003FE00023F80000E00017
:103340002700003E00003FE00021F80001E0003EC1
:10335000000020000000000020080020080038388D
:10336000003E680027800003C8002CF800383800B1
:10337000201800200800000000000000200000309D
:1033800003003C01003F830023EC00007000238019
:10339000003C0000200000200000000000000000B1
:1033A00000000038080020380020F80023E8002F33
:1033B00088003E0800380800201800007000000057
:1033C00000000000000000000000000000000000FD
:1033D00008000014001FF7FC300006200002000067
:1033E00000000000000000000000000000000000DD
:1033F000000000000000FFFFFF00000000000000D0
:10340000000000000000000000000000000020009C
:10341000023000061FF7FC00140000080000000046
:103420000000000000000000000000000000001884
:10343000000060000040000040000020000010007C
:10344000000800000400000400000C000010000050
:10345000010202030405060708090A0B0C0D0E0FF2
:103460001010000000000000000001020304060725
:103470000809000000000102030400009C34000859
:103480000000002014000000DC1B0008B03400081D
:10349000140000209C080000EC1B00080100000044
:1034A00010000000000000000024F40000000000F4
:0400000508000131BD
:00000001FF
