:020000040800F2
:100000002804002045010008B90800083D04000844
:10001000B5080008C5010008990E0008000000009E
:10002000000000000000000000000000890C000833
:10003000C901000800000000710B0008110E000843
:100040005F0100085F0100085F0100085F01000810
:100050005F0100085F0100085F0100085F01000800
:100060005F0100085F0100085F0100085F010008F0
:100070005F0100085F0100085F0100085F010008E0
:100080005F0100085F0100085F0100085F010008D0
:100090005F0100085F0100085F0100085F010008C0
:1000A0005F0100085F0100085F0100085F010008B0
:1000B0005F0100085F0100085F0100085F010008A0
:1000C0005F0100085F0100085F0100085F01000890
:1000D0005F0100085F0100085F0100085F01000880
:1000E000E90100085F0100085F0100085F010008E6
:1000F0005F0100085F0100085F0100085F01000860
:100100005F0100085F0100085F0100085F0100084F
:100110005F0100085F0100085F0100085F0100083F
:100120005F0100085F0100085F0100085F0100082F
:10013000DFF80CD000F018F800480047D70E000890
:10014000280400200648804706480047FEE7FEE7EF
:10015000FEE7FEE7FEE7FEE7FEE7FEE7FEE7FEE777
:10016000390E000831010008064C074D06E0E06832
:1001700040F0010394E8070098471034AC42F6D3EE
:10018000FFF7DAFFFC1600081C17000808B501216C
:10019000042000F0FFFC4FF48070ADF80000102048
:1001A0008DF8030003208DF802006946044800F032
:1001B000ADF84FF48071024800F03CF908BD000032
:1001C0000008014000BFFEE7704770B504460025F7
:1001D00004E04FF47A7000F0F7FD641E4FF47A707B
:1001E0006043A842F5D870BD10B54FF4005000F040
:1001F0000FF828B100F0DEFA4FF4005000F002F8DA
:1002000010BD00000149086070470000140401405F
:10021000014600200022074B1B6803EA0102054B40
:1002200014331B680B4013B10AB1012000E0002019
:100230007047000000040140002123498279002A10
:100240003AD00A46126803689A430B461A600A1DA0
:10025000126803689A430B1D1A60027911440A68F8
:1002600003681A430A60184A0832126803689A43FE
:10027000154B08331A601A1D126803689A43124B13
:100280000C331A604279102A0ED11A1F12680368C3
:100290001A430D4B08331A601A1D126803681A437B
:1002A000094B0C331A600DE00749427911440A6882
:1002B00003681A430A6005E0027911440A6803687A
:1002C0009A430A60704700000004014030B50022E4
:1002D0008B071C0F0F2303FA04F20B4B8C1053F8FF
:1002E00024309343084C8D1044F8253023468C105D
:1002F00053F824308C07240F00FA04F42343024CF3
:100300008D1044F8253030BD080001402DE9F04142
:10031000024600250026002000230024002791F833
:1003200003C00CF00F0591F803C00CF0100CBCF1E9
:10033000000F03D091F802C04CEA050591F800C007
:10034000BCF1000F31D0146800202BE04FF0010CFD
:100350000CFA00F3B1F800C00CEA03069E4220D16B
:1003600083004FF00F0C0CFA03F7BC4305FA03FCB3
:100370004CEA040491F803C0BCF1280F06D14FF0F9
:10038000010C0CFA00FCC2F814C00AE091F803C09A
:10039000BCF1480F05D14FF0010C0CFA00FCC2F87B
:1003A00010C0401C0828D1D31460B1F800C0BCF1C3
:1003B000FF0F34DD546800202EE000F1080C4FF0F0
:1003C000010808FA0CF3B1F800C00CEA03069E42DB
:1003D00021D183004FF00F0C0CFA03F7BC4305FA50
:1003E00003FC4CEA040491F803C0BCF1280F05D1CA
:1003F00000F1080C08FA0CF8C2F8148091F803C058
:10040000BCF1480F07D100F1080C4FF0010808FAC1
:100410000CF8C2F81080401C0828CED35460BDE808
:10042000F0810246002093680B400BB1012000E0F0
:1004300000207047416170470161704700BFFEE7CF
:1004400070B502460024002500230020958A138BF6
:100450001B0445EA030626F07F4404EA01068E42A7
:1004600001D1012000E0002070BD21B1028842F0DE
:100470000102028004E002884FF6FE731A400280F7
:100480007047000000B585B00121480500F072FBFF
:100490000121082000F07EFB4020ADF80000032081
:1004A0008DF802001C208DF8030069461348FFF701
:1004B0002DFF8020ADF8000069461048FFF726FFA9
:1004C0000020ADF808004BF6FF70ADF80A00782068
:1004D000ADF80C004FF48060ADF80E000001ADF8EF
:1004E00010000748019001A9064800F043F80121D7
:1004F0000448FFF7BAFF05B000BD0000000C014042
:10050000801A06000054004021B1028842F4807233
:10051000028004E002884FF6FF631A4002807047B1
:1005200021B1028842F40072028004E002884FF692
:10053000FF531A40028070470CB50246002000238A
:100540000193009300920B0F019321F07F41019BD7
:100550001BB1009B1433009303E0090C009B18337C
:100560000093009B1B680B400BB1012000E00020B2
:100570000CBD00002DE9F04385B004460D46002671
:10058000B1460427DFF8CC80A6884FF6C07006403D
:10059000684600F00FFBDDF808802F48B8FBF0F04C
:1005A0001FFA80F946EA0906A68020884FF6FE71F8
:1005B0000840208000262949286888420CD82868ED
:1005C0004000B8FBF0F087B2042F00DA04273E4366
:1005D00009F10100208427E0E8884BF6FF7188428A
:1005E00006D1286800EB4000B8FBF0F087B209E0C4
:1005F000286800EBC00101EB0010B8FBF0F087B2F7
:1006000047F48047C7F30B0008B947F0010747F4E8
:10061000004006434FF4967009FB00F04FF47A71E6
:1006200090FBF1F0401C2084A683208840F001005C
:10063000208026884FF6F5300640A888698908434F
:1006400006432680A88929890843208105B0BDE892
:10065000F083000000127A0040420F00A0860100E3
:1006600012B141F0010102E04FF6FE731940018220
:10067000704701827047000070B504460D4600BF08
:100680004FF400311C48FFF757FF0028F8D1012133
:100690001948FFF739FF00BF18491748FFF7D0FE88
:1006A0000028F9D0002278211348FFF7D9FF00BFB6
:1006B00013491148FFF7C4FE0028F9D021460E481F
:1006C000FFF7D7FF00BF0E49891C0B48FFF7B8FEA4
:1006D0000028F8D029460848FFF7CBFF00BF08499B
:1006E000891C0548FFF7ACFE0028F8D0012102481C
:1006F000FFF716FF70BD000000540040010003002A
:100700008200070010B5FFF741FD00F083FB00F009
:10071000A1F800F007F800F025F8FFF7B3FE00F0AD
:1007200043F910BD08B50121142000F033FA01206F
:10073000ADF8000004208DF8030069460748FFF774
:10074000E5FD4FF40050ADF8000004208DF80300E3
:1007500069460348FFF7DAFD08BD000000080140C4
:10076000001001400EB50121112000F013FA4FF4E2
:100770000050ADF8080028208DF80B0002A90C48A5
:10078000FFF7C4FD00F099F80D210220FFF79EFD50
:100790004FF40050009000208DF8040010208DF8D8
:1007A000050001208DF806006846FFF745FD0EBDE7
:1007B0000010014010B500F0D5F84FF40051134877
:1007C00000F03AF801280DD1012311A203210020E5
:1007D00000F058F900201249086001201149C1F8C1
:1007E000840112E04FF40051084800F025F860B988
:1007F00001230DA21946002000F044F90120084908
:10080000086000200749C1F8840110BD00100140B4
:100810006C6967687420736F7572636520202000AF
:1008200094812142008021426E6F206C6967687458
:1008300020736F757263650070B504460D462946D6
:100840002046FFF7EEFD012801D1002070BD0120F8
:10085000FCE7000008B50121082000F09BF92020EA
:10086000ADF8000010208DF8030003208DF8020081
:1008700069460F48FFF74AFD0120ADF800006946C0
:100880000B48FFF743FD0220ADF800006946084819
:10089000FFF73CFD20210648FFF7CEFD012104486B
:1008A000FFF7CAFD02210248FFF7C6FD08BD0000A0
:1008B000000C014000BFFEE7704708B54FF4C06070
:1008C00000F046F828208DF8000001208DF8010086
:1008D0008DF802008DF80300684600F001F808BDAD
:1008E00070B5002100230F22C47804B3154C24688E
:1008F00004F4E064C4F5E064210AC1F10403CA40D1
:10090000447804FA03F184781440214309010E4C21
:100910000678A155047804F01F050124AC40057841
:100920006D11AD0005F1E025C5F8004109E004783E
:1009300004F01F050124AC40044D0678761145F8FB
:10094000264070BD0CED00E000E400E080E100E036
:1009500002490143024A1160704700000000FA0595
:100960000CED00E010B5002000F001F810BD70B5EE
:100970000646002415E004F1B001C8B200F08EFA7A
:10098000002000F08BFA102000F088FA002504E027
:10099000304600F08AFA681CC5B2802DF8DB601C76
:1009A000C4B2082CE7DB70BD10B50120FFF70DFCC9
:1009B000AE2000F073FA202000F070FA102000F052
:1009C0006DFAB02000F06AFAC82000F067FA002043
:1009D00000F064FA102000F061FA402000F05EFAA6
:1009E000812000F05BFAFF2000F058FAA12000F00F
:1009F00055FAA62000F052FAA82000F04FFA3F2046
:100A000000F04CFAA42000F049FAD32000F046FA96
:100A1000002000F043FAD52000F040FAF02000F06A
:100A20003DFAD92000F03AFA222000F037FADA2015
:100A300000F034FA122000F031FADB2000F02EFA38
:100A4000202000F02BFA8D2000F028FA142000F06E
:100A500025FAAF2000F022FA10BD70B504460D460D
:100A600005F1B001C8B200F019FA102141EA1410E2
:100A700000F014FA04F00F0141F0010000F00EFA4A
:100A800070BD00002DE9F0470646894617469A4694
:100A90004FF0000800240025BAF1010F03D0BAF18D
:100AA000020F5ED125E020E0785D203800F0FF08DD
:100AB0007E2E04DD002609F1010000F0FF09494601
:100AC0003046FFF7CAFF002409E008EB4801264A38
:100AD00002EB4101085D00F0E8F9601CC4B2062C8D
:100AE000F3DBB01DC6B2681CC5B2785D0028DBD14F
:100AF00037E032E0785D203800F0FF08782E04DD22
:100B0000002609F1010000F0FF0949463046FFF7D1
:100B1000A4FF002407E004EB0811144A505C00F025
:100B2000C4F9601CC4B2082CF5DB09F10100C1B2A4
:100B30003046FFF792FF002408E004EB081108316B
:100B40000A4A505C00F0B1F9601CC4B2082CF4DB16
:100B500006F10800C6B2681CC5B2785D0028C9D18C
:100B600000BF00BFBDE8F087E20E00080A110008D0
:100B70007047000029B1064AD2690243044BDA618A
:100B800004E0034AD2698243014BDA6170470000F6
:100B90000010024029B1064A92690243044B9A614F
:100BA00004E0034A92698243014B9A617047000056
:100BB0000010024030B500210022002400232D4DFA
:100BC0006D6805F00C0121B1042905D0082923D155
:100BD00005E0294D056022E0274D05601FE0254D09
:100BE0006D6805F47012234D6D6805F4803402259C
:100BF00005EB92421CB9214D554305600BE01D4D9C
:100C00006D6805F400351DB11C4D5543056002E0CB
:100C1000194D5543056002E0174D056000BF00BF48
:100C2000144D6D6805F0F0010909154D6B5C056800
:100C3000DD4045600F4D6D6805F4E061090A104D17
:100C40006B5C4568DD4085600A4D6D6805F4605158
:100C5000C90A0B4D6B5C4568DD40C560054D6D688C
:100C600005F44041890B074D6B5CC568B5FBF3F596
:100C7000056130BD0010024000127A0000093D00FD
:100C80001400002024000020704710B500F002F886
:100C900010BD00000CB500200190009033480068A2
:100CA00040F480303149086000BF3048006800F4EB
:100CB000003000900198401C0190009818B90198EC
:100CC000B0F5A06FF1D12948006800F4003010B1F0
:100CD0000120009001E0002000900098012843D1FD
:100CE0002348006840F01000214908600846006869
:100CF00020F0070008600846006840F00200086025
:100D00001A484068194948600846406848600846E3
:100D1000406840F4806048600846406820F47C10D9
:100D200048600846406840F4E8104860084600689B
:100D300040F08070086000BF0C48006800F0007050
:100D40000028F9D00948406820F0030007494860AE
:100D50000846406840F00200486000BF0348406811
:100D600000F00C000828F9D10CBD00000010024072
:100D70000020024030B50146B1F1807F01D301204F
:100D800030BD21F07F40401E4FF0E02250615017EF
:100D90000F22002807DA13071D0E094B00F00F047D
:100DA000241F1D5503E013071C0E064B1C5400BFE7
:100DB00000204FF0E0229061072010610020DFE763
:100DC00018ED00E000E400E031B5104800684FF491
:100DD0007A71B0FBF1F52846FFF7CCFF002408E05C
:100DE00000BF4FF0E020006900F480300028F8D008
:100DF000641C00988442F3D34FF0E020006920F097
:100E000001004FF0E021086138BD00000000002023
:100E10007047000010B5064800680649B0FBF1F4C1
:100E20002046FFF7A7FF08B100BFFEE710BD000096
:100E300000000020A086010010B51348006840F0B3
:100E400001001149086008464068104908400E49F1
:100E50004860084600680E4908400B49086008468B
:100E6000006820F4802008600846406820F4FE00F6
:100E700048604FF41F008860FFF707FF4FF00060E5
:100E80000449086010BD0000001002400000FFF897
:100E9000FFFFF6FE08ED00E000BFFEE710B50446D8
:100EA00021460020FFF7E8FB10BD10B5044621469F
:100EB0004020FFF7E1FB10BD02E008C8121F08C187
:100EC000002AFAD170477047002001E001C1121FCB
:100ED000002AFBD17047FFF715FCFFF743FD00BF69
:100EE000FEE70000000000000000002F00000000EE
:100EF0000700070000147F147F1400242A7F2A12A1
:100F0000006264081323003649552250000005038F
:100F1000000000001C224100000041221C000014BF
:100F2000083E08140008083E0808000000A0600001
:100F30000008080808080000606000000020100891
:100F40000402003E5149453E0000427F40000042FD
:100F500061514946002141454B31001814127F1060
:100F6000002745454539003C4A494930000171098F
:100F7000050300364949493600064949291E000043
:100F800036360000000056360000000814224100EA
:100F9000001414141414000041221408000201511A
:100FA000090600324959513E007C1211127C007F23
:100FB00049494936003E41414122007F4141221CBE
:100FC000007F49494941007F09090901003E414923
:100FD000497A007F0808087F0000417F4100002017
:100FE00040413F01007F08142241007F40404040C3
:100FF000007F020C027F007F0408107F003E414109
:10100000413E007F09090906003E4151215E007FF3
:10101000091929460046494949310001017F01016A
:10102000003F4040403F001F2040201F003F40380D
:10103000403F00631408146300070870080700614C
:101040005149454300007F41410000552A552A552A
:10105000000041417F0000040201020400404040C2
:101060004040000001020400002054545478007FE6
:101070004844443800384444442000384444487FBD
:1010800000385454541800087E0901020018A4A422
:10109000A47C007F080404780000447D40000040E8
:1010A00080847D00007F102844000000417F4000C4
:1010B000007C04180478007C080404780038444458
:1010C000443800FC242424180018242418FC007C34
:1010D0000804040800485454542000043F444020AD
:1010E000003C4040207C001C2040201C003C403044
:1010F000403C004428102844001CA0A0A07C0044D0
:1011000064544C441414141414140000000000001F
:1011100000000000000000000000000000F80000D7
:101120000000000000333000000000100C06100C1E
:101130000600000000000000000040C07840C078B9
:101140004000043F04043F040400007088FC0830A1
:101150000000001820FF211E0000F008F000E01839
:10116000000000211C031E211E0000F008887000F2
:1011700000001E2123241927211010160E00000044
:1011800000000000000000000000000000E0180463
:101190000200000000071820400000020418E000D0
:1011A00000000040201807000000404080F0804010
:1011B00040000202010F01020200000000F00000E6
:1011C00000000101011F01010100000000000000FA
:1011D000000080B07000000000000000000000006F
:1011E00000000001010101010101000000000000F8
:1011F00000000030300000000000000000008060AF
:101200001804006018060100000000E01008081033
:10121000E000000F102020100F00001010F8000058
:1012200000000020203F20200000007008080888EF
:1012300070000030282422213000003008888848BF
:1012400030000018202020110E000000C02010F8EF
:10125000000000070424243F240000F808888808C0
:1012600008000019212020110E0000E010888818C5
:101270000000000F112020110E0000380808C838A7
:1012800008000000003F0000000000708808088887
:101290007000001C222121221C0000E01008081010
:1012A000E0000000312222110F00000000C0C00049
:1012B000000000000030300000000000008000004E
:1012C000000000008060000000000000804020104E
:1012D0000800000102040810200040404040404047
:1012E00040000404040404040400000810204080AA
:1012F00000000020100804020100007048080808DF
:10130000F0000000003036010000C030C828E810AE
:10131000E0000718272423140B000000C038E00069
:101320000000203C23020227382008F888888870B3
:101330000000203F202020110E00C03008080808BF
:101340003800071820202010080008F808080810A6
:10135000E000203F202020100F0008F88888E808CF
:101360001000203F20202320180008F88888E80873
:101370001000203F200003000000C030080808389B
:10138000000007182020221E020008F808000008AC
:10139000F808203F210101213F20000808F8080833
:1013A00000000020203F2020000000000808F8086E
:1013B0000800C08080807F00000008F888C02818DE
:1013C0000800203F20012638200008F8080000000F
:1013D0000000203F20202020300008F8F800F8F816
:1013E0000800203F003F003F200008F830C0000800
:1013F000F808203F200007183F00E01008080810F8
:10140000E0000F10202020100F0008F8080808083E
:10141000F000203F210101010000E0100808081041
:10142000E0000F18242438504F0008F88888888876
:101430007000203F2000030C30200070880808084E
:1014400038000038202121221C00180808F808085C
:1014500018000000203F2000000008F808000008E5
:10146000F808001F202020201F000878880000C8EE
:101470003808000007380E010000F80800F80008DE
:10148000F800033C0700073C0300081868808068E8
:10149000180820302C03032C30200838C800C83826
:1014A00008000000203F2000000010080808C8388D
:1014B00008002038262120201800000000FE02022B
:1014C00002000000007F40404000000C30C00000DF
:1014D0000000000000010638C00000020202FE0009
:1014E0000000004040407F000000000004020202B3
:1014F00004000000000000000000000000000000E8
:1015000000008080808080808080000202040000D3
:1015100000000000000000000000000080808080CB
:1015200000000019242222223F2008F800808000B9
:101530000000003F112020110E000000008080807C
:101540000000000E11202020110000000080808883
:10155000F800000E112020103F20000080808080C5
:101560000000001F222222221300008080F08888C1
:1015700088180020203F202000000000808080800C
:101580008000006B94949493600008F80080808041
:101590000000203F210000203F200080989800009C
:1015A00000000020203F20200000000000809898CC
:1015B000000000C08080807F000008F8000080806C
:1015C0008000203F24022D302000000808F8000091
:1015D00000000020203F202000008080808080804C
:1015E0008000203F20003F20003F808000808080DE
:1015F0000000203F210000203F20000080808080EC
:101600000000001F202020201F008080008080001C
:10161000000080FFA12020110E00000000808080CB
:101620008000000E112020A0FF808080800080803C
:10163000800020203F212000010000008080808069
:1016400080000033242424241900008080E080805E
:1016500000000000001F20200000808000000080AB
:101660008000001F202020103F208080800000800C
:10167000808000010E30080601008080008000801C
:1016800080800F300C030C300F00008080008080C1
:1016900080000020312E0E312000808080000080EC
:1016A000808080818E70180601000080808080809C
:1016B00080000021302C2221300000000000807CBE
:1016C000020200000000003F404000000000FF0058
:1016D000000000000000FF0000000002027C80000B
:1016E00000000040403F000000000006010102022F
:1016F0000404000000000000000000001C170008A7
:101700000000002028000000B80E00084417000860
:101710002800002000040000C80E000800A24A04AF
:101720000000000000000000010203040607080991
:101730000000000001020304010203040607080977
:041740000204060891
:0400000508000131BD
:00000001FF
